{
  "contracts/TruthPost.sol": {
    "TruthPost": {
      "abi": [
        {
          "inputs": [
            {
              "internalType": "contract IArbitrator",
              "name": "_arbitrator",
              "type": "address"
            },
            {
              "internalType": "bytes",
              "name": "_arbitratorExtraData",
              "type": "bytes"
            },
            {
              "internalType": "string",
              "name": "_metaevidenceIpfsUri",
              "type": "string"
            },
            {
              "internalType": "uint256",
              "name": "_articleWithdrawalTimelock",
              "type": "uint256"
            },
            {
              "internalType": "uint256",
              "name": "_winnerStakeMultiplier",
              "type": "uint256"
            },
            {
              "internalType": "uint256",
              "name": "_loserStakeMultiplier",
              "type": "uint256"
            },
            {
              "internalType": "address payable",
              "name": "_treasury",
              "type": "address"
            }
          ],
          "stateMutability": "nonpayable",
          "type": "constructor"
        },
        {
          "anonymous": false,
          "inputs": [
            {
              "indexed": true,
              "internalType": "address",
              "name": "_newAdmin",
              "type": "address"
            }
          ],
          "name": "AdminUpdate",
          "type": "event"
        },
        {
          "anonymous": false,
          "inputs": [
            {
              "indexed": true,
              "internalType": "uint256",
              "name": "_newWithdrawalTimelock",
              "type": "uint256"
            }
          ],
          "name": "ArticleWithdrawalTimelockUpdate",
          "type": "event"
        },
        {
          "anonymous": false,
          "inputs": [
            {
              "indexed": false,
              "internalType": "uint256",
              "name": "articleAddress",
              "type": "uint256"
            }
          ],
          "name": "ArticleWithdrawn",
          "type": "event"
        },
        {
          "anonymous": false,
          "inputs": [
            {
              "indexed": false,
              "internalType": "uint256",
              "name": "articleAddress",
              "type": "uint256"
            },
            {
              "indexed": false,
              "internalType": "uint256",
              "name": "newTotal",
              "type": "uint256"
            }
          ],
          "name": "BalanceUpdate",
          "type": "event"
        },
        {
          "anonymous": false,
          "inputs": [
            {
              "indexed": true,
              "internalType": "uint256",
              "name": "articleAddress",
              "type": "uint256"
            },
            {
              "indexed": false,
              "internalType": "address",
              "name": "challanger",
              "type": "address"
            },
            {
              "indexed": false,
              "internalType": "uint256",
              "name": "disputeID",
              "type": "uint256"
            }
          ],
          "name": "Challenge",
          "type": "event"
        },
        {
          "anonymous": false,
          "inputs": [
            {
              "indexed": true,
              "internalType": "uint256",
              "name": "_newTaxRate",
              "type": "uint256"
            }
          ],
          "name": "ChallengeTaxRateUpdate",
          "type": "event"
        },
        {
          "anonymous": false,
          "inputs": [
            {
              "indexed": true,
              "internalType": "uint256",
              "name": "disputeId",
              "type": "uint256"
            },
            {
              "indexed": true,
              "internalType": "uint256",
              "name": "round",
              "type": "uint256"
            },
            {
              "indexed": false,
              "internalType": "enum ITruthPost.RulingOptions",
              "name": "ruling",
              "type": "uint8"
            },
            {
              "indexed": true,
              "internalType": "address",
              "name": "contributor",
              "type": "address"
            },
            {
              "indexed": false,
              "internalType": "uint256",
              "name": "amount",
              "type": "uint256"
            }
          ],
          "name": "Contribution",
          "type": "event"
        },
        {
          "anonymous": false,
          "inputs": [
            {
              "indexed": false,
              "internalType": "uint256",
              "name": "articleAddress",
              "type": "uint256"
            }
          ],
          "name": "Debunked",
          "type": "event"
        },
        {
          "anonymous": false,
          "inputs": [
            {
              "indexed": true,
              "internalType": "contract IArbitrator",
              "name": "_arbitrator",
              "type": "address"
            },
            {
              "indexed": true,
              "internalType": "uint256",
              "name": "_disputeID",
              "type": "uint256"
            },
            {
              "indexed": false,
              "internalType": "uint256",
              "name": "_metaEvidenceID",
              "type": "uint256"
            },
            {
              "indexed": false,
              "internalType": "uint256",
              "name": "_evidenceGroupID",
              "type": "uint256"
            }
          ],
          "name": "Dispute",
          "type": "event"
        },
        {
          "anonymous": false,
          "inputs": [
            {
              "indexed": true,
              "internalType": "contract IArbitrator",
              "name": "_arbitrator",
              "type": "address"
            },
            {
              "indexed": true,
              "internalType": "uint256",
              "name": "_evidenceGroupID",
              "type": "uint256"
            },
            {
              "indexed": true,
              "internalType": "address",
              "name": "_party",
              "type": "address"
            },
            {
              "indexed": false,
              "internalType": "string",
              "name": "_evidence",
              "type": "string"
            }
          ],
          "name": "Evidence",
          "type": "event"
        },
        {
          "anonymous": false,
          "inputs": [
            {
              "indexed": true,
              "internalType": "uint256",
              "name": "_newLoserAppealPeriodMultiplier",
              "type": "uint256"
            }
          ],
          "name": "LoserAppealPeriodMultiplierUpdate",
          "type": "event"
        },
        {
          "anonymous": false,
          "inputs": [
            {
              "indexed": true,
              "internalType": "uint256",
              "name": "_newLoserStakeMultiplier",
              "type": "uint256"
            }
          ],
          "name": "LoserStakeMultiplierUpdate",
          "type": "event"
        },
        {
          "anonymous": false,
          "inputs": [
            {
              "indexed": true,
              "internalType": "uint256",
              "name": "_metaEvidenceID",
              "type": "uint256"
            },
            {
              "indexed": false,
              "internalType": "string",
              "name": "_evidence",
              "type": "string"
            }
          ],
          "name": "MetaEvidence",
          "type": "event"
        },
        {
          "anonymous": false,
          "inputs": [
            {
              "indexed": false,
              "internalType": "string",
              "name": "articleID",
              "type": "string"
            },
            {
              "indexed": false,
              "internalType": "uint8",
              "name": "category",
              "type": "uint8"
            },
            {
              "indexed": false,
              "internalType": "uint256",
              "name": "articleAddress",
              "type": "uint256"
            }
          ],
          "name": "NewArticle",
          "type": "event"
        },
        {
          "anonymous": false,
          "inputs": [
            {
              "indexed": true,
              "internalType": "address",
              "name": "_newOwner",
              "type": "address"
            }
          ],
          "name": "OwnershipTransfer",
          "type": "event"
        },
        {
          "anonymous": false,
          "inputs": [
            {
              "indexed": true,
              "internalType": "contract IArbitrator",
              "name": "_arbitrator",
              "type": "address"
            },
            {
              "indexed": true,
              "internalType": "uint256",
              "name": "_disputeID",
              "type": "uint256"
            },
            {
              "indexed": false,
              "internalType": "uint256",
              "name": "_ruling",
              "type": "uint256"
            }
          ],
          "name": "Ruling",
          "type": "event"
        },
        {
          "anonymous": false,
          "inputs": [
            {
              "indexed": true,
              "internalType": "uint256",
              "name": "disputeId",
              "type": "uint256"
            },
            {
              "indexed": true,
              "internalType": "uint256",
              "name": "round",
              "type": "uint256"
            },
            {
              "indexed": true,
              "internalType": "enum ITruthPost.RulingOptions",
              "name": "ruling",
              "type": "uint8"
            }
          ],
          "name": "RulingFunded",
          "type": "event"
        },
        {
          "anonymous": false,
          "inputs": [
            {
              "indexed": false,
              "internalType": "uint256",
              "name": "articleAddress",
              "type": "uint256"
            }
          ],
          "name": "TimelockStarted",
          "type": "event"
        },
        {
          "anonymous": false,
          "inputs": [
            {
              "indexed": true,
              "internalType": "uint256",
              "name": "_byAmount",
              "type": "uint256"
            }
          ],
          "name": "TreasuryBalanceUpdate",
          "type": "event"
        },
        {
          "anonymous": false,
          "inputs": [
            {
              "indexed": true,
              "internalType": "address",
              "name": "_newTreasury",
              "type": "address"
            }
          ],
          "name": "TreasuryUpdate",
          "type": "event"
        },
        {
          "anonymous": false,
          "inputs": [
            {
              "indexed": true,
              "internalType": "uint256",
              "name": "_newWinnerStakeMultiplier",
              "type": "uint256"
            }
          ],
          "name": "WinnerStakeMultiplierUpdate",
          "type": "event"
        },
        {
          "anonymous": false,
          "inputs": [
            {
              "indexed": true,
              "internalType": "uint256",
              "name": "disputeId",
              "type": "uint256"
            },
            {
              "indexed": true,
              "internalType": "uint256",
              "name": "round",
              "type": "uint256"
            },
            {
              "indexed": false,
              "internalType": "enum ITruthPost.RulingOptions",
              "name": "ruling",
              "type": "uint8"
            },
            {
              "indexed": true,
              "internalType": "address",
              "name": "contributor",
              "type": "address"
            },
            {
              "indexed": false,
              "internalType": "uint256",
              "name": "reward",
              "type": "uint256"
            }
          ],
          "name": "Withdrawal",
          "type": "event"
        },
        {
          "inputs": [],
          "name": "ARBITRATOR",
          "outputs": [
            {
              "internalType": "contract IArbitrator",
              "name": "",
              "type": "address"
            }
          ],
          "stateMutability": "view",
          "type": "function"
        },
        {
          "inputs": [],
          "name": "ARTICLE_WITHDRAWAL_TIMELOCK",
          "outputs": [
            {
              "internalType": "uint256",
              "name": "",
              "type": "uint256"
            }
          ],
          "stateMutability": "view",
          "type": "function"
        },
        {
          "inputs": [],
          "name": "LOSER_APPEAL_PERIOD_MULTIPLIER",
          "outputs": [
            {
              "internalType": "uint256",
              "name": "",
              "type": "uint256"
            }
          ],
          "stateMutability": "view",
          "type": "function"
        },
        {
          "inputs": [],
          "name": "LOSER_STAKE_MULTIPLIER",
          "outputs": [
            {
              "internalType": "uint256",
              "name": "",
              "type": "uint256"
            }
          ],
          "stateMutability": "view",
          "type": "function"
        },
        {
          "inputs": [],
          "name": "MULTIPLIER_DENOMINATOR",
          "outputs": [
            {
              "internalType": "uint256",
              "name": "",
              "type": "uint256"
            }
          ],
          "stateMutability": "view",
          "type": "function"
        },
        {
          "inputs": [],
          "name": "NUMBER_OF_LEAST_SIGNIFICANT_BITS_TO_IGNORE",
          "outputs": [
            {
              "internalType": "uint256",
              "name": "",
              "type": "uint256"
            }
          ],
          "stateMutability": "view",
          "type": "function"
        },
        {
          "inputs": [],
          "name": "NUMBER_OF_RULING_OPTIONS",
          "outputs": [
            {
              "internalType": "uint256",
              "name": "",
              "type": "uint256"
            }
          ],
          "stateMutability": "view",
          "type": "function"
        },
        {
          "inputs": [],
          "name": "TREASURY",
          "outputs": [
            {
              "internalType": "address payable",
              "name": "",
              "type": "address"
            }
          ],
          "stateMutability": "view",
          "type": "function"
        },
        {
          "inputs": [],
          "name": "VERSION",
          "outputs": [
            {
              "internalType": "string",
              "name": "",
              "type": "string"
            }
          ],
          "stateMutability": "view",
          "type": "function"
        },
        {
          "inputs": [],
          "name": "WINNER_STAKE_MULTIPLIER",
          "outputs": [
            {
              "internalType": "uint256",
              "name": "",
              "type": "uint256"
            }
          ],
          "stateMutability": "view",
          "type": "function"
        },
        {
          "inputs": [],
          "name": "admin",
          "outputs": [
            {
              "internalType": "address payable",
              "name": "",
              "type": "address"
            }
          ],
          "stateMutability": "view",
          "type": "function"
        },
        {
          "inputs": [
            {
              "internalType": "uint256",
              "name": "_disputeID",
              "type": "uint256"
            }
          ],
          "name": "appealFee",
          "outputs": [
            {
              "internalType": "uint256",
              "name": "arbitrationFee",
              "type": "uint256"
            }
          ],
          "stateMutability": "view",
          "type": "function"
        },
        {
          "inputs": [
            {
              "internalType": "uint80",
              "name": "",
              "type": "uint80"
            }
          ],
          "name": "articleStorage",
          "outputs": [
            {
              "internalType": "address payable",
              "name": "owner",
              "type": "address"
            },
            {
              "internalType": "uint32",
              "name": "withdrawalPermittedAt",
              "type": "uint32"
            },
            {
              "internalType": "uint56",
              "name": "bountyAmount",
              "type": "uint56"
            },
            {
              "internalType": "uint8",
              "name": "category",
              "type": "uint8"
            }
          ],
          "stateMutability": "view",
          "type": "function"
        },
        {
          "inputs": [],
          "name": "categoryCounter",
          "outputs": [
            {
              "internalType": "uint8",
              "name": "",
              "type": "uint8"
            }
          ],
          "stateMutability": "view",
          "type": "function"
        },
        {
          "inputs": [
            {
              "internalType": "uint256",
              "name": "",
              "type": "uint256"
            }
          ],
          "name": "categoryToArbitratorExtraData",
          "outputs": [
            {
              "internalType": "bytes",
              "name": "",
              "type": "bytes"
            }
          ],
          "stateMutability": "view",
          "type": "function"
        },
        {
          "inputs": [
            {
              "internalType": "uint80",
              "name": "_articleStorageAddress",
              "type": "uint80"
            }
          ],
          "name": "challenge",
          "outputs": [],
          "stateMutability": "payable",
          "type": "function"
        },
        {
          "inputs": [
            {
              "internalType": "uint80",
              "name": "_articleStorageAddress",
              "type": "uint80"
            }
          ],
          "name": "challengeFee",
          "outputs": [
            {
              "internalType": "uint256",
              "name": "",
              "type": "uint256"
            }
          ],
          "stateMutability": "view",
          "type": "function"
        },
        {
          "inputs": [],
          "name": "challengeTaxRate",
          "outputs": [
            {
              "internalType": "uint256",
              "name": "",
              "type": "uint256"
            }
          ],
          "stateMutability": "view",
          "type": "function"
        },
        {
          "inputs": [
            {
              "internalType": "address payable",
              "name": "_newAdmin",
              "type": "address"
            }
          ],
          "name": "changeAdmin",
          "outputs": [],
          "stateMutability": "nonpayable",
          "type": "function"
        },
        {
          "inputs": [
            {
              "internalType": "uint256",
              "name": "_newArticleWithdrawalTimelock",
              "type": "uint256"
            }
          ],
          "name": "changeArticleWithdrawalTimelock",
          "outputs": [],
          "stateMutability": "nonpayable",
          "type": "function"
        },
        {
          "inputs": [
            {
              "internalType": "uint256",
              "name": "_newLoserAppealPeriodMultiplier",
              "type": "uint256"
            }
          ],
          "name": "changeLoserAppealPeriodMultiplier",
          "outputs": [],
          "stateMutability": "nonpayable",
          "type": "function"
        },
        {
          "inputs": [
            {
              "internalType": "uint256",
              "name": "_newLoserStakeMultiplier",
              "type": "uint256"
            }
          ],
          "name": "changeLoserStakeMultiplier",
          "outputs": [],
          "stateMutability": "nonpayable",
          "type": "function"
        },
        {
          "inputs": [
            {
              "internalType": "address payable",
              "name": "_newTreasury",
              "type": "address"
            }
          ],
          "name": "changeTreasury",
          "outputs": [],
          "stateMutability": "nonpayable",
          "type": "function"
        },
        {
          "inputs": [
            {
              "internalType": "uint256",
              "name": "_newWinnerStakeMultiplier",
              "type": "uint256"
            }
          ],
          "name": "changeWinnerStakeMultiplier",
          "outputs": [],
          "stateMutability": "nonpayable",
          "type": "function"
        },
        {
          "inputs": [
            {
              "internalType": "uint256",
              "name": "",
              "type": "uint256"
            }
          ],
          "name": "disputes",
          "outputs": [
            {
              "internalType": "address payable",
              "name": "challenger",
              "type": "address"
            },
            {
              "internalType": "enum ITruthPost.RulingOptions",
              "name": "outcome",
              "type": "uint8"
            },
            {
              "internalType": "uint8",
              "name": "articleCategory",
              "type": "uint8"
            },
            {
              "internalType": "bool",
              "name": "resolved",
              "type": "bool"
            },
            {
              "internalType": "uint80",
              "name": "articleStorageAddress",
              "type": "uint80"
            }
          ],
          "stateMutability": "view",
          "type": "function"
        },
        {
          "inputs": [
            {
              "internalType": "uint80",
              "name": "_searchPointer",
              "type": "uint80"
            }
          ],
          "name": "findVacantStorageSlot",
          "outputs": [
            {
              "internalType": "uint256",
              "name": "vacantSlotIndex",
              "type": "uint256"
            }
          ],
          "stateMutability": "view",
          "type": "function"
        },
        {
          "inputs": [
            {
              "internalType": "uint256",
              "name": "_disputeID",
              "type": "uint256"
            },
            {
              "internalType": "enum ITruthPost.RulingOptions",
              "name": "_supportedRuling",
              "type": "uint8"
            }
          ],
          "name": "fundAppeal",
          "outputs": [
            {
              "internalType": "bool",
              "name": "fullyFunded",
              "type": "bool"
            }
          ],
          "stateMutability": "payable",
          "type": "function"
        },
        {
          "inputs": [
            {
              "internalType": "uint256",
              "name": "_disputeID",
              "type": "uint256"
            },
            {
              "internalType": "enum ITruthPost.RulingOptions",
              "name": "_ruling",
              "type": "uint8"
            }
          ],
          "name": "getAmountRemainsToBeRaised",
          "outputs": [
            {
              "internalType": "uint256",
              "name": "",
              "type": "uint256"
            }
          ],
          "stateMutability": "view",
          "type": "function"
        },
        {
          "inputs": [
            {
              "internalType": "uint256",
              "name": "_disputeID",
              "type": "uint256"
            },
            {
              "internalType": "enum ITruthPost.RulingOptions",
              "name": "_ruling",
              "type": "uint8"
            }
          ],
          "name": "getAppealPeriod",
          "outputs": [
            {
              "internalType": "uint256",
              "name": "",
              "type": "uint256"
            },
            {
              "internalType": "uint256",
              "name": "",
              "type": "uint256"
            }
          ],
          "stateMutability": "view",
          "type": "function"
        },
        {
          "inputs": [
            {
              "internalType": "uint256",
              "name": "_disputeID",
              "type": "uint256"
            }
          ],
          "name": "getLastRoundWinner",
          "outputs": [
            {
              "internalType": "uint256",
              "name": "",
              "type": "uint256"
            }
          ],
          "stateMutability": "view",
          "type": "function"
        },
        {
          "inputs": [
            {
              "internalType": "enum ITruthPost.RulingOptions",
              "name": "_ruling",
              "type": "uint8"
            },
            {
              "internalType": "enum ITruthPost.RulingOptions",
              "name": "_lastRoundWinner",
              "type": "uint8"
            }
          ],
          "name": "getReturnOfInvestmentRatio",
          "outputs": [
            {
              "internalType": "uint256",
              "name": "",
              "type": "uint256"
            }
          ],
          "stateMutability": "view",
          "type": "function"
        },
        {
          "inputs": [
            {
              "internalType": "uint256",
              "name": "_disputeID",
              "type": "uint256"
            },
            {
              "internalType": "uint256",
              "name": "_round",
              "type": "uint256"
            }
          ],
          "name": "getRoundInfo",
          "outputs": [
            {
              "internalType": "bool[3]",
              "name": "hasPaid",
              "type": "bool[3]"
            },
            {
              "internalType": "uint256[3]",
              "name": "totalPerRuling",
              "type": "uint256[3]"
            },
            {
              "internalType": "uint256",
              "name": "totalClaimableAfterExpenses",
              "type": "uint256"
            }
          ],
          "stateMutability": "view",
          "type": "function"
        },
        {
          "inputs": [
            {
              "internalType": "uint256",
              "name": "_disputeID",
              "type": "uint256"
            },
            {
              "internalType": "address payable",
              "name": "_contributor",
              "type": "address"
            }
          ],
          "name": "getTotalWithdrawableAmount",
          "outputs": [
            {
              "internalType": "uint256",
              "name": "sum",
              "type": "uint256"
            },
            {
              "internalType": "uint256[][]",
              "name": "amounts",
              "type": "uint256[][]"
            }
          ],
          "stateMutability": "view",
          "type": "function"
        },
        {
          "inputs": [
            {
              "internalType": "uint80",
              "name": "_articleStorageAddress",
              "type": "uint80"
            }
          ],
          "name": "increaseBounty",
          "outputs": [],
          "stateMutability": "payable",
          "type": "function"
        },
        {
          "inputs": [
            {
              "internalType": "string",
              "name": "_articleID",
              "type": "string"
            },
            {
              "internalType": "uint8",
              "name": "_category",
              "type": "uint8"
            },
            {
              "internalType": "uint80",
              "name": "_searchPointer",
              "type": "uint80"
            }
          ],
          "name": "initializeArticle",
          "outputs": [],
          "stateMutability": "payable",
          "type": "function"
        },
        {
          "inputs": [
            {
              "internalType": "uint80",
              "name": "_articleStorageAddress",
              "type": "uint80"
            }
          ],
          "name": "initiateWithdrawal",
          "outputs": [],
          "stateMutability": "nonpayable",
          "type": "function"
        },
        {
          "inputs": [
            {
              "internalType": "string",
              "name": "_metaevidenceIpfsUri",
              "type": "string"
            },
            {
              "internalType": "bytes",
              "name": "_arbitratorExtraData",
              "type": "bytes"
            }
          ],
          "name": "newCategory",
          "outputs": [],
          "stateMutability": "nonpayable",
          "type": "function"
        },
        {
          "inputs": [
            {
              "internalType": "uint256",
              "name": "_disputeID",
              "type": "uint256"
            },
            {
              "internalType": "uint256",
              "name": "_ruling",
              "type": "uint256"
            }
          ],
          "name": "rule",
          "outputs": [],
          "stateMutability": "nonpayable",
          "type": "function"
        },
        {
          "inputs": [
            {
              "internalType": "uint256",
              "name": "_disputeID",
              "type": "uint256"
            },
            {
              "internalType": "string",
              "name": "_evidenceURI",
              "type": "string"
            }
          ],
          "name": "submitEvidence",
          "outputs": [],
          "stateMutability": "nonpayable",
          "type": "function"
        },
        {
          "inputs": [],
          "name": "switchPublishingLock",
          "outputs": [],
          "stateMutability": "nonpayable",
          "type": "function"
        },
        {
          "inputs": [],
          "name": "transferBalanceToTreasury",
          "outputs": [],
          "stateMutability": "nonpayable",
          "type": "function"
        },
        {
          "inputs": [
            {
              "internalType": "uint80",
              "name": "_articleStorageAddress",
              "type": "uint80"
            },
            {
              "internalType": "address payable",
              "name": "_newOwner",
              "type": "address"
            }
          ],
          "name": "transferOwnership",
          "outputs": [],
          "stateMutability": "nonpayable",
          "type": "function"
        },
        {
          "inputs": [],
          "name": "treasuryBalance",
          "outputs": [
            {
              "internalType": "uint256",
              "name": "",
              "type": "uint256"
            }
          ],
          "stateMutability": "view",
          "type": "function"
        },
        {
          "inputs": [
            {
              "internalType": "uint256",
              "name": "_newChallengeTaxRate",
              "type": "uint256"
            }
          ],
          "name": "updateChallengeTaxRate",
          "outputs": [],
          "stateMutability": "nonpayable",
          "type": "function"
        },
        {
          "inputs": [
            {
              "internalType": "uint80",
              "name": "_articleStorageAddress",
              "type": "uint80"
            }
          ],
          "name": "withdraw",
          "outputs": [],
          "stateMutability": "nonpayable",
          "type": "function"
        },
        {
          "inputs": [
            {
              "internalType": "uint256",
              "name": "_disputeID",
              "type": "uint256"
            },
            {
              "internalType": "address payable",
              "name": "_contributor",
              "type": "address"
            },
            {
              "internalType": "uint256",
              "name": "_roundNumber",
              "type": "uint256"
            },
            {
              "internalType": "enum ITruthPost.RulingOptions",
              "name": "_ruling",
              "type": "uint8"
            }
          ],
          "name": "withdrawFeesAndRewards",
          "outputs": [
            {
              "internalType": "uint256",
              "name": "amount",
              "type": "uint256"
            }
          ],
          "stateMutability": "nonpayable",
          "type": "function"
        },
        {
          "inputs": [
            {
              "internalType": "uint256",
              "name": "_disputeID",
              "type": "uint256"
            },
            {
              "internalType": "address payable",
              "name": "_contributor",
              "type": "address"
            },
            {
              "internalType": "enum ITruthPost.RulingOptions",
              "name": "_ruling",
              "type": "uint8"
            }
          ],
          "name": "withdrawFeesAndRewardsForAllRounds",
          "outputs": [],
          "stateMutability": "nonpayable",
          "type": "function"
        },
        {
          "inputs": [
            {
              "internalType": "uint256",
              "name": "_disputeID",
              "type": "uint256"
            },
            {
              "internalType": "address payable",
              "name": "_contributor",
              "type": "address"
            }
          ],
          "name": "withdrawFeesAndRewardsForAllRoundsAndAllRulings",
          "outputs": [],
          "stateMutability": "nonpayable",
          "type": "function"
        },
        {
          "inputs": [
            {
              "internalType": "uint256",
              "name": "_disputeID",
              "type": "uint256"
            },
            {
              "internalType": "address payable",
              "name": "_contributor",
              "type": "address"
            },
            {
              "internalType": "uint256[][]",
              "name": "positions",
              "type": "uint256[][]"
            }
          ],
          "name": "withdrawFeesAndRewardsForGivenPositions",
          "outputs": [],
          "stateMutability": "nonpayable",
          "type": "function"
        }
      ],
      "devdoc": {
        "author": "https://github.com/proveuswrong<0xferit, gratestas>",
        "custom:approvals": "0xferit, gratestas",
        "details": "You should target ITruthPost interface contract for building on top. Otherwise you risk incompatibility across versions.         Articles are not addressed with their identifiers. That enables us to reuse same storage address for another article later.///         Arbitrator is fixed, but subcourts, jury size and metaevidence are not.         We prevent articles to get withdrawn immediately. This is to prevent submitter to escape punishment in case someone discovers an argument to debunk the article.         Bounty amounts are compressed with a lossy compression method to save on storage cost.",
        "kind": "dev",
        "methods": {
          "appealFee(uint256)": {
            "details": "Returns the total amount needs to be paid to appeal a dispute, including fees and stake deposit.",
            "params": {
              "_disputeID": "ID of the dispute as in arbitrator."
            }
          },
          "challenge(uint80)": {
            "details": "Challenges the article at the given storage address. Emits Challenge.",
            "params": {
              "_articleStorageAddress": "The address of the article in the storage."
            }
          },
          "challengeFee(uint80)": {
            "details": "Returns the total amount needs to be paid to challenge an article, including taxes if any.",
            "params": {
              "_articleStorageAddress": "The address of article in the storage."
            }
          },
          "changeAdmin(address)": {
            "details": "Only the current administrator can call this function. Emits AdminUpdate.",
            "params": {
              "_newAdmin": "The address of the new administrator."
            }
          },
          "changeArticleWithdrawalTimelock(uint256)": {
            "details": "Sets the timelock before an author can initiate the withdrawal of an article to a new value.       Emits ArticleWithdrawalTimelockUpdate.",
            "params": {
              "_newArticleWithdrawalTimelock": "The new value of ARTICLE_WITHDRAWAL_TIMELOCK."
            }
          },
          "changeLoserAppealPeriodMultiplier(uint256)": {
            "details": "Sets the multiplier of the appeal window for the loser to a new value. Emits LoserAppealPeriodMultiplierUpdate.",
            "params": {
              "_newLoserAppealPeriodMultiplier": "The new value of LOSER_APPEAL_PERIOD_MULTIPLIER."
            }
          },
          "changeLoserStakeMultiplier(uint256)": {
            "details": "Sets the multiplier of the arbitration cost that the loser has to pay as fee stake to a new value.       Emits LoserStakeMultiplierUpdate.",
            "params": {
              "_newLoserStakeMultiplier": "The new value of LOSER_STAKE_MULTIPLIER."
            }
          },
          "changeTreasury(address)": {
            "details": "Only the current administrator can call this function. Emits TreasuryUpdate.",
            "params": {
              "_newTreasury": "The address of the new treasury."
            }
          },
          "changeWinnerStakeMultiplier(uint256)": {
            "details": "Sets the multiplier of the arbitration cost that the winner has to pay as fee stake to a new value.       Emits WinnerStakeMultiplierUpdate.",
            "params": {
              "_newWinnerStakeMultiplier": "The new value of WINNER_STAKE_MULTIPLIER."
            }
          },
          "findVacantStorageSlot(uint80)": {
            "details": "Helper function to find a vacant slot for article. Use this function before calling initialize to minimize your gas cost.",
            "params": {
              "_searchPointer": "Starting point of the search. If you do not have a guess, just pass 0."
            }
          },
          "fundAppeal(uint256,uint8)": {
            "details": "Lets user to contribute funding of an appeal round. Emits Contribution. If fully funded, emits RulingFunded.",
            "params": {
              "_disputeID": "The dispute ID as in arbitrator.",
              "_ruling": "The ruling option to which the caller wants to contribute."
            },
            "returns": {
              "fullyFunded": "True if the ruling option got fully funded as a result of this contribution."
            }
          },
          "getAmountRemainsToBeRaised(uint256,uint8)": {
            "params": {
              "_disputeID": "The dispute ID as in arbitrator.",
              "_ruling": "The ruling option to query."
            },
            "returns": {
              "_0": "Amount needs to be raised"
            }
          },
          "getAppealPeriod(uint256,uint8)": {
            "params": {
              "_disputeID": "The dispute ID as in arbitrator.",
              "_ruling": "The ruling option to query."
            },
            "returns": {
              "_0": "Start",
              "_1": "End"
            }
          },
          "getLastRoundWinner(uint256)": {
            "params": {
              "_disputeID": "The dispute ID as in arbitrator."
            },
            "returns": {
              "_0": "Winning ruling option."
            }
          },
          "getReturnOfInvestmentRatio(uint8,uint8)": {
            "details": "Purely depends on whether given ruling option is winner and stake multipliers.",
            "params": {
              "_lastRoundWinner": "Winner of the last round.",
              "_ruling": "The ruling option to query."
            },
            "returns": {
              "_0": "Return of investment ratio, denominated by MULTIPLIER_DENOMINATOR."
            }
          },
          "getRoundInfo(uint256,uint256)": {
            "params": {
              "_disputeID": "The dispute ID as in arbitrator.",
              "_round": "Round ID."
            },
            "returns": {
              "hasPaid": "Whether given ruling option was fully funded.",
              "totalClaimableAfterExpenses": "Total amount will be distributed back to winners, after deducting expenses.",
              "totalPerRuling": "The total raised per ruling option."
            }
          },
          "getTotalWithdrawableAmount(uint256,address)": {
            "details": "Returns the sum of withdrawable amount and 2D array of positions[round][ruling].",
            "params": {
              "_contributor": "Beneficiary of withdraw operation.",
              "_disputeID": "The dispute ID as in arbitrator."
            },
            "returns": {
              "sum": "The total amount available to withdraw."
            }
          },
          "increaseBounty(uint80)": {
            "details": "Lets author to increase a bounty of a live article. Emits BalanceUpdate.",
            "params": {
              "_articleStorageAddress": "The address of the article in the storage."
            }
          },
          "initializeArticle(string,uint8,uint80)": {
            "details": "Do not confuse articleID with articleAddress. Emits NewArticle.",
            "params": {
              "_articleID": "Unique identifier of an article in IPFS content identifier format.",
              "_category": "The category code of this new article.",
              "_searchPointer": "Starting point of the search. Find a vacant storage slot before calling this function to minimize gas cost."
            }
          },
          "initiateWithdrawal(uint80)": {
            "details": "Lets an author to start unpublishing process. Emits TimelockStarted.",
            "params": {
              "_articleStorageAddress": "The address of the article in the storage."
            }
          },
          "newCategory(string,bytes)": {
            "params": {
              "_arbitratorExtraData": "Extra data of Kleros arbitrator, signaling subcourt and jury size selection.",
              "_metaevidenceIpfsUri": "IPFS content identifier for metaevidence."
            }
          },
          "rule(uint256,uint256)": {
            "details": "This is only for arbitrator to use.",
            "params": {
              "_disputeID": "The dispute ID as in arbitrator.",
              "_ruling": "Winning ruling option."
            }
          },
          "submitEvidence(uint256,string)": {
            "params": {
              "_disputeID": "The dispute ID as in arbitrator.",
              "_evidenceURI": "IPFS path to evidence, example: '/ipfs/Qmarwkf7C9RuzDEJNnarT3WZ7kem5bk8DZAzx78acJjMFH/evidence.json'"
            }
          },
          "switchPublishingLock()": {
            "details": "Useful when it's no longer safe or secure to use this contract.         Prevents new articles to be published. Only intended for privileges users."
          },
          "transferBalanceToTreasury()": {
            "details": "Allows the contract to send its entire balance to the treasury address.         It is important to ensure that the treasury address is set correctly.         If the transfer fails, an exception will be raised, and the funds will remain in the contract.         Emits TreasuryBalanceUpdate."
          },
          "transferOwnership(uint80,address)": {
            "details": "Lets you to transfer ownership of an article.       This is useful when you want to change owner account without withdrawing and resubmitting.       Emits OwnershipTransfer.",
            "params": {
              "_articleStorageAddress": "The address of article in the storage.",
              "_newOwner": "The new owner of the article which resides in the storage address, provided by the previous parameter."
            }
          },
          "updateChallengeTaxRate(uint256)": {
            "details": "The new challenge tax rate must be at most 25% based on MULTIPLIER_DENOMINATOR.         Only the current administrator can call this function. Emits ChallengeTaxRateUpdate.",
            "params": {
              "_newChallengeTaxRate": "The new challenge tax rate to be set."
            }
          },
          "withdraw(uint80)": {
            "details": "Executes unpublishing of an article. Emits Withdrew.",
            "params": {
              "_articleStorageAddress": "The address of the article in the storage."
            }
          },
          "withdrawFeesAndRewards(uint256,address,uint256,uint8)": {
            "details": "Allows to withdraw any reimbursable fees or rewards after the dispute gets resolved.",
            "params": {
              "_contributor": "Beneficiary of withdraw operation.",
              "_disputeID": "The dispute ID as in arbitrator.",
              "_round": "Number of the round that caller wants to execute withdraw on.",
              "_ruling": "A ruling option that caller wants to execute withdraw on."
            },
            "returns": {
              "amount": "The amount that is going to be transferred to contributor as a result of this function call."
            }
          },
          "withdrawFeesAndRewardsForAllRounds(uint256,address,uint8)": {
            "details": "Allows to withdraw any rewards or reimbursable fees after the dispute gets resolved for all rounds at once.",
            "params": {
              "_contributor": "Beneficiary of withdraw operation.",
              "_disputeID": "The dispute ID as in arbitrator.",
              "_ruling": "Ruling option that caller wants to execute withdraw on."
            }
          },
          "withdrawFeesAndRewardsForAllRoundsAndAllRulings(uint256,address)": {
            "details": "Allows to withdraw any rewards or reimbursable fees after the dispute gets resolved for all rounds and all rulings at once.",
            "params": {
              "_contributor": "Beneficiary of withdraw operation.",
              "_disputeID": "The dispute ID as in arbitrator."
            }
          },
          "withdrawFeesAndRewardsForGivenPositions(uint256,address,uint256[][])": {
            "details": "Allows to withdraw any rewards or reimbursable fees after the dispute gets resolved for given positions at once.",
            "params": {
              "_contributor": "Beneficiary of withdraw operation.",
              "_disputeID": "The dispute ID as in arbitrator.",
              "positions": "[rounds][rulings]."
            }
          }
        },
        "title": "The Trust Post",
        "version": 1
      },
      "evm": {
        "bytecode": {
          "linkReferences": {},
          "object": "60a06040526000805460ff1916600117905561020060025560106006556007805433610100026001600160a81b03199091161790553480156200004157600080fd5b50604051620044f9380380620044f9833981016040819052620000649162000389565b600384905560048390556005829055600080546001600160a01b0380841661010002610100600160a81b0319909216919091179091558716608052620000ab8587620000b8565b5050505050505062000539565b600754620000cb9060ff16600162000466565b60ff166200011f5760405162461bcd60e51b815260206004820181905260248201527f4e6f207370616365206c65667420666f722061206e65772063617465676f7279604482015260640160405180910390fd5b60075460405160ff909116907f61606860eb6c87306811e2695215385101daab53bd6ab4e9f9049aead9363c7d906200015a9085906200048e565b60405180910390a2600754819060089060ff1660408110620001805762000180620004c3565b01908051906020019062000196929190620001c9565b506007805460ff16906000620001ac83620004d9565b91906101000a81548160ff021916908360ff160217905550505050565b828054620001d790620004fc565b90600052602060002090601f016020900481019282620001fb576000855562000246565b82601f106200021657805160ff191683800117855562000246565b8280016001018555821562000246579182015b828111156200024657825182559160200191906001019062000229565b506200025492915062000258565b5090565b5b8082111562000254576000815560010162000259565b6001600160a01b03811681146200028557600080fd5b50565b634e487b7160e01b600052604160045260246000fd5b60005b83811015620002bb578181015183820152602001620002a1565b83811115620002cb576000848401525b50505050565b60006001600160401b0380841115620002ee57620002ee62000288565b604051601f8501601f19908116603f0116810190828211818310171562000319576200031962000288565b816040528093508581528686860111156200033357600080fd5b620003438660208301876200029e565b5050509392505050565b600082601f8301126200035f57600080fd5b6200037083835160208501620002d1565b9392505050565b805162000384816200026f565b919050565b600080600080600080600060e0888a031215620003a557600080fd5b8751620003b2816200026f565b60208901519097506001600160401b0380821115620003d057600080fd5b818a0191508a601f830112620003e557600080fd5b620003f68b835160208501620002d1565b975060408a01519150808211156200040d57600080fd5b506200041c8a828b016200034d565b955050606088015193506080880151925060a088015191506200044260c0890162000377565b905092959891949750929550565b634e487b7160e01b600052601160045260246000fd5b600060ff821660ff84168060ff0382111562000486576200048662000450565b019392505050565b6020815260008251806020840152620004af8160408501602087016200029e565b601f01601f19169190910160400192915050565b634e487b7160e01b600052603260045260246000fd5b600060ff821660ff811415620004f357620004f362000450565b60010192915050565b600181811c908216806200051157607f821691505b602082108114156200053357634e487b7160e01b600052602260045260246000fd5b50919050565b608051613f49620005b0600039600081816105fb01528181610b5f01528181610bed01528181610dd301528181611210015281816113ae0152818161178801528181611bb601528181611cfc015281816120af01528181612245015281816122f4015281816127b801526128b20152613f496000f3fe60806040526004361061031e5760003560e01c806392239dff116101a5578063ba0ec60b116100ec578063d970d18c11610095578063f851a4401161006f578063f851a440146109ad578063fc0ac672146109d2578063fe6ca782146109e8578063ffa1ad74146109fe57600080fd5b8063d970d18c14610962578063dc227fc214610977578063e349ad301461099757600080fd5b8063c9330c0f116100c6578063c9330c0f1461090c578063c94828f01461092c578063d3b476b11461094c57600080fd5b8063ba0ec60b146108ce578063bc0936fd146108e3578063be467604146108f657600080fd5b8063adc7faba1161014e578063b34bfaa811610128578063b34bfaa814610883578063b4c7058114610899578063b7bddc72146108b957600080fd5b8063adc7faba14610815578063af4a914414610835578063b14f2a391461086357600080fd5b8063a509efeb1161017f578063a509efeb146107b5578063a6a7f0eb146107d5578063ab9cd37e146107f557600080fd5b806392239dff1461075557806392e2592514610775578063956dcbd21461079557600080fd5b8063564a565d11610269578063736ed418116102125780637f67bd6c116101ec5780637f67bd6c146106e65780638a9bb02a146107065780638f2839701461073557600080fd5b8063736ed4181461061d5780637597b3cb1461063057806378431ce91461064557600080fd5b806367284f211161024357806367284f21146105a95780636760aeb0146105c957806368871c9c146105e957600080fd5b8063564a565d146104da578063638af3da1461055457806364ff9dfa1461058957600080fd5b806329238089116102cb578063313dab20116102a5578063313dab20146104775780634c55c0001461048d5780634de12db0146104ad57600080fd5b806329238089146104075780632d2c55651461041a578063311a6c561461045757600080fd5b806315f36ebe116102fc57806315f36ebe146103995780631e26de34146103c757806326804bef146103e757600080fd5b806303624fc01461032357806306bcbd731461035457806312b3a2c014610376575b600080fd5b34801561032f57600080fd5b5060075461033d9060ff1681565b60405160ff90911681526020015b60405180910390f35b34801561036057600080fd5b5061037461036f366004613578565b610a47565b005b6103896103843660046135ba565b610b39565b604051901515815260200161034b565b3480156103a557600080fd5b506103b96103b43660046135dd565b611335565b60405190815260200161034b565b3480156103d357600080fd5b506103b96103e23660046135f8565b611399565b3480156103f357600080fd5b506103746104023660046135f8565b611462565b610374610415366004613653565b611529565b34801561042657600080fd5b5060005461043f9061010090046001600160a01b031681565b6040516001600160a01b03909116815260200161034b565b34801561046357600080fd5b506103746104723660046136bf565b61177d565b34801561048357600080fd5b506103b960015481565b34801561049957600080fd5b506103746104a836600461376d565b611a0d565b3480156104b957600080fd5b506104cd6104c83660046135f8565b611b0e565b60405161034b9190613849565b3480156104e657600080fd5b506105436104f53660046135f8565b604960205260009081526040902080546001909101546001600160a01b0382169160ff600160a01b8204811692600160a81b8304821692600160b01b9004909116906001600160501b031685565b60405161034b959493929190613894565b34801561056057600080fd5b5061057461056f3660046135ba565b611bae565b6040805192835260208301919091520161034b565b34801561059557600080fd5b506103b96105a43660046135dd565b611cdb565b3480156105b557600080fd5b506103746105c43660046138d9565b611df4565b3480156105d557600080fd5b506103746105e4366004613963565b611eb8565b3480156105f557600080fd5b5061043f7f000000000000000000000000000000000000000000000000000000000000000081565b61037461062b3660046135dd565b611efd565b34801561063c57600080fd5b506103b9600281565b34801561065157600080fd5b506106a66106603660046135dd565b6048602052600090815260409020546001600160a01b03811690600160a01b810463ffffffff1690600160c01b810466ffffffffffffff1690600160f81b900460ff1684565b604080516001600160a01b03909516855263ffffffff909316602085015266ffffffffffffff9091169183019190915260ff16606082015260800161034b565b3480156106f257600080fd5b506103b96107013660046135f8565b6122db565b34801561071257600080fd5b506107266107213660046136bf565b61236d565b60405161034b9392919061399f565b34801561074157600080fd5b50610374610750366004613a04565b61245d565b34801561076157600080fd5b506103746107703660046135f8565b6124d8565b34801561078157600080fd5b506103746107903660046135f8565b612527565b3480156107a157600080fd5b506103746107b03660046135dd565b612576565b3480156107c157600080fd5b506103b96107d03660046135ba565b6126e3565b3480156107e157600080fd5b506103746107f0366004613a1f565b6128a5565b34801561080157600080fd5b506103746108103660046135dd565b612918565b34801561082157600080fd5b506103746108303660046135f8565b612b4a565b34801561084157600080fd5b50610855610850366004613a6b565b612b99565b60405161034b929190613a8e565b34801561086f57600080fd5b5061037461087e366004613a04565b612d83565b34801561088f57600080fd5b506103b960055481565b3480156108a557600080fd5b506103b96108b4366004613b20565b612dfc565b3480156108c557600080fd5b50610374612e86565b3480156108da57600080fd5b50610374612eeb565b6103746108f13660046135dd565b612f1b565b34801561090257600080fd5b506103b960025481565b34801561091857600080fd5b50610374610927366004613a6b565b613055565b34801561093857600080fd5b506103746109473660046135f8565b6130bc565b34801561095857600080fd5b506103b960035481565b34801561096e57600080fd5b506103b9602081565b34801561098357600080fd5b506103b9610992366004613b4a565b61310b565b3480156109a357600080fd5b506103b960045481565b3480156109b957600080fd5b5060075461043f9061010090046001600160a01b031681565b3480156109de57600080fd5b506103b960065481565b3480156109f457600080fd5b506103b961040081565b348015610a0a57600080fd5b506104cd6040518060400160405280600581526020017f312e322e3000000000000000000000000000000000000000000000000000000081525081565b6001600160501b038216600090815260486020526040902080546001600160a01b03163314610ae35760405162461bcd60e51b815260206004820152602360248201527f4f6e6c7920617574686f722063616e207472616e73666572206f776e6572736860448201527f69702e000000000000000000000000000000000000000000000000000000000060648201526084015b60405180910390fd5b805473ffffffffffffffffffffffffffffffffffffffff19166001600160a01b03831690811782556040517fdfc39691aec87dc6aa51ff70c0e592f260c54d2ed6c64e8c4c2306da0eec872b90600090a2505050565b6000828152604960205260408082209051631c3db16d60e01b81526004810185905282907f00000000000000000000000000000000000000000000000000000000000000006001600160a01b031690631c3db16d90602401602060405180830381865afa158015610bae573d6000803e3d6000fd5b505050506040513d601f19601f82011682018060405250810190610bd29190613b85565b6002811115610be357610be361385c565b90506000806000807f00000000000000000000000000000000000000000000000000000000000000006001600160a01b031663afe15cfb8a6040518263ffffffff1660e01b8152600401610c3991815260200190565b6040805180830381865afa158015610c55573d6000803e3d6000fd5b505050506040513d601f19601f82011682018060405250810190610c799190613b9e565b915091506000856002811115610c9157610c9161385c565b896002811115610ca357610ca361385c565b1415610d2757814210610d1e5760405162461bcd60e51b815260206004820152602e60248201527f46756e64696e67206d757374206265206d6164652077697468696e207468652060448201527f61707065616c20706572696f642e0000000000000000000000000000000000006064820152608401610ada565b50600454610dcf565b60025461040090610d388585613bd8565b610d429190613bef565b610d4c9190613c0e565b610d569084613c30565b4210610dca5760405162461bcd60e51b815260206004820152603960248201527f46756e64696e67206d757374206265206d6164652077697468696e207468652060448201527f66697273742068616c662061707065616c20706572696f642e000000000000006064820152608401610ada565b506005545b86547f00000000000000000000000000000000000000000000000000000000000000006001600160a01b03169063f23f16e6908c90600890600160a81b900460ff1660408110610e2157610e21613c48565b016040518363ffffffff1660e01b8152600401610e3f929190613d39565b602060405180830381865afa158015610e5c573d6000803e3d6000fd5b505050506040513d601f19601f82011682018060405250810190610e809190613b85565b9450610400610e8f8287613bef565b610e999190613c0e565b610ea39086613c30565b600288015490945089935060009250610ebf9150600190613bd8565b90506000866002018281548110610ed857610ed8613c48565b9060005260206000209060060201905080600101836002811115610efe57610efe61385c565b60038110610f0e57610f0e613c48565b602081049091015460ff601f9092166101000a90041615610f975760405162461bcd60e51b815260206004820152602160248201527f41707065616c206665652068617320616c7265616479206265656e207061696460448201527f2e000000000000000000000000000000000000000000000000000000000000006064820152608401610ada565b60008082600201856002811115610fb057610fb061385c565b60038110610fc057610fc0613c48565b01549050858110610fd45760009150610ff8565b34610fdf8288613bd8565b11610ff357610fee8187613bd8565b610ff5565b345b91505b50336001600160a01b0316838c7f2b4ef80a862edc5616a4e61c11f4a368f33323faca91fa7635d48b85c183e66a8d85604051611036929190613d5a565b60405180910390a433600090815260208390526040902081908560028111156110615761106161385c565b6003811061107157611071613c48565b0160008282546110819190613c30565b92505081905550808260020185600281111561109f5761109f61385c565b600381106110af576110af613c48565b0160008282546110bf9190613c30565b9250508190555084826002018560028111156110dd576110dd61385c565b600381106110ed576110ed613c48565b0154106111bb578160020184600281111561110a5761110a61385c565b6003811061111a5761111a613c48565b015482600501600082825461112f9190613c30565b909155506001905082810185600281111561114c5761114c61385c565b6003811061115c5761115c613c48565b602091828204019190066101000a81548160ff02191690831515021790555089600281111561118d5761118d61385c565b60405184908d907fb5681f036910f38d8c2fa06f2cbedc227ecf03d7c4a358ee9096197b15ff8fd090600090a45b6001820154610100900460ff1680156111de5750600182015462010000900460ff165b156112b15760028801805460010181556000908152600583018054889290611207908490613bd8565b909155505087547f00000000000000000000000000000000000000000000000000000000000000006001600160a01b0316906349912f889088908e90600890600160a81b900460ff166040811061126057611260613c48565b016040518463ffffffff1660e01b815260040161127e929190613d39565b6000604051808303818588803b15801561129757600080fd5b505af11580156112ab573d6000803e3d6000fd5b50505050505b60006112bd8234613bd8565b11156112e957336108fc6112d18334613bd8565b6040518115909202916000818181858888f150505050505b816001018460028111156112ff576112ff61385c565b6003811061130f5761130f613c48565b602081049091015460ff601f9092166101000a9004169850505050505050505092915050565b6000805b604860008461134781613d75565b6001600160501b03919091168252602082019290925260400160002080549194509150600160c01b900466ffffffffffffff1661133957611389600184613d9c565b6001600160501b03169392505050565b600081815260496020526040808220805490917f00000000000000000000000000000000000000000000000000000000000000006001600160a01b03169163f23f16e6918691600891600160a81b90910460ff169081106113fc576113fc613c48565b016040518363ffffffff1660e01b815260040161141a929190613d39565b602060405180830381865afa158015611437573d6000803e3d6000fd5b505050506040513d601f19601f8201168201806040525081019061145b9190613b85565b9392505050565b60075461010090046001600160a01b0316331461147e57600080fd5b6101008111156114f65760405162461bcd60e51b815260206004820152603660248201527f5468652074617820726174652063616e206f6e6c7920626520696e637265617360448201527f65642062792061206d6178696d756d206f6620323525000000000000000000006064820152608401610ada565b600681905560405181907f5100ab374784a62034356f9af3b71ea723c1e89beb5627c6c1dacea1117250b890600090a250565b60075460ff908116908316106115815760405162461bcd60e51b815260206004820152601c60248201527f546869732063617465676f727920646f6573206e6f74206578697374000000006044820152606401610ada565b60005b604860008361159281613d75565b6001600160501b03919091168252602082019290925260400160002080549193509150600160c01b900466ffffffffffffff166115845780547fff00000000000000ffffffff000000000000000000000000000000000000000016337fff00000000000000ffffffffffffffffffffffffffffffffffffffffffffffff1617600160c01b3460201c66ffffffffffffff9081168202929092177effffffffffffffffffffffffffffffffffffffffffffffffffffffffffffff16600160f81b60ff8716021780845504166116ce5760405162461bcd60e51b815260206004820152603960248201527f596f752063616e277420696e697469616c697a6520616e2061727469636c652060448201527f776974686f75742070757474696e67206120626f756e74792e000000000000006064820152608401610ada565b60006116db600184613d9c565b6001600160501b031690507f4f9a2b734331c583faf3f19d1feb5f08b742e016a56fb61379950beaf3e223418686868460405161171b9493929190613ded565b60405180910390a1815460408051838152600160c01b909204602090811b6affffffffffffff0000000016908301527fdf5fc410d3381cc7f0a7fe3af72f4e3cf53ef5787f20554af69035a950e1b2e3910160405180910390a1505050505050565b336001600160a01b037f000000000000000000000000000000000000000000000000000000000000000016146117b257600080fd5b60008281526049602052604081206002810180549192916117d590600190613bd8565b815481106117e5576117e5613c48565b60009182526020822060016006929092020190810154909250610100900460ff161561181357506001611829565b6001820154610100900460ff1615611829575060025b60008082600281111561183e5761183e61385c565b141561185b578460028111156118565761185661385c565b61185d565b815b8454909150819085907fffffffffffffffffffffff00ffffffffffffffffffffffffffffffffffffffff16600160a01b83600281111561189f5761189f61385c565b021790555060018401546001600160501b0316600081815260486020526040902060028360028111156118d4576118d461385c565b141561198b5780547fff00000000000000ffffffffffffffffffffffffffffffffffffffffffffffff811682556040516001600160501b0384168152600160c01b909104602090811b6affffffffffffff0000000016917f8271992f9b3a3f30dc2a464982dc4a136e7357403462443a171a0fb0c6ccc265910160405180910390a16000898152604960205260408082205490516001600160a01b039091169183156108fc02918491818181858888f15050505050505b805463ffffffff60a01b1916815585547fffffffffffffffffff00ffffffffffffffffffffffffffffffffffffffffffff16600160b01b178655604051889033907f394027a5fa6e098a1191094d1719d6929b9abc535fcc0c8f448d6a4e75622276906119fb908b815260200190565b60405180910390a35050505050505050565b600754611a1e9060ff166001613e17565b60ff16611a6d5760405162461bcd60e51b815260206004820181905260248201527f4e6f207370616365206c65667420666f722061206e65772063617465676f72796044820152606401610ada565b60075460405160ff909116907f61606860eb6c87306811e2695215385101daab53bd6ab4e9f9049aead9363c7d90611aa6908590613849565b60405180910390a2600754819060089060ff1660408110611ac957611ac9613c48565b019080519060200190611add92919061348e565b506007805460ff16906000611af183613e3c565b91906101000a81548160ff021916908360ff160217905550505050565b60088160408110611b1e57600080fd5b018054909150611b2d90613c5e565b80601f0160208091040260200160405190810160405280929190818152602001828054611b5990613c5e565b8015611ba65780601f10611b7b57610100808354040283529160200191611ba6565b820191906000526020600020905b815481529060010190602001808311611b8957829003601f168201915b505050505081565b6000806000807f00000000000000000000000000000000000000000000000000000000000000006001600160a01b031663afe15cfb876040518263ffffffff1660e01b8152600401611c0291815260200190565b6040805180830381865afa158015611c1e573d6000803e3d6000fd5b505050506040513d601f19601f82011682018060405250810190611c429190613b9e565b9150915060006104006002548484611c5a9190613bd8565b611c649190613bef565b611c6e9190613c0e565b611c789084613c30565b90506000866002811115611c8e57611c8e61385c565b611c97896122db565b6002811115611ca857611ca861385c565b6002811115611cb957611cb961385c565b14905080611cc8578382611ccb565b83835b95509550505050505b9250929050565b6001600160501b0381166000908152604860205260408082208054909183917f00000000000000000000000000000000000000000000000000000000000000006001600160a01b03169163f7434ea991600891600160f81b90910460ff16908110611d4857611d48613c48565b016040518263ffffffff1660e01b8152600401611d659190613e5c565b602060405180830381865afa158015611d82573d6000803e3d6000fd5b505050506040513d601f19601f82011682018060405250810190611da69190613b85565b600654835491925060009161040091611dd591600160c01b900460201b6affffffffffffff0000000016613bef565b611ddf9190613c0e565b9050611deb8183613c30565b95945050505050565b60005b81811015611eb15760005b838383818110611e1457611e14613c48565b9050602002810190611e269190613e6f565b9050811015611e9e576000848484818110611e4357611e43613c48565b9050602002810190611e559190613e6f565b83818110611e6557611e65613c48565b905060200201351115611e8c57611e8a8686848460028111156109925761099261385c565b505b80611e9681613eb9565b915050611e02565b5080611ea981613eb9565b915050611df7565b5050505050565b6000838152604960205260408120600281015490915b81811015611ef557611ee28686838761310b565b5080611eed81613eb9565b915050611ece565b505050505050565b6001600160501b03811660009081526048602052604090208054600160c01b900466ffffffffffffff16611f735760405162461bcd60e51b815260206004820152601560248201527f4e6f7468696e6720746f206368616c6c656e67652e00000000000000000000006044820152606401610ada565b8054600160a01b900463ffffffff9081161415611fd25760405162461bcd60e51b815260206004820152601e60248201527f546865726520697320616e206f6e676f696e67206368616c6c656e67652e00006044820152606401610ada565b805463ffffffff60a01b191677ffffffff000000000000000000000000000000000000000017815561200382611cdb565b3410156120525760405162461bcd60e51b815260206004820181905260248201527f496e73756666696369656e742066756e647320746f206368616c6c656e67652e6044820152606401610ada565b60065481546000916104009161207f9190600160c01b900460201b6affffffffffffff0000000016613bef565b6120899190613c0e565b9050806001600082825461209d9190613c30565b90915550600090506001600160a01b037f00000000000000000000000000000000000000000000000000000000000000001663c13517e16120de8434613bd8565b8554600290600890600160f81b900460ff166040811061210057612100613c48565b016040518463ffffffff1660e01b815260040161211e929190613d39565b60206040518083038185885af115801561213c573d6000803e3d6000fd5b50505050506040513d601f19601f820116820180604052508101906121619190613b85565b60008181526049602090815260409182902080543373ffffffffffffffffffffffffffffffffffffffff1982168117835560028301805460019081019091558301805469ffffffffffffffffffff19166001600160501b038c1617905588547fffffffffffffffffffff00ff00000000000000000000000000000000000000009092167fffffffffffffffffffff00ffffffffffffffffffffffffffffffffffffffffff90911617600160f81b9182900460ff908116600160a81b029190911790925587548451919004909116815290810183905291925082916001600160a01b037f000000000000000000000000000000000000000000000000000000000000000016917f74baab670a4015ab2f1b467c5252a96141a2573f2908e58a92081e80d3cfde3d910160405180910390a360408051338152602081018390526001600160501b038616917f1e5338a1fb672aa84963dc9f9e4afd009b4ed726debb09224bf4d02a6c68b4e4910160405180910390a250505050565b604051631c3db16d60e01b8152600481018290526000907f00000000000000000000000000000000000000000000000000000000000000006001600160a01b031690631c3db16d90602401602060405180830381865afa158015612343573d6000803e3d6000fd5b505050506040513d601f19601f820116820180604052508101906123679190613b85565b92915050565b612375613512565b61237d613512565b60008481526049602052604081206002018054829190869081106123a3576123a3613c48565b906000526020600020906006020190508060010181600201826005015482600380602002604051908101604052809291908260038015612418576020028201916000905b825461010083900a900460ff1615158152602060019283018181049485019490930390920291018084116123e75790505b505060408051606081019182905294975086935060039250905082845b8154815260200190600101908083116124355750505050509150935093509350509250925092565b60075461010090046001600160a01b0316331461247957600080fd5b6007805474ffffffffffffffffffffffffffffffffffffffff0019166101006001600160a01b038416908102919091179091556040517f0c2515f25186df02132ad46f01e062c3b8982c8de57fa2b1b0a280d8e810f39b90600090a250565b60075461010090046001600160a01b031633146124f457600080fd5b600581905560405181907f505f3bf1e426c82f14f7c9cfb2d31ef5b7bb76428e16bd90dabec113e3d4a2bc90600090a250565b60075461010090046001600160a01b0316331461254357600080fd5b600381905560405181907f207e19e347becb468ef02d25790188e4d5da0fe37176d3bbb7940168ec5d613690600090a250565b6001600160501b038116600090815260486020526040902080546001600160a01b031633146125f35760405162461bcd60e51b8152602060048201526024808201527f4f6e6c7920617574686f722063616e20776974686472617720616e206172746960448201526331b6329760e11b6064820152608401610ada565b8054600160a01b900463ffffffff16156126755760405162461bcd60e51b815260206004820152603560248201527f5769746864726177616c20616c726561647920696e69746961746564206f722060448201527f74686572652069732061206368616c6c656e67652e00000000000000000000006064820152608401610ada565b6003546126829042613c30565b815463ffffffff91909116600160a01b0263ffffffff60a01b199091161781556040516001600160501b03831681527f416c1ad2b96c356f3bbd35431f86cce449ddbb4f8c3755ea9d2776b04c2e9c8f906020015b60405180910390a15050565b60008281526049602052604081206002810154829061270490600190613bd8565b9050600082600201828154811061271d5761271d613c48565b9060005260206000209060060201905060008560028111156127415761274161385c565b61274a886122db565b600281111561275b5761275b61385c565b600281111561276c5761276c61385c565b14905060008161277e57600554612782565b6004545b905060008360020188600281111561279c5761279c61385c565b600381106127ac576127ac613c48565b015486549091506000907f00000000000000000000000000000000000000000000000000000000000000006001600160a01b03169063f23f16e6908c90600890600160a81b900460ff166040811061280657612806613c48565b016040518363ffffffff1660e01b8152600401612824929190613d39565b602060405180830381865afa158015612841573d6000803e3d6000fd5b505050506040513d601f19601f820116820180604052508101906128659190613b85565b905060006104006128768584613bef565b6128809190613c0e565b61288a9083613c30565b90506128968382613bd8565b9b9a5050505050505050505050565b336001600160a01b0316837f00000000000000000000000000000000000000000000000000000000000000006001600160a01b03167fdccf2f8b2cc26eafcd61905cba744cff4b81d14740725f6376390dc6298a6a3c858560405161290b929190613ed4565b60405180910390a4505050565b6001600160501b038116600090815260486020526040902080546001600160a01b031633146129955760405162461bcd60e51b8152602060048201526024808201527f4f6e6c7920617574686f722063616e20776974686472617720616e206172746960448201526331b6329760e11b6064820152608401610ada565b8054600160a01b900463ffffffff16612a165760405162461bcd60e51b815260206004820152602660248201527f596f75206e65656420746f20696e697469617465207769746864726177616c2060448201527f66697273742e00000000000000000000000000000000000000000000000000006064820152608401610ada565b805442600160a01b90910463ffffffff161115612a9b5760405162461bcd60e51b815260206004820152603f60248201527f596f75206e65656420746f207761697420666f722074696d656c6f636b206f7260448201527f207761697420756e74696c20746865206368616c6c656e676520656e64732e006064820152608401610ada565b80547fff0000000000000000000000ffffffffffffffffffffffffffffffffffffffff81168255604051600160c01b90910460201b6affffffffffffff00000000169033906108fc8315029083906000818181858888f19350505050158015612b08573d6000803e3d6000fd5b506040516001600160501b03841681527f70b41d8cca762ceec66d93f536dbb31f5cabbf1901f862508b9438de54fce4eb9060200160405180910390a1505050565b60075461010090046001600160a01b03163314612b6657600080fd5b600481905560405181907f8df75282265171690a1298cf028f5e3c7d8d42313394a4f25d4aeea6c1ea62cf90600090a250565b6000828152604960205260408120805460609190600160b01b900460ff16612bc5576000925050611cd4565b60028101548154600160a01b900460ff168167ffffffffffffffff811115612bef57612bef6136e1565b604051908082528060200260200182016040528015612c2257816020015b6060815260200190600190039081612c0d5790505b50935060005b82811015612d7857612c3c60026001613c30565b67ffffffffffffffff811115612c5457612c546136e1565b604051908082528060200260200182016040528015612c7d578160200160208202803683370190505b50858281518110612c9057612c90613c48565b60200260200101819052506000846002018281548110612cb257612cb2613c48565b9060005260206000209060060201905060005b60028111612d63576000612cec838b846002811115612ce657612ce661385c565b8861326f565b90508015612d5057612d0b838b846002811115612ce657612ce661385c565b612d15908a613c30565b985080888581518110612d2a57612d2a613c48565b60200260200101518381518110612d4357612d43613c48565b6020026020010181815250505b5080612d5b81613eb9565b915050612cc5565b50508080612d7090613eb9565b915050612c28565b505050509250929050565b60075461010090046001600160a01b03163314612d9f57600080fd5b6000805474ffffffffffffffffffffffffffffffffffffffff0019166101006001600160a01b03841690810291909117825560405190917f8a3509a4057c89a5993a4a3140c2ebf7e829d325d8998eaa6c48adcff98b2cef91a250565b600080836002811115612e1157612e1161385c565b836002811115612e2357612e2361385c565b1490506103e8600082612e3857600554612e3c565b6004545b9050612e4a61040082613c30565b82610400600554600454612e5e9190613c30565b612e689190613c30565b612e729190613bef565b612e7c9190613c0e565b9695505050505050565b60018054600091829055815460405191926101009091046001600160a01b0316916108fc84150291849190818181858888f150506040518493507fb315332b30dc40d1e51def214ce42d93a73bd0c17b08db04b34f10736bb2f06f925060009150a250565b60075461010090046001600160a01b03163314612f0757600080fd5b6000805460ff19811660ff90911615179055565b6001600160501b038116600090815260486020526040902080546001600160a01b03163314612fb25760405162461bcd60e51b815260206004820152602e60248201527f4f6e6c7920617574686f722063616e20696e63726561736520626f756e74792060448201527f6f6620616e2061727469636c652e0000000000000000000000000000000000006064820152608401610ada565b80543460201c908290601890612fd9908490600160c01b900466ffffffffffffff16613ee8565b82546101009290920a66ffffffffffffff818102199093169190921691909102179055508054604080516001600160501b0385168152600160c01b909204602090811b6affffffffffffff0000000016908301527fdf5fc410d3381cc7f0a7fe3af72f4e3cf53ef5787f20554af69035a950e1b2e391016126d7565b6000828152604960205260408120600281015490915b81811015611eb15760005b600281116130a9576130968686848460028111156109925761099261385c565b50806130a181613eb9565b915050613076565b50806130b481613eb9565b91505061306b565b60075461010090046001600160a01b031633146130d857600080fd5b600281905560405181907fbf39faa024d2f97599a0095e84098ee2171b6681738416c0030f442ba956d52b90600090a250565b60008481526049602052604081208054600160b01b900460ff166131715760405162461bcd60e51b815260206004820152601760248201527f5468657265206973206e6f2072756c696e67207965742e0000000000000000006044820152606401610ada565b600081600201858154811061318857613188613c48565b906000526020600020906006020190506131b58187868560000160149054906101000a900460ff1661326f565b92508215613265576001600160a01b03861660009081526020829052604081208560028111156131e7576131e761385c565b600381106131f7576131f7613c48565b01556040516001600160a01b0387169084156108fc029085906000818181858888f1935050505050856001600160a01b031685887fff2b7c936d6023fea901b3455cefc23b124c1ca5997dc5b48c461fd20984289d878760405161325c929190613d5a565b60405180910390a45b5050949350505050565b600082600186018160028111156132885761328861385c565b6003811061329857613298613c48565b602081049091015460ff601f9092166101000a9004166132f5576001600160a01b03851660009081526020879052604090208160028111156132dc576132dc61385c565b600381106132ec576132ec613c48565b01549150613485565b8260028111156133075761330761385c565b8460028111156133195761331961385c565b14156133d9576000866002018260028111156133375761333761385c565b6003811061334757613347613c48565b0154116133555760006133d2565b8560020181600281111561336b5761336b61385c565b6003811061337b5761337b613c48565b015460058701546001600160a01b03871660009081526020899052604090208360028111156133ac576133ac61385c565b600381106133bc576133bc613c48565b01546133c89190613bef565b6133d29190613c0e565b9150613485565b856001018360028111156133ef576133ef61385c565b600381106133ff576133ff613c48565b602081049091015460ff601f9092166101000a900416613485576004860154600387015461342d9190613c30565b60058701546001600160a01b038716600090815260208990526040902083600281111561345c5761345c61385c565b6003811061346c5761346c613c48565b01546134789190613bef565b6134829190613c0e565b91505b50949350505050565b82805461349a90613c5e565b90600052602060002090601f0160209004810192826134bc5760008555613502565b82601f106134d557805160ff1916838001178555613502565b82800160010185558215613502579182015b828111156135025782518255916020019190600101906134e7565b5061350e929150613530565b5090565b60405180606001604052806003906020820280368337509192915050565b5b8082111561350e5760008155600101613531565b80356001600160501b038116811461355c57600080fd5b919050565b80356001600160a01b038116811461355c57600080fd5b6000806040838503121561358b57600080fd5b61359483613545565b91506135a260208401613561565b90509250929050565b80356003811061355c57600080fd5b600080604083850312156135cd57600080fd5b823591506135a2602084016135ab565b6000602082840312156135ef57600080fd5b61145b82613545565b60006020828403121561360a57600080fd5b5035919050565b60008083601f84011261362357600080fd5b50813567ffffffffffffffff81111561363b57600080fd5b602083019150836020828501011115611cd457600080fd5b6000806000806060858703121561366957600080fd5b843567ffffffffffffffff81111561368057600080fd5b61368c87828801613611565b909550935050602085013560ff811681146136a657600080fd5b91506136b460408601613545565b905092959194509250565b600080604083850312156136d257600080fd5b50508035926020909101359150565b634e487b7160e01b600052604160045260246000fd5b600067ffffffffffffffff80841115613712576137126136e1565b604051601f8501601f19908116603f0116810190828211818310171561373a5761373a6136e1565b8160405280935085815286868601111561375357600080fd5b858560208301376000602087830101525050509392505050565b6000806040838503121561378057600080fd5b823567ffffffffffffffff8082111561379857600080fd5b818501915085601f8301126137ac57600080fd5b6137bb868335602085016136f7565b935060208501359150808211156137d157600080fd5b508301601f810185136137e357600080fd5b6137f2858235602084016136f7565b9150509250929050565b6000815180845260005b8181101561382257602081850181015186830182015201613806565b81811115613834576000602083870101525b50601f01601f19169290920160200192915050565b60208152600061145b60208301846137fc565b634e487b7160e01b600052602160045260246000fd5b6003811061389057634e487b7160e01b600052602160045260246000fd5b9052565b6001600160a01b038616815260a081016138b16020830187613872565b60ff94909416604082015291151560608301526001600160501b031660809091015292915050565b600080600080606085870312156138ef57600080fd5b843593506138ff60208601613561565b9250604085013567ffffffffffffffff8082111561391c57600080fd5b818701915087601f83011261393057600080fd5b81358181111561393f57600080fd5b8860208260051b850101111561395457600080fd5b95989497505060200194505050565b60008060006060848603121561397857600080fd5b8335925061398860208501613561565b9150613996604085016135ab565b90509250925092565b60e08101818560005b60038110156139c957815115158352602092830192909101906001016139a8565b505050606082018460005b60038110156139f35781518352602092830192909101906001016139d4565b5050508260c0830152949350505050565b600060208284031215613a1657600080fd5b61145b82613561565b600080600060408486031215613a3457600080fd5b83359250602084013567ffffffffffffffff811115613a5257600080fd5b613a5e86828701613611565b9497909650939450505050565b60008060408385031215613a7e57600080fd5b823591506135a260208401613561565b600060408201848352602060408185015281855180845260608601915060608160051b87010193508287016000805b83811015613b1157888703605f19018552825180518089529087019087890190845b81811015613afb57835183529289019291890191600101613adf565b5090985050509385019391850191600101613abd565b50949998505050505050505050565b60008060408385031215613b3357600080fd5b613b3c836135ab565b91506135a2602084016135ab565b60008060008060808587031215613b6057600080fd5b84359350613b7060208601613561565b9250604085013591506136b4606086016135ab565b600060208284031215613b9757600080fd5b5051919050565b60008060408385031215613bb157600080fd5b505080516020909101519092909150565b634e487b7160e01b600052601160045260246000fd5b600082821015613bea57613bea613bc2565b500390565b6000816000190483118215151615613c0957613c09613bc2565b500290565b600082613c2b57634e487b7160e01b600052601260045260246000fd5b500490565b60008219821115613c4357613c43613bc2565b500190565b634e487b7160e01b600052603260045260246000fd5b600181811c90821680613c7257607f821691505b60208210811415613c9357634e487b7160e01b600052602260045260246000fd5b50919050565b8054600090600181811c9080831680613cb357607f831692505b6020808410821415613cd557634e487b7160e01b600052602260045260246000fd5b83885260208801828015613cf05760018114613d0157613d2c565b60ff19871682528282019750613d2c565b60008981526020902060005b87811015613d2657815484820152908601908401613d0d565b83019850505b5050505050505092915050565b828152604060208201526000613d526040830184613c99565b949350505050565b60408101613d688285613872565b8260208301529392505050565b60006001600160501b0380831681811415613d9257613d92613bc2565b6001019392505050565b60006001600160501b0383811690831681811015613dbc57613dbc613bc2565b039392505050565b81835281816020850137506000828201602090810191909152601f909101601f19169091010190565b606081526000613e01606083018688613dc4565b60ff949094166020830152506040015292915050565b600060ff821660ff84168060ff03821115613e3457613e34613bc2565b019392505050565b600060ff821660ff811415613e5357613e53613bc2565b60010192915050565b60208152600061145b6020830184613c99565b6000808335601e19843603018112613e8657600080fd5b83018035915067ffffffffffffffff821115613ea157600080fd5b6020019150600581901b3603821315611cd457600080fd5b6000600019821415613ecd57613ecd613bc2565b5060010190565b602081526000613d52602083018486613dc4565b600066ffffffffffffff808316818516808303821115613f0a57613f0a613bc2565b0194935050505056fea2646970667358221220a906a41ab294bd1772920ea2f89288b3be011f722e02fbdcd5fd7de216c3d2f564736f6c634300080a0033",
          "opcodes": "PUSH1 0xA0 PUSH1 0x40 MSTORE PUSH1 0x0 DUP1 SLOAD PUSH1 0xFF NOT AND PUSH1 0x1 OR SWAP1 SSTORE PUSH2 0x200 PUSH1 0x2 SSTORE PUSH1 0x10 PUSH1 0x6 SSTORE PUSH1 0x7 DUP1 SLOAD CALLER PUSH2 0x100 MUL PUSH1 0x1 PUSH1 0x1 PUSH1 0xA8 SHL SUB NOT SWAP1 SWAP2 AND OR SWAP1 SSTORE CALLVALUE DUP1 ISZERO PUSH3 0x41 JUMPI PUSH1 0x0 DUP1 REVERT JUMPDEST POP PUSH1 0x40 MLOAD PUSH3 0x44F9 CODESIZE SUB DUP1 PUSH3 0x44F9 DUP4 CODECOPY DUP2 ADD PUSH1 0x40 DUP2 SWAP1 MSTORE PUSH3 0x64 SWAP2 PUSH3 0x389 JUMP JUMPDEST PUSH1 0x3 DUP5 SWAP1 SSTORE PUSH1 0x4 DUP4 SWAP1 SSTORE PUSH1 0x5 DUP3 SWAP1 SSTORE PUSH1 0x0 DUP1 SLOAD PUSH1 0x1 PUSH1 0x1 PUSH1 0xA0 SHL SUB DUP1 DUP5 AND PUSH2 0x100 MUL PUSH2 0x100 PUSH1 0x1 PUSH1 0xA8 SHL SUB NOT SWAP1 SWAP3 AND SWAP2 SWAP1 SWAP2 OR SWAP1 SWAP2 SSTORE DUP8 AND PUSH1 0x80 MSTORE PUSH3 0xAB DUP6 DUP8 PUSH3 0xB8 JUMP JUMPDEST POP POP POP POP POP POP POP PUSH3 0x539 JUMP JUMPDEST PUSH1 0x7 SLOAD PUSH3 0xCB SWAP1 PUSH1 0xFF AND PUSH1 0x1 PUSH3 0x466 JUMP JUMPDEST PUSH1 0xFF AND PUSH3 0x11F JUMPI PUSH1 0x40 MLOAD PUSH3 0x461BCD PUSH1 0xE5 SHL DUP2 MSTORE PUSH1 0x20 PUSH1 0x4 DUP3 ADD DUP2 SWAP1 MSTORE PUSH1 0x24 DUP3 ADD MSTORE PUSH32 0x4E6F207370616365206C65667420666F722061206E65772063617465676F7279 PUSH1 0x44 DUP3 ADD MSTORE PUSH1 0x64 ADD PUSH1 0x40 MLOAD DUP1 SWAP2 SUB SWAP1 REVERT JUMPDEST PUSH1 0x7 SLOAD PUSH1 0x40 MLOAD PUSH1 0xFF SWAP1 SWAP2 AND SWAP1 PUSH32 0x61606860EB6C87306811E2695215385101DAAB53BD6AB4E9F9049AEAD9363C7D SWAP1 PUSH3 0x15A SWAP1 DUP6 SWAP1 PUSH3 0x48E JUMP JUMPDEST PUSH1 0x40 MLOAD DUP1 SWAP2 SUB SWAP1 LOG2 PUSH1 0x7 SLOAD DUP2 SWAP1 PUSH1 0x8 SWAP1 PUSH1 0xFF AND PUSH1 0x40 DUP2 LT PUSH3 0x180 JUMPI PUSH3 0x180 PUSH3 0x4C3 JUMP JUMPDEST ADD SWAP1 DUP1 MLOAD SWAP1 PUSH1 0x20 ADD SWAP1 PUSH3 0x196 SWAP3 SWAP2 SWAP1 PUSH3 0x1C9 JUMP JUMPDEST POP PUSH1 0x7 DUP1 SLOAD PUSH1 0xFF AND SWAP1 PUSH1 0x0 PUSH3 0x1AC DUP4 PUSH3 0x4D9 JUMP JUMPDEST SWAP2 SWAP1 PUSH2 0x100 EXP DUP2 SLOAD DUP2 PUSH1 0xFF MUL NOT AND SWAP1 DUP4 PUSH1 0xFF AND MUL OR SWAP1 SSTORE POP POP POP POP JUMP JUMPDEST DUP3 DUP1 SLOAD PUSH3 0x1D7 SWAP1 PUSH3 0x4FC JUMP JUMPDEST SWAP1 PUSH1 0x0 MSTORE PUSH1 0x20 PUSH1 0x0 KECCAK256 SWAP1 PUSH1 0x1F ADD PUSH1 0x20 SWAP1 DIV DUP2 ADD SWAP3 DUP3 PUSH3 0x1FB JUMPI PUSH1 0x0 DUP6 SSTORE PUSH3 0x246 JUMP JUMPDEST DUP3 PUSH1 0x1F LT PUSH3 0x216 JUMPI DUP1 MLOAD PUSH1 0xFF NOT AND DUP4 DUP1 ADD OR DUP6 SSTORE PUSH3 0x246 JUMP JUMPDEST DUP3 DUP1 ADD PUSH1 0x1 ADD DUP6 SSTORE DUP3 ISZERO PUSH3 0x246 JUMPI SWAP2 DUP3 ADD JUMPDEST DUP3 DUP2 GT ISZERO PUSH3 0x246 JUMPI DUP3 MLOAD DUP3 SSTORE SWAP2 PUSH1 0x20 ADD SWAP2 SWAP1 PUSH1 0x1 ADD SWAP1 PUSH3 0x229 JUMP JUMPDEST POP PUSH3 0x254 SWAP3 SWAP2 POP PUSH3 0x258 JUMP JUMPDEST POP SWAP1 JUMP JUMPDEST JUMPDEST DUP1 DUP3 GT ISZERO PUSH3 0x254 JUMPI PUSH1 0x0 DUP2 SSTORE PUSH1 0x1 ADD PUSH3 0x259 JUMP JUMPDEST PUSH1 0x1 PUSH1 0x1 PUSH1 0xA0 SHL SUB DUP2 AND DUP2 EQ PUSH3 0x285 JUMPI PUSH1 0x0 DUP1 REVERT JUMPDEST POP JUMP JUMPDEST PUSH4 0x4E487B71 PUSH1 0xE0 SHL PUSH1 0x0 MSTORE PUSH1 0x41 PUSH1 0x4 MSTORE PUSH1 0x24 PUSH1 0x0 REVERT JUMPDEST PUSH1 0x0 JUMPDEST DUP4 DUP2 LT ISZERO PUSH3 0x2BB JUMPI DUP2 DUP2 ADD MLOAD DUP4 DUP3 ADD MSTORE PUSH1 0x20 ADD PUSH3 0x2A1 JUMP JUMPDEST DUP4 DUP2 GT ISZERO PUSH3 0x2CB JUMPI PUSH1 0x0 DUP5 DUP5 ADD MSTORE JUMPDEST POP POP POP POP JUMP JUMPDEST PUSH1 0x0 PUSH1 0x1 PUSH1 0x1 PUSH1 0x40 SHL SUB DUP1 DUP5 GT ISZERO PUSH3 0x2EE JUMPI PUSH3 0x2EE PUSH3 0x288 JUMP JUMPDEST PUSH1 0x40 MLOAD PUSH1 0x1F DUP6 ADD PUSH1 0x1F NOT SWAP1 DUP2 AND PUSH1 0x3F ADD AND DUP2 ADD SWAP1 DUP3 DUP3 GT DUP2 DUP4 LT OR ISZERO PUSH3 0x319 JUMPI PUSH3 0x319 PUSH3 0x288 JUMP JUMPDEST DUP2 PUSH1 0x40 MSTORE DUP1 SWAP4 POP DUP6 DUP2 MSTORE DUP7 DUP7 DUP7 ADD GT ISZERO PUSH3 0x333 JUMPI PUSH1 0x0 DUP1 REVERT JUMPDEST PUSH3 0x343 DUP7 PUSH1 0x20 DUP4 ADD DUP8 PUSH3 0x29E JUMP JUMPDEST POP POP POP SWAP4 SWAP3 POP POP POP JUMP JUMPDEST PUSH1 0x0 DUP3 PUSH1 0x1F DUP4 ADD SLT PUSH3 0x35F JUMPI PUSH1 0x0 DUP1 REVERT JUMPDEST PUSH3 0x370 DUP4 DUP4 MLOAD PUSH1 0x20 DUP6 ADD PUSH3 0x2D1 JUMP JUMPDEST SWAP4 SWAP3 POP POP POP JUMP JUMPDEST DUP1 MLOAD PUSH3 0x384 DUP2 PUSH3 0x26F JUMP JUMPDEST SWAP2 SWAP1 POP JUMP JUMPDEST PUSH1 0x0 DUP1 PUSH1 0x0 DUP1 PUSH1 0x0 DUP1 PUSH1 0x0 PUSH1 0xE0 DUP9 DUP11 SUB SLT ISZERO PUSH3 0x3A5 JUMPI PUSH1 0x0 DUP1 REVERT JUMPDEST DUP8 MLOAD PUSH3 0x3B2 DUP2 PUSH3 0x26F JUMP JUMPDEST PUSH1 0x20 DUP10 ADD MLOAD SWAP1 SWAP8 POP PUSH1 0x1 PUSH1 0x1 PUSH1 0x40 SHL SUB DUP1 DUP3 GT ISZERO PUSH3 0x3D0 JUMPI PUSH1 0x0 DUP1 REVERT JUMPDEST DUP2 DUP11 ADD SWAP2 POP DUP11 PUSH1 0x1F DUP4 ADD SLT PUSH3 0x3E5 JUMPI PUSH1 0x0 DUP1 REVERT JUMPDEST PUSH3 0x3F6 DUP12 DUP4 MLOAD PUSH1 0x20 DUP6 ADD PUSH3 0x2D1 JUMP JUMPDEST SWAP8 POP PUSH1 0x40 DUP11 ADD MLOAD SWAP2 POP DUP1 DUP3 GT ISZERO PUSH3 0x40D JUMPI PUSH1 0x0 DUP1 REVERT JUMPDEST POP PUSH3 0x41C DUP11 DUP3 DUP12 ADD PUSH3 0x34D JUMP JUMPDEST SWAP6 POP POP PUSH1 0x60 DUP9 ADD MLOAD SWAP4 POP PUSH1 0x80 DUP9 ADD MLOAD SWAP3 POP PUSH1 0xA0 DUP9 ADD MLOAD SWAP2 POP PUSH3 0x442 PUSH1 0xC0 DUP10 ADD PUSH3 0x377 JUMP JUMPDEST SWAP1 POP SWAP3 SWAP6 SWAP9 SWAP2 SWAP5 SWAP8 POP SWAP3 SWAP6 POP JUMP JUMPDEST PUSH4 0x4E487B71 PUSH1 0xE0 SHL PUSH1 0x0 MSTORE PUSH1 0x11 PUSH1 0x4 MSTORE PUSH1 0x24 PUSH1 0x0 REVERT JUMPDEST PUSH1 0x0 PUSH1 0xFF DUP3 AND PUSH1 0xFF DUP5 AND DUP1 PUSH1 0xFF SUB DUP3 GT ISZERO PUSH3 0x486 JUMPI PUSH3 0x486 PUSH3 0x450 JUMP JUMPDEST ADD SWAP4 SWAP3 POP POP POP JUMP JUMPDEST PUSH1 0x20 DUP2 MSTORE PUSH1 0x0 DUP3 MLOAD DUP1 PUSH1 0x20 DUP5 ADD MSTORE PUSH3 0x4AF DUP2 PUSH1 0x40 DUP6 ADD PUSH1 0x20 DUP8 ADD PUSH3 0x29E JUMP JUMPDEST PUSH1 0x1F ADD PUSH1 0x1F NOT AND SWAP2 SWAP1 SWAP2 ADD PUSH1 0x40 ADD SWAP3 SWAP2 POP POP JUMP JUMPDEST PUSH4 0x4E487B71 PUSH1 0xE0 SHL PUSH1 0x0 MSTORE PUSH1 0x32 PUSH1 0x4 MSTORE PUSH1 0x24 PUSH1 0x0 REVERT JUMPDEST PUSH1 0x0 PUSH1 0xFF DUP3 AND PUSH1 0xFF DUP2 EQ ISZERO PUSH3 0x4F3 JUMPI PUSH3 0x4F3 PUSH3 0x450 JUMP JUMPDEST PUSH1 0x1 ADD SWAP3 SWAP2 POP POP JUMP JUMPDEST PUSH1 0x1 DUP2 DUP2 SHR SWAP1 DUP3 AND DUP1 PUSH3 0x511 JUMPI PUSH1 0x7F DUP3 AND SWAP2 POP JUMPDEST PUSH1 0x20 DUP3 LT DUP2 EQ ISZERO PUSH3 0x533 JUMPI PUSH4 0x4E487B71 PUSH1 0xE0 SHL PUSH1 0x0 MSTORE PUSH1 0x22 PUSH1 0x4 MSTORE PUSH1 0x24 PUSH1 0x0 REVERT JUMPDEST POP SWAP2 SWAP1 POP JUMP JUMPDEST PUSH1 0x80 MLOAD PUSH2 0x3F49 PUSH3 0x5B0 PUSH1 0x0 CODECOPY PUSH1 0x0 DUP2 DUP2 PUSH2 0x5FB ADD MSTORE DUP2 DUP2 PUSH2 0xB5F ADD MSTORE DUP2 DUP2 PUSH2 0xBED ADD MSTORE DUP2 DUP2 PUSH2 0xDD3 ADD MSTORE DUP2 DUP2 PUSH2 0x1210 ADD MSTORE DUP2 DUP2 PUSH2 0x13AE ADD MSTORE DUP2 DUP2 PUSH2 0x1788 ADD MSTORE DUP2 DUP2 PUSH2 0x1BB6 ADD MSTORE DUP2 DUP2 PUSH2 0x1CFC ADD MSTORE DUP2 DUP2 PUSH2 0x20AF ADD MSTORE DUP2 DUP2 PUSH2 0x2245 ADD MSTORE DUP2 DUP2 PUSH2 0x22F4 ADD MSTORE DUP2 DUP2 PUSH2 0x27B8 ADD MSTORE PUSH2 0x28B2 ADD MSTORE PUSH2 0x3F49 PUSH1 0x0 RETURN INVALID PUSH1 0x80 PUSH1 0x40 MSTORE PUSH1 0x4 CALLDATASIZE LT PUSH2 0x31E JUMPI PUSH1 0x0 CALLDATALOAD PUSH1 0xE0 SHR DUP1 PUSH4 0x92239DFF GT PUSH2 0x1A5 JUMPI DUP1 PUSH4 0xBA0EC60B GT PUSH2 0xEC JUMPI DUP1 PUSH4 0xD970D18C GT PUSH2 0x95 JUMPI DUP1 PUSH4 0xF851A440 GT PUSH2 0x6F JUMPI DUP1 PUSH4 0xF851A440 EQ PUSH2 0x9AD JUMPI DUP1 PUSH4 0xFC0AC672 EQ PUSH2 0x9D2 JUMPI DUP1 PUSH4 0xFE6CA782 EQ PUSH2 0x9E8 JUMPI DUP1 PUSH4 0xFFA1AD74 EQ PUSH2 0x9FE JUMPI PUSH1 0x0 DUP1 REVERT JUMPDEST DUP1 PUSH4 0xD970D18C EQ PUSH2 0x962 JUMPI DUP1 PUSH4 0xDC227FC2 EQ PUSH2 0x977 JUMPI DUP1 PUSH4 0xE349AD30 EQ PUSH2 0x997 JUMPI PUSH1 0x0 DUP1 REVERT JUMPDEST DUP1 PUSH4 0xC9330C0F GT PUSH2 0xC6 JUMPI DUP1 PUSH4 0xC9330C0F EQ PUSH2 0x90C JUMPI DUP1 PUSH4 0xC94828F0 EQ PUSH2 0x92C JUMPI DUP1 PUSH4 0xD3B476B1 EQ PUSH2 0x94C JUMPI PUSH1 0x0 DUP1 REVERT JUMPDEST DUP1 PUSH4 0xBA0EC60B EQ PUSH2 0x8CE JUMPI DUP1 PUSH4 0xBC0936FD EQ PUSH2 0x8E3 JUMPI DUP1 PUSH4 0xBE467604 EQ PUSH2 0x8F6 JUMPI PUSH1 0x0 DUP1 REVERT JUMPDEST DUP1 PUSH4 0xADC7FABA GT PUSH2 0x14E JUMPI DUP1 PUSH4 0xB34BFAA8 GT PUSH2 0x128 JUMPI DUP1 PUSH4 0xB34BFAA8 EQ PUSH2 0x883 JUMPI DUP1 PUSH4 0xB4C70581 EQ PUSH2 0x899 JUMPI DUP1 PUSH4 0xB7BDDC72 EQ PUSH2 0x8B9 JUMPI PUSH1 0x0 DUP1 REVERT JUMPDEST DUP1 PUSH4 0xADC7FABA EQ PUSH2 0x815 JUMPI DUP1 PUSH4 0xAF4A9144 EQ PUSH2 0x835 JUMPI DUP1 PUSH4 0xB14F2A39 EQ PUSH2 0x863 JUMPI PUSH1 0x0 DUP1 REVERT JUMPDEST DUP1 PUSH4 0xA509EFEB GT PUSH2 0x17F JUMPI DUP1 PUSH4 0xA509EFEB EQ PUSH2 0x7B5 JUMPI DUP1 PUSH4 0xA6A7F0EB EQ PUSH2 0x7D5 JUMPI DUP1 PUSH4 0xAB9CD37E EQ PUSH2 0x7F5 JUMPI PUSH1 0x0 DUP1 REVERT JUMPDEST DUP1 PUSH4 0x92239DFF EQ PUSH2 0x755 JUMPI DUP1 PUSH4 0x92E25925 EQ PUSH2 0x775 JUMPI DUP1 PUSH4 0x956DCBD2 EQ PUSH2 0x795 JUMPI PUSH1 0x0 DUP1 REVERT JUMPDEST DUP1 PUSH4 0x564A565D GT PUSH2 0x269 JUMPI DUP1 PUSH4 0x736ED418 GT PUSH2 0x212 JUMPI DUP1 PUSH4 0x7F67BD6C GT PUSH2 0x1EC JUMPI DUP1 PUSH4 0x7F67BD6C EQ PUSH2 0x6E6 JUMPI DUP1 PUSH4 0x8A9BB02A EQ PUSH2 0x706 JUMPI DUP1 PUSH4 0x8F283970 EQ PUSH2 0x735 JUMPI PUSH1 0x0 DUP1 REVERT JUMPDEST DUP1 PUSH4 0x736ED418 EQ PUSH2 0x61D JUMPI DUP1 PUSH4 0x7597B3CB EQ PUSH2 0x630 JUMPI DUP1 PUSH4 0x78431CE9 EQ PUSH2 0x645 JUMPI PUSH1 0x0 DUP1 REVERT JUMPDEST DUP1 PUSH4 0x67284F21 GT PUSH2 0x243 JUMPI DUP1 PUSH4 0x67284F21 EQ PUSH2 0x5A9 JUMPI DUP1 PUSH4 0x6760AEB0 EQ PUSH2 0x5C9 JUMPI DUP1 PUSH4 0x68871C9C EQ PUSH2 0x5E9 JUMPI PUSH1 0x0 DUP1 REVERT JUMPDEST DUP1 PUSH4 0x564A565D EQ PUSH2 0x4DA JUMPI DUP1 PUSH4 0x638AF3DA EQ PUSH2 0x554 JUMPI DUP1 PUSH4 0x64FF9DFA EQ PUSH2 0x589 JUMPI PUSH1 0x0 DUP1 REVERT JUMPDEST DUP1 PUSH4 0x29238089 GT PUSH2 0x2CB JUMPI DUP1 PUSH4 0x313DAB20 GT PUSH2 0x2A5 JUMPI DUP1 PUSH4 0x313DAB20 EQ PUSH2 0x477 JUMPI DUP1 PUSH4 0x4C55C000 EQ PUSH2 0x48D JUMPI DUP1 PUSH4 0x4DE12DB0 EQ PUSH2 0x4AD JUMPI PUSH1 0x0 DUP1 REVERT JUMPDEST DUP1 PUSH4 0x29238089 EQ PUSH2 0x407 JUMPI DUP1 PUSH4 0x2D2C5565 EQ PUSH2 0x41A JUMPI DUP1 PUSH4 0x311A6C56 EQ PUSH2 0x457 JUMPI PUSH1 0x0 DUP1 REVERT JUMPDEST DUP1 PUSH4 0x15F36EBE GT PUSH2 0x2FC JUMPI DUP1 PUSH4 0x15F36EBE EQ PUSH2 0x399 JUMPI DUP1 PUSH4 0x1E26DE34 EQ PUSH2 0x3C7 JUMPI DUP1 PUSH4 0x26804BEF EQ PUSH2 0x3E7 JUMPI PUSH1 0x0 DUP1 REVERT JUMPDEST DUP1 PUSH4 0x3624FC0 EQ PUSH2 0x323 JUMPI DUP1 PUSH4 0x6BCBD73 EQ PUSH2 0x354 JUMPI DUP1 PUSH4 0x12B3A2C0 EQ PUSH2 0x376 JUMPI JUMPDEST PUSH1 0x0 DUP1 REVERT JUMPDEST CALLVALUE DUP1 ISZERO PUSH2 0x32F JUMPI PUSH1 0x0 DUP1 REVERT JUMPDEST POP PUSH1 0x7 SLOAD PUSH2 0x33D SWAP1 PUSH1 0xFF AND DUP2 JUMP JUMPDEST PUSH1 0x40 MLOAD PUSH1 0xFF SWAP1 SWAP2 AND DUP2 MSTORE PUSH1 0x20 ADD JUMPDEST PUSH1 0x40 MLOAD DUP1 SWAP2 SUB SWAP1 RETURN JUMPDEST CALLVALUE DUP1 ISZERO PUSH2 0x360 JUMPI PUSH1 0x0 DUP1 REVERT JUMPDEST POP PUSH2 0x374 PUSH2 0x36F CALLDATASIZE PUSH1 0x4 PUSH2 0x3578 JUMP JUMPDEST PUSH2 0xA47 JUMP JUMPDEST STOP JUMPDEST PUSH2 0x389 PUSH2 0x384 CALLDATASIZE PUSH1 0x4 PUSH2 0x35BA JUMP JUMPDEST PUSH2 0xB39 JUMP JUMPDEST PUSH1 0x40 MLOAD SWAP1 ISZERO ISZERO DUP2 MSTORE PUSH1 0x20 ADD PUSH2 0x34B JUMP JUMPDEST CALLVALUE DUP1 ISZERO PUSH2 0x3A5 JUMPI PUSH1 0x0 DUP1 REVERT JUMPDEST POP PUSH2 0x3B9 PUSH2 0x3B4 CALLDATASIZE PUSH1 0x4 PUSH2 0x35DD JUMP JUMPDEST PUSH2 0x1335 JUMP JUMPDEST PUSH1 0x40 MLOAD SWAP1 DUP2 MSTORE PUSH1 0x20 ADD PUSH2 0x34B JUMP JUMPDEST CALLVALUE DUP1 ISZERO PUSH2 0x3D3 JUMPI PUSH1 0x0 DUP1 REVERT JUMPDEST POP PUSH2 0x3B9 PUSH2 0x3E2 CALLDATASIZE PUSH1 0x4 PUSH2 0x35F8 JUMP JUMPDEST PUSH2 0x1399 JUMP JUMPDEST CALLVALUE DUP1 ISZERO PUSH2 0x3F3 JUMPI PUSH1 0x0 DUP1 REVERT JUMPDEST POP PUSH2 0x374 PUSH2 0x402 CALLDATASIZE PUSH1 0x4 PUSH2 0x35F8 JUMP JUMPDEST PUSH2 0x1462 JUMP JUMPDEST PUSH2 0x374 PUSH2 0x415 CALLDATASIZE PUSH1 0x4 PUSH2 0x3653 JUMP JUMPDEST PUSH2 0x1529 JUMP JUMPDEST CALLVALUE DUP1 ISZERO PUSH2 0x426 JUMPI PUSH1 0x0 DUP1 REVERT JUMPDEST POP PUSH1 0x0 SLOAD PUSH2 0x43F SWAP1 PUSH2 0x100 SWAP1 DIV PUSH1 0x1 PUSH1 0x1 PUSH1 0xA0 SHL SUB AND DUP2 JUMP JUMPDEST PUSH1 0x40 MLOAD PUSH1 0x1 PUSH1 0x1 PUSH1 0xA0 SHL SUB SWAP1 SWAP2 AND DUP2 MSTORE PUSH1 0x20 ADD PUSH2 0x34B JUMP JUMPDEST CALLVALUE DUP1 ISZERO PUSH2 0x463 JUMPI PUSH1 0x0 DUP1 REVERT JUMPDEST POP PUSH2 0x374 PUSH2 0x472 CALLDATASIZE PUSH1 0x4 PUSH2 0x36BF JUMP JUMPDEST PUSH2 0x177D JUMP JUMPDEST CALLVALUE DUP1 ISZERO PUSH2 0x483 JUMPI PUSH1 0x0 DUP1 REVERT JUMPDEST POP PUSH2 0x3B9 PUSH1 0x1 SLOAD DUP2 JUMP JUMPDEST CALLVALUE DUP1 ISZERO PUSH2 0x499 JUMPI PUSH1 0x0 DUP1 REVERT JUMPDEST POP PUSH2 0x374 PUSH2 0x4A8 CALLDATASIZE PUSH1 0x4 PUSH2 0x376D JUMP JUMPDEST PUSH2 0x1A0D JUMP JUMPDEST CALLVALUE DUP1 ISZERO PUSH2 0x4B9 JUMPI PUSH1 0x0 DUP1 REVERT JUMPDEST POP PUSH2 0x4CD PUSH2 0x4C8 CALLDATASIZE PUSH1 0x4 PUSH2 0x35F8 JUMP JUMPDEST PUSH2 0x1B0E JUMP JUMPDEST PUSH1 0x40 MLOAD PUSH2 0x34B SWAP2 SWAP1 PUSH2 0x3849 JUMP JUMPDEST CALLVALUE DUP1 ISZERO PUSH2 0x4E6 JUMPI PUSH1 0x0 DUP1 REVERT JUMPDEST POP PUSH2 0x543 PUSH2 0x4F5 CALLDATASIZE PUSH1 0x4 PUSH2 0x35F8 JUMP JUMPDEST PUSH1 0x49 PUSH1 0x20 MSTORE PUSH1 0x0 SWAP1 DUP2 MSTORE PUSH1 0x40 SWAP1 KECCAK256 DUP1 SLOAD PUSH1 0x1 SWAP1 SWAP2 ADD SLOAD PUSH1 0x1 PUSH1 0x1 PUSH1 0xA0 SHL SUB DUP3 AND SWAP2 PUSH1 0xFF PUSH1 0x1 PUSH1 0xA0 SHL DUP3 DIV DUP2 AND SWAP3 PUSH1 0x1 PUSH1 0xA8 SHL DUP4 DIV DUP3 AND SWAP3 PUSH1 0x1 PUSH1 0xB0 SHL SWAP1 DIV SWAP1 SWAP2 AND SWAP1 PUSH1 0x1 PUSH1 0x1 PUSH1 0x50 SHL SUB AND DUP6 JUMP JUMPDEST PUSH1 0x40 MLOAD PUSH2 0x34B SWAP6 SWAP5 SWAP4 SWAP3 SWAP2 SWAP1 PUSH2 0x3894 JUMP JUMPDEST CALLVALUE DUP1 ISZERO PUSH2 0x560 JUMPI PUSH1 0x0 DUP1 REVERT JUMPDEST POP PUSH2 0x574 PUSH2 0x56F CALLDATASIZE PUSH1 0x4 PUSH2 0x35BA JUMP JUMPDEST PUSH2 0x1BAE JUMP JUMPDEST PUSH1 0x40 DUP1 MLOAD SWAP3 DUP4 MSTORE PUSH1 0x20 DUP4 ADD SWAP2 SWAP1 SWAP2 MSTORE ADD PUSH2 0x34B JUMP JUMPDEST CALLVALUE DUP1 ISZERO PUSH2 0x595 JUMPI PUSH1 0x0 DUP1 REVERT JUMPDEST POP PUSH2 0x3B9 PUSH2 0x5A4 CALLDATASIZE PUSH1 0x4 PUSH2 0x35DD JUMP JUMPDEST PUSH2 0x1CDB JUMP JUMPDEST CALLVALUE DUP1 ISZERO PUSH2 0x5B5 JUMPI PUSH1 0x0 DUP1 REVERT JUMPDEST POP PUSH2 0x374 PUSH2 0x5C4 CALLDATASIZE PUSH1 0x4 PUSH2 0x38D9 JUMP JUMPDEST PUSH2 0x1DF4 JUMP JUMPDEST CALLVALUE DUP1 ISZERO PUSH2 0x5D5 JUMPI PUSH1 0x0 DUP1 REVERT JUMPDEST POP PUSH2 0x374 PUSH2 0x5E4 CALLDATASIZE PUSH1 0x4 PUSH2 0x3963 JUMP JUMPDEST PUSH2 0x1EB8 JUMP JUMPDEST CALLVALUE DUP1 ISZERO PUSH2 0x5F5 JUMPI PUSH1 0x0 DUP1 REVERT JUMPDEST POP PUSH2 0x43F PUSH32 0x0 DUP2 JUMP JUMPDEST PUSH2 0x374 PUSH2 0x62B CALLDATASIZE PUSH1 0x4 PUSH2 0x35DD JUMP JUMPDEST PUSH2 0x1EFD JUMP JUMPDEST CALLVALUE DUP1 ISZERO PUSH2 0x63C JUMPI PUSH1 0x0 DUP1 REVERT JUMPDEST POP PUSH2 0x3B9 PUSH1 0x2 DUP2 JUMP JUMPDEST CALLVALUE DUP1 ISZERO PUSH2 0x651 JUMPI PUSH1 0x0 DUP1 REVERT JUMPDEST POP PUSH2 0x6A6 PUSH2 0x660 CALLDATASIZE PUSH1 0x4 PUSH2 0x35DD JUMP JUMPDEST PUSH1 0x48 PUSH1 0x20 MSTORE PUSH1 0x0 SWAP1 DUP2 MSTORE PUSH1 0x40 SWAP1 KECCAK256 SLOAD PUSH1 0x1 PUSH1 0x1 PUSH1 0xA0 SHL SUB DUP2 AND SWAP1 PUSH1 0x1 PUSH1 0xA0 SHL DUP2 DIV PUSH4 0xFFFFFFFF AND SWAP1 PUSH1 0x1 PUSH1 0xC0 SHL DUP2 DIV PUSH7 0xFFFFFFFFFFFFFF AND SWAP1 PUSH1 0x1 PUSH1 0xF8 SHL SWAP1 DIV PUSH1 0xFF AND DUP5 JUMP JUMPDEST PUSH1 0x40 DUP1 MLOAD PUSH1 0x1 PUSH1 0x1 PUSH1 0xA0 SHL SUB SWAP1 SWAP6 AND DUP6 MSTORE PUSH4 0xFFFFFFFF SWAP1 SWAP4 AND PUSH1 0x20 DUP6 ADD MSTORE PUSH7 0xFFFFFFFFFFFFFF SWAP1 SWAP2 AND SWAP2 DUP4 ADD SWAP2 SWAP1 SWAP2 MSTORE PUSH1 0xFF AND PUSH1 0x60 DUP3 ADD MSTORE PUSH1 0x80 ADD PUSH2 0x34B JUMP JUMPDEST CALLVALUE DUP1 ISZERO PUSH2 0x6F2 JUMPI PUSH1 0x0 DUP1 REVERT JUMPDEST POP PUSH2 0x3B9 PUSH2 0x701 CALLDATASIZE PUSH1 0x4 PUSH2 0x35F8 JUMP JUMPDEST PUSH2 0x22DB JUMP JUMPDEST CALLVALUE DUP1 ISZERO PUSH2 0x712 JUMPI PUSH1 0x0 DUP1 REVERT JUMPDEST POP PUSH2 0x726 PUSH2 0x721 CALLDATASIZE PUSH1 0x4 PUSH2 0x36BF JUMP JUMPDEST PUSH2 0x236D JUMP JUMPDEST PUSH1 0x40 MLOAD PUSH2 0x34B SWAP4 SWAP3 SWAP2 SWAP1 PUSH2 0x399F JUMP JUMPDEST CALLVALUE DUP1 ISZERO PUSH2 0x741 JUMPI PUSH1 0x0 DUP1 REVERT JUMPDEST POP PUSH2 0x374 PUSH2 0x750 CALLDATASIZE PUSH1 0x4 PUSH2 0x3A04 JUMP JUMPDEST PUSH2 0x245D JUMP JUMPDEST CALLVALUE DUP1 ISZERO PUSH2 0x761 JUMPI PUSH1 0x0 DUP1 REVERT JUMPDEST POP PUSH2 0x374 PUSH2 0x770 CALLDATASIZE PUSH1 0x4 PUSH2 0x35F8 JUMP JUMPDEST PUSH2 0x24D8 JUMP JUMPDEST CALLVALUE DUP1 ISZERO PUSH2 0x781 JUMPI PUSH1 0x0 DUP1 REVERT JUMPDEST POP PUSH2 0x374 PUSH2 0x790 CALLDATASIZE PUSH1 0x4 PUSH2 0x35F8 JUMP JUMPDEST PUSH2 0x2527 JUMP JUMPDEST CALLVALUE DUP1 ISZERO PUSH2 0x7A1 JUMPI PUSH1 0x0 DUP1 REVERT JUMPDEST POP PUSH2 0x374 PUSH2 0x7B0 CALLDATASIZE PUSH1 0x4 PUSH2 0x35DD JUMP JUMPDEST PUSH2 0x2576 JUMP JUMPDEST CALLVALUE DUP1 ISZERO PUSH2 0x7C1 JUMPI PUSH1 0x0 DUP1 REVERT JUMPDEST POP PUSH2 0x3B9 PUSH2 0x7D0 CALLDATASIZE PUSH1 0x4 PUSH2 0x35BA JUMP JUMPDEST PUSH2 0x26E3 JUMP JUMPDEST CALLVALUE DUP1 ISZERO PUSH2 0x7E1 JUMPI PUSH1 0x0 DUP1 REVERT JUMPDEST POP PUSH2 0x374 PUSH2 0x7F0 CALLDATASIZE PUSH1 0x4 PUSH2 0x3A1F JUMP JUMPDEST PUSH2 0x28A5 JUMP JUMPDEST CALLVALUE DUP1 ISZERO PUSH2 0x801 JUMPI PUSH1 0x0 DUP1 REVERT JUMPDEST POP PUSH2 0x374 PUSH2 0x810 CALLDATASIZE PUSH1 0x4 PUSH2 0x35DD JUMP JUMPDEST PUSH2 0x2918 JUMP JUMPDEST CALLVALUE DUP1 ISZERO PUSH2 0x821 JUMPI PUSH1 0x0 DUP1 REVERT JUMPDEST POP PUSH2 0x374 PUSH2 0x830 CALLDATASIZE PUSH1 0x4 PUSH2 0x35F8 JUMP JUMPDEST PUSH2 0x2B4A JUMP JUMPDEST CALLVALUE DUP1 ISZERO PUSH2 0x841 JUMPI PUSH1 0x0 DUP1 REVERT JUMPDEST POP PUSH2 0x855 PUSH2 0x850 CALLDATASIZE PUSH1 0x4 PUSH2 0x3A6B JUMP JUMPDEST PUSH2 0x2B99 JUMP JUMPDEST PUSH1 0x40 MLOAD PUSH2 0x34B SWAP3 SWAP2 SWAP1 PUSH2 0x3A8E JUMP JUMPDEST CALLVALUE DUP1 ISZERO PUSH2 0x86F JUMPI PUSH1 0x0 DUP1 REVERT JUMPDEST POP PUSH2 0x374 PUSH2 0x87E CALLDATASIZE PUSH1 0x4 PUSH2 0x3A04 JUMP JUMPDEST PUSH2 0x2D83 JUMP JUMPDEST CALLVALUE DUP1 ISZERO PUSH2 0x88F JUMPI PUSH1 0x0 DUP1 REVERT JUMPDEST POP PUSH2 0x3B9 PUSH1 0x5 SLOAD DUP2 JUMP JUMPDEST CALLVALUE DUP1 ISZERO PUSH2 0x8A5 JUMPI PUSH1 0x0 DUP1 REVERT JUMPDEST POP PUSH2 0x3B9 PUSH2 0x8B4 CALLDATASIZE PUSH1 0x4 PUSH2 0x3B20 JUMP JUMPDEST PUSH2 0x2DFC JUMP JUMPDEST CALLVALUE DUP1 ISZERO PUSH2 0x8C5 JUMPI PUSH1 0x0 DUP1 REVERT JUMPDEST POP PUSH2 0x374 PUSH2 0x2E86 JUMP JUMPDEST CALLVALUE DUP1 ISZERO PUSH2 0x8DA JUMPI PUSH1 0x0 DUP1 REVERT JUMPDEST POP PUSH2 0x374 PUSH2 0x2EEB JUMP JUMPDEST PUSH2 0x374 PUSH2 0x8F1 CALLDATASIZE PUSH1 0x4 PUSH2 0x35DD JUMP JUMPDEST PUSH2 0x2F1B JUMP JUMPDEST CALLVALUE DUP1 ISZERO PUSH2 0x902 JUMPI PUSH1 0x0 DUP1 REVERT JUMPDEST POP PUSH2 0x3B9 PUSH1 0x2 SLOAD DUP2 JUMP JUMPDEST CALLVALUE DUP1 ISZERO PUSH2 0x918 JUMPI PUSH1 0x0 DUP1 REVERT JUMPDEST POP PUSH2 0x374 PUSH2 0x927 CALLDATASIZE PUSH1 0x4 PUSH2 0x3A6B JUMP JUMPDEST PUSH2 0x3055 JUMP JUMPDEST CALLVALUE DUP1 ISZERO PUSH2 0x938 JUMPI PUSH1 0x0 DUP1 REVERT JUMPDEST POP PUSH2 0x374 PUSH2 0x947 CALLDATASIZE PUSH1 0x4 PUSH2 0x35F8 JUMP JUMPDEST PUSH2 0x30BC JUMP JUMPDEST CALLVALUE DUP1 ISZERO PUSH2 0x958 JUMPI PUSH1 0x0 DUP1 REVERT JUMPDEST POP PUSH2 0x3B9 PUSH1 0x3 SLOAD DUP2 JUMP JUMPDEST CALLVALUE DUP1 ISZERO PUSH2 0x96E JUMPI PUSH1 0x0 DUP1 REVERT JUMPDEST POP PUSH2 0x3B9 PUSH1 0x20 DUP2 JUMP JUMPDEST CALLVALUE DUP1 ISZERO PUSH2 0x983 JUMPI PUSH1 0x0 DUP1 REVERT JUMPDEST POP PUSH2 0x3B9 PUSH2 0x992 CALLDATASIZE PUSH1 0x4 PUSH2 0x3B4A JUMP JUMPDEST PUSH2 0x310B JUMP JUMPDEST CALLVALUE DUP1 ISZERO PUSH2 0x9A3 JUMPI PUSH1 0x0 DUP1 REVERT JUMPDEST POP PUSH2 0x3B9 PUSH1 0x4 SLOAD DUP2 JUMP JUMPDEST CALLVALUE DUP1 ISZERO PUSH2 0x9B9 JUMPI PUSH1 0x0 DUP1 REVERT JUMPDEST POP PUSH1 0x7 SLOAD PUSH2 0x43F SWAP1 PUSH2 0x100 SWAP1 DIV PUSH1 0x1 PUSH1 0x1 PUSH1 0xA0 SHL SUB AND DUP2 JUMP JUMPDEST CALLVALUE DUP1 ISZERO PUSH2 0x9DE JUMPI PUSH1 0x0 DUP1 REVERT JUMPDEST POP PUSH2 0x3B9 PUSH1 0x6 SLOAD DUP2 JUMP JUMPDEST CALLVALUE DUP1 ISZERO PUSH2 0x9F4 JUMPI PUSH1 0x0 DUP1 REVERT JUMPDEST POP PUSH2 0x3B9 PUSH2 0x400 DUP2 JUMP JUMPDEST CALLVALUE DUP1 ISZERO PUSH2 0xA0A JUMPI PUSH1 0x0 DUP1 REVERT JUMPDEST POP PUSH2 0x4CD PUSH1 0x40 MLOAD DUP1 PUSH1 0x40 ADD PUSH1 0x40 MSTORE DUP1 PUSH1 0x5 DUP2 MSTORE PUSH1 0x20 ADD PUSH32 0x312E322E30000000000000000000000000000000000000000000000000000000 DUP2 MSTORE POP DUP2 JUMP JUMPDEST PUSH1 0x1 PUSH1 0x1 PUSH1 0x50 SHL SUB DUP3 AND PUSH1 0x0 SWAP1 DUP2 MSTORE PUSH1 0x48 PUSH1 0x20 MSTORE PUSH1 0x40 SWAP1 KECCAK256 DUP1 SLOAD PUSH1 0x1 PUSH1 0x1 PUSH1 0xA0 SHL SUB AND CALLER EQ PUSH2 0xAE3 JUMPI PUSH1 0x40 MLOAD PUSH3 0x461BCD PUSH1 0xE5 SHL DUP2 MSTORE PUSH1 0x20 PUSH1 0x4 DUP3 ADD MSTORE PUSH1 0x23 PUSH1 0x24 DUP3 ADD MSTORE PUSH32 0x4F6E6C7920617574686F722063616E207472616E73666572206F776E65727368 PUSH1 0x44 DUP3 ADD MSTORE PUSH32 0x69702E0000000000000000000000000000000000000000000000000000000000 PUSH1 0x64 DUP3 ADD MSTORE PUSH1 0x84 ADD JUMPDEST PUSH1 0x40 MLOAD DUP1 SWAP2 SUB SWAP1 REVERT JUMPDEST DUP1 SLOAD PUSH20 0xFFFFFFFFFFFFFFFFFFFFFFFFFFFFFFFFFFFFFFFF NOT AND PUSH1 0x1 PUSH1 0x1 PUSH1 0xA0 SHL SUB DUP4 AND SWAP1 DUP2 OR DUP3 SSTORE PUSH1 0x40 MLOAD PUSH32 0xDFC39691AEC87DC6AA51FF70C0E592F260C54D2ED6C64E8C4C2306DA0EEC872B SWAP1 PUSH1 0x0 SWAP1 LOG2 POP POP POP JUMP JUMPDEST PUSH1 0x0 DUP3 DUP2 MSTORE PUSH1 0x49 PUSH1 0x20 MSTORE PUSH1 0x40 DUP1 DUP3 KECCAK256 SWAP1 MLOAD PUSH4 0x1C3DB16D PUSH1 0xE0 SHL DUP2 MSTORE PUSH1 0x4 DUP2 ADD DUP6 SWAP1 MSTORE DUP3 SWAP1 PUSH32 0x0 PUSH1 0x1 PUSH1 0x1 PUSH1 0xA0 SHL SUB AND SWAP1 PUSH4 0x1C3DB16D SWAP1 PUSH1 0x24 ADD PUSH1 0x20 PUSH1 0x40 MLOAD DUP1 DUP4 SUB DUP2 DUP7 GAS STATICCALL ISZERO DUP1 ISZERO PUSH2 0xBAE JUMPI RETURNDATASIZE PUSH1 0x0 DUP1 RETURNDATACOPY RETURNDATASIZE PUSH1 0x0 REVERT JUMPDEST POP POP POP POP PUSH1 0x40 MLOAD RETURNDATASIZE PUSH1 0x1F NOT PUSH1 0x1F DUP3 ADD AND DUP3 ADD DUP1 PUSH1 0x40 MSTORE POP DUP2 ADD SWAP1 PUSH2 0xBD2 SWAP2 SWAP1 PUSH2 0x3B85 JUMP JUMPDEST PUSH1 0x2 DUP2 GT ISZERO PUSH2 0xBE3 JUMPI PUSH2 0xBE3 PUSH2 0x385C JUMP JUMPDEST SWAP1 POP PUSH1 0x0 DUP1 PUSH1 0x0 DUP1 PUSH32 0x0 PUSH1 0x1 PUSH1 0x1 PUSH1 0xA0 SHL SUB AND PUSH4 0xAFE15CFB DUP11 PUSH1 0x40 MLOAD DUP3 PUSH4 0xFFFFFFFF AND PUSH1 0xE0 SHL DUP2 MSTORE PUSH1 0x4 ADD PUSH2 0xC39 SWAP2 DUP2 MSTORE PUSH1 0x20 ADD SWAP1 JUMP JUMPDEST PUSH1 0x40 DUP1 MLOAD DUP1 DUP4 SUB DUP2 DUP7 GAS STATICCALL ISZERO DUP1 ISZERO PUSH2 0xC55 JUMPI RETURNDATASIZE PUSH1 0x0 DUP1 RETURNDATACOPY RETURNDATASIZE PUSH1 0x0 REVERT JUMPDEST POP POP POP POP PUSH1 0x40 MLOAD RETURNDATASIZE PUSH1 0x1F NOT PUSH1 0x1F DUP3 ADD AND DUP3 ADD DUP1 PUSH1 0x40 MSTORE POP DUP2 ADD SWAP1 PUSH2 0xC79 SWAP2 SWAP1 PUSH2 0x3B9E JUMP JUMPDEST SWAP2 POP SWAP2 POP PUSH1 0x0 DUP6 PUSH1 0x2 DUP2 GT ISZERO PUSH2 0xC91 JUMPI PUSH2 0xC91 PUSH2 0x385C JUMP JUMPDEST DUP10 PUSH1 0x2 DUP2 GT ISZERO PUSH2 0xCA3 JUMPI PUSH2 0xCA3 PUSH2 0x385C JUMP JUMPDEST EQ ISZERO PUSH2 0xD27 JUMPI DUP2 TIMESTAMP LT PUSH2 0xD1E JUMPI PUSH1 0x40 MLOAD PUSH3 0x461BCD PUSH1 0xE5 SHL DUP2 MSTORE PUSH1 0x20 PUSH1 0x4 DUP3 ADD MSTORE PUSH1 0x2E PUSH1 0x24 DUP3 ADD MSTORE PUSH32 0x46756E64696E67206D757374206265206D6164652077697468696E2074686520 PUSH1 0x44 DUP3 ADD MSTORE PUSH32 0x61707065616C20706572696F642E000000000000000000000000000000000000 PUSH1 0x64 DUP3 ADD MSTORE PUSH1 0x84 ADD PUSH2 0xADA JUMP JUMPDEST POP PUSH1 0x4 SLOAD PUSH2 0xDCF JUMP JUMPDEST PUSH1 0x2 SLOAD PUSH2 0x400 SWAP1 PUSH2 0xD38 DUP6 DUP6 PUSH2 0x3BD8 JUMP JUMPDEST PUSH2 0xD42 SWAP2 SWAP1 PUSH2 0x3BEF JUMP JUMPDEST PUSH2 0xD4C SWAP2 SWAP1 PUSH2 0x3C0E JUMP JUMPDEST PUSH2 0xD56 SWAP1 DUP5 PUSH2 0x3C30 JUMP JUMPDEST TIMESTAMP LT PUSH2 0xDCA JUMPI PUSH1 0x40 MLOAD PUSH3 0x461BCD PUSH1 0xE5 SHL DUP2 MSTORE PUSH1 0x20 PUSH1 0x4 DUP3 ADD MSTORE PUSH1 0x39 PUSH1 0x24 DUP3 ADD MSTORE PUSH32 0x46756E64696E67206D757374206265206D6164652077697468696E2074686520 PUSH1 0x44 DUP3 ADD MSTORE PUSH32 0x66697273742068616C662061707065616C20706572696F642E00000000000000 PUSH1 0x64 DUP3 ADD MSTORE PUSH1 0x84 ADD PUSH2 0xADA JUMP JUMPDEST POP PUSH1 0x5 SLOAD JUMPDEST DUP7 SLOAD PUSH32 0x0 PUSH1 0x1 PUSH1 0x1 PUSH1 0xA0 SHL SUB AND SWAP1 PUSH4 0xF23F16E6 SWAP1 DUP13 SWAP1 PUSH1 0x8 SWAP1 PUSH1 0x1 PUSH1 0xA8 SHL SWAP1 DIV PUSH1 0xFF AND PUSH1 0x40 DUP2 LT PUSH2 0xE21 JUMPI PUSH2 0xE21 PUSH2 0x3C48 JUMP JUMPDEST ADD PUSH1 0x40 MLOAD DUP4 PUSH4 0xFFFFFFFF AND PUSH1 0xE0 SHL DUP2 MSTORE PUSH1 0x4 ADD PUSH2 0xE3F SWAP3 SWAP2 SWAP1 PUSH2 0x3D39 JUMP JUMPDEST PUSH1 0x20 PUSH1 0x40 MLOAD DUP1 DUP4 SUB DUP2 DUP7 GAS STATICCALL ISZERO DUP1 ISZERO PUSH2 0xE5C JUMPI RETURNDATASIZE PUSH1 0x0 DUP1 RETURNDATACOPY RETURNDATASIZE PUSH1 0x0 REVERT JUMPDEST POP POP POP POP PUSH1 0x40 MLOAD RETURNDATASIZE PUSH1 0x1F NOT PUSH1 0x1F DUP3 ADD AND DUP3 ADD DUP1 PUSH1 0x40 MSTORE POP DUP2 ADD SWAP1 PUSH2 0xE80 SWAP2 SWAP1 PUSH2 0x3B85 JUMP JUMPDEST SWAP5 POP PUSH2 0x400 PUSH2 0xE8F DUP3 DUP8 PUSH2 0x3BEF JUMP JUMPDEST PUSH2 0xE99 SWAP2 SWAP1 PUSH2 0x3C0E JUMP JUMPDEST PUSH2 0xEA3 SWAP1 DUP7 PUSH2 0x3C30 JUMP JUMPDEST PUSH1 0x2 DUP9 ADD SLOAD SWAP1 SWAP5 POP DUP10 SWAP4 POP PUSH1 0x0 SWAP3 POP PUSH2 0xEBF SWAP2 POP PUSH1 0x1 SWAP1 PUSH2 0x3BD8 JUMP JUMPDEST SWAP1 POP PUSH1 0x0 DUP7 PUSH1 0x2 ADD DUP3 DUP2 SLOAD DUP2 LT PUSH2 0xED8 JUMPI PUSH2 0xED8 PUSH2 0x3C48 JUMP JUMPDEST SWAP1 PUSH1 0x0 MSTORE PUSH1 0x20 PUSH1 0x0 KECCAK256 SWAP1 PUSH1 0x6 MUL ADD SWAP1 POP DUP1 PUSH1 0x1 ADD DUP4 PUSH1 0x2 DUP2 GT ISZERO PUSH2 0xEFE JUMPI PUSH2 0xEFE PUSH2 0x385C JUMP JUMPDEST PUSH1 0x3 DUP2 LT PUSH2 0xF0E JUMPI PUSH2 0xF0E PUSH2 0x3C48 JUMP JUMPDEST PUSH1 0x20 DUP2 DIV SWAP1 SWAP2 ADD SLOAD PUSH1 0xFF PUSH1 0x1F SWAP1 SWAP3 AND PUSH2 0x100 EXP SWAP1 DIV AND ISZERO PUSH2 0xF97 JUMPI PUSH1 0x40 MLOAD PUSH3 0x461BCD PUSH1 0xE5 SHL DUP2 MSTORE PUSH1 0x20 PUSH1 0x4 DUP3 ADD MSTORE PUSH1 0x21 PUSH1 0x24 DUP3 ADD MSTORE PUSH32 0x41707065616C206665652068617320616C7265616479206265656E2070616964 PUSH1 0x44 DUP3 ADD MSTORE PUSH32 0x2E00000000000000000000000000000000000000000000000000000000000000 PUSH1 0x64 DUP3 ADD MSTORE PUSH1 0x84 ADD PUSH2 0xADA JUMP JUMPDEST PUSH1 0x0 DUP1 DUP3 PUSH1 0x2 ADD DUP6 PUSH1 0x2 DUP2 GT ISZERO PUSH2 0xFB0 JUMPI PUSH2 0xFB0 PUSH2 0x385C JUMP JUMPDEST PUSH1 0x3 DUP2 LT PUSH2 0xFC0 JUMPI PUSH2 0xFC0 PUSH2 0x3C48 JUMP JUMPDEST ADD SLOAD SWAP1 POP DUP6 DUP2 LT PUSH2 0xFD4 JUMPI PUSH1 0x0 SWAP2 POP PUSH2 0xFF8 JUMP JUMPDEST CALLVALUE PUSH2 0xFDF DUP3 DUP9 PUSH2 0x3BD8 JUMP JUMPDEST GT PUSH2 0xFF3 JUMPI PUSH2 0xFEE DUP2 DUP8 PUSH2 0x3BD8 JUMP JUMPDEST PUSH2 0xFF5 JUMP JUMPDEST CALLVALUE JUMPDEST SWAP2 POP JUMPDEST POP CALLER PUSH1 0x1 PUSH1 0x1 PUSH1 0xA0 SHL SUB AND DUP4 DUP13 PUSH32 0x2B4EF80A862EDC5616A4E61C11F4A368F33323FACA91FA7635D48B85C183E66A DUP14 DUP6 PUSH1 0x40 MLOAD PUSH2 0x1036 SWAP3 SWAP2 SWAP1 PUSH2 0x3D5A JUMP JUMPDEST PUSH1 0x40 MLOAD DUP1 SWAP2 SUB SWAP1 LOG4 CALLER PUSH1 0x0 SWAP1 DUP2 MSTORE PUSH1 0x20 DUP4 SWAP1 MSTORE PUSH1 0x40 SWAP1 KECCAK256 DUP2 SWAP1 DUP6 PUSH1 0x2 DUP2 GT ISZERO PUSH2 0x1061 JUMPI PUSH2 0x1061 PUSH2 0x385C JUMP JUMPDEST PUSH1 0x3 DUP2 LT PUSH2 0x1071 JUMPI PUSH2 0x1071 PUSH2 0x3C48 JUMP JUMPDEST ADD PUSH1 0x0 DUP3 DUP3 SLOAD PUSH2 0x1081 SWAP2 SWAP1 PUSH2 0x3C30 JUMP JUMPDEST SWAP3 POP POP DUP2 SWAP1 SSTORE POP DUP1 DUP3 PUSH1 0x2 ADD DUP6 PUSH1 0x2 DUP2 GT ISZERO PUSH2 0x109F JUMPI PUSH2 0x109F PUSH2 0x385C JUMP JUMPDEST PUSH1 0x3 DUP2 LT PUSH2 0x10AF JUMPI PUSH2 0x10AF PUSH2 0x3C48 JUMP JUMPDEST ADD PUSH1 0x0 DUP3 DUP3 SLOAD PUSH2 0x10BF SWAP2 SWAP1 PUSH2 0x3C30 JUMP JUMPDEST SWAP3 POP POP DUP2 SWAP1 SSTORE POP DUP5 DUP3 PUSH1 0x2 ADD DUP6 PUSH1 0x2 DUP2 GT ISZERO PUSH2 0x10DD JUMPI PUSH2 0x10DD PUSH2 0x385C JUMP JUMPDEST PUSH1 0x3 DUP2 LT PUSH2 0x10ED JUMPI PUSH2 0x10ED PUSH2 0x3C48 JUMP JUMPDEST ADD SLOAD LT PUSH2 0x11BB JUMPI DUP2 PUSH1 0x2 ADD DUP5 PUSH1 0x2 DUP2 GT ISZERO PUSH2 0x110A JUMPI PUSH2 0x110A PUSH2 0x385C JUMP JUMPDEST PUSH1 0x3 DUP2 LT PUSH2 0x111A JUMPI PUSH2 0x111A PUSH2 0x3C48 JUMP JUMPDEST ADD SLOAD DUP3 PUSH1 0x5 ADD PUSH1 0x0 DUP3 DUP3 SLOAD PUSH2 0x112F SWAP2 SWAP1 PUSH2 0x3C30 JUMP JUMPDEST SWAP1 SWAP2 SSTORE POP PUSH1 0x1 SWAP1 POP DUP3 DUP2 ADD DUP6 PUSH1 0x2 DUP2 GT ISZERO PUSH2 0x114C JUMPI PUSH2 0x114C PUSH2 0x385C JUMP JUMPDEST PUSH1 0x3 DUP2 LT PUSH2 0x115C JUMPI PUSH2 0x115C PUSH2 0x3C48 JUMP JUMPDEST PUSH1 0x20 SWAP2 DUP3 DUP3 DIV ADD SWAP2 SWAP1 MOD PUSH2 0x100 EXP DUP2 SLOAD DUP2 PUSH1 0xFF MUL NOT AND SWAP1 DUP4 ISZERO ISZERO MUL OR SWAP1 SSTORE POP DUP10 PUSH1 0x2 DUP2 GT ISZERO PUSH2 0x118D JUMPI PUSH2 0x118D PUSH2 0x385C JUMP JUMPDEST PUSH1 0x40 MLOAD DUP5 SWAP1 DUP14 SWAP1 PUSH32 0xB5681F036910F38D8C2FA06F2CBEDC227ECF03D7C4A358EE9096197B15FF8FD0 SWAP1 PUSH1 0x0 SWAP1 LOG4 JUMPDEST PUSH1 0x1 DUP3 ADD SLOAD PUSH2 0x100 SWAP1 DIV PUSH1 0xFF AND DUP1 ISZERO PUSH2 0x11DE JUMPI POP PUSH1 0x1 DUP3 ADD SLOAD PUSH3 0x10000 SWAP1 DIV PUSH1 0xFF AND JUMPDEST ISZERO PUSH2 0x12B1 JUMPI PUSH1 0x2 DUP9 ADD DUP1 SLOAD PUSH1 0x1 ADD DUP2 SSTORE PUSH1 0x0 SWAP1 DUP2 MSTORE PUSH1 0x5 DUP4 ADD DUP1 SLOAD DUP9 SWAP3 SWAP1 PUSH2 0x1207 SWAP1 DUP5 SWAP1 PUSH2 0x3BD8 JUMP JUMPDEST SWAP1 SWAP2 SSTORE POP POP DUP8 SLOAD PUSH32 0x0 PUSH1 0x1 PUSH1 0x1 PUSH1 0xA0 SHL SUB AND SWAP1 PUSH4 0x49912F88 SWAP1 DUP9 SWAP1 DUP15 SWAP1 PUSH1 0x8 SWAP1 PUSH1 0x1 PUSH1 0xA8 SHL SWAP1 DIV PUSH1 0xFF AND PUSH1 0x40 DUP2 LT PUSH2 0x1260 JUMPI PUSH2 0x1260 PUSH2 0x3C48 JUMP JUMPDEST ADD PUSH1 0x40 MLOAD DUP5 PUSH4 0xFFFFFFFF AND PUSH1 0xE0 SHL DUP2 MSTORE PUSH1 0x4 ADD PUSH2 0x127E SWAP3 SWAP2 SWAP1 PUSH2 0x3D39 JUMP JUMPDEST PUSH1 0x0 PUSH1 0x40 MLOAD DUP1 DUP4 SUB DUP2 DUP6 DUP9 DUP1 EXTCODESIZE ISZERO DUP1 ISZERO PUSH2 0x1297 JUMPI PUSH1 0x0 DUP1 REVERT JUMPDEST POP GAS CALL ISZERO DUP1 ISZERO PUSH2 0x12AB JUMPI RETURNDATASIZE PUSH1 0x0 DUP1 RETURNDATACOPY RETURNDATASIZE PUSH1 0x0 REVERT JUMPDEST POP POP POP POP POP JUMPDEST PUSH1 0x0 PUSH2 0x12BD DUP3 CALLVALUE PUSH2 0x3BD8 JUMP JUMPDEST GT ISZERO PUSH2 0x12E9 JUMPI CALLER PUSH2 0x8FC PUSH2 0x12D1 DUP4 CALLVALUE PUSH2 0x3BD8 JUMP JUMPDEST PUSH1 0x40 MLOAD DUP2 ISZERO SWAP1 SWAP3 MUL SWAP2 PUSH1 0x0 DUP2 DUP2 DUP2 DUP6 DUP9 DUP9 CALL POP POP POP POP POP JUMPDEST DUP2 PUSH1 0x1 ADD DUP5 PUSH1 0x2 DUP2 GT ISZERO PUSH2 0x12FF JUMPI PUSH2 0x12FF PUSH2 0x385C JUMP JUMPDEST PUSH1 0x3 DUP2 LT PUSH2 0x130F JUMPI PUSH2 0x130F PUSH2 0x3C48 JUMP JUMPDEST PUSH1 0x20 DUP2 DIV SWAP1 SWAP2 ADD SLOAD PUSH1 0xFF PUSH1 0x1F SWAP1 SWAP3 AND PUSH2 0x100 EXP SWAP1 DIV AND SWAP9 POP POP POP POP POP POP POP POP POP SWAP3 SWAP2 POP POP JUMP JUMPDEST PUSH1 0x0 DUP1 JUMPDEST PUSH1 0x48 PUSH1 0x0 DUP5 PUSH2 0x1347 DUP2 PUSH2 0x3D75 JUMP JUMPDEST PUSH1 0x1 PUSH1 0x1 PUSH1 0x50 SHL SUB SWAP2 SWAP1 SWAP2 AND DUP3 MSTORE PUSH1 0x20 DUP3 ADD SWAP3 SWAP1 SWAP3 MSTORE PUSH1 0x40 ADD PUSH1 0x0 KECCAK256 DUP1 SLOAD SWAP2 SWAP5 POP SWAP2 POP PUSH1 0x1 PUSH1 0xC0 SHL SWAP1 DIV PUSH7 0xFFFFFFFFFFFFFF AND PUSH2 0x1339 JUMPI PUSH2 0x1389 PUSH1 0x1 DUP5 PUSH2 0x3D9C JUMP JUMPDEST PUSH1 0x1 PUSH1 0x1 PUSH1 0x50 SHL SUB AND SWAP4 SWAP3 POP POP POP JUMP JUMPDEST PUSH1 0x0 DUP2 DUP2 MSTORE PUSH1 0x49 PUSH1 0x20 MSTORE PUSH1 0x40 DUP1 DUP3 KECCAK256 DUP1 SLOAD SWAP1 SWAP2 PUSH32 0x0 PUSH1 0x1 PUSH1 0x1 PUSH1 0xA0 SHL SUB AND SWAP2 PUSH4 0xF23F16E6 SWAP2 DUP7 SWAP2 PUSH1 0x8 SWAP2 PUSH1 0x1 PUSH1 0xA8 SHL SWAP1 SWAP2 DIV PUSH1 0xFF AND SWAP1 DUP2 LT PUSH2 0x13FC JUMPI PUSH2 0x13FC PUSH2 0x3C48 JUMP JUMPDEST ADD PUSH1 0x40 MLOAD DUP4 PUSH4 0xFFFFFFFF AND PUSH1 0xE0 SHL DUP2 MSTORE PUSH1 0x4 ADD PUSH2 0x141A SWAP3 SWAP2 SWAP1 PUSH2 0x3D39 JUMP JUMPDEST PUSH1 0x20 PUSH1 0x40 MLOAD DUP1 DUP4 SUB DUP2 DUP7 GAS STATICCALL ISZERO DUP1 ISZERO PUSH2 0x1437 JUMPI RETURNDATASIZE PUSH1 0x0 DUP1 RETURNDATACOPY RETURNDATASIZE PUSH1 0x0 REVERT JUMPDEST POP POP POP POP PUSH1 0x40 MLOAD RETURNDATASIZE PUSH1 0x1F NOT PUSH1 0x1F DUP3 ADD AND DUP3 ADD DUP1 PUSH1 0x40 MSTORE POP DUP2 ADD SWAP1 PUSH2 0x145B SWAP2 SWAP1 PUSH2 0x3B85 JUMP JUMPDEST SWAP4 SWAP3 POP POP POP JUMP JUMPDEST PUSH1 0x7 SLOAD PUSH2 0x100 SWAP1 DIV PUSH1 0x1 PUSH1 0x1 PUSH1 0xA0 SHL SUB AND CALLER EQ PUSH2 0x147E JUMPI PUSH1 0x0 DUP1 REVERT JUMPDEST PUSH2 0x100 DUP2 GT ISZERO PUSH2 0x14F6 JUMPI PUSH1 0x40 MLOAD PUSH3 0x461BCD PUSH1 0xE5 SHL DUP2 MSTORE PUSH1 0x20 PUSH1 0x4 DUP3 ADD MSTORE PUSH1 0x36 PUSH1 0x24 DUP3 ADD MSTORE PUSH32 0x5468652074617820726174652063616E206F6E6C7920626520696E6372656173 PUSH1 0x44 DUP3 ADD MSTORE PUSH32 0x65642062792061206D6178696D756D206F662032352500000000000000000000 PUSH1 0x64 DUP3 ADD MSTORE PUSH1 0x84 ADD PUSH2 0xADA JUMP JUMPDEST PUSH1 0x6 DUP2 SWAP1 SSTORE PUSH1 0x40 MLOAD DUP2 SWAP1 PUSH32 0x5100AB374784A62034356F9AF3B71EA723C1E89BEB5627C6C1DACEA1117250B8 SWAP1 PUSH1 0x0 SWAP1 LOG2 POP JUMP JUMPDEST PUSH1 0x7 SLOAD PUSH1 0xFF SWAP1 DUP2 AND SWAP1 DUP4 AND LT PUSH2 0x1581 JUMPI PUSH1 0x40 MLOAD PUSH3 0x461BCD PUSH1 0xE5 SHL DUP2 MSTORE PUSH1 0x20 PUSH1 0x4 DUP3 ADD MSTORE PUSH1 0x1C PUSH1 0x24 DUP3 ADD MSTORE PUSH32 0x546869732063617465676F727920646F6573206E6F7420657869737400000000 PUSH1 0x44 DUP3 ADD MSTORE PUSH1 0x64 ADD PUSH2 0xADA JUMP JUMPDEST PUSH1 0x0 JUMPDEST PUSH1 0x48 PUSH1 0x0 DUP4 PUSH2 0x1592 DUP2 PUSH2 0x3D75 JUMP JUMPDEST PUSH1 0x1 PUSH1 0x1 PUSH1 0x50 SHL SUB SWAP2 SWAP1 SWAP2 AND DUP3 MSTORE PUSH1 0x20 DUP3 ADD SWAP3 SWAP1 SWAP3 MSTORE PUSH1 0x40 ADD PUSH1 0x0 KECCAK256 DUP1 SLOAD SWAP2 SWAP4 POP SWAP2 POP PUSH1 0x1 PUSH1 0xC0 SHL SWAP1 DIV PUSH7 0xFFFFFFFFFFFFFF AND PUSH2 0x1584 JUMPI DUP1 SLOAD PUSH32 0xFF00000000000000FFFFFFFF0000000000000000000000000000000000000000 AND CALLER PUSH32 0xFF00000000000000FFFFFFFFFFFFFFFFFFFFFFFFFFFFFFFFFFFFFFFFFFFFFFFF AND OR PUSH1 0x1 PUSH1 0xC0 SHL CALLVALUE PUSH1 0x20 SHR PUSH7 0xFFFFFFFFFFFFFF SWAP1 DUP2 AND DUP3 MUL SWAP3 SWAP1 SWAP3 OR PUSH31 0xFFFFFFFFFFFFFFFFFFFFFFFFFFFFFFFFFFFFFFFFFFFFFFFFFFFFFFFFFFFFFF AND PUSH1 0x1 PUSH1 0xF8 SHL PUSH1 0xFF DUP8 AND MUL OR DUP1 DUP5 SSTORE DIV AND PUSH2 0x16CE JUMPI PUSH1 0x40 MLOAD PUSH3 0x461BCD PUSH1 0xE5 SHL DUP2 MSTORE PUSH1 0x20 PUSH1 0x4 DUP3 ADD MSTORE PUSH1 0x39 PUSH1 0x24 DUP3 ADD MSTORE PUSH32 0x596F752063616E277420696E697469616C697A6520616E2061727469636C6520 PUSH1 0x44 DUP3 ADD MSTORE PUSH32 0x776974686F75742070757474696E67206120626F756E74792E00000000000000 PUSH1 0x64 DUP3 ADD MSTORE PUSH1 0x84 ADD PUSH2 0xADA JUMP JUMPDEST PUSH1 0x0 PUSH2 0x16DB PUSH1 0x1 DUP5 PUSH2 0x3D9C JUMP JUMPDEST PUSH1 0x1 PUSH1 0x1 PUSH1 0x50 SHL SUB AND SWAP1 POP PUSH32 0x4F9A2B734331C583FAF3F19D1FEB5F08B742E016A56FB61379950BEAF3E22341 DUP7 DUP7 DUP7 DUP5 PUSH1 0x40 MLOAD PUSH2 0x171B SWAP5 SWAP4 SWAP3 SWAP2 SWAP1 PUSH2 0x3DED JUMP JUMPDEST PUSH1 0x40 MLOAD DUP1 SWAP2 SUB SWAP1 LOG1 DUP2 SLOAD PUSH1 0x40 DUP1 MLOAD DUP4 DUP2 MSTORE PUSH1 0x1 PUSH1 0xC0 SHL SWAP1 SWAP3 DIV PUSH1 0x20 SWAP1 DUP2 SHL PUSH11 0xFFFFFFFFFFFFFF00000000 AND SWAP1 DUP4 ADD MSTORE PUSH32 0xDF5FC410D3381CC7F0A7FE3AF72F4E3CF53EF5787F20554AF69035A950E1B2E3 SWAP2 ADD PUSH1 0x40 MLOAD DUP1 SWAP2 SUB SWAP1 LOG1 POP POP POP POP POP POP JUMP JUMPDEST CALLER PUSH1 0x1 PUSH1 0x1 PUSH1 0xA0 SHL SUB PUSH32 0x0 AND EQ PUSH2 0x17B2 JUMPI PUSH1 0x0 DUP1 REVERT JUMPDEST PUSH1 0x0 DUP3 DUP2 MSTORE PUSH1 0x49 PUSH1 0x20 MSTORE PUSH1 0x40 DUP2 KECCAK256 PUSH1 0x2 DUP2 ADD DUP1 SLOAD SWAP2 SWAP3 SWAP2 PUSH2 0x17D5 SWAP1 PUSH1 0x1 SWAP1 PUSH2 0x3BD8 JUMP JUMPDEST DUP2 SLOAD DUP2 LT PUSH2 0x17E5 JUMPI PUSH2 0x17E5 PUSH2 0x3C48 JUMP JUMPDEST PUSH1 0x0 SWAP2 DUP3 MSTORE PUSH1 0x20 DUP3 KECCAK256 PUSH1 0x1 PUSH1 0x6 SWAP3 SWAP1 SWAP3 MUL ADD SWAP1 DUP2 ADD SLOAD SWAP1 SWAP3 POP PUSH2 0x100 SWAP1 DIV PUSH1 0xFF AND ISZERO PUSH2 0x1813 JUMPI POP PUSH1 0x1 PUSH2 0x1829 JUMP JUMPDEST PUSH1 0x1 DUP3 ADD SLOAD PUSH2 0x100 SWAP1 DIV PUSH1 0xFF AND ISZERO PUSH2 0x1829 JUMPI POP PUSH1 0x2 JUMPDEST PUSH1 0x0 DUP1 DUP3 PUSH1 0x2 DUP2 GT ISZERO PUSH2 0x183E JUMPI PUSH2 0x183E PUSH2 0x385C JUMP JUMPDEST EQ ISZERO PUSH2 0x185B JUMPI DUP5 PUSH1 0x2 DUP2 GT ISZERO PUSH2 0x1856 JUMPI PUSH2 0x1856 PUSH2 0x385C JUMP JUMPDEST PUSH2 0x185D JUMP JUMPDEST DUP2 JUMPDEST DUP5 SLOAD SWAP1 SWAP2 POP DUP2 SWAP1 DUP6 SWAP1 PUSH32 0xFFFFFFFFFFFFFFFFFFFFFF00FFFFFFFFFFFFFFFFFFFFFFFFFFFFFFFFFFFFFFFF AND PUSH1 0x1 PUSH1 0xA0 SHL DUP4 PUSH1 0x2 DUP2 GT ISZERO PUSH2 0x189F JUMPI PUSH2 0x189F PUSH2 0x385C JUMP JUMPDEST MUL OR SWAP1 SSTORE POP PUSH1 0x1 DUP5 ADD SLOAD PUSH1 0x1 PUSH1 0x1 PUSH1 0x50 SHL SUB AND PUSH1 0x0 DUP2 DUP2 MSTORE PUSH1 0x48 PUSH1 0x20 MSTORE PUSH1 0x40 SWAP1 KECCAK256 PUSH1 0x2 DUP4 PUSH1 0x2 DUP2 GT ISZERO PUSH2 0x18D4 JUMPI PUSH2 0x18D4 PUSH2 0x385C JUMP JUMPDEST EQ ISZERO PUSH2 0x198B JUMPI DUP1 SLOAD PUSH32 0xFF00000000000000FFFFFFFFFFFFFFFFFFFFFFFFFFFFFFFFFFFFFFFFFFFFFFFF DUP2 AND DUP3 SSTORE PUSH1 0x40 MLOAD PUSH1 0x1 PUSH1 0x1 PUSH1 0x50 SHL SUB DUP5 AND DUP2 MSTORE PUSH1 0x1 PUSH1 0xC0 SHL SWAP1 SWAP2 DIV PUSH1 0x20 SWAP1 DUP2 SHL PUSH11 0xFFFFFFFFFFFFFF00000000 AND SWAP2 PUSH32 0x8271992F9B3A3F30DC2A464982DC4A136E7357403462443A171A0FB0C6CCC265 SWAP2 ADD PUSH1 0x40 MLOAD DUP1 SWAP2 SUB SWAP1 LOG1 PUSH1 0x0 DUP10 DUP2 MSTORE PUSH1 0x49 PUSH1 0x20 MSTORE PUSH1 0x40 DUP1 DUP3 KECCAK256 SLOAD SWAP1 MLOAD PUSH1 0x1 PUSH1 0x1 PUSH1 0xA0 SHL SUB SWAP1 SWAP2 AND SWAP2 DUP4 ISZERO PUSH2 0x8FC MUL SWAP2 DUP5 SWAP2 DUP2 DUP2 DUP2 DUP6 DUP9 DUP9 CALL POP POP POP POP POP POP JUMPDEST DUP1 SLOAD PUSH4 0xFFFFFFFF PUSH1 0xA0 SHL NOT AND DUP2 SSTORE DUP6 SLOAD PUSH32 0xFFFFFFFFFFFFFFFFFF00FFFFFFFFFFFFFFFFFFFFFFFFFFFFFFFFFFFFFFFFFFFF AND PUSH1 0x1 PUSH1 0xB0 SHL OR DUP7 SSTORE PUSH1 0x40 MLOAD DUP9 SWAP1 CALLER SWAP1 PUSH32 0x394027A5FA6E098A1191094D1719D6929B9ABC535FCC0C8F448D6A4E75622276 SWAP1 PUSH2 0x19FB SWAP1 DUP12 DUP2 MSTORE PUSH1 0x20 ADD SWAP1 JUMP JUMPDEST PUSH1 0x40 MLOAD DUP1 SWAP2 SUB SWAP1 LOG3 POP POP POP POP POP POP POP POP JUMP JUMPDEST PUSH1 0x7 SLOAD PUSH2 0x1A1E SWAP1 PUSH1 0xFF AND PUSH1 0x1 PUSH2 0x3E17 JUMP JUMPDEST PUSH1 0xFF AND PUSH2 0x1A6D JUMPI PUSH1 0x40 MLOAD PUSH3 0x461BCD PUSH1 0xE5 SHL DUP2 MSTORE PUSH1 0x20 PUSH1 0x4 DUP3 ADD DUP2 SWAP1 MSTORE PUSH1 0x24 DUP3 ADD MSTORE PUSH32 0x4E6F207370616365206C65667420666F722061206E65772063617465676F7279 PUSH1 0x44 DUP3 ADD MSTORE PUSH1 0x64 ADD PUSH2 0xADA JUMP JUMPDEST PUSH1 0x7 SLOAD PUSH1 0x40 MLOAD PUSH1 0xFF SWAP1 SWAP2 AND SWAP1 PUSH32 0x61606860EB6C87306811E2695215385101DAAB53BD6AB4E9F9049AEAD9363C7D SWAP1 PUSH2 0x1AA6 SWAP1 DUP6 SWAP1 PUSH2 0x3849 JUMP JUMPDEST PUSH1 0x40 MLOAD DUP1 SWAP2 SUB SWAP1 LOG2 PUSH1 0x7 SLOAD DUP2 SWAP1 PUSH1 0x8 SWAP1 PUSH1 0xFF AND PUSH1 0x40 DUP2 LT PUSH2 0x1AC9 JUMPI PUSH2 0x1AC9 PUSH2 0x3C48 JUMP JUMPDEST ADD SWAP1 DUP1 MLOAD SWAP1 PUSH1 0x20 ADD SWAP1 PUSH2 0x1ADD SWAP3 SWAP2 SWAP1 PUSH2 0x348E JUMP JUMPDEST POP PUSH1 0x7 DUP1 SLOAD PUSH1 0xFF AND SWAP1 PUSH1 0x0 PUSH2 0x1AF1 DUP4 PUSH2 0x3E3C JUMP JUMPDEST SWAP2 SWAP1 PUSH2 0x100 EXP DUP2 SLOAD DUP2 PUSH1 0xFF MUL NOT AND SWAP1 DUP4 PUSH1 0xFF AND MUL OR SWAP1 SSTORE POP POP POP POP JUMP JUMPDEST PUSH1 0x8 DUP2 PUSH1 0x40 DUP2 LT PUSH2 0x1B1E JUMPI PUSH1 0x0 DUP1 REVERT JUMPDEST ADD DUP1 SLOAD SWAP1 SWAP2 POP PUSH2 0x1B2D SWAP1 PUSH2 0x3C5E JUMP JUMPDEST DUP1 PUSH1 0x1F ADD PUSH1 0x20 DUP1 SWAP2 DIV MUL PUSH1 0x20 ADD PUSH1 0x40 MLOAD SWAP1 DUP2 ADD PUSH1 0x40 MSTORE DUP1 SWAP3 SWAP2 SWAP1 DUP2 DUP2 MSTORE PUSH1 0x20 ADD DUP3 DUP1 SLOAD PUSH2 0x1B59 SWAP1 PUSH2 0x3C5E JUMP JUMPDEST DUP1 ISZERO PUSH2 0x1BA6 JUMPI DUP1 PUSH1 0x1F LT PUSH2 0x1B7B JUMPI PUSH2 0x100 DUP1 DUP4 SLOAD DIV MUL DUP4 MSTORE SWAP2 PUSH1 0x20 ADD SWAP2 PUSH2 0x1BA6 JUMP JUMPDEST DUP3 ADD SWAP2 SWAP1 PUSH1 0x0 MSTORE PUSH1 0x20 PUSH1 0x0 KECCAK256 SWAP1 JUMPDEST DUP2 SLOAD DUP2 MSTORE SWAP1 PUSH1 0x1 ADD SWAP1 PUSH1 0x20 ADD DUP1 DUP4 GT PUSH2 0x1B89 JUMPI DUP3 SWAP1 SUB PUSH1 0x1F AND DUP3 ADD SWAP2 JUMPDEST POP POP POP POP POP DUP2 JUMP JUMPDEST PUSH1 0x0 DUP1 PUSH1 0x0 DUP1 PUSH32 0x0 PUSH1 0x1 PUSH1 0x1 PUSH1 0xA0 SHL SUB AND PUSH4 0xAFE15CFB DUP8 PUSH1 0x40 MLOAD DUP3 PUSH4 0xFFFFFFFF AND PUSH1 0xE0 SHL DUP2 MSTORE PUSH1 0x4 ADD PUSH2 0x1C02 SWAP2 DUP2 MSTORE PUSH1 0x20 ADD SWAP1 JUMP JUMPDEST PUSH1 0x40 DUP1 MLOAD DUP1 DUP4 SUB DUP2 DUP7 GAS STATICCALL ISZERO DUP1 ISZERO PUSH2 0x1C1E JUMPI RETURNDATASIZE PUSH1 0x0 DUP1 RETURNDATACOPY RETURNDATASIZE PUSH1 0x0 REVERT JUMPDEST POP POP POP POP PUSH1 0x40 MLOAD RETURNDATASIZE PUSH1 0x1F NOT PUSH1 0x1F DUP3 ADD AND DUP3 ADD DUP1 PUSH1 0x40 MSTORE POP DUP2 ADD SWAP1 PUSH2 0x1C42 SWAP2 SWAP1 PUSH2 0x3B9E JUMP JUMPDEST SWAP2 POP SWAP2 POP PUSH1 0x0 PUSH2 0x400 PUSH1 0x2 SLOAD DUP5 DUP5 PUSH2 0x1C5A SWAP2 SWAP1 PUSH2 0x3BD8 JUMP JUMPDEST PUSH2 0x1C64 SWAP2 SWAP1 PUSH2 0x3BEF JUMP JUMPDEST PUSH2 0x1C6E SWAP2 SWAP1 PUSH2 0x3C0E JUMP JUMPDEST PUSH2 0x1C78 SWAP1 DUP5 PUSH2 0x3C30 JUMP JUMPDEST SWAP1 POP PUSH1 0x0 DUP7 PUSH1 0x2 DUP2 GT ISZERO PUSH2 0x1C8E JUMPI PUSH2 0x1C8E PUSH2 0x385C JUMP JUMPDEST PUSH2 0x1C97 DUP10 PUSH2 0x22DB JUMP JUMPDEST PUSH1 0x2 DUP2 GT ISZERO PUSH2 0x1CA8 JUMPI PUSH2 0x1CA8 PUSH2 0x385C JUMP JUMPDEST PUSH1 0x2 DUP2 GT ISZERO PUSH2 0x1CB9 JUMPI PUSH2 0x1CB9 PUSH2 0x385C JUMP JUMPDEST EQ SWAP1 POP DUP1 PUSH2 0x1CC8 JUMPI DUP4 DUP3 PUSH2 0x1CCB JUMP JUMPDEST DUP4 DUP4 JUMPDEST SWAP6 POP SWAP6 POP POP POP POP POP JUMPDEST SWAP3 POP SWAP3 SWAP1 POP JUMP JUMPDEST PUSH1 0x1 PUSH1 0x1 PUSH1 0x50 SHL SUB DUP2 AND PUSH1 0x0 SWAP1 DUP2 MSTORE PUSH1 0x48 PUSH1 0x20 MSTORE PUSH1 0x40 DUP1 DUP3 KECCAK256 DUP1 SLOAD SWAP1 SWAP2 DUP4 SWAP2 PUSH32 0x0 PUSH1 0x1 PUSH1 0x1 PUSH1 0xA0 SHL SUB AND SWAP2 PUSH4 0xF7434EA9 SWAP2 PUSH1 0x8 SWAP2 PUSH1 0x1 PUSH1 0xF8 SHL SWAP1 SWAP2 DIV PUSH1 0xFF AND SWAP1 DUP2 LT PUSH2 0x1D48 JUMPI PUSH2 0x1D48 PUSH2 0x3C48 JUMP JUMPDEST ADD PUSH1 0x40 MLOAD DUP3 PUSH4 0xFFFFFFFF AND PUSH1 0xE0 SHL DUP2 MSTORE PUSH1 0x4 ADD PUSH2 0x1D65 SWAP2 SWAP1 PUSH2 0x3E5C JUMP JUMPDEST PUSH1 0x20 PUSH1 0x40 MLOAD DUP1 DUP4 SUB DUP2 DUP7 GAS STATICCALL ISZERO DUP1 ISZERO PUSH2 0x1D82 JUMPI RETURNDATASIZE PUSH1 0x0 DUP1 RETURNDATACOPY RETURNDATASIZE PUSH1 0x0 REVERT JUMPDEST POP POP POP POP PUSH1 0x40 MLOAD RETURNDATASIZE PUSH1 0x1F NOT PUSH1 0x1F DUP3 ADD AND DUP3 ADD DUP1 PUSH1 0x40 MSTORE POP DUP2 ADD SWAP1 PUSH2 0x1DA6 SWAP2 SWAP1 PUSH2 0x3B85 JUMP JUMPDEST PUSH1 0x6 SLOAD DUP4 SLOAD SWAP2 SWAP3 POP PUSH1 0x0 SWAP2 PUSH2 0x400 SWAP2 PUSH2 0x1DD5 SWAP2 PUSH1 0x1 PUSH1 0xC0 SHL SWAP1 DIV PUSH1 0x20 SHL PUSH11 0xFFFFFFFFFFFFFF00000000 AND PUSH2 0x3BEF JUMP JUMPDEST PUSH2 0x1DDF SWAP2 SWAP1 PUSH2 0x3C0E JUMP JUMPDEST SWAP1 POP PUSH2 0x1DEB DUP2 DUP4 PUSH2 0x3C30 JUMP JUMPDEST SWAP6 SWAP5 POP POP POP POP POP JUMP JUMPDEST PUSH1 0x0 JUMPDEST DUP2 DUP2 LT ISZERO PUSH2 0x1EB1 JUMPI PUSH1 0x0 JUMPDEST DUP4 DUP4 DUP4 DUP2 DUP2 LT PUSH2 0x1E14 JUMPI PUSH2 0x1E14 PUSH2 0x3C48 JUMP JUMPDEST SWAP1 POP PUSH1 0x20 MUL DUP2 ADD SWAP1 PUSH2 0x1E26 SWAP2 SWAP1 PUSH2 0x3E6F JUMP JUMPDEST SWAP1 POP DUP2 LT ISZERO PUSH2 0x1E9E JUMPI PUSH1 0x0 DUP5 DUP5 DUP5 DUP2 DUP2 LT PUSH2 0x1E43 JUMPI PUSH2 0x1E43 PUSH2 0x3C48 JUMP JUMPDEST SWAP1 POP PUSH1 0x20 MUL DUP2 ADD SWAP1 PUSH2 0x1E55 SWAP2 SWAP1 PUSH2 0x3E6F JUMP JUMPDEST DUP4 DUP2 DUP2 LT PUSH2 0x1E65 JUMPI PUSH2 0x1E65 PUSH2 0x3C48 JUMP JUMPDEST SWAP1 POP PUSH1 0x20 MUL ADD CALLDATALOAD GT ISZERO PUSH2 0x1E8C JUMPI PUSH2 0x1E8A DUP7 DUP7 DUP5 DUP5 PUSH1 0x2 DUP2 GT ISZERO PUSH2 0x992 JUMPI PUSH2 0x992 PUSH2 0x385C JUMP JUMPDEST POP JUMPDEST DUP1 PUSH2 0x1E96 DUP2 PUSH2 0x3EB9 JUMP JUMPDEST SWAP2 POP POP PUSH2 0x1E02 JUMP JUMPDEST POP DUP1 PUSH2 0x1EA9 DUP2 PUSH2 0x3EB9 JUMP JUMPDEST SWAP2 POP POP PUSH2 0x1DF7 JUMP JUMPDEST POP POP POP POP POP JUMP JUMPDEST PUSH1 0x0 DUP4 DUP2 MSTORE PUSH1 0x49 PUSH1 0x20 MSTORE PUSH1 0x40 DUP2 KECCAK256 PUSH1 0x2 DUP2 ADD SLOAD SWAP1 SWAP2 JUMPDEST DUP2 DUP2 LT ISZERO PUSH2 0x1EF5 JUMPI PUSH2 0x1EE2 DUP7 DUP7 DUP4 DUP8 PUSH2 0x310B JUMP JUMPDEST POP DUP1 PUSH2 0x1EED DUP2 PUSH2 0x3EB9 JUMP JUMPDEST SWAP2 POP POP PUSH2 0x1ECE JUMP JUMPDEST POP POP POP POP POP POP JUMP JUMPDEST PUSH1 0x1 PUSH1 0x1 PUSH1 0x50 SHL SUB DUP2 AND PUSH1 0x0 SWAP1 DUP2 MSTORE PUSH1 0x48 PUSH1 0x20 MSTORE PUSH1 0x40 SWAP1 KECCAK256 DUP1 SLOAD PUSH1 0x1 PUSH1 0xC0 SHL SWAP1 DIV PUSH7 0xFFFFFFFFFFFFFF AND PUSH2 0x1F73 JUMPI PUSH1 0x40 MLOAD PUSH3 0x461BCD PUSH1 0xE5 SHL DUP2 MSTORE PUSH1 0x20 PUSH1 0x4 DUP3 ADD MSTORE PUSH1 0x15 PUSH1 0x24 DUP3 ADD MSTORE PUSH32 0x4E6F7468696E6720746F206368616C6C656E67652E0000000000000000000000 PUSH1 0x44 DUP3 ADD MSTORE PUSH1 0x64 ADD PUSH2 0xADA JUMP JUMPDEST DUP1 SLOAD PUSH1 0x1 PUSH1 0xA0 SHL SWAP1 DIV PUSH4 0xFFFFFFFF SWAP1 DUP2 AND EQ ISZERO PUSH2 0x1FD2 JUMPI PUSH1 0x40 MLOAD PUSH3 0x461BCD PUSH1 0xE5 SHL DUP2 MSTORE PUSH1 0x20 PUSH1 0x4 DUP3 ADD MSTORE PUSH1 0x1E PUSH1 0x24 DUP3 ADD MSTORE PUSH32 0x546865726520697320616E206F6E676F696E67206368616C6C656E67652E0000 PUSH1 0x44 DUP3 ADD MSTORE PUSH1 0x64 ADD PUSH2 0xADA JUMP JUMPDEST DUP1 SLOAD PUSH4 0xFFFFFFFF PUSH1 0xA0 SHL NOT AND PUSH24 0xFFFFFFFF0000000000000000000000000000000000000000 OR DUP2 SSTORE PUSH2 0x2003 DUP3 PUSH2 0x1CDB JUMP JUMPDEST CALLVALUE LT ISZERO PUSH2 0x2052 JUMPI PUSH1 0x40 MLOAD PUSH3 0x461BCD PUSH1 0xE5 SHL DUP2 MSTORE PUSH1 0x20 PUSH1 0x4 DUP3 ADD DUP2 SWAP1 MSTORE PUSH1 0x24 DUP3 ADD MSTORE PUSH32 0x496E73756666696369656E742066756E647320746F206368616C6C656E67652E PUSH1 0x44 DUP3 ADD MSTORE PUSH1 0x64 ADD PUSH2 0xADA JUMP JUMPDEST PUSH1 0x6 SLOAD DUP2 SLOAD PUSH1 0x0 SWAP2 PUSH2 0x400 SWAP2 PUSH2 0x207F SWAP2 SWAP1 PUSH1 0x1 PUSH1 0xC0 SHL SWAP1 DIV PUSH1 0x20 SHL PUSH11 0xFFFFFFFFFFFFFF00000000 AND PUSH2 0x3BEF JUMP JUMPDEST PUSH2 0x2089 SWAP2 SWAP1 PUSH2 0x3C0E JUMP JUMPDEST SWAP1 POP DUP1 PUSH1 0x1 PUSH1 0x0 DUP3 DUP3 SLOAD PUSH2 0x209D SWAP2 SWAP1 PUSH2 0x3C30 JUMP JUMPDEST SWAP1 SWAP2 SSTORE POP PUSH1 0x0 SWAP1 POP PUSH1 0x1 PUSH1 0x1 PUSH1 0xA0 SHL SUB PUSH32 0x0 AND PUSH4 0xC13517E1 PUSH2 0x20DE DUP5 CALLVALUE PUSH2 0x3BD8 JUMP JUMPDEST DUP6 SLOAD PUSH1 0x2 SWAP1 PUSH1 0x8 SWAP1 PUSH1 0x1 PUSH1 0xF8 SHL SWAP1 DIV PUSH1 0xFF AND PUSH1 0x40 DUP2 LT PUSH2 0x2100 JUMPI PUSH2 0x2100 PUSH2 0x3C48 JUMP JUMPDEST ADD PUSH1 0x40 MLOAD DUP5 PUSH4 0xFFFFFFFF AND PUSH1 0xE0 SHL DUP2 MSTORE PUSH1 0x4 ADD PUSH2 0x211E SWAP3 SWAP2 SWAP1 PUSH2 0x3D39 JUMP JUMPDEST PUSH1 0x20 PUSH1 0x40 MLOAD DUP1 DUP4 SUB DUP2 DUP6 DUP9 GAS CALL ISZERO DUP1 ISZERO PUSH2 0x213C JUMPI RETURNDATASIZE PUSH1 0x0 DUP1 RETURNDATACOPY RETURNDATASIZE PUSH1 0x0 REVERT JUMPDEST POP POP POP POP POP PUSH1 0x40 MLOAD RETURNDATASIZE PUSH1 0x1F NOT PUSH1 0x1F DUP3 ADD AND DUP3 ADD DUP1 PUSH1 0x40 MSTORE POP DUP2 ADD SWAP1 PUSH2 0x2161 SWAP2 SWAP1 PUSH2 0x3B85 JUMP JUMPDEST PUSH1 0x0 DUP2 DUP2 MSTORE PUSH1 0x49 PUSH1 0x20 SWAP1 DUP2 MSTORE PUSH1 0x40 SWAP2 DUP3 SWAP1 KECCAK256 DUP1 SLOAD CALLER PUSH20 0xFFFFFFFFFFFFFFFFFFFFFFFFFFFFFFFFFFFFFFFF NOT DUP3 AND DUP2 OR DUP4 SSTORE PUSH1 0x2 DUP4 ADD DUP1 SLOAD PUSH1 0x1 SWAP1 DUP2 ADD SWAP1 SWAP2 SSTORE DUP4 ADD DUP1 SLOAD PUSH10 0xFFFFFFFFFFFFFFFFFFFF NOT AND PUSH1 0x1 PUSH1 0x1 PUSH1 0x50 SHL SUB DUP13 AND OR SWAP1 SSTORE DUP9 SLOAD PUSH32 0xFFFFFFFFFFFFFFFFFFFF00FF0000000000000000000000000000000000000000 SWAP1 SWAP3 AND PUSH32 0xFFFFFFFFFFFFFFFFFFFF00FFFFFFFFFFFFFFFFFFFFFFFFFFFFFFFFFFFFFFFFFF SWAP1 SWAP2 AND OR PUSH1 0x1 PUSH1 0xF8 SHL SWAP2 DUP3 SWAP1 DIV PUSH1 0xFF SWAP1 DUP2 AND PUSH1 0x1 PUSH1 0xA8 SHL MUL SWAP2 SWAP1 SWAP2 OR SWAP1 SWAP3 SSTORE DUP8 SLOAD DUP5 MLOAD SWAP2 SWAP1 DIV SWAP1 SWAP2 AND DUP2 MSTORE SWAP1 DUP2 ADD DUP4 SWAP1 MSTORE SWAP2 SWAP3 POP DUP3 SWAP2 PUSH1 0x1 PUSH1 0x1 PUSH1 0xA0 SHL SUB PUSH32 0x0 AND SWAP2 PUSH32 0x74BAAB670A4015AB2F1B467C5252A96141A2573F2908E58A92081E80D3CFDE3D SWAP2 ADD PUSH1 0x40 MLOAD DUP1 SWAP2 SUB SWAP1 LOG3 PUSH1 0x40 DUP1 MLOAD CALLER DUP2 MSTORE PUSH1 0x20 DUP2 ADD DUP4 SWAP1 MSTORE PUSH1 0x1 PUSH1 0x1 PUSH1 0x50 SHL SUB DUP7 AND SWAP2 PUSH32 0x1E5338A1FB672AA84963DC9F9E4AFD009B4ED726DEBB09224BF4D02A6C68B4E4 SWAP2 ADD PUSH1 0x40 MLOAD DUP1 SWAP2 SUB SWAP1 LOG2 POP POP POP POP JUMP JUMPDEST PUSH1 0x40 MLOAD PUSH4 0x1C3DB16D PUSH1 0xE0 SHL DUP2 MSTORE PUSH1 0x4 DUP2 ADD DUP3 SWAP1 MSTORE PUSH1 0x0 SWAP1 PUSH32 0x0 PUSH1 0x1 PUSH1 0x1 PUSH1 0xA0 SHL SUB AND SWAP1 PUSH4 0x1C3DB16D SWAP1 PUSH1 0x24 ADD PUSH1 0x20 PUSH1 0x40 MLOAD DUP1 DUP4 SUB DUP2 DUP7 GAS STATICCALL ISZERO DUP1 ISZERO PUSH2 0x2343 JUMPI RETURNDATASIZE PUSH1 0x0 DUP1 RETURNDATACOPY RETURNDATASIZE PUSH1 0x0 REVERT JUMPDEST POP POP POP POP PUSH1 0x40 MLOAD RETURNDATASIZE PUSH1 0x1F NOT PUSH1 0x1F DUP3 ADD AND DUP3 ADD DUP1 PUSH1 0x40 MSTORE POP DUP2 ADD SWAP1 PUSH2 0x2367 SWAP2 SWAP1 PUSH2 0x3B85 JUMP JUMPDEST SWAP3 SWAP2 POP POP JUMP JUMPDEST PUSH2 0x2375 PUSH2 0x3512 JUMP JUMPDEST PUSH2 0x237D PUSH2 0x3512 JUMP JUMPDEST PUSH1 0x0 DUP5 DUP2 MSTORE PUSH1 0x49 PUSH1 0x20 MSTORE PUSH1 0x40 DUP2 KECCAK256 PUSH1 0x2 ADD DUP1 SLOAD DUP3 SWAP2 SWAP1 DUP7 SWAP1 DUP2 LT PUSH2 0x23A3 JUMPI PUSH2 0x23A3 PUSH2 0x3C48 JUMP JUMPDEST SWAP1 PUSH1 0x0 MSTORE PUSH1 0x20 PUSH1 0x0 KECCAK256 SWAP1 PUSH1 0x6 MUL ADD SWAP1 POP DUP1 PUSH1 0x1 ADD DUP2 PUSH1 0x2 ADD DUP3 PUSH1 0x5 ADD SLOAD DUP3 PUSH1 0x3 DUP1 PUSH1 0x20 MUL PUSH1 0x40 MLOAD SWAP1 DUP2 ADD PUSH1 0x40 MSTORE DUP1 SWAP3 SWAP2 SWAP1 DUP3 PUSH1 0x3 DUP1 ISZERO PUSH2 0x2418 JUMPI PUSH1 0x20 MUL DUP3 ADD SWAP2 PUSH1 0x0 SWAP1 JUMPDEST DUP3 SLOAD PUSH2 0x100 DUP4 SWAP1 EXP SWAP1 DIV PUSH1 0xFF AND ISZERO ISZERO DUP2 MSTORE PUSH1 0x20 PUSH1 0x1 SWAP3 DUP4 ADD DUP2 DUP2 DIV SWAP5 DUP6 ADD SWAP5 SWAP1 SWAP4 SUB SWAP1 SWAP3 MUL SWAP2 ADD DUP1 DUP5 GT PUSH2 0x23E7 JUMPI SWAP1 POP JUMPDEST POP POP PUSH1 0x40 DUP1 MLOAD PUSH1 0x60 DUP2 ADD SWAP2 DUP3 SWAP1 MSTORE SWAP5 SWAP8 POP DUP7 SWAP4 POP PUSH1 0x3 SWAP3 POP SWAP1 POP DUP3 DUP5 JUMPDEST DUP2 SLOAD DUP2 MSTORE PUSH1 0x20 ADD SWAP1 PUSH1 0x1 ADD SWAP1 DUP1 DUP4 GT PUSH2 0x2435 JUMPI POP POP POP POP POP SWAP2 POP SWAP4 POP SWAP4 POP SWAP4 POP POP SWAP3 POP SWAP3 POP SWAP3 JUMP JUMPDEST PUSH1 0x7 SLOAD PUSH2 0x100 SWAP1 DIV PUSH1 0x1 PUSH1 0x1 PUSH1 0xA0 SHL SUB AND CALLER EQ PUSH2 0x2479 JUMPI PUSH1 0x0 DUP1 REVERT JUMPDEST PUSH1 0x7 DUP1 SLOAD PUSH21 0xFFFFFFFFFFFFFFFFFFFFFFFFFFFFFFFFFFFFFFFF00 NOT AND PUSH2 0x100 PUSH1 0x1 PUSH1 0x1 PUSH1 0xA0 SHL SUB DUP5 AND SWAP1 DUP2 MUL SWAP2 SWAP1 SWAP2 OR SWAP1 SWAP2 SSTORE PUSH1 0x40 MLOAD PUSH32 0xC2515F25186DF02132AD46F01E062C3B8982C8DE57FA2B1B0A280D8E810F39B SWAP1 PUSH1 0x0 SWAP1 LOG2 POP JUMP JUMPDEST PUSH1 0x7 SLOAD PUSH2 0x100 SWAP1 DIV PUSH1 0x1 PUSH1 0x1 PUSH1 0xA0 SHL SUB AND CALLER EQ PUSH2 0x24F4 JUMPI PUSH1 0x0 DUP1 REVERT JUMPDEST PUSH1 0x5 DUP2 SWAP1 SSTORE PUSH1 0x40 MLOAD DUP2 SWAP1 PUSH32 0x505F3BF1E426C82F14F7C9CFB2D31EF5B7BB76428E16BD90DABEC113E3D4A2BC SWAP1 PUSH1 0x0 SWAP1 LOG2 POP JUMP JUMPDEST PUSH1 0x7 SLOAD PUSH2 0x100 SWAP1 DIV PUSH1 0x1 PUSH1 0x1 PUSH1 0xA0 SHL SUB AND CALLER EQ PUSH2 0x2543 JUMPI PUSH1 0x0 DUP1 REVERT JUMPDEST PUSH1 0x3 DUP2 SWAP1 SSTORE PUSH1 0x40 MLOAD DUP2 SWAP1 PUSH32 0x207E19E347BECB468EF02D25790188E4D5DA0FE37176D3BBB7940168EC5D6136 SWAP1 PUSH1 0x0 SWAP1 LOG2 POP JUMP JUMPDEST PUSH1 0x1 PUSH1 0x1 PUSH1 0x50 SHL SUB DUP2 AND PUSH1 0x0 SWAP1 DUP2 MSTORE PUSH1 0x48 PUSH1 0x20 MSTORE PUSH1 0x40 SWAP1 KECCAK256 DUP1 SLOAD PUSH1 0x1 PUSH1 0x1 PUSH1 0xA0 SHL SUB AND CALLER EQ PUSH2 0x25F3 JUMPI PUSH1 0x40 MLOAD PUSH3 0x461BCD PUSH1 0xE5 SHL DUP2 MSTORE PUSH1 0x20 PUSH1 0x4 DUP3 ADD MSTORE PUSH1 0x24 DUP1 DUP3 ADD MSTORE PUSH32 0x4F6E6C7920617574686F722063616E20776974686472617720616E2061727469 PUSH1 0x44 DUP3 ADD MSTORE PUSH4 0x31B63297 PUSH1 0xE1 SHL PUSH1 0x64 DUP3 ADD MSTORE PUSH1 0x84 ADD PUSH2 0xADA JUMP JUMPDEST DUP1 SLOAD PUSH1 0x1 PUSH1 0xA0 SHL SWAP1 DIV PUSH4 0xFFFFFFFF AND ISZERO PUSH2 0x2675 JUMPI PUSH1 0x40 MLOAD PUSH3 0x461BCD PUSH1 0xE5 SHL DUP2 MSTORE PUSH1 0x20 PUSH1 0x4 DUP3 ADD MSTORE PUSH1 0x35 PUSH1 0x24 DUP3 ADD MSTORE PUSH32 0x5769746864726177616C20616C726561647920696E69746961746564206F7220 PUSH1 0x44 DUP3 ADD MSTORE PUSH32 0x74686572652069732061206368616C6C656E67652E0000000000000000000000 PUSH1 0x64 DUP3 ADD MSTORE PUSH1 0x84 ADD PUSH2 0xADA JUMP JUMPDEST PUSH1 0x3 SLOAD PUSH2 0x2682 SWAP1 TIMESTAMP PUSH2 0x3C30 JUMP JUMPDEST DUP2 SLOAD PUSH4 0xFFFFFFFF SWAP2 SWAP1 SWAP2 AND PUSH1 0x1 PUSH1 0xA0 SHL MUL PUSH4 0xFFFFFFFF PUSH1 0xA0 SHL NOT SWAP1 SWAP2 AND OR DUP2 SSTORE PUSH1 0x40 MLOAD PUSH1 0x1 PUSH1 0x1 PUSH1 0x50 SHL SUB DUP4 AND DUP2 MSTORE PUSH32 0x416C1AD2B96C356F3BBD35431F86CCE449DDBB4F8C3755EA9D2776B04C2E9C8F SWAP1 PUSH1 0x20 ADD JUMPDEST PUSH1 0x40 MLOAD DUP1 SWAP2 SUB SWAP1 LOG1 POP POP JUMP JUMPDEST PUSH1 0x0 DUP3 DUP2 MSTORE PUSH1 0x49 PUSH1 0x20 MSTORE PUSH1 0x40 DUP2 KECCAK256 PUSH1 0x2 DUP2 ADD SLOAD DUP3 SWAP1 PUSH2 0x2704 SWAP1 PUSH1 0x1 SWAP1 PUSH2 0x3BD8 JUMP JUMPDEST SWAP1 POP PUSH1 0x0 DUP3 PUSH1 0x2 ADD DUP3 DUP2 SLOAD DUP2 LT PUSH2 0x271D JUMPI PUSH2 0x271D PUSH2 0x3C48 JUMP JUMPDEST SWAP1 PUSH1 0x0 MSTORE PUSH1 0x20 PUSH1 0x0 KECCAK256 SWAP1 PUSH1 0x6 MUL ADD SWAP1 POP PUSH1 0x0 DUP6 PUSH1 0x2 DUP2 GT ISZERO PUSH2 0x2741 JUMPI PUSH2 0x2741 PUSH2 0x385C JUMP JUMPDEST PUSH2 0x274A DUP9 PUSH2 0x22DB JUMP JUMPDEST PUSH1 0x2 DUP2 GT ISZERO PUSH2 0x275B JUMPI PUSH2 0x275B PUSH2 0x385C JUMP JUMPDEST PUSH1 0x2 DUP2 GT ISZERO PUSH2 0x276C JUMPI PUSH2 0x276C PUSH2 0x385C JUMP JUMPDEST EQ SWAP1 POP PUSH1 0x0 DUP2 PUSH2 0x277E JUMPI PUSH1 0x5 SLOAD PUSH2 0x2782 JUMP JUMPDEST PUSH1 0x4 SLOAD JUMPDEST SWAP1 POP PUSH1 0x0 DUP4 PUSH1 0x2 ADD DUP9 PUSH1 0x2 DUP2 GT ISZERO PUSH2 0x279C JUMPI PUSH2 0x279C PUSH2 0x385C JUMP JUMPDEST PUSH1 0x3 DUP2 LT PUSH2 0x27AC JUMPI PUSH2 0x27AC PUSH2 0x3C48 JUMP JUMPDEST ADD SLOAD DUP7 SLOAD SWAP1 SWAP2 POP PUSH1 0x0 SWAP1 PUSH32 0x0 PUSH1 0x1 PUSH1 0x1 PUSH1 0xA0 SHL SUB AND SWAP1 PUSH4 0xF23F16E6 SWAP1 DUP13 SWAP1 PUSH1 0x8 SWAP1 PUSH1 0x1 PUSH1 0xA8 SHL SWAP1 DIV PUSH1 0xFF AND PUSH1 0x40 DUP2 LT PUSH2 0x2806 JUMPI PUSH2 0x2806 PUSH2 0x3C48 JUMP JUMPDEST ADD PUSH1 0x40 MLOAD DUP4 PUSH4 0xFFFFFFFF AND PUSH1 0xE0 SHL DUP2 MSTORE PUSH1 0x4 ADD PUSH2 0x2824 SWAP3 SWAP2 SWAP1 PUSH2 0x3D39 JUMP JUMPDEST PUSH1 0x20 PUSH1 0x40 MLOAD DUP1 DUP4 SUB DUP2 DUP7 GAS STATICCALL ISZERO DUP1 ISZERO PUSH2 0x2841 JUMPI RETURNDATASIZE PUSH1 0x0 DUP1 RETURNDATACOPY RETURNDATASIZE PUSH1 0x0 REVERT JUMPDEST POP POP POP POP PUSH1 0x40 MLOAD RETURNDATASIZE PUSH1 0x1F NOT PUSH1 0x1F DUP3 ADD AND DUP3 ADD DUP1 PUSH1 0x40 MSTORE POP DUP2 ADD SWAP1 PUSH2 0x2865 SWAP2 SWAP1 PUSH2 0x3B85 JUMP JUMPDEST SWAP1 POP PUSH1 0x0 PUSH2 0x400 PUSH2 0x2876 DUP6 DUP5 PUSH2 0x3BEF JUMP JUMPDEST PUSH2 0x2880 SWAP2 SWAP1 PUSH2 0x3C0E JUMP JUMPDEST PUSH2 0x288A SWAP1 DUP4 PUSH2 0x3C30 JUMP JUMPDEST SWAP1 POP PUSH2 0x2896 DUP4 DUP3 PUSH2 0x3BD8 JUMP JUMPDEST SWAP12 SWAP11 POP POP POP POP POP POP POP POP POP POP POP JUMP JUMPDEST CALLER PUSH1 0x1 PUSH1 0x1 PUSH1 0xA0 SHL SUB AND DUP4 PUSH32 0x0 PUSH1 0x1 PUSH1 0x1 PUSH1 0xA0 SHL SUB AND PUSH32 0xDCCF2F8B2CC26EAFCD61905CBA744CFF4B81D14740725F6376390DC6298A6A3C DUP6 DUP6 PUSH1 0x40 MLOAD PUSH2 0x290B SWAP3 SWAP2 SWAP1 PUSH2 0x3ED4 JUMP JUMPDEST PUSH1 0x40 MLOAD DUP1 SWAP2 SUB SWAP1 LOG4 POP POP POP JUMP JUMPDEST PUSH1 0x1 PUSH1 0x1 PUSH1 0x50 SHL SUB DUP2 AND PUSH1 0x0 SWAP1 DUP2 MSTORE PUSH1 0x48 PUSH1 0x20 MSTORE PUSH1 0x40 SWAP1 KECCAK256 DUP1 SLOAD PUSH1 0x1 PUSH1 0x1 PUSH1 0xA0 SHL SUB AND CALLER EQ PUSH2 0x2995 JUMPI PUSH1 0x40 MLOAD PUSH3 0x461BCD PUSH1 0xE5 SHL DUP2 MSTORE PUSH1 0x20 PUSH1 0x4 DUP3 ADD MSTORE PUSH1 0x24 DUP1 DUP3 ADD MSTORE PUSH32 0x4F6E6C7920617574686F722063616E20776974686472617720616E2061727469 PUSH1 0x44 DUP3 ADD MSTORE PUSH4 0x31B63297 PUSH1 0xE1 SHL PUSH1 0x64 DUP3 ADD MSTORE PUSH1 0x84 ADD PUSH2 0xADA JUMP JUMPDEST DUP1 SLOAD PUSH1 0x1 PUSH1 0xA0 SHL SWAP1 DIV PUSH4 0xFFFFFFFF AND PUSH2 0x2A16 JUMPI PUSH1 0x40 MLOAD PUSH3 0x461BCD PUSH1 0xE5 SHL DUP2 MSTORE PUSH1 0x20 PUSH1 0x4 DUP3 ADD MSTORE PUSH1 0x26 PUSH1 0x24 DUP3 ADD MSTORE PUSH32 0x596F75206E65656420746F20696E697469617465207769746864726177616C20 PUSH1 0x44 DUP3 ADD MSTORE PUSH32 0x66697273742E0000000000000000000000000000000000000000000000000000 PUSH1 0x64 DUP3 ADD MSTORE PUSH1 0x84 ADD PUSH2 0xADA JUMP JUMPDEST DUP1 SLOAD TIMESTAMP PUSH1 0x1 PUSH1 0xA0 SHL SWAP1 SWAP2 DIV PUSH4 0xFFFFFFFF AND GT ISZERO PUSH2 0x2A9B JUMPI PUSH1 0x40 MLOAD PUSH3 0x461BCD PUSH1 0xE5 SHL DUP2 MSTORE PUSH1 0x20 PUSH1 0x4 DUP3 ADD MSTORE PUSH1 0x3F PUSH1 0x24 DUP3 ADD MSTORE PUSH32 0x596F75206E65656420746F207761697420666F722074696D656C6F636B206F72 PUSH1 0x44 DUP3 ADD MSTORE PUSH32 0x207761697420756E74696C20746865206368616C6C656E676520656E64732E00 PUSH1 0x64 DUP3 ADD MSTORE PUSH1 0x84 ADD PUSH2 0xADA JUMP JUMPDEST DUP1 SLOAD PUSH32 0xFF0000000000000000000000FFFFFFFFFFFFFFFFFFFFFFFFFFFFFFFFFFFFFFFF DUP2 AND DUP3 SSTORE PUSH1 0x40 MLOAD PUSH1 0x1 PUSH1 0xC0 SHL SWAP1 SWAP2 DIV PUSH1 0x20 SHL PUSH11 0xFFFFFFFFFFFFFF00000000 AND SWAP1 CALLER SWAP1 PUSH2 0x8FC DUP4 ISZERO MUL SWAP1 DUP4 SWAP1 PUSH1 0x0 DUP2 DUP2 DUP2 DUP6 DUP9 DUP9 CALL SWAP4 POP POP POP POP ISZERO DUP1 ISZERO PUSH2 0x2B08 JUMPI RETURNDATASIZE PUSH1 0x0 DUP1 RETURNDATACOPY RETURNDATASIZE PUSH1 0x0 REVERT JUMPDEST POP PUSH1 0x40 MLOAD PUSH1 0x1 PUSH1 0x1 PUSH1 0x50 SHL SUB DUP5 AND DUP2 MSTORE PUSH32 0x70B41D8CCA762CEEC66D93F536DBB31F5CABBF1901F862508B9438DE54FCE4EB SWAP1 PUSH1 0x20 ADD PUSH1 0x40 MLOAD DUP1 SWAP2 SUB SWAP1 LOG1 POP POP POP JUMP JUMPDEST PUSH1 0x7 SLOAD PUSH2 0x100 SWAP1 DIV PUSH1 0x1 PUSH1 0x1 PUSH1 0xA0 SHL SUB AND CALLER EQ PUSH2 0x2B66 JUMPI PUSH1 0x0 DUP1 REVERT JUMPDEST PUSH1 0x4 DUP2 SWAP1 SSTORE PUSH1 0x40 MLOAD DUP2 SWAP1 PUSH32 0x8DF75282265171690A1298CF028F5E3C7D8D42313394A4F25D4AEEA6C1EA62CF SWAP1 PUSH1 0x0 SWAP1 LOG2 POP JUMP JUMPDEST PUSH1 0x0 DUP3 DUP2 MSTORE PUSH1 0x49 PUSH1 0x20 MSTORE PUSH1 0x40 DUP2 KECCAK256 DUP1 SLOAD PUSH1 0x60 SWAP2 SWAP1 PUSH1 0x1 PUSH1 0xB0 SHL SWAP1 DIV PUSH1 0xFF AND PUSH2 0x2BC5 JUMPI PUSH1 0x0 SWAP3 POP POP PUSH2 0x1CD4 JUMP JUMPDEST PUSH1 0x2 DUP2 ADD SLOAD DUP2 SLOAD PUSH1 0x1 PUSH1 0xA0 SHL SWAP1 DIV PUSH1 0xFF AND DUP2 PUSH8 0xFFFFFFFFFFFFFFFF DUP2 GT ISZERO PUSH2 0x2BEF JUMPI PUSH2 0x2BEF PUSH2 0x36E1 JUMP JUMPDEST PUSH1 0x40 MLOAD SWAP1 DUP1 DUP3 MSTORE DUP1 PUSH1 0x20 MUL PUSH1 0x20 ADD DUP3 ADD PUSH1 0x40 MSTORE DUP1 ISZERO PUSH2 0x2C22 JUMPI DUP2 PUSH1 0x20 ADD JUMPDEST PUSH1 0x60 DUP2 MSTORE PUSH1 0x20 ADD SWAP1 PUSH1 0x1 SWAP1 SUB SWAP1 DUP2 PUSH2 0x2C0D JUMPI SWAP1 POP JUMPDEST POP SWAP4 POP PUSH1 0x0 JUMPDEST DUP3 DUP2 LT ISZERO PUSH2 0x2D78 JUMPI PUSH2 0x2C3C PUSH1 0x2 PUSH1 0x1 PUSH2 0x3C30 JUMP JUMPDEST PUSH8 0xFFFFFFFFFFFFFFFF DUP2 GT ISZERO PUSH2 0x2C54 JUMPI PUSH2 0x2C54 PUSH2 0x36E1 JUMP JUMPDEST PUSH1 0x40 MLOAD SWAP1 DUP1 DUP3 MSTORE DUP1 PUSH1 0x20 MUL PUSH1 0x20 ADD DUP3 ADD PUSH1 0x40 MSTORE DUP1 ISZERO PUSH2 0x2C7D JUMPI DUP2 PUSH1 0x20 ADD PUSH1 0x20 DUP3 MUL DUP1 CALLDATASIZE DUP4 CALLDATACOPY ADD SWAP1 POP JUMPDEST POP DUP6 DUP3 DUP2 MLOAD DUP2 LT PUSH2 0x2C90 JUMPI PUSH2 0x2C90 PUSH2 0x3C48 JUMP JUMPDEST PUSH1 0x20 MUL PUSH1 0x20 ADD ADD DUP2 SWAP1 MSTORE POP PUSH1 0x0 DUP5 PUSH1 0x2 ADD DUP3 DUP2 SLOAD DUP2 LT PUSH2 0x2CB2 JUMPI PUSH2 0x2CB2 PUSH2 0x3C48 JUMP JUMPDEST SWAP1 PUSH1 0x0 MSTORE PUSH1 0x20 PUSH1 0x0 KECCAK256 SWAP1 PUSH1 0x6 MUL ADD SWAP1 POP PUSH1 0x0 JUMPDEST PUSH1 0x2 DUP2 GT PUSH2 0x2D63 JUMPI PUSH1 0x0 PUSH2 0x2CEC DUP4 DUP12 DUP5 PUSH1 0x2 DUP2 GT ISZERO PUSH2 0x2CE6 JUMPI PUSH2 0x2CE6 PUSH2 0x385C JUMP JUMPDEST DUP9 PUSH2 0x326F JUMP JUMPDEST SWAP1 POP DUP1 ISZERO PUSH2 0x2D50 JUMPI PUSH2 0x2D0B DUP4 DUP12 DUP5 PUSH1 0x2 DUP2 GT ISZERO PUSH2 0x2CE6 JUMPI PUSH2 0x2CE6 PUSH2 0x385C JUMP JUMPDEST PUSH2 0x2D15 SWAP1 DUP11 PUSH2 0x3C30 JUMP JUMPDEST SWAP9 POP DUP1 DUP9 DUP6 DUP2 MLOAD DUP2 LT PUSH2 0x2D2A JUMPI PUSH2 0x2D2A PUSH2 0x3C48 JUMP JUMPDEST PUSH1 0x20 MUL PUSH1 0x20 ADD ADD MLOAD DUP4 DUP2 MLOAD DUP2 LT PUSH2 0x2D43 JUMPI PUSH2 0x2D43 PUSH2 0x3C48 JUMP JUMPDEST PUSH1 0x20 MUL PUSH1 0x20 ADD ADD DUP2 DUP2 MSTORE POP POP JUMPDEST POP DUP1 PUSH2 0x2D5B DUP2 PUSH2 0x3EB9 JUMP JUMPDEST SWAP2 POP POP PUSH2 0x2CC5 JUMP JUMPDEST POP POP DUP1 DUP1 PUSH2 0x2D70 SWAP1 PUSH2 0x3EB9 JUMP JUMPDEST SWAP2 POP POP PUSH2 0x2C28 JUMP JUMPDEST POP POP POP POP SWAP3 POP SWAP3 SWAP1 POP JUMP JUMPDEST PUSH1 0x7 SLOAD PUSH2 0x100 SWAP1 DIV PUSH1 0x1 PUSH1 0x1 PUSH1 0xA0 SHL SUB AND CALLER EQ PUSH2 0x2D9F JUMPI PUSH1 0x0 DUP1 REVERT JUMPDEST PUSH1 0x0 DUP1 SLOAD PUSH21 0xFFFFFFFFFFFFFFFFFFFFFFFFFFFFFFFFFFFFFFFF00 NOT AND PUSH2 0x100 PUSH1 0x1 PUSH1 0x1 PUSH1 0xA0 SHL SUB DUP5 AND SWAP1 DUP2 MUL SWAP2 SWAP1 SWAP2 OR DUP3 SSTORE PUSH1 0x40 MLOAD SWAP1 SWAP2 PUSH32 0x8A3509A4057C89A5993A4A3140C2EBF7E829D325D8998EAA6C48ADCFF98B2CEF SWAP2 LOG2 POP JUMP JUMPDEST PUSH1 0x0 DUP1 DUP4 PUSH1 0x2 DUP2 GT ISZERO PUSH2 0x2E11 JUMPI PUSH2 0x2E11 PUSH2 0x385C JUMP JUMPDEST DUP4 PUSH1 0x2 DUP2 GT ISZERO PUSH2 0x2E23 JUMPI PUSH2 0x2E23 PUSH2 0x385C JUMP JUMPDEST EQ SWAP1 POP PUSH2 0x3E8 PUSH1 0x0 DUP3 PUSH2 0x2E38 JUMPI PUSH1 0x5 SLOAD PUSH2 0x2E3C JUMP JUMPDEST PUSH1 0x4 SLOAD JUMPDEST SWAP1 POP PUSH2 0x2E4A PUSH2 0x400 DUP3 PUSH2 0x3C30 JUMP JUMPDEST DUP3 PUSH2 0x400 PUSH1 0x5 SLOAD PUSH1 0x4 SLOAD PUSH2 0x2E5E SWAP2 SWAP1 PUSH2 0x3C30 JUMP JUMPDEST PUSH2 0x2E68 SWAP2 SWAP1 PUSH2 0x3C30 JUMP JUMPDEST PUSH2 0x2E72 SWAP2 SWAP1 PUSH2 0x3BEF JUMP JUMPDEST PUSH2 0x2E7C SWAP2 SWAP1 PUSH2 0x3C0E JUMP JUMPDEST SWAP7 SWAP6 POP POP POP POP POP POP JUMP JUMPDEST PUSH1 0x1 DUP1 SLOAD PUSH1 0x0 SWAP2 DUP3 SWAP1 SSTORE DUP2 SLOAD PUSH1 0x40 MLOAD SWAP2 SWAP3 PUSH2 0x100 SWAP1 SWAP2 DIV PUSH1 0x1 PUSH1 0x1 PUSH1 0xA0 SHL SUB AND SWAP2 PUSH2 0x8FC DUP5 ISZERO MUL SWAP2 DUP5 SWAP2 SWAP1 DUP2 DUP2 DUP2 DUP6 DUP9 DUP9 CALL POP POP PUSH1 0x40 MLOAD DUP5 SWAP4 POP PUSH32 0xB315332B30DC40D1E51DEF214CE42D93A73BD0C17B08DB04B34F10736BB2F06F SWAP3 POP PUSH1 0x0 SWAP2 POP LOG2 POP JUMP JUMPDEST PUSH1 0x7 SLOAD PUSH2 0x100 SWAP1 DIV PUSH1 0x1 PUSH1 0x1 PUSH1 0xA0 SHL SUB AND CALLER EQ PUSH2 0x2F07 JUMPI PUSH1 0x0 DUP1 REVERT JUMPDEST PUSH1 0x0 DUP1 SLOAD PUSH1 0xFF NOT DUP2 AND PUSH1 0xFF SWAP1 SWAP2 AND ISZERO OR SWAP1 SSTORE JUMP JUMPDEST PUSH1 0x1 PUSH1 0x1 PUSH1 0x50 SHL SUB DUP2 AND PUSH1 0x0 SWAP1 DUP2 MSTORE PUSH1 0x48 PUSH1 0x20 MSTORE PUSH1 0x40 SWAP1 KECCAK256 DUP1 SLOAD PUSH1 0x1 PUSH1 0x1 PUSH1 0xA0 SHL SUB AND CALLER EQ PUSH2 0x2FB2 JUMPI PUSH1 0x40 MLOAD PUSH3 0x461BCD PUSH1 0xE5 SHL DUP2 MSTORE PUSH1 0x20 PUSH1 0x4 DUP3 ADD MSTORE PUSH1 0x2E PUSH1 0x24 DUP3 ADD MSTORE PUSH32 0x4F6E6C7920617574686F722063616E20696E63726561736520626F756E747920 PUSH1 0x44 DUP3 ADD MSTORE PUSH32 0x6F6620616E2061727469636C652E000000000000000000000000000000000000 PUSH1 0x64 DUP3 ADD MSTORE PUSH1 0x84 ADD PUSH2 0xADA JUMP JUMPDEST DUP1 SLOAD CALLVALUE PUSH1 0x20 SHR SWAP1 DUP3 SWAP1 PUSH1 0x18 SWAP1 PUSH2 0x2FD9 SWAP1 DUP5 SWAP1 PUSH1 0x1 PUSH1 0xC0 SHL SWAP1 DIV PUSH7 0xFFFFFFFFFFFFFF AND PUSH2 0x3EE8 JUMP JUMPDEST DUP3 SLOAD PUSH2 0x100 SWAP3 SWAP1 SWAP3 EXP PUSH7 0xFFFFFFFFFFFFFF DUP2 DUP2 MUL NOT SWAP1 SWAP4 AND SWAP2 SWAP1 SWAP3 AND SWAP2 SWAP1 SWAP2 MUL OR SWAP1 SSTORE POP DUP1 SLOAD PUSH1 0x40 DUP1 MLOAD PUSH1 0x1 PUSH1 0x1 PUSH1 0x50 SHL SUB DUP6 AND DUP2 MSTORE PUSH1 0x1 PUSH1 0xC0 SHL SWAP1 SWAP3 DIV PUSH1 0x20 SWAP1 DUP2 SHL PUSH11 0xFFFFFFFFFFFFFF00000000 AND SWAP1 DUP4 ADD MSTORE PUSH32 0xDF5FC410D3381CC7F0A7FE3AF72F4E3CF53EF5787F20554AF69035A950E1B2E3 SWAP2 ADD PUSH2 0x26D7 JUMP JUMPDEST PUSH1 0x0 DUP3 DUP2 MSTORE PUSH1 0x49 PUSH1 0x20 MSTORE PUSH1 0x40 DUP2 KECCAK256 PUSH1 0x2 DUP2 ADD SLOAD SWAP1 SWAP2 JUMPDEST DUP2 DUP2 LT ISZERO PUSH2 0x1EB1 JUMPI PUSH1 0x0 JUMPDEST PUSH1 0x2 DUP2 GT PUSH2 0x30A9 JUMPI PUSH2 0x3096 DUP7 DUP7 DUP5 DUP5 PUSH1 0x2 DUP2 GT ISZERO PUSH2 0x992 JUMPI PUSH2 0x992 PUSH2 0x385C JUMP JUMPDEST POP DUP1 PUSH2 0x30A1 DUP2 PUSH2 0x3EB9 JUMP JUMPDEST SWAP2 POP POP PUSH2 0x3076 JUMP JUMPDEST POP DUP1 PUSH2 0x30B4 DUP2 PUSH2 0x3EB9 JUMP JUMPDEST SWAP2 POP POP PUSH2 0x306B JUMP JUMPDEST PUSH1 0x7 SLOAD PUSH2 0x100 SWAP1 DIV PUSH1 0x1 PUSH1 0x1 PUSH1 0xA0 SHL SUB AND CALLER EQ PUSH2 0x30D8 JUMPI PUSH1 0x0 DUP1 REVERT JUMPDEST PUSH1 0x2 DUP2 SWAP1 SSTORE PUSH1 0x40 MLOAD DUP2 SWAP1 PUSH32 0xBF39FAA024D2F97599A0095E84098EE2171B6681738416C0030F442BA956D52B SWAP1 PUSH1 0x0 SWAP1 LOG2 POP JUMP JUMPDEST PUSH1 0x0 DUP5 DUP2 MSTORE PUSH1 0x49 PUSH1 0x20 MSTORE PUSH1 0x40 DUP2 KECCAK256 DUP1 SLOAD PUSH1 0x1 PUSH1 0xB0 SHL SWAP1 DIV PUSH1 0xFF AND PUSH2 0x3171 JUMPI PUSH1 0x40 MLOAD PUSH3 0x461BCD PUSH1 0xE5 SHL DUP2 MSTORE PUSH1 0x20 PUSH1 0x4 DUP3 ADD MSTORE PUSH1 0x17 PUSH1 0x24 DUP3 ADD MSTORE PUSH32 0x5468657265206973206E6F2072756C696E67207965742E000000000000000000 PUSH1 0x44 DUP3 ADD MSTORE PUSH1 0x64 ADD PUSH2 0xADA JUMP JUMPDEST PUSH1 0x0 DUP2 PUSH1 0x2 ADD DUP6 DUP2 SLOAD DUP2 LT PUSH2 0x3188 JUMPI PUSH2 0x3188 PUSH2 0x3C48 JUMP JUMPDEST SWAP1 PUSH1 0x0 MSTORE PUSH1 0x20 PUSH1 0x0 KECCAK256 SWAP1 PUSH1 0x6 MUL ADD SWAP1 POP PUSH2 0x31B5 DUP2 DUP8 DUP7 DUP6 PUSH1 0x0 ADD PUSH1 0x14 SWAP1 SLOAD SWAP1 PUSH2 0x100 EXP SWAP1 DIV PUSH1 0xFF AND PUSH2 0x326F JUMP JUMPDEST SWAP3 POP DUP3 ISZERO PUSH2 0x3265 JUMPI PUSH1 0x1 PUSH1 0x1 PUSH1 0xA0 SHL SUB DUP7 AND PUSH1 0x0 SWAP1 DUP2 MSTORE PUSH1 0x20 DUP3 SWAP1 MSTORE PUSH1 0x40 DUP2 KECCAK256 DUP6 PUSH1 0x2 DUP2 GT ISZERO PUSH2 0x31E7 JUMPI PUSH2 0x31E7 PUSH2 0x385C JUMP JUMPDEST PUSH1 0x3 DUP2 LT PUSH2 0x31F7 JUMPI PUSH2 0x31F7 PUSH2 0x3C48 JUMP JUMPDEST ADD SSTORE PUSH1 0x40 MLOAD PUSH1 0x1 PUSH1 0x1 PUSH1 0xA0 SHL SUB DUP8 AND SWAP1 DUP5 ISZERO PUSH2 0x8FC MUL SWAP1 DUP6 SWAP1 PUSH1 0x0 DUP2 DUP2 DUP2 DUP6 DUP9 DUP9 CALL SWAP4 POP POP POP POP POP DUP6 PUSH1 0x1 PUSH1 0x1 PUSH1 0xA0 SHL SUB AND DUP6 DUP9 PUSH32 0xFF2B7C936D6023FEA901B3455CEFC23B124C1CA5997DC5B48C461FD20984289D DUP8 DUP8 PUSH1 0x40 MLOAD PUSH2 0x325C SWAP3 SWAP2 SWAP1 PUSH2 0x3D5A JUMP JUMPDEST PUSH1 0x40 MLOAD DUP1 SWAP2 SUB SWAP1 LOG4 JUMPDEST POP POP SWAP5 SWAP4 POP POP POP POP JUMP JUMPDEST PUSH1 0x0 DUP3 PUSH1 0x1 DUP7 ADD DUP2 PUSH1 0x2 DUP2 GT ISZERO PUSH2 0x3288 JUMPI PUSH2 0x3288 PUSH2 0x385C JUMP JUMPDEST PUSH1 0x3 DUP2 LT PUSH2 0x3298 JUMPI PUSH2 0x3298 PUSH2 0x3C48 JUMP JUMPDEST PUSH1 0x20 DUP2 DIV SWAP1 SWAP2 ADD SLOAD PUSH1 0xFF PUSH1 0x1F SWAP1 SWAP3 AND PUSH2 0x100 EXP SWAP1 DIV AND PUSH2 0x32F5 JUMPI PUSH1 0x1 PUSH1 0x1 PUSH1 0xA0 SHL SUB DUP6 AND PUSH1 0x0 SWAP1 DUP2 MSTORE PUSH1 0x20 DUP8 SWAP1 MSTORE PUSH1 0x40 SWAP1 KECCAK256 DUP2 PUSH1 0x2 DUP2 GT ISZERO PUSH2 0x32DC JUMPI PUSH2 0x32DC PUSH2 0x385C JUMP JUMPDEST PUSH1 0x3 DUP2 LT PUSH2 0x32EC JUMPI PUSH2 0x32EC PUSH2 0x3C48 JUMP JUMPDEST ADD SLOAD SWAP2 POP PUSH2 0x3485 JUMP JUMPDEST DUP3 PUSH1 0x2 DUP2 GT ISZERO PUSH2 0x3307 JUMPI PUSH2 0x3307 PUSH2 0x385C JUMP JUMPDEST DUP5 PUSH1 0x2 DUP2 GT ISZERO PUSH2 0x3319 JUMPI PUSH2 0x3319 PUSH2 0x385C JUMP JUMPDEST EQ ISZERO PUSH2 0x33D9 JUMPI PUSH1 0x0 DUP7 PUSH1 0x2 ADD DUP3 PUSH1 0x2 DUP2 GT ISZERO PUSH2 0x3337 JUMPI PUSH2 0x3337 PUSH2 0x385C JUMP JUMPDEST PUSH1 0x3 DUP2 LT PUSH2 0x3347 JUMPI PUSH2 0x3347 PUSH2 0x3C48 JUMP JUMPDEST ADD SLOAD GT PUSH2 0x3355 JUMPI PUSH1 0x0 PUSH2 0x33D2 JUMP JUMPDEST DUP6 PUSH1 0x2 ADD DUP2 PUSH1 0x2 DUP2 GT ISZERO PUSH2 0x336B JUMPI PUSH2 0x336B PUSH2 0x385C JUMP JUMPDEST PUSH1 0x3 DUP2 LT PUSH2 0x337B JUMPI PUSH2 0x337B PUSH2 0x3C48 JUMP JUMPDEST ADD SLOAD PUSH1 0x5 DUP8 ADD SLOAD PUSH1 0x1 PUSH1 0x1 PUSH1 0xA0 SHL SUB DUP8 AND PUSH1 0x0 SWAP1 DUP2 MSTORE PUSH1 0x20 DUP10 SWAP1 MSTORE PUSH1 0x40 SWAP1 KECCAK256 DUP4 PUSH1 0x2 DUP2 GT ISZERO PUSH2 0x33AC JUMPI PUSH2 0x33AC PUSH2 0x385C JUMP JUMPDEST PUSH1 0x3 DUP2 LT PUSH2 0x33BC JUMPI PUSH2 0x33BC PUSH2 0x3C48 JUMP JUMPDEST ADD SLOAD PUSH2 0x33C8 SWAP2 SWAP1 PUSH2 0x3BEF JUMP JUMPDEST PUSH2 0x33D2 SWAP2 SWAP1 PUSH2 0x3C0E JUMP JUMPDEST SWAP2 POP PUSH2 0x3485 JUMP JUMPDEST DUP6 PUSH1 0x1 ADD DUP4 PUSH1 0x2 DUP2 GT ISZERO PUSH2 0x33EF JUMPI PUSH2 0x33EF PUSH2 0x385C JUMP JUMPDEST PUSH1 0x3 DUP2 LT PUSH2 0x33FF JUMPI PUSH2 0x33FF PUSH2 0x3C48 JUMP JUMPDEST PUSH1 0x20 DUP2 DIV SWAP1 SWAP2 ADD SLOAD PUSH1 0xFF PUSH1 0x1F SWAP1 SWAP3 AND PUSH2 0x100 EXP SWAP1 DIV AND PUSH2 0x3485 JUMPI PUSH1 0x4 DUP7 ADD SLOAD PUSH1 0x3 DUP8 ADD SLOAD PUSH2 0x342D SWAP2 SWAP1 PUSH2 0x3C30 JUMP JUMPDEST PUSH1 0x5 DUP8 ADD SLOAD PUSH1 0x1 PUSH1 0x1 PUSH1 0xA0 SHL SUB DUP8 AND PUSH1 0x0 SWAP1 DUP2 MSTORE PUSH1 0x20 DUP10 SWAP1 MSTORE PUSH1 0x40 SWAP1 KECCAK256 DUP4 PUSH1 0x2 DUP2 GT ISZERO PUSH2 0x345C JUMPI PUSH2 0x345C PUSH2 0x385C JUMP JUMPDEST PUSH1 0x3 DUP2 LT PUSH2 0x346C JUMPI PUSH2 0x346C PUSH2 0x3C48 JUMP JUMPDEST ADD SLOAD PUSH2 0x3478 SWAP2 SWAP1 PUSH2 0x3BEF JUMP JUMPDEST PUSH2 0x3482 SWAP2 SWAP1 PUSH2 0x3C0E JUMP JUMPDEST SWAP2 POP JUMPDEST POP SWAP5 SWAP4 POP POP POP POP JUMP JUMPDEST DUP3 DUP1 SLOAD PUSH2 0x349A SWAP1 PUSH2 0x3C5E JUMP JUMPDEST SWAP1 PUSH1 0x0 MSTORE PUSH1 0x20 PUSH1 0x0 KECCAK256 SWAP1 PUSH1 0x1F ADD PUSH1 0x20 SWAP1 DIV DUP2 ADD SWAP3 DUP3 PUSH2 0x34BC JUMPI PUSH1 0x0 DUP6 SSTORE PUSH2 0x3502 JUMP JUMPDEST DUP3 PUSH1 0x1F LT PUSH2 0x34D5 JUMPI DUP1 MLOAD PUSH1 0xFF NOT AND DUP4 DUP1 ADD OR DUP6 SSTORE PUSH2 0x3502 JUMP JUMPDEST DUP3 DUP1 ADD PUSH1 0x1 ADD DUP6 SSTORE DUP3 ISZERO PUSH2 0x3502 JUMPI SWAP2 DUP3 ADD JUMPDEST DUP3 DUP2 GT ISZERO PUSH2 0x3502 JUMPI DUP3 MLOAD DUP3 SSTORE SWAP2 PUSH1 0x20 ADD SWAP2 SWAP1 PUSH1 0x1 ADD SWAP1 PUSH2 0x34E7 JUMP JUMPDEST POP PUSH2 0x350E SWAP3 SWAP2 POP PUSH2 0x3530 JUMP JUMPDEST POP SWAP1 JUMP JUMPDEST PUSH1 0x40 MLOAD DUP1 PUSH1 0x60 ADD PUSH1 0x40 MSTORE DUP1 PUSH1 0x3 SWAP1 PUSH1 0x20 DUP3 MUL DUP1 CALLDATASIZE DUP4 CALLDATACOPY POP SWAP2 SWAP3 SWAP2 POP POP JUMP JUMPDEST JUMPDEST DUP1 DUP3 GT ISZERO PUSH2 0x350E JUMPI PUSH1 0x0 DUP2 SSTORE PUSH1 0x1 ADD PUSH2 0x3531 JUMP JUMPDEST DUP1 CALLDATALOAD PUSH1 0x1 PUSH1 0x1 PUSH1 0x50 SHL SUB DUP2 AND DUP2 EQ PUSH2 0x355C JUMPI PUSH1 0x0 DUP1 REVERT JUMPDEST SWAP2 SWAP1 POP JUMP JUMPDEST DUP1 CALLDATALOAD PUSH1 0x1 PUSH1 0x1 PUSH1 0xA0 SHL SUB DUP2 AND DUP2 EQ PUSH2 0x355C JUMPI PUSH1 0x0 DUP1 REVERT JUMPDEST PUSH1 0x0 DUP1 PUSH1 0x40 DUP4 DUP6 SUB SLT ISZERO PUSH2 0x358B JUMPI PUSH1 0x0 DUP1 REVERT JUMPDEST PUSH2 0x3594 DUP4 PUSH2 0x3545 JUMP JUMPDEST SWAP2 POP PUSH2 0x35A2 PUSH1 0x20 DUP5 ADD PUSH2 0x3561 JUMP JUMPDEST SWAP1 POP SWAP3 POP SWAP3 SWAP1 POP JUMP JUMPDEST DUP1 CALLDATALOAD PUSH1 0x3 DUP2 LT PUSH2 0x355C JUMPI PUSH1 0x0 DUP1 REVERT JUMPDEST PUSH1 0x0 DUP1 PUSH1 0x40 DUP4 DUP6 SUB SLT ISZERO PUSH2 0x35CD JUMPI PUSH1 0x0 DUP1 REVERT JUMPDEST DUP3 CALLDATALOAD SWAP2 POP PUSH2 0x35A2 PUSH1 0x20 DUP5 ADD PUSH2 0x35AB JUMP JUMPDEST PUSH1 0x0 PUSH1 0x20 DUP3 DUP5 SUB SLT ISZERO PUSH2 0x35EF JUMPI PUSH1 0x0 DUP1 REVERT JUMPDEST PUSH2 0x145B DUP3 PUSH2 0x3545 JUMP JUMPDEST PUSH1 0x0 PUSH1 0x20 DUP3 DUP5 SUB SLT ISZERO PUSH2 0x360A JUMPI PUSH1 0x0 DUP1 REVERT JUMPDEST POP CALLDATALOAD SWAP2 SWAP1 POP JUMP JUMPDEST PUSH1 0x0 DUP1 DUP4 PUSH1 0x1F DUP5 ADD SLT PUSH2 0x3623 JUMPI PUSH1 0x0 DUP1 REVERT JUMPDEST POP DUP2 CALLDATALOAD PUSH8 0xFFFFFFFFFFFFFFFF DUP2 GT ISZERO PUSH2 0x363B JUMPI PUSH1 0x0 DUP1 REVERT JUMPDEST PUSH1 0x20 DUP4 ADD SWAP2 POP DUP4 PUSH1 0x20 DUP3 DUP6 ADD ADD GT ISZERO PUSH2 0x1CD4 JUMPI PUSH1 0x0 DUP1 REVERT JUMPDEST PUSH1 0x0 DUP1 PUSH1 0x0 DUP1 PUSH1 0x60 DUP6 DUP8 SUB SLT ISZERO PUSH2 0x3669 JUMPI PUSH1 0x0 DUP1 REVERT JUMPDEST DUP5 CALLDATALOAD PUSH8 0xFFFFFFFFFFFFFFFF DUP2 GT ISZERO PUSH2 0x3680 JUMPI PUSH1 0x0 DUP1 REVERT JUMPDEST PUSH2 0x368C DUP8 DUP3 DUP9 ADD PUSH2 0x3611 JUMP JUMPDEST SWAP1 SWAP6 POP SWAP4 POP POP PUSH1 0x20 DUP6 ADD CALLDATALOAD PUSH1 0xFF DUP2 AND DUP2 EQ PUSH2 0x36A6 JUMPI PUSH1 0x0 DUP1 REVERT JUMPDEST SWAP2 POP PUSH2 0x36B4 PUSH1 0x40 DUP7 ADD PUSH2 0x3545 JUMP JUMPDEST SWAP1 POP SWAP3 SWAP6 SWAP2 SWAP5 POP SWAP3 POP JUMP JUMPDEST PUSH1 0x0 DUP1 PUSH1 0x40 DUP4 DUP6 SUB SLT ISZERO PUSH2 0x36D2 JUMPI PUSH1 0x0 DUP1 REVERT JUMPDEST POP POP DUP1 CALLDATALOAD SWAP3 PUSH1 0x20 SWAP1 SWAP2 ADD CALLDATALOAD SWAP2 POP JUMP JUMPDEST PUSH4 0x4E487B71 PUSH1 0xE0 SHL PUSH1 0x0 MSTORE PUSH1 0x41 PUSH1 0x4 MSTORE PUSH1 0x24 PUSH1 0x0 REVERT JUMPDEST PUSH1 0x0 PUSH8 0xFFFFFFFFFFFFFFFF DUP1 DUP5 GT ISZERO PUSH2 0x3712 JUMPI PUSH2 0x3712 PUSH2 0x36E1 JUMP JUMPDEST PUSH1 0x40 MLOAD PUSH1 0x1F DUP6 ADD PUSH1 0x1F NOT SWAP1 DUP2 AND PUSH1 0x3F ADD AND DUP2 ADD SWAP1 DUP3 DUP3 GT DUP2 DUP4 LT OR ISZERO PUSH2 0x373A JUMPI PUSH2 0x373A PUSH2 0x36E1 JUMP JUMPDEST DUP2 PUSH1 0x40 MSTORE DUP1 SWAP4 POP DUP6 DUP2 MSTORE DUP7 DUP7 DUP7 ADD GT ISZERO PUSH2 0x3753 JUMPI PUSH1 0x0 DUP1 REVERT JUMPDEST DUP6 DUP6 PUSH1 0x20 DUP4 ADD CALLDATACOPY PUSH1 0x0 PUSH1 0x20 DUP8 DUP4 ADD ADD MSTORE POP POP POP SWAP4 SWAP3 POP POP POP JUMP JUMPDEST PUSH1 0x0 DUP1 PUSH1 0x40 DUP4 DUP6 SUB SLT ISZERO PUSH2 0x3780 JUMPI PUSH1 0x0 DUP1 REVERT JUMPDEST DUP3 CALLDATALOAD PUSH8 0xFFFFFFFFFFFFFFFF DUP1 DUP3 GT ISZERO PUSH2 0x3798 JUMPI PUSH1 0x0 DUP1 REVERT JUMPDEST DUP2 DUP6 ADD SWAP2 POP DUP6 PUSH1 0x1F DUP4 ADD SLT PUSH2 0x37AC JUMPI PUSH1 0x0 DUP1 REVERT JUMPDEST PUSH2 0x37BB DUP7 DUP4 CALLDATALOAD PUSH1 0x20 DUP6 ADD PUSH2 0x36F7 JUMP JUMPDEST SWAP4 POP PUSH1 0x20 DUP6 ADD CALLDATALOAD SWAP2 POP DUP1 DUP3 GT ISZERO PUSH2 0x37D1 JUMPI PUSH1 0x0 DUP1 REVERT JUMPDEST POP DUP4 ADD PUSH1 0x1F DUP2 ADD DUP6 SGT PUSH2 0x37E3 JUMPI PUSH1 0x0 DUP1 REVERT JUMPDEST PUSH2 0x37F2 DUP6 DUP3 CALLDATALOAD PUSH1 0x20 DUP5 ADD PUSH2 0x36F7 JUMP JUMPDEST SWAP2 POP POP SWAP3 POP SWAP3 SWAP1 POP JUMP JUMPDEST PUSH1 0x0 DUP2 MLOAD DUP1 DUP5 MSTORE PUSH1 0x0 JUMPDEST DUP2 DUP2 LT ISZERO PUSH2 0x3822 JUMPI PUSH1 0x20 DUP2 DUP6 ADD DUP2 ADD MLOAD DUP7 DUP4 ADD DUP3 ADD MSTORE ADD PUSH2 0x3806 JUMP JUMPDEST DUP2 DUP2 GT ISZERO PUSH2 0x3834 JUMPI PUSH1 0x0 PUSH1 0x20 DUP4 DUP8 ADD ADD MSTORE JUMPDEST POP PUSH1 0x1F ADD PUSH1 0x1F NOT AND SWAP3 SWAP1 SWAP3 ADD PUSH1 0x20 ADD SWAP3 SWAP2 POP POP JUMP JUMPDEST PUSH1 0x20 DUP2 MSTORE PUSH1 0x0 PUSH2 0x145B PUSH1 0x20 DUP4 ADD DUP5 PUSH2 0x37FC JUMP JUMPDEST PUSH4 0x4E487B71 PUSH1 0xE0 SHL PUSH1 0x0 MSTORE PUSH1 0x21 PUSH1 0x4 MSTORE PUSH1 0x24 PUSH1 0x0 REVERT JUMPDEST PUSH1 0x3 DUP2 LT PUSH2 0x3890 JUMPI PUSH4 0x4E487B71 PUSH1 0xE0 SHL PUSH1 0x0 MSTORE PUSH1 0x21 PUSH1 0x4 MSTORE PUSH1 0x24 PUSH1 0x0 REVERT JUMPDEST SWAP1 MSTORE JUMP JUMPDEST PUSH1 0x1 PUSH1 0x1 PUSH1 0xA0 SHL SUB DUP7 AND DUP2 MSTORE PUSH1 0xA0 DUP2 ADD PUSH2 0x38B1 PUSH1 0x20 DUP4 ADD DUP8 PUSH2 0x3872 JUMP JUMPDEST PUSH1 0xFF SWAP5 SWAP1 SWAP5 AND PUSH1 0x40 DUP3 ADD MSTORE SWAP2 ISZERO ISZERO PUSH1 0x60 DUP4 ADD MSTORE PUSH1 0x1 PUSH1 0x1 PUSH1 0x50 SHL SUB AND PUSH1 0x80 SWAP1 SWAP2 ADD MSTORE SWAP3 SWAP2 POP POP JUMP JUMPDEST PUSH1 0x0 DUP1 PUSH1 0x0 DUP1 PUSH1 0x60 DUP6 DUP8 SUB SLT ISZERO PUSH2 0x38EF JUMPI PUSH1 0x0 DUP1 REVERT JUMPDEST DUP5 CALLDATALOAD SWAP4 POP PUSH2 0x38FF PUSH1 0x20 DUP7 ADD PUSH2 0x3561 JUMP JUMPDEST SWAP3 POP PUSH1 0x40 DUP6 ADD CALLDATALOAD PUSH8 0xFFFFFFFFFFFFFFFF DUP1 DUP3 GT ISZERO PUSH2 0x391C JUMPI PUSH1 0x0 DUP1 REVERT JUMPDEST DUP2 DUP8 ADD SWAP2 POP DUP8 PUSH1 0x1F DUP4 ADD SLT PUSH2 0x3930 JUMPI PUSH1 0x0 DUP1 REVERT JUMPDEST DUP2 CALLDATALOAD DUP2 DUP2 GT ISZERO PUSH2 0x393F JUMPI PUSH1 0x0 DUP1 REVERT JUMPDEST DUP9 PUSH1 0x20 DUP3 PUSH1 0x5 SHL DUP6 ADD ADD GT ISZERO PUSH2 0x3954 JUMPI PUSH1 0x0 DUP1 REVERT JUMPDEST SWAP6 SWAP9 SWAP5 SWAP8 POP POP PUSH1 0x20 ADD SWAP5 POP POP POP JUMP JUMPDEST PUSH1 0x0 DUP1 PUSH1 0x0 PUSH1 0x60 DUP5 DUP7 SUB SLT ISZERO PUSH2 0x3978 JUMPI PUSH1 0x0 DUP1 REVERT JUMPDEST DUP4 CALLDATALOAD SWAP3 POP PUSH2 0x3988 PUSH1 0x20 DUP6 ADD PUSH2 0x3561 JUMP JUMPDEST SWAP2 POP PUSH2 0x3996 PUSH1 0x40 DUP6 ADD PUSH2 0x35AB JUMP JUMPDEST SWAP1 POP SWAP3 POP SWAP3 POP SWAP3 JUMP JUMPDEST PUSH1 0xE0 DUP2 ADD DUP2 DUP6 PUSH1 0x0 JUMPDEST PUSH1 0x3 DUP2 LT ISZERO PUSH2 0x39C9 JUMPI DUP2 MLOAD ISZERO ISZERO DUP4 MSTORE PUSH1 0x20 SWAP3 DUP4 ADD SWAP3 SWAP1 SWAP2 ADD SWAP1 PUSH1 0x1 ADD PUSH2 0x39A8 JUMP JUMPDEST POP POP POP PUSH1 0x60 DUP3 ADD DUP5 PUSH1 0x0 JUMPDEST PUSH1 0x3 DUP2 LT ISZERO PUSH2 0x39F3 JUMPI DUP2 MLOAD DUP4 MSTORE PUSH1 0x20 SWAP3 DUP4 ADD SWAP3 SWAP1 SWAP2 ADD SWAP1 PUSH1 0x1 ADD PUSH2 0x39D4 JUMP JUMPDEST POP POP POP DUP3 PUSH1 0xC0 DUP4 ADD MSTORE SWAP5 SWAP4 POP POP POP POP JUMP JUMPDEST PUSH1 0x0 PUSH1 0x20 DUP3 DUP5 SUB SLT ISZERO PUSH2 0x3A16 JUMPI PUSH1 0x0 DUP1 REVERT JUMPDEST PUSH2 0x145B DUP3 PUSH2 0x3561 JUMP JUMPDEST PUSH1 0x0 DUP1 PUSH1 0x0 PUSH1 0x40 DUP5 DUP7 SUB SLT ISZERO PUSH2 0x3A34 JUMPI PUSH1 0x0 DUP1 REVERT JUMPDEST DUP4 CALLDATALOAD SWAP3 POP PUSH1 0x20 DUP5 ADD CALLDATALOAD PUSH8 0xFFFFFFFFFFFFFFFF DUP2 GT ISZERO PUSH2 0x3A52 JUMPI PUSH1 0x0 DUP1 REVERT JUMPDEST PUSH2 0x3A5E DUP7 DUP3 DUP8 ADD PUSH2 0x3611 JUMP JUMPDEST SWAP5 SWAP8 SWAP1 SWAP7 POP SWAP4 SWAP5 POP POP POP POP JUMP JUMPDEST PUSH1 0x0 DUP1 PUSH1 0x40 DUP4 DUP6 SUB SLT ISZERO PUSH2 0x3A7E JUMPI PUSH1 0x0 DUP1 REVERT JUMPDEST DUP3 CALLDATALOAD SWAP2 POP PUSH2 0x35A2 PUSH1 0x20 DUP5 ADD PUSH2 0x3561 JUMP JUMPDEST PUSH1 0x0 PUSH1 0x40 DUP3 ADD DUP5 DUP4 MSTORE PUSH1 0x20 PUSH1 0x40 DUP2 DUP6 ADD MSTORE DUP2 DUP6 MLOAD DUP1 DUP5 MSTORE PUSH1 0x60 DUP7 ADD SWAP2 POP PUSH1 0x60 DUP2 PUSH1 0x5 SHL DUP8 ADD ADD SWAP4 POP DUP3 DUP8 ADD PUSH1 0x0 DUP1 JUMPDEST DUP4 DUP2 LT ISZERO PUSH2 0x3B11 JUMPI DUP9 DUP8 SUB PUSH1 0x5F NOT ADD DUP6 MSTORE DUP3 MLOAD DUP1 MLOAD DUP1 DUP10 MSTORE SWAP1 DUP8 ADD SWAP1 DUP8 DUP10 ADD SWAP1 DUP5 JUMPDEST DUP2 DUP2 LT ISZERO PUSH2 0x3AFB JUMPI DUP4 MLOAD DUP4 MSTORE SWAP3 DUP10 ADD SWAP3 SWAP2 DUP10 ADD SWAP2 PUSH1 0x1 ADD PUSH2 0x3ADF JUMP JUMPDEST POP SWAP1 SWAP9 POP POP POP SWAP4 DUP6 ADD SWAP4 SWAP2 DUP6 ADD SWAP2 PUSH1 0x1 ADD PUSH2 0x3ABD JUMP JUMPDEST POP SWAP5 SWAP10 SWAP9 POP POP POP POP POP POP POP POP POP JUMP JUMPDEST PUSH1 0x0 DUP1 PUSH1 0x40 DUP4 DUP6 SUB SLT ISZERO PUSH2 0x3B33 JUMPI PUSH1 0x0 DUP1 REVERT JUMPDEST PUSH2 0x3B3C DUP4 PUSH2 0x35AB JUMP JUMPDEST SWAP2 POP PUSH2 0x35A2 PUSH1 0x20 DUP5 ADD PUSH2 0x35AB JUMP JUMPDEST PUSH1 0x0 DUP1 PUSH1 0x0 DUP1 PUSH1 0x80 DUP6 DUP8 SUB SLT ISZERO PUSH2 0x3B60 JUMPI PUSH1 0x0 DUP1 REVERT JUMPDEST DUP5 CALLDATALOAD SWAP4 POP PUSH2 0x3B70 PUSH1 0x20 DUP7 ADD PUSH2 0x3561 JUMP JUMPDEST SWAP3 POP PUSH1 0x40 DUP6 ADD CALLDATALOAD SWAP2 POP PUSH2 0x36B4 PUSH1 0x60 DUP7 ADD PUSH2 0x35AB JUMP JUMPDEST PUSH1 0x0 PUSH1 0x20 DUP3 DUP5 SUB SLT ISZERO PUSH2 0x3B97 JUMPI PUSH1 0x0 DUP1 REVERT JUMPDEST POP MLOAD SWAP2 SWAP1 POP JUMP JUMPDEST PUSH1 0x0 DUP1 PUSH1 0x40 DUP4 DUP6 SUB SLT ISZERO PUSH2 0x3BB1 JUMPI PUSH1 0x0 DUP1 REVERT JUMPDEST POP POP DUP1 MLOAD PUSH1 0x20 SWAP1 SWAP2 ADD MLOAD SWAP1 SWAP3 SWAP1 SWAP2 POP JUMP JUMPDEST PUSH4 0x4E487B71 PUSH1 0xE0 SHL PUSH1 0x0 MSTORE PUSH1 0x11 PUSH1 0x4 MSTORE PUSH1 0x24 PUSH1 0x0 REVERT JUMPDEST PUSH1 0x0 DUP3 DUP3 LT ISZERO PUSH2 0x3BEA JUMPI PUSH2 0x3BEA PUSH2 0x3BC2 JUMP JUMPDEST POP SUB SWAP1 JUMP JUMPDEST PUSH1 0x0 DUP2 PUSH1 0x0 NOT DIV DUP4 GT DUP3 ISZERO ISZERO AND ISZERO PUSH2 0x3C09 JUMPI PUSH2 0x3C09 PUSH2 0x3BC2 JUMP JUMPDEST POP MUL SWAP1 JUMP JUMPDEST PUSH1 0x0 DUP3 PUSH2 0x3C2B JUMPI PUSH4 0x4E487B71 PUSH1 0xE0 SHL PUSH1 0x0 MSTORE PUSH1 0x12 PUSH1 0x4 MSTORE PUSH1 0x24 PUSH1 0x0 REVERT JUMPDEST POP DIV SWAP1 JUMP JUMPDEST PUSH1 0x0 DUP3 NOT DUP3 GT ISZERO PUSH2 0x3C43 JUMPI PUSH2 0x3C43 PUSH2 0x3BC2 JUMP JUMPDEST POP ADD SWAP1 JUMP JUMPDEST PUSH4 0x4E487B71 PUSH1 0xE0 SHL PUSH1 0x0 MSTORE PUSH1 0x32 PUSH1 0x4 MSTORE PUSH1 0x24 PUSH1 0x0 REVERT JUMPDEST PUSH1 0x1 DUP2 DUP2 SHR SWAP1 DUP3 AND DUP1 PUSH2 0x3C72 JUMPI PUSH1 0x7F DUP3 AND SWAP2 POP JUMPDEST PUSH1 0x20 DUP3 LT DUP2 EQ ISZERO PUSH2 0x3C93 JUMPI PUSH4 0x4E487B71 PUSH1 0xE0 SHL PUSH1 0x0 MSTORE PUSH1 0x22 PUSH1 0x4 MSTORE PUSH1 0x24 PUSH1 0x0 REVERT JUMPDEST POP SWAP2 SWAP1 POP JUMP JUMPDEST DUP1 SLOAD PUSH1 0x0 SWAP1 PUSH1 0x1 DUP2 DUP2 SHR SWAP1 DUP1 DUP4 AND DUP1 PUSH2 0x3CB3 JUMPI PUSH1 0x7F DUP4 AND SWAP3 POP JUMPDEST PUSH1 0x20 DUP1 DUP5 LT DUP3 EQ ISZERO PUSH2 0x3CD5 JUMPI PUSH4 0x4E487B71 PUSH1 0xE0 SHL PUSH1 0x0 MSTORE PUSH1 0x22 PUSH1 0x4 MSTORE PUSH1 0x24 PUSH1 0x0 REVERT JUMPDEST DUP4 DUP9 MSTORE PUSH1 0x20 DUP9 ADD DUP3 DUP1 ISZERO PUSH2 0x3CF0 JUMPI PUSH1 0x1 DUP2 EQ PUSH2 0x3D01 JUMPI PUSH2 0x3D2C JUMP JUMPDEST PUSH1 0xFF NOT DUP8 AND DUP3 MSTORE DUP3 DUP3 ADD SWAP8 POP PUSH2 0x3D2C JUMP JUMPDEST PUSH1 0x0 DUP10 DUP2 MSTORE PUSH1 0x20 SWAP1 KECCAK256 PUSH1 0x0 JUMPDEST DUP8 DUP2 LT ISZERO PUSH2 0x3D26 JUMPI DUP2 SLOAD DUP5 DUP3 ADD MSTORE SWAP1 DUP7 ADD SWAP1 DUP5 ADD PUSH2 0x3D0D JUMP JUMPDEST DUP4 ADD SWAP9 POP POP JUMPDEST POP POP POP POP POP POP POP SWAP3 SWAP2 POP POP JUMP JUMPDEST DUP3 DUP2 MSTORE PUSH1 0x40 PUSH1 0x20 DUP3 ADD MSTORE PUSH1 0x0 PUSH2 0x3D52 PUSH1 0x40 DUP4 ADD DUP5 PUSH2 0x3C99 JUMP JUMPDEST SWAP5 SWAP4 POP POP POP POP JUMP JUMPDEST PUSH1 0x40 DUP2 ADD PUSH2 0x3D68 DUP3 DUP6 PUSH2 0x3872 JUMP JUMPDEST DUP3 PUSH1 0x20 DUP4 ADD MSTORE SWAP4 SWAP3 POP POP POP JUMP JUMPDEST PUSH1 0x0 PUSH1 0x1 PUSH1 0x1 PUSH1 0x50 SHL SUB DUP1 DUP4 AND DUP2 DUP2 EQ ISZERO PUSH2 0x3D92 JUMPI PUSH2 0x3D92 PUSH2 0x3BC2 JUMP JUMPDEST PUSH1 0x1 ADD SWAP4 SWAP3 POP POP POP JUMP JUMPDEST PUSH1 0x0 PUSH1 0x1 PUSH1 0x1 PUSH1 0x50 SHL SUB DUP4 DUP2 AND SWAP1 DUP4 AND DUP2 DUP2 LT ISZERO PUSH2 0x3DBC JUMPI PUSH2 0x3DBC PUSH2 0x3BC2 JUMP JUMPDEST SUB SWAP4 SWAP3 POP POP POP JUMP JUMPDEST DUP2 DUP4 MSTORE DUP2 DUP2 PUSH1 0x20 DUP6 ADD CALLDATACOPY POP PUSH1 0x0 DUP3 DUP3 ADD PUSH1 0x20 SWAP1 DUP2 ADD SWAP2 SWAP1 SWAP2 MSTORE PUSH1 0x1F SWAP1 SWAP2 ADD PUSH1 0x1F NOT AND SWAP1 SWAP2 ADD ADD SWAP1 JUMP JUMPDEST PUSH1 0x60 DUP2 MSTORE PUSH1 0x0 PUSH2 0x3E01 PUSH1 0x60 DUP4 ADD DUP7 DUP9 PUSH2 0x3DC4 JUMP JUMPDEST PUSH1 0xFF SWAP5 SWAP1 SWAP5 AND PUSH1 0x20 DUP4 ADD MSTORE POP PUSH1 0x40 ADD MSTORE SWAP3 SWAP2 POP POP JUMP JUMPDEST PUSH1 0x0 PUSH1 0xFF DUP3 AND PUSH1 0xFF DUP5 AND DUP1 PUSH1 0xFF SUB DUP3 GT ISZERO PUSH2 0x3E34 JUMPI PUSH2 0x3E34 PUSH2 0x3BC2 JUMP JUMPDEST ADD SWAP4 SWAP3 POP POP POP JUMP JUMPDEST PUSH1 0x0 PUSH1 0xFF DUP3 AND PUSH1 0xFF DUP2 EQ ISZERO PUSH2 0x3E53 JUMPI PUSH2 0x3E53 PUSH2 0x3BC2 JUMP JUMPDEST PUSH1 0x1 ADD SWAP3 SWAP2 POP POP JUMP JUMPDEST PUSH1 0x20 DUP2 MSTORE PUSH1 0x0 PUSH2 0x145B PUSH1 0x20 DUP4 ADD DUP5 PUSH2 0x3C99 JUMP JUMPDEST PUSH1 0x0 DUP1 DUP4 CALLDATALOAD PUSH1 0x1E NOT DUP5 CALLDATASIZE SUB ADD DUP2 SLT PUSH2 0x3E86 JUMPI PUSH1 0x0 DUP1 REVERT JUMPDEST DUP4 ADD DUP1 CALLDATALOAD SWAP2 POP PUSH8 0xFFFFFFFFFFFFFFFF DUP3 GT ISZERO PUSH2 0x3EA1 JUMPI PUSH1 0x0 DUP1 REVERT JUMPDEST PUSH1 0x20 ADD SWAP2 POP PUSH1 0x5 DUP2 SWAP1 SHL CALLDATASIZE SUB DUP3 SGT ISZERO PUSH2 0x1CD4 JUMPI PUSH1 0x0 DUP1 REVERT JUMPDEST PUSH1 0x0 PUSH1 0x0 NOT DUP3 EQ ISZERO PUSH2 0x3ECD JUMPI PUSH2 0x3ECD PUSH2 0x3BC2 JUMP JUMPDEST POP PUSH1 0x1 ADD SWAP1 JUMP JUMPDEST PUSH1 0x20 DUP2 MSTORE PUSH1 0x0 PUSH2 0x3D52 PUSH1 0x20 DUP4 ADD DUP5 DUP7 PUSH2 0x3DC4 JUMP JUMPDEST PUSH1 0x0 PUSH7 0xFFFFFFFFFFFFFF DUP1 DUP4 AND DUP2 DUP6 AND DUP1 DUP4 SUB DUP3 GT ISZERO PUSH2 0x3F0A JUMPI PUSH2 0x3F0A PUSH2 0x3BC2 JUMP JUMPDEST ADD SWAP5 SWAP4 POP POP POP POP JUMP INVALID LOG2 PUSH5 0x6970667358 0x22 SLT KECCAK256 0xA9 MOD LOG4 BYTE 0xB2 SWAP5 0xBD OR PUSH19 0x920EA2F89288B3BE011F722E02FBDCD5FD7DE2 AND 0xC3 0xD2 CREATE2 PUSH5 0x736F6C6343 STOP ADDMOD EXP STOP CALLER "
        },
        "gasEstimates": {
          "creation": {
            "codeDepositCost": "3240200",
            "executionCost": "infinite",
            "totalCost": "infinite"
          },
          "external": {
            "ARBITRATOR()": "infinite",
            "ARTICLE_WITHDRAWAL_TIMELOCK()": "2406",
            "LOSER_APPEAL_PERIOD_MULTIPLIER()": "2407",
            "LOSER_STAKE_MULTIPLIER()": "2362",
            "MULTIPLIER_DENOMINATOR()": "305",
            "NUMBER_OF_LEAST_SIGNIFICANT_BITS_TO_IGNORE()": "262",
            "NUMBER_OF_RULING_OPTIONS()": "285",
            "TREASURY()": "2439",
            "VERSION()": "infinite",
            "WINNER_STAKE_MULTIPLIER()": "2406",
            "admin()": "2414",
            "appealFee(uint256)": "infinite",
            "articleStorage(uint80)": "2838",
            "categoryCounter()": "2372",
            "categoryToArbitratorExtraData(uint256)": "infinite",
            "challenge(uint80)": "infinite",
            "challengeFee(uint80)": "infinite",
            "challengeTaxRate()": "2383",
            "changeAdmin(address)": "27977",
            "changeArticleWithdrawalTimelock(uint256)": "25723",
            "changeLoserAppealPeriodMultiplier(uint256)": "25721",
            "changeLoserStakeMultiplier(uint256)": "25701",
            "changeTreasury(address)": "27975",
            "changeWinnerStakeMultiplier(uint256)": "25700",
            "disputes(uint256)": "4967",
            "findVacantStorageSlot(uint80)": "infinite",
            "fundAppeal(uint256,uint8)": "infinite",
            "getAmountRemainsToBeRaised(uint256,uint8)": "infinite",
            "getAppealPeriod(uint256,uint8)": "infinite",
            "getLastRoundWinner(uint256)": "infinite",
            "getReturnOfInvestmentRatio(uint8,uint8)": "infinite",
            "getRoundInfo(uint256,uint256)": "infinite",
            "getTotalWithdrawableAmount(uint256,address)": "infinite",
            "increaseBounty(uint80)": "32691",
            "initializeArticle(string,uint8,uint80)": "infinite",
            "initiateWithdrawal(uint80)": "32299",
            "newCategory(string,bytes)": "infinite",
            "rule(uint256,uint256)": "infinite",
            "submitEvidence(uint256,string)": "infinite",
            "switchPublishingLock()": "26602",
            "transferBalanceToTreasury()": "infinite",
            "transferOwnership(uint80,address)": "infinite",
            "treasuryBalance()": "2363",
            "updateChallengeTaxRate(uint256)": "25771",
            "withdraw(uint80)": "infinite",
            "withdrawFeesAndRewards(uint256,address,uint256,uint8)": "infinite",
            "withdrawFeesAndRewardsForAllRounds(uint256,address,uint8)": "infinite",
            "withdrawFeesAndRewardsForAllRoundsAndAllRulings(uint256,address)": "infinite",
            "withdrawFeesAndRewardsForGivenPositions(uint256,address,uint256[][])": "infinite"
          },
          "internal": {
            "getWithdrawableAmount(struct TruthPost.Round storage pointer,address,enum ITruthPost.RulingOptions,enum ITruthPost.RulingOptions)": "16585"
          }
        },
        "methodIdentifiers": {
          "ARBITRATOR()": "68871c9c",
          "ARTICLE_WITHDRAWAL_TIMELOCK()": "d3b476b1",
          "LOSER_APPEAL_PERIOD_MULTIPLIER()": "be467604",
          "LOSER_STAKE_MULTIPLIER()": "b34bfaa8",
          "MULTIPLIER_DENOMINATOR()": "fe6ca782",
          "NUMBER_OF_LEAST_SIGNIFICANT_BITS_TO_IGNORE()": "d970d18c",
          "NUMBER_OF_RULING_OPTIONS()": "7597b3cb",
          "TREASURY()": "2d2c5565",
          "VERSION()": "ffa1ad74",
          "WINNER_STAKE_MULTIPLIER()": "e349ad30",
          "admin()": "f851a440",
          "appealFee(uint256)": "1e26de34",
          "articleStorage(uint80)": "78431ce9",
          "categoryCounter()": "03624fc0",
          "categoryToArbitratorExtraData(uint256)": "4de12db0",
          "challenge(uint80)": "736ed418",
          "challengeFee(uint80)": "64ff9dfa",
          "challengeTaxRate()": "fc0ac672",
          "changeAdmin(address)": "8f283970",
          "changeArticleWithdrawalTimelock(uint256)": "92e25925",
          "changeLoserAppealPeriodMultiplier(uint256)": "c94828f0",
          "changeLoserStakeMultiplier(uint256)": "92239dff",
          "changeTreasury(address)": "b14f2a39",
          "changeWinnerStakeMultiplier(uint256)": "adc7faba",
          "disputes(uint256)": "564a565d",
          "findVacantStorageSlot(uint80)": "15f36ebe",
          "fundAppeal(uint256,uint8)": "12b3a2c0",
          "getAmountRemainsToBeRaised(uint256,uint8)": "a509efeb",
          "getAppealPeriod(uint256,uint8)": "638af3da",
          "getLastRoundWinner(uint256)": "7f67bd6c",
          "getReturnOfInvestmentRatio(uint8,uint8)": "b4c70581",
          "getRoundInfo(uint256,uint256)": "8a9bb02a",
          "getTotalWithdrawableAmount(uint256,address)": "af4a9144",
          "increaseBounty(uint80)": "bc0936fd",
          "initializeArticle(string,uint8,uint80)": "29238089",
          "initiateWithdrawal(uint80)": "956dcbd2",
          "newCategory(string,bytes)": "4c55c000",
          "rule(uint256,uint256)": "311a6c56",
          "submitEvidence(uint256,string)": "a6a7f0eb",
          "switchPublishingLock()": "ba0ec60b",
          "transferBalanceToTreasury()": "b7bddc72",
          "transferOwnership(uint80,address)": "06bcbd73",
          "treasuryBalance()": "313dab20",
          "updateChallengeTaxRate(uint256)": "26804bef",
          "withdraw(uint80)": "ab9cd37e",
          "withdrawFeesAndRewards(uint256,address,uint256,uint8)": "dc227fc2",
          "withdrawFeesAndRewardsForAllRounds(uint256,address,uint8)": "6760aeb0",
          "withdrawFeesAndRewardsForAllRoundsAndAllRulings(uint256,address)": "c9330c0f",
          "withdrawFeesAndRewardsForGivenPositions(uint256,address,uint256[][])": "67284f21"
        }
      },
      "storageLayout": {
        "storage": [
          {
            "astId": 298,
            "contract": "contracts/TruthPost.sol:TruthPost",
            "label": "isPublishingEnabled",
            "offset": 0,
            "slot": "0",
            "type": "t_bool"
          },
          {
            "astId": 300,
            "contract": "contracts/TruthPost.sol:TruthPost",
            "label": "TREASURY",
            "offset": 1,
            "slot": "0",
            "type": "t_address_payable"
          },
          {
            "astId": 302,
            "contract": "contracts/TruthPost.sol:TruthPost",
            "label": "treasuryBalance",
            "offset": 0,
            "slot": "1",
            "type": "t_uint256"
          },
          {
            "astId": 311,
            "contract": "contracts/TruthPost.sol:TruthPost",
            "label": "LOSER_APPEAL_PERIOD_MULTIPLIER",
            "offset": 0,
            "slot": "2",
            "type": "t_uint256"
          },
          {
            "astId": 313,
            "contract": "contracts/TruthPost.sol:TruthPost",
            "label": "ARTICLE_WITHDRAWAL_TIMELOCK",
            "offset": 0,
            "slot": "3",
            "type": "t_uint256"
          },
          {
            "astId": 315,
            "contract": "contracts/TruthPost.sol:TruthPost",
            "label": "WINNER_STAKE_MULTIPLIER",
            "offset": 0,
            "slot": "4",
            "type": "t_uint256"
          },
          {
            "astId": 317,
            "contract": "contracts/TruthPost.sol:TruthPost",
            "label": "LOSER_STAKE_MULTIPLIER",
            "offset": 0,
            "slot": "5",
            "type": "t_uint256"
          },
          {
            "astId": 320,
            "contract": "contracts/TruthPost.sol:TruthPost",
            "label": "challengeTaxRate",
            "offset": 0,
            "slot": "6",
            "type": "t_uint256"
          },
          {
            "astId": 713,
            "contract": "contracts/TruthPost.sol:TruthPost",
            "label": "categoryCounter",
            "offset": 0,
            "slot": "7",
            "type": "t_uint8"
          },
          {
            "astId": 720,
            "contract": "contracts/TruthPost.sol:TruthPost",
            "label": "admin",
            "offset": 1,
            "slot": "7",
            "type": "t_address_payable"
          },
          {
            "astId": 783,
            "contract": "contracts/TruthPost.sol:TruthPost",
            "label": "categoryToArbitratorExtraData",
            "offset": 0,
            "slot": "8",
            "type": "t_array(t_bytes_storage)64_storage"
          },
          {
            "astId": 788,
            "contract": "contracts/TruthPost.sol:TruthPost",
            "label": "articleStorage",
            "offset": 0,
            "slot": "72",
            "type": "t_mapping(t_uint80,t_struct(Article)779_storage)"
          },
          {
            "astId": 793,
            "contract": "contracts/TruthPost.sol:TruthPost",
            "label": "disputes",
            "offset": 0,
            "slot": "73",
            "type": "t_mapping(t_uint256,t_struct(DisputeData)747_storage)"
          }
        ],
        "types": {
          "t_address": {
            "encoding": "inplace",
            "label": "address",
            "numberOfBytes": "20"
          },
          "t_address_payable": {
            "encoding": "inplace",
            "label": "address payable",
            "numberOfBytes": "20"
          },
          "t_array(t_bool)3_storage": {
            "base": "t_bool",
            "encoding": "inplace",
            "label": "bool[3]",
            "numberOfBytes": "32"
          },
          "t_array(t_bytes_storage)64_storage": {
            "base": "t_bytes_storage",
            "encoding": "inplace",
            "label": "bytes[64]",
            "numberOfBytes": "2048"
          },
          "t_array(t_struct(Round)770_storage)dyn_storage": {
            "base": "t_struct(Round)770_storage",
            "encoding": "dynamic_array",
            "label": "struct TruthPost.Round[]",
            "numberOfBytes": "32"
          },
          "t_array(t_uint256)3_storage": {
            "base": "t_uint256",
            "encoding": "inplace",
            "label": "uint256[3]",
            "numberOfBytes": "96"
          },
          "t_bool": {
            "encoding": "inplace",
            "label": "bool",
            "numberOfBytes": "1"
          },
          "t_bytes_storage": {
            "encoding": "bytes",
            "label": "bytes",
            "numberOfBytes": "32"
          },
          "t_enum(RulingOptions)295": {
            "encoding": "inplace",
            "label": "enum ITruthPost.RulingOptions",
            "numberOfBytes": "1"
          },
          "t_mapping(t_address,t_array(t_uint256)3_storage)": {
            "encoding": "mapping",
            "key": "t_address",
            "label": "mapping(address => uint256[3])",
            "numberOfBytes": "32",
            "value": "t_array(t_uint256)3_storage"
          },
          "t_mapping(t_uint256,t_struct(DisputeData)747_storage)": {
            "encoding": "mapping",
            "key": "t_uint256",
            "label": "mapping(uint256 => struct TruthPost.DisputeData)",
            "numberOfBytes": "32",
            "value": "t_struct(DisputeData)747_storage"
          },
          "t_mapping(t_uint80,t_struct(Article)779_storage)": {
            "encoding": "mapping",
            "key": "t_uint80",
            "label": "mapping(uint80 => struct TruthPost.Article)",
            "numberOfBytes": "32",
            "value": "t_struct(Article)779_storage"
          },
          "t_struct(Article)779_storage": {
            "encoding": "inplace",
            "label": "struct TruthPost.Article",
            "members": [
              {
                "astId": 772,
                "contract": "contracts/TruthPost.sol:TruthPost",
                "label": "owner",
                "offset": 0,
                "slot": "0",
                "type": "t_address_payable"
              },
              {
                "astId": 774,
                "contract": "contracts/TruthPost.sol:TruthPost",
                "label": "withdrawalPermittedAt",
                "offset": 20,
                "slot": "0",
                "type": "t_uint32"
              },
              {
                "astId": 776,
                "contract": "contracts/TruthPost.sol:TruthPost",
                "label": "bountyAmount",
                "offset": 24,
                "slot": "0",
                "type": "t_uint56"
              },
              {
                "astId": 778,
                "contract": "contracts/TruthPost.sol:TruthPost",
                "label": "category",
                "offset": 31,
                "slot": "0",
                "type": "t_uint8"
              }
            ],
            "numberOfBytes": "32"
          },
          "t_struct(DisputeData)747_storage": {
            "encoding": "inplace",
            "label": "struct TruthPost.DisputeData",
            "members": [
              {
                "astId": 733,
                "contract": "contracts/TruthPost.sol:TruthPost",
                "label": "challenger",
                "offset": 0,
                "slot": "0",
                "type": "t_address_payable"
              },
              {
                "astId": 736,
                "contract": "contracts/TruthPost.sol:TruthPost",
                "label": "outcome",
                "offset": 20,
                "slot": "0",
                "type": "t_enum(RulingOptions)295"
              },
              {
                "astId": 738,
                "contract": "contracts/TruthPost.sol:TruthPost",
                "label": "articleCategory",
                "offset": 21,
                "slot": "0",
                "type": "t_uint8"
              },
              {
                "astId": 740,
                "contract": "contracts/TruthPost.sol:TruthPost",
                "label": "resolved",
                "offset": 22,
                "slot": "0",
                "type": "t_bool"
              },
              {
                "astId": 742,
                "contract": "contracts/TruthPost.sol:TruthPost",
                "label": "articleStorageAddress",
                "offset": 0,
                "slot": "1",
                "type": "t_uint80"
              },
              {
                "astId": 746,
                "contract": "contracts/TruthPost.sol:TruthPost",
                "label": "rounds",
                "offset": 0,
                "slot": "2",
                "type": "t_array(t_struct(Round)770_storage)dyn_storage"
              }
            ],
            "numberOfBytes": "96"
          },
          "t_struct(Round)770_storage": {
            "encoding": "inplace",
            "label": "struct TruthPost.Round",
            "members": [
              {
                "astId": 755,
                "contract": "contracts/TruthPost.sol:TruthPost",
                "label": "contributions",
                "offset": 0,
                "slot": "0",
                "type": "t_mapping(t_address,t_array(t_uint256)3_storage)"
              },
              {
                "astId": 761,
                "contract": "contracts/TruthPost.sol:TruthPost",
                "label": "hasPaid",
                "offset": 0,
                "slot": "1",
                "type": "t_array(t_bool)3_storage"
              },
              {
                "astId": 767,
                "contract": "contracts/TruthPost.sol:TruthPost",
                "label": "totalPerRuling",
                "offset": 0,
                "slot": "2",
                "type": "t_array(t_uint256)3_storage"
              },
              {
                "astId": 769,
                "contract": "contracts/TruthPost.sol:TruthPost",
                "label": "totalClaimableAfterExpenses",
                "offset": 0,
                "slot": "5",
                "type": "t_uint256"
              }
            ],
            "numberOfBytes": "192"
          },
          "t_uint256": {
            "encoding": "inplace",
            "label": "uint256",
            "numberOfBytes": "32"
          },
          "t_uint32": {
            "encoding": "inplace",
            "label": "uint32",
            "numberOfBytes": "4"
          },
          "t_uint56": {
            "encoding": "inplace",
            "label": "uint56",
            "numberOfBytes": "7"
          },
          "t_uint8": {
            "encoding": "inplace",
            "label": "uint8",
            "numberOfBytes": "1"
          },
          "t_uint80": {
            "encoding": "inplace",
            "label": "uint80",
            "numberOfBytes": "10"
          }
        }
      },
      "userdoc": {
        "kind": "user",
        "methods": {
          "appealFee(uint256)": {
            "notice": "Get required appeal fee and deposit."
          },
          "challenge(uint80)": {
            "notice": "Challenge article."
          },
          "challengeFee(uint80)": {
            "notice": "Get required challenge fee."
          },
          "changeAdmin(address)": {
            "notice": "Changes the administrator of the contract to a new address."
          },
          "changeArticleWithdrawalTimelock(uint256)": {
            "notice": "Update the timelock for the article withdtrawal."
          },
          "changeLoserAppealPeriodMultiplier(uint256)": {
            "notice": "Update the appeal window for the loser."
          },
          "changeLoserStakeMultiplier(uint256)": {
            "notice": "Update the arbitration cost for the loser."
          },
          "changeTreasury(address)": {
            "notice": "Changes the treasury address of the contract to a new address."
          },
          "changeWinnerStakeMultiplier(uint256)": {
            "notice": "Update the arbitration cost for the winner."
          },
          "findVacantStorageSlot(uint80)": {
            "notice": "Find a vacant storage slot for an article."
          },
          "fundAppeal(uint256,uint8)": {
            "notice": "Fund a crowdfunding appeal."
          },
          "getAmountRemainsToBeRaised(uint256,uint8)": {
            "notice": "Learn about how much more needs to be raised for given ruling option."
          },
          "getAppealPeriod(uint256,uint8)": {
            "notice": "Get appeal time window."
          },
          "getLastRoundWinner(uint256)": {
            "notice": "Get last round's winner."
          },
          "getReturnOfInvestmentRatio(uint8,uint8)": {
            "notice": "Get return of investment ratio."
          },
          "getRoundInfo(uint256,uint256)": {
            "notice": "Learn about given dispute round."
          },
          "getTotalWithdrawableAmount(uint256,address)": {
            "notice": "Learn the total amount of appeal crowdfunding balance available."
          },
          "increaseBounty(uint80)": {
            "notice": "Increase bounty."
          },
          "initializeArticle(string,uint8,uint80)": {
            "notice": "Publish an article."
          },
          "initiateWithdrawal(uint80)": {
            "notice": "Initiate unpublishing process."
          },
          "newCategory(string,bytes)": {
            "notice": "Initialize a category."
          },
          "rule(uint256,uint256)": {
            "notice": "Execute a ruling"
          },
          "submitEvidence(uint256,string)": {
            "notice": "Submit an evidence."
          },
          "switchPublishingLock()": {
            "notice": "Switches publishing lock."
          },
          "transferBalanceToTreasury()": {
            "notice": "Transfers the balance of the contract to the treasury."
          },
          "transferOwnership(uint80,address)": {
            "notice": "Transfer ownership of an article."
          },
          "updateChallengeTaxRate(uint256)": {
            "notice": "Updates the challenge tax rate of the contract to a new value."
          },
          "withdraw(uint80)": {
            "notice": "Execute unpublishing."
          },
          "withdrawFeesAndRewards(uint256,address,uint256,uint8)": {
            "notice": "Withdraw appeal crowdfunding balance."
          },
          "withdrawFeesAndRewardsForAllRounds(uint256,address,uint8)": {
            "notice": "Withdraw appeal crowdfunding balance for given ruling option for all rounds."
          },
          "withdrawFeesAndRewardsForAllRoundsAndAllRulings(uint256,address)": {
            "notice": "Withdraw appeal crowdfunding balance for all ruling options and all rounds."
          },
          "withdrawFeesAndRewardsForGivenPositions(uint256,address,uint256[][])": {
            "notice": "Withdraw appeal crowdfunding balance for given ruling option and for given rounds."
          }
        },
        "notice": "Smart contract for a type of curation, where submitted items are on hold until they are withdrawn and the amount of security deposits are determined by submitters.",
        "version": 1
      }
    }
  }
}