{
  "_format": "hh-sol-artifact-1",
  "contractName": "Arbitrator",
  "sourceName": "contracts/for-testing-purposes/Arbitrator.sol",
  "abi": [
    {
      "anonymous": false,
      "inputs": [
        {
          "indexed": true,
          "internalType": "uint256",
          "name": "_disputeID",
          "type": "uint256"
        },
        {
          "indexed": true,
          "internalType": "contract IArbitrable",
          "name": "_arbitrable",
          "type": "address"
        }
      ],
      "name": "AppealDecision",
      "type": "event"
    },
    {
      "anonymous": false,
      "inputs": [
        {
          "indexed": true,
          "internalType": "uint256",
          "name": "_disputeID",
          "type": "uint256"
        },
        {
          "indexed": true,
          "internalType": "contract IArbitrable",
          "name": "_arbitrable",
          "type": "address"
        }
      ],
      "name": "AppealPossible",
      "type": "event"
    },
    {
      "anonymous": false,
      "inputs": [
        {
          "indexed": true,
          "internalType": "uint256",
          "name": "_disputeID",
          "type": "uint256"
        },
        {
          "indexed": true,
          "internalType": "contract IArbitrable",
          "name": "_arbitrable",
          "type": "address"
        }
      ],
      "name": "DisputeCreation",
      "type": "event"
    },
    {
      "inputs": [
        {
          "internalType": "uint256",
          "name": "_disputeID",
          "type": "uint256"
        },
        {
          "internalType": "bytes",
          "name": "_extraData",
          "type": "bytes"
        }
      ],
      "name": "appeal",
      "outputs": [],
      "stateMutability": "payable",
      "type": "function"
    },
    {
      "inputs": [
        {
          "internalType": "uint256",
          "name": "",
          "type": "uint256"
        },
        {
          "internalType": "bytes",
          "name": "",
          "type": "bytes"
        }
      ],
      "name": "appealCost",
      "outputs": [
        {
          "internalType": "uint256",
          "name": "fee",
          "type": "uint256"
        }
      ],
      "stateMutability": "view",
      "type": "function"
    },
    {
      "inputs": [
        {
          "internalType": "uint256",
          "name": "_disputeID",
          "type": "uint256"
        }
      ],
      "name": "appealPeriod",
      "outputs": [
        {
          "internalType": "uint256",
          "name": "start",
          "type": "uint256"
        },
        {
          "internalType": "uint256",
          "name": "end",
          "type": "uint256"
        }
      ],
      "stateMutability": "view",
      "type": "function"
    },
    {
      "inputs": [
        {
          "internalType": "bytes",
          "name": "",
          "type": "bytes"
        }
      ],
      "name": "arbitrationCost",
      "outputs": [
        {
          "internalType": "uint256",
          "name": "fee",
          "type": "uint256"
        }
      ],
      "stateMutability": "view",
      "type": "function"
    },
    {
      "inputs": [
        {
          "internalType": "uint256",
          "name": "_choices",
          "type": "uint256"
        },
        {
          "internalType": "bytes",
          "name": "_extraData",
          "type": "bytes"
        }
      ],
      "name": "createDispute",
      "outputs": [
        {
          "internalType": "uint256",
          "name": "disputeID",
          "type": "uint256"
        }
      ],
      "stateMutability": "payable",
      "type": "function"
    },
    {
      "inputs": [
        {
          "internalType": "uint256",
          "name": "_disputeID",
          "type": "uint256"
        }
      ],
      "name": "currentRuling",
      "outputs": [
        {
          "internalType": "uint256",
          "name": "ruling",
          "type": "uint256"
        }
      ],
      "stateMutability": "view",
      "type": "function"
    },
    {
      "inputs": [
        {
          "internalType": "uint256",
          "name": "_disputeID",
          "type": "uint256"
        }
      ],
      "name": "disputeStatus",
      "outputs": [
        {
          "internalType": "enum IArbitrator.DisputeStatus",
          "name": "status",
          "type": "uint8"
        }
      ],
      "stateMutability": "view",
      "type": "function"
    },
    {
      "inputs": [
        {
          "internalType": "uint256",
          "name": "",
          "type": "uint256"
        }
      ],
      "name": "disputes",
      "outputs": [
        {
          "internalType": "contract IArbitrable",
          "name": "arbitrated",
          "type": "address"
        },
        {
          "internalType": "uint256",
          "name": "appealDeadline",
          "type": "uint256"
        },
        {
          "internalType": "uint256",
          "name": "numberOfRulingOptions",
          "type": "uint256"
        },
        {
          "internalType": "uint256",
          "name": "ruling",
          "type": "uint256"
        },
        {
          "internalType": "enum IArbitrator.DisputeStatus",
          "name": "status",
          "type": "uint8"
        }
      ],
      "stateMutability": "view",
      "type": "function"
    },
    {
      "inputs": [
        {
          "internalType": "uint256",
          "name": "_disputeID",
          "type": "uint256"
        }
      ],
      "name": "executeRuling",
      "outputs": [],
      "stateMutability": "nonpayable",
      "type": "function"
    },
    {
      "inputs": [
        {
          "internalType": "uint256",
          "name": "_disputeID",
          "type": "uint256"
        },
        {
          "internalType": "uint256",
          "name": "_ruling",
          "type": "uint256"
        },
        {
          "internalType": "uint256",
          "name": "_appealWindow",
          "type": "uint256"
        }
      ],
      "name": "giveRuling",
      "outputs": [],
      "stateMutability": "nonpayable",
      "type": "function"
    },
    {
      "inputs": [],
      "name": "governor",
      "outputs": [
        {
          "internalType": "address",
          "name": "",
          "type": "address"
        }
      ],
      "stateMutability": "view",
      "type": "function"
    },
    {
      "inputs": [
        {
          "internalType": "uint256",
          "name": "_arbitrationPrice",
          "type": "uint256"
        }
      ],
      "name": "setArbitrationPrice",
      "outputs": [],
      "stateMutability": "nonpayable",
      "type": "function"
    }
  ],
  "bytecode": "0x6080604052600080546001600160a01b03191633179055670de0b6b3a764000060015534801561002e57600080fd5b50610e258061003e6000396000f3fe6080604052600436106100c75760003560e01c8063afe15cfb11610074578063f23f16e61161004e578063f23f16e614610232578063f7434ea914610252578063ffb43c481461027457600080fd5b8063afe15cfb146101ca578063bc97d0f3146101ff578063c13517e11461021f57600080fd5b806349912f88116100a557806349912f8814610164578063564a565d146101795780638bb04875146101aa57600080fd5b80630c340a24146100cc57806310f169e8146101095780631c3db16d14610136575b600080fd5b3480156100d857600080fd5b506000546100ec906001600160a01b031681565b6040516001600160a01b0390911681526020015b60405180910390f35b34801561011557600080fd5b50610129610124366004610ba5565b610294565b6040516101009190610bf6565b34801561014257600080fd5b50610156610151366004610ba5565b610349565b604051908152602001610100565b610177610172366004610ca7565b610377565b005b34801561018557600080fd5b50610199610194366004610ba5565b61054c565b604051610100959493929190610cee565b3480156101b657600080fd5b506101776101c5366004610ba5565b61059a565b3480156101d657600080fd5b506101ea6101e5366004610ba5565b610734565b60408051928352602083019190915201610100565b34801561020b57600080fd5b5061017761021a366004610d2b565b61076c565b61015661022d366004610ca7565b61093d565b34801561023e57600080fd5b5061015661024d366004610ca7565b610aef565b34801561025e57600080fd5b5061015661026d366004610d57565b5060015490565b34801561028057600080fd5b5061017761028f366004610ba5565b610b3a565b600080600283815481106102aa576102aa610d94565b6000918252602090912060059091020190506001600284815481106102d1576102d1610d94565b600091825260209091206004600590920201015460ff1660028111156102f9576102f9610bbe565b14801561030a575080600101544210155b156103185750600292915050565b6002838154811061032b5761032b610d94565b600091825260209091206004600590920201015460ff169392505050565b60006002828154811061035e5761035e610d94565b9060005260206000209060050201600301549050919050565b60006002838154811061038c5761038c610d94565b9060005260206000209060050201905060006103a88484610aef565b90506001600483015460ff1660028111156103c5576103c5610bbe565b146104175760405162461bcd60e51b815260206004820152601f60248201527f5468652064697370757465206d7573742062652061707065616c61626c652e0060448201526064015b60405180910390fd5b816001015442106104905760405162461bcd60e51b815260206004820152603a60248201527f5468652061707065616c206d757374206f63637572206265666f72652074686560448201527f20656e64206f66207468652061707065616c20706572696f642e000000000000606482015260840161040e565b803410156105065760405162461bcd60e51b815260206004820152602660248201527f56616c7565206973206c657373207468616e207265717569726564206170706560448201527f616c206665650000000000000000000000000000000000000000000000000000606482015260840161040e565b60006001830181905560048301805460ff19169055604051339186917f9c9b64db9e130f48381bf697abf638e73117dbfbfd7a4484f2da3ba188f4187d9190a350505050565b6002818154811061055c57600080fd5b6000918252602090912060059091020180546001820154600283015460038401546004909401546001600160a01b0390931694509092909160ff1685565b6000600282815481106105af576105af610d94565b6000918252602090912060059091020190506001600482015460ff1660028111156105dc576105dc610bbe565b146106295760405162461bcd60e51b815260206004820152601f60248201527f5468652064697370757465206d7573742062652061707065616c61626c652e00604482015260640161040e565b80600101544210156106a35760405162461bcd60e51b815260206004820152603f60248201527f5468652064697370757465206d7573742062652065786563757465642061667460448201527f6572206974732061707065616c20706572696f642068617320656e6465642e00606482015260840161040e565b6004818101805460ff19166002179055815460038301546040517f311a6c5600000000000000000000000000000000000000000000000000000000815292830185905260248301526001600160a01b03169063311a6c5690604401600060405180830381600087803b15801561071857600080fd5b505af115801561072c573d6000803e3d6000fd5b505050505050565b60008060006002848154811061074c5761074c610d94565b906000526020600020906005020190504281600101549250925050915091565b6000546001600160a01b031633146107d25760405162461bcd60e51b815260206004820152602360248201527f43616e206f6e6c792062652063616c6c65642062792074686520676f7665726e60448201526237b91760e91b606482015260840161040e565b6000600284815481106107e7576107e7610d94565b90600052602060002090600502019050806002015483111561084b5760405162461bcd60e51b815260206004820152600f60248201527f496e76616c69642072756c696e672e0000000000000000000000000000000000604482015260640161040e565b6000600482015460ff16600281111561086657610866610bbe565b146108d95760405162461bcd60e51b815260206004820152602c60248201527f5468652064697370757465206d7573742062652077616974696e6720666f722060448201527f6172626974726174696f6e2e0000000000000000000000000000000000000000606482015260840161040e565b6003810183905560048101805460ff191660011790556108f98242610dc0565b600182015580546040516001600160a01b039091169085907fa5d41b970d849372be1da1481ffd78d162bfe57a7aa2fe4e5fb73481fa5ac24f90600090a350505050565b60008061094960015490565b9050803410156109c15760405162461bcd60e51b815260206004820152602c60248201527f56616c7565206973206c657373207468616e207265717569726564206172626960448201527f74726174696f6e206665652e0000000000000000000000000000000000000000606482015260840161040e565b60026040518060a00160405280336001600160a01b03168152602001600081526020018681526020016000815260200160006002811115610a0457610a04610bbe565b90528154600180820184556000938452602093849020835160059093020180547fffffffffffffffffffffffff0000000000000000000000000000000000000000166001600160a01b0390931692909217825592820151818401556040820151600280830191909155606083015160038301556080830151600483018054949593949193909260ff19909216918490811115610aa257610aa2610bbe565b021790555050600254610ab89150600190610dd8565b604051909250339083907f141dfc18aa6a56fc816f44f0e9e2f1ebc92b15ab167770e17db5b084c10ed99590600090a35092915050565b6000610b316040518060400160405280600681526020017f554e5553454400000000000000000000000000000000000000000000000000008152505060015490565b90505b92915050565b6000546001600160a01b03163314610ba05760405162461bcd60e51b815260206004820152602360248201527f43616e206f6e6c792062652063616c6c65642062792074686520676f7665726e60448201526237b91760e91b606482015260840161040e565b600155565b600060208284031215610bb757600080fd5b5035919050565b634e487b7160e01b600052602160045260246000fd5b60038110610bf257634e487b7160e01b600052602160045260246000fd5b9052565b60208101610b348284610bd4565b634e487b7160e01b600052604160045260246000fd5b600082601f830112610c2b57600080fd5b813567ffffffffffffffff80821115610c4657610c46610c04565b604051601f8301601f19908116603f01168101908282118183101715610c6e57610c6e610c04565b81604052838152866020858801011115610c8757600080fd5b836020870160208301376000602085830101528094505050505092915050565b60008060408385031215610cba57600080fd5b82359150602083013567ffffffffffffffff811115610cd857600080fd5b610ce485828601610c1a565b9150509250929050565b600060a0820190506001600160a01b0387168252856020830152846040830152836060830152610d216080830184610bd4565b9695505050505050565b600080600060608486031215610d4057600080fd5b505081359360208301359350604090920135919050565b600060208284031215610d6957600080fd5b813567ffffffffffffffff811115610d8057600080fd5b610d8c84828501610c1a565b949350505050565b634e487b7160e01b600052603260045260246000fd5b634e487b7160e01b600052601160045260246000fd5b60008219821115610dd357610dd3610daa565b500190565b600082821015610dea57610dea610daa565b50039056fea2646970667358221220472c92e1d2c5e786039b79d3630162920146d20f3d196fb944eeaf7ad122960864736f6c634300080a0033",
  "linkReferences": {},
  "deployedLinkReferences": {}
}