{
  "_format": "hh-sol-artifact-1",
  "contractName": "TruthPost",
  "sourceName": "contracts/TruthPost.sol",
  "abi": [
    {
      "inputs": [
        {
          "internalType": "contract IArbitrator",
          "name": "_arbitrator",
          "type": "address"
        },
        {
          "internalType": "bytes",
          "name": "_arbitratorExtraData",
          "type": "bytes"
        },
        {
          "internalType": "string",
          "name": "_metaevidenceIpfsUri",
          "type": "string"
        },
        {
          "internalType": "uint256",
          "name": "_articleWithdrawalTimelock",
          "type": "uint256"
        },
        {
          "internalType": "uint256",
          "name": "_winnerStakeMultiplier",
          "type": "uint256"
        },
        {
          "internalType": "uint256",
          "name": "_loserStakeMultiplier",
          "type": "uint256"
        },
        {
          "internalType": "address payable",
          "name": "_treasury",
          "type": "address"
        }
      ],
      "stateMutability": "nonpayable",
      "type": "constructor"
    },
    {
      "anonymous": false,
      "inputs": [
        {
          "indexed": true,
          "internalType": "address",
          "name": "_newAdmin",
          "type": "address"
        }
      ],
      "name": "AdminUpdate",
      "type": "event"
    },
    {
      "anonymous": false,
      "inputs": [
        {
          "indexed": true,
          "internalType": "uint256",
          "name": "_newWithdrawalTimelock",
          "type": "uint256"
        }
      ],
      "name": "ArticleWithdrawalTimelockUpdate",
      "type": "event"
    },
    {
      "anonymous": false,
      "inputs": [
        {
          "indexed": false,
          "internalType": "uint256",
          "name": "articleAddress",
          "type": "uint256"
        }
      ],
      "name": "ArticleWithdrawn",
      "type": "event"
    },
    {
      "anonymous": false,
      "inputs": [
        {
          "indexed": false,
          "internalType": "uint256",
          "name": "articleAddress",
          "type": "uint256"
        },
        {
          "indexed": false,
          "internalType": "uint256",
          "name": "newTotal",
          "type": "uint256"
        }
      ],
      "name": "BalanceUpdate",
      "type": "event"
    },
    {
      "anonymous": false,
      "inputs": [
        {
          "indexed": true,
          "internalType": "uint256",
          "name": "articleAddress",
          "type": "uint256"
        },
        {
          "indexed": false,
          "internalType": "address",
          "name": "challanger",
          "type": "address"
        },
        {
          "indexed": false,
          "internalType": "uint256",
          "name": "disputeID",
          "type": "uint256"
        }
      ],
      "name": "Challenge",
      "type": "event"
    },
    {
      "anonymous": false,
      "inputs": [
        {
          "indexed": true,
          "internalType": "uint256",
          "name": "_newTaxRate",
          "type": "uint256"
        }
      ],
      "name": "ChallengeTaxRateUpdate",
      "type": "event"
    },
    {
      "anonymous": false,
      "inputs": [
        {
          "indexed": true,
          "internalType": "uint256",
          "name": "disputeId",
          "type": "uint256"
        },
        {
          "indexed": true,
          "internalType": "uint256",
          "name": "round",
          "type": "uint256"
        },
        {
          "indexed": false,
          "internalType": "enum ITruthPost.RulingOptions",
          "name": "ruling",
          "type": "uint8"
        },
        {
          "indexed": true,
          "internalType": "address",
          "name": "contributor",
          "type": "address"
        },
        {
          "indexed": false,
          "internalType": "uint256",
          "name": "amount",
          "type": "uint256"
        }
      ],
      "name": "Contribution",
      "type": "event"
    },
    {
      "anonymous": false,
      "inputs": [
        {
          "indexed": false,
          "internalType": "uint256",
          "name": "articleAddress",
          "type": "uint256"
        }
      ],
      "name": "Debunked",
      "type": "event"
    },
    {
      "anonymous": false,
      "inputs": [
        {
          "indexed": true,
          "internalType": "contract IArbitrator",
          "name": "_arbitrator",
          "type": "address"
        },
        {
          "indexed": true,
          "internalType": "uint256",
          "name": "_disputeID",
          "type": "uint256"
        },
        {
          "indexed": false,
          "internalType": "uint256",
          "name": "_metaEvidenceID",
          "type": "uint256"
        },
        {
          "indexed": false,
          "internalType": "uint256",
          "name": "_evidenceGroupID",
          "type": "uint256"
        }
      ],
      "name": "Dispute",
      "type": "event"
    },
    {
      "anonymous": false,
      "inputs": [
        {
          "indexed": true,
          "internalType": "contract IArbitrator",
          "name": "_arbitrator",
          "type": "address"
        },
        {
          "indexed": true,
          "internalType": "uint256",
          "name": "_evidenceGroupID",
          "type": "uint256"
        },
        {
          "indexed": true,
          "internalType": "address",
          "name": "_party",
          "type": "address"
        },
        {
          "indexed": false,
          "internalType": "string",
          "name": "_evidence",
          "type": "string"
        }
      ],
      "name": "Evidence",
      "type": "event"
    },
    {
      "anonymous": false,
      "inputs": [
        {
          "indexed": true,
          "internalType": "uint256",
          "name": "_newLoserAppealPeriodMultiplier",
          "type": "uint256"
        }
      ],
      "name": "LoserAppealPeriodMultiplierUpdate",
      "type": "event"
    },
    {
      "anonymous": false,
      "inputs": [
        {
          "indexed": true,
          "internalType": "uint256",
          "name": "_newLoserStakeMultiplier",
          "type": "uint256"
        }
      ],
      "name": "LoserStakeMultiplierUpdate",
      "type": "event"
    },
    {
      "anonymous": false,
      "inputs": [
        {
          "indexed": true,
          "internalType": "uint256",
          "name": "_metaEvidenceID",
          "type": "uint256"
        },
        {
          "indexed": false,
          "internalType": "string",
          "name": "_evidence",
          "type": "string"
        }
      ],
      "name": "MetaEvidence",
      "type": "event"
    },
    {
      "anonymous": false,
      "inputs": [
        {
          "indexed": false,
          "internalType": "string",
          "name": "articleID",
          "type": "string"
        },
        {
          "indexed": false,
          "internalType": "uint8",
          "name": "category",
          "type": "uint8"
        },
        {
          "indexed": false,
          "internalType": "uint256",
          "name": "articleAddress",
          "type": "uint256"
        }
      ],
      "name": "NewArticle",
      "type": "event"
    },
    {
      "anonymous": false,
      "inputs": [
        {
          "indexed": true,
          "internalType": "address",
          "name": "_newOwner",
          "type": "address"
        }
      ],
      "name": "OwnershipTransfer",
      "type": "event"
    },
    {
      "anonymous": false,
      "inputs": [
        {
          "indexed": true,
          "internalType": "contract IArbitrator",
          "name": "_arbitrator",
          "type": "address"
        },
        {
          "indexed": true,
          "internalType": "uint256",
          "name": "_disputeID",
          "type": "uint256"
        },
        {
          "indexed": false,
          "internalType": "uint256",
          "name": "_ruling",
          "type": "uint256"
        }
      ],
      "name": "Ruling",
      "type": "event"
    },
    {
      "anonymous": false,
      "inputs": [
        {
          "indexed": true,
          "internalType": "uint256",
          "name": "disputeId",
          "type": "uint256"
        },
        {
          "indexed": true,
          "internalType": "uint256",
          "name": "round",
          "type": "uint256"
        },
        {
          "indexed": true,
          "internalType": "enum ITruthPost.RulingOptions",
          "name": "ruling",
          "type": "uint8"
        }
      ],
      "name": "RulingFunded",
      "type": "event"
    },
    {
      "anonymous": false,
      "inputs": [
        {
          "indexed": false,
          "internalType": "uint256",
          "name": "articleAddress",
          "type": "uint256"
        }
      ],
      "name": "TimelockStarted",
      "type": "event"
    },
    {
      "anonymous": false,
      "inputs": [
        {
          "indexed": true,
          "internalType": "uint256",
          "name": "_byAmount",
          "type": "uint256"
        }
      ],
      "name": "TreasuryBalanceUpdate",
      "type": "event"
    },
    {
      "anonymous": false,
      "inputs": [
        {
          "indexed": true,
          "internalType": "address",
          "name": "_newTreasury",
          "type": "address"
        }
      ],
      "name": "TreasuryUpdate",
      "type": "event"
    },
    {
      "anonymous": false,
      "inputs": [
        {
          "indexed": true,
          "internalType": "uint256",
          "name": "_newWinnerStakeMultiplier",
          "type": "uint256"
        }
      ],
      "name": "WinnerStakeMultiplierUpdate",
      "type": "event"
    },
    {
      "anonymous": false,
      "inputs": [
        {
          "indexed": true,
          "internalType": "uint256",
          "name": "disputeId",
          "type": "uint256"
        },
        {
          "indexed": true,
          "internalType": "uint256",
          "name": "round",
          "type": "uint256"
        },
        {
          "indexed": false,
          "internalType": "enum ITruthPost.RulingOptions",
          "name": "ruling",
          "type": "uint8"
        },
        {
          "indexed": true,
          "internalType": "address",
          "name": "contributor",
          "type": "address"
        },
        {
          "indexed": false,
          "internalType": "uint256",
          "name": "reward",
          "type": "uint256"
        }
      ],
      "name": "Withdrawal",
      "type": "event"
    },
    {
      "inputs": [],
      "name": "ARBITRATOR",
      "outputs": [
        {
          "internalType": "contract IArbitrator",
          "name": "",
          "type": "address"
        }
      ],
      "stateMutability": "view",
      "type": "function"
    },
    {
      "inputs": [],
      "name": "ARTICLE_WITHDRAWAL_TIMELOCK",
      "outputs": [
        {
          "internalType": "uint256",
          "name": "",
          "type": "uint256"
        }
      ],
      "stateMutability": "view",
      "type": "function"
    },
    {
      "inputs": [],
      "name": "LOSER_APPEAL_PERIOD_MULTIPLIER",
      "outputs": [
        {
          "internalType": "uint256",
          "name": "",
          "type": "uint256"
        }
      ],
      "stateMutability": "view",
      "type": "function"
    },
    {
      "inputs": [],
      "name": "LOSER_STAKE_MULTIPLIER",
      "outputs": [
        {
          "internalType": "uint256",
          "name": "",
          "type": "uint256"
        }
      ],
      "stateMutability": "view",
      "type": "function"
    },
    {
      "inputs": [],
      "name": "MULTIPLIER_DENOMINATOR",
      "outputs": [
        {
          "internalType": "uint256",
          "name": "",
          "type": "uint256"
        }
      ],
      "stateMutability": "view",
      "type": "function"
    },
    {
      "inputs": [],
      "name": "NUMBER_OF_LEAST_SIGNIFICANT_BITS_TO_IGNORE",
      "outputs": [
        {
          "internalType": "uint256",
          "name": "",
          "type": "uint256"
        }
      ],
      "stateMutability": "view",
      "type": "function"
    },
    {
      "inputs": [],
      "name": "NUMBER_OF_RULING_OPTIONS",
      "outputs": [
        {
          "internalType": "uint256",
          "name": "",
          "type": "uint256"
        }
      ],
      "stateMutability": "view",
      "type": "function"
    },
    {
      "inputs": [],
      "name": "TREASURY",
      "outputs": [
        {
          "internalType": "address payable",
          "name": "",
          "type": "address"
        }
      ],
      "stateMutability": "view",
      "type": "function"
    },
    {
      "inputs": [],
      "name": "VERSION",
      "outputs": [
        {
          "internalType": "string",
          "name": "",
          "type": "string"
        }
      ],
      "stateMutability": "view",
      "type": "function"
    },
    {
      "inputs": [],
      "name": "WINNER_STAKE_MULTIPLIER",
      "outputs": [
        {
          "internalType": "uint256",
          "name": "",
          "type": "uint256"
        }
      ],
      "stateMutability": "view",
      "type": "function"
    },
    {
      "inputs": [],
      "name": "admin",
      "outputs": [
        {
          "internalType": "address payable",
          "name": "",
          "type": "address"
        }
      ],
      "stateMutability": "view",
      "type": "function"
    },
    {
      "inputs": [
        {
          "internalType": "uint256",
          "name": "_disputeID",
          "type": "uint256"
        }
      ],
      "name": "appealFee",
      "outputs": [
        {
          "internalType": "uint256",
          "name": "arbitrationFee",
          "type": "uint256"
        }
      ],
      "stateMutability": "view",
      "type": "function"
    },
    {
      "inputs": [
        {
          "internalType": "uint72",
          "name": "",
          "type": "uint72"
        }
      ],
      "name": "articleStorage",
      "outputs": [
        {
          "internalType": "address payable",
          "name": "owner",
          "type": "address"
        },
        {
          "internalType": "uint32",
          "name": "withdrawalPermittedAt",
          "type": "uint32"
        },
        {
          "internalType": "uint56",
          "name": "bountyAmount",
          "type": "uint56"
        },
        {
          "internalType": "uint8",
          "name": "category",
          "type": "uint8"
        }
      ],
      "stateMutability": "view",
      "type": "function"
    },
    {
      "inputs": [],
      "name": "categoryCounter",
      "outputs": [
        {
          "internalType": "uint8",
          "name": "",
          "type": "uint8"
        }
      ],
      "stateMutability": "view",
      "type": "function"
    },
    {
      "inputs": [
        {
          "internalType": "uint256",
          "name": "",
          "type": "uint256"
        }
      ],
      "name": "categoryToArbitratorExtraData",
      "outputs": [
        {
          "internalType": "bytes",
          "name": "",
          "type": "bytes"
        }
      ],
      "stateMutability": "view",
      "type": "function"
    },
    {
      "inputs": [
        {
          "internalType": "uint72",
          "name": "_articleStorageAddress",
          "type": "uint72"
        }
      ],
      "name": "challenge",
      "outputs": [],
      "stateMutability": "payable",
      "type": "function"
    },
    {
      "inputs": [
        {
          "internalType": "uint72",
          "name": "_articleStorageAddress",
          "type": "uint72"
        }
      ],
      "name": "challengeFee",
      "outputs": [
        {
          "internalType": "uint256",
          "name": "",
          "type": "uint256"
        }
      ],
      "stateMutability": "view",
      "type": "function"
    },
    {
      "inputs": [],
      "name": "challengeTaxRate",
      "outputs": [
        {
          "internalType": "uint256",
          "name": "",
          "type": "uint256"
        }
      ],
      "stateMutability": "view",
      "type": "function"
    },
    {
      "inputs": [
        {
          "internalType": "address payable",
          "name": "_newAdmin",
          "type": "address"
        }
      ],
      "name": "changeAdmin",
      "outputs": [],
      "stateMutability": "nonpayable",
      "type": "function"
    },
    {
      "inputs": [
        {
          "internalType": "uint256",
          "name": "_newArticleWithdrawalTimelock",
          "type": "uint256"
        }
      ],
      "name": "changeArticleWithdrawalTimelock",
      "outputs": [],
      "stateMutability": "nonpayable",
      "type": "function"
    },
    {
      "inputs": [
        {
          "internalType": "uint256",
          "name": "_newLoserAppealPeriodMultiplier",
          "type": "uint256"
        }
      ],
      "name": "changeLoserAppealPeriodMultiplier",
      "outputs": [],
      "stateMutability": "nonpayable",
      "type": "function"
    },
    {
      "inputs": [
        {
          "internalType": "uint256",
          "name": "_newLoserStakeMultiplier",
          "type": "uint256"
        }
      ],
      "name": "changeLoserStakeMultiplier",
      "outputs": [],
      "stateMutability": "nonpayable",
      "type": "function"
    },
    {
      "inputs": [
        {
          "internalType": "address payable",
          "name": "_newTreasury",
          "type": "address"
        }
      ],
      "name": "changeTreasury",
      "outputs": [],
      "stateMutability": "nonpayable",
      "type": "function"
    },
    {
      "inputs": [
        {
          "internalType": "uint256",
          "name": "_newWinnerStakeMultiplier",
          "type": "uint256"
        }
      ],
      "name": "changeWinnerStakeMultiplier",
      "outputs": [],
      "stateMutability": "nonpayable",
      "type": "function"
    },
    {
      "inputs": [
        {
          "internalType": "uint256",
          "name": "",
          "type": "uint256"
        }
      ],
      "name": "disputes",
      "outputs": [
        {
          "internalType": "address payable",
          "name": "challenger",
          "type": "address"
        },
        {
          "internalType": "enum ITruthPost.RulingOptions",
          "name": "outcome",
          "type": "uint8"
        },
        {
          "internalType": "uint8",
          "name": "articleCategory",
          "type": "uint8"
        },
        {
          "internalType": "bool",
          "name": "resolved",
          "type": "bool"
        },
        {
          "internalType": "uint72",
          "name": "articleStorageAddress",
          "type": "uint72"
        }
      ],
      "stateMutability": "view",
      "type": "function"
    },
    {
      "inputs": [
        {
          "internalType": "uint72",
          "name": "_searchPointer",
          "type": "uint72"
        }
      ],
      "name": "findVacantStorageSlot",
      "outputs": [
        {
          "internalType": "uint256",
          "name": "vacantSlotIndex",
          "type": "uint256"
        }
      ],
      "stateMutability": "view",
      "type": "function"
    },
    {
      "inputs": [
        {
          "internalType": "uint256",
          "name": "_disputeID",
          "type": "uint256"
        },
        {
          "internalType": "enum ITruthPost.RulingOptions",
          "name": "_supportedRuling",
          "type": "uint8"
        }
      ],
      "name": "fundAppeal",
      "outputs": [
        {
          "internalType": "bool",
          "name": "fullyFunded",
          "type": "bool"
        }
      ],
      "stateMutability": "payable",
      "type": "function"
    },
    {
      "inputs": [
        {
          "internalType": "uint256",
          "name": "_disputeID",
          "type": "uint256"
        },
        {
          "internalType": "enum ITruthPost.RulingOptions",
          "name": "_ruling",
          "type": "uint8"
        }
      ],
      "name": "getAmountRemainsToBeRaised",
      "outputs": [
        {
          "internalType": "uint256",
          "name": "",
          "type": "uint256"
        }
      ],
      "stateMutability": "view",
      "type": "function"
    },
    {
      "inputs": [
        {
          "internalType": "uint256",
          "name": "_disputeID",
          "type": "uint256"
        },
        {
          "internalType": "enum ITruthPost.RulingOptions",
          "name": "_ruling",
          "type": "uint8"
        }
      ],
      "name": "getAppealPeriod",
      "outputs": [
        {
          "internalType": "uint256",
          "name": "",
          "type": "uint256"
        },
        {
          "internalType": "uint256",
          "name": "",
          "type": "uint256"
        }
      ],
      "stateMutability": "view",
      "type": "function"
    },
    {
      "inputs": [
        {
          "internalType": "uint256",
          "name": "_disputeID",
          "type": "uint256"
        }
      ],
      "name": "getLastRoundWinner",
      "outputs": [
        {
          "internalType": "uint256",
          "name": "",
          "type": "uint256"
        }
      ],
      "stateMutability": "view",
      "type": "function"
    },
    {
      "inputs": [
        {
          "internalType": "enum ITruthPost.RulingOptions",
          "name": "_ruling",
          "type": "uint8"
        },
        {
          "internalType": "enum ITruthPost.RulingOptions",
          "name": "_lastRoundWinner",
          "type": "uint8"
        }
      ],
      "name": "getReturnOfInvestmentRatio",
      "outputs": [
        {
          "internalType": "uint256",
          "name": "",
          "type": "uint256"
        }
      ],
      "stateMutability": "view",
      "type": "function"
    },
    {
      "inputs": [
        {
          "internalType": "uint256",
          "name": "_disputeID",
          "type": "uint256"
        },
        {
          "internalType": "uint256",
          "name": "_round",
          "type": "uint256"
        }
      ],
      "name": "getRoundInfo",
      "outputs": [
        {
          "internalType": "bool[3]",
          "name": "hasPaid",
          "type": "bool[3]"
        },
        {
          "internalType": "uint256[3]",
          "name": "totalPerRuling",
          "type": "uint256[3]"
        },
        {
          "internalType": "uint256",
          "name": "totalClaimableAfterExpenses",
          "type": "uint256"
        }
      ],
      "stateMutability": "view",
      "type": "function"
    },
    {
      "inputs": [
        {
          "internalType": "uint256",
          "name": "_disputeID",
          "type": "uint256"
        },
        {
          "internalType": "address payable",
          "name": "_contributor",
          "type": "address"
        }
      ],
      "name": "getTotalWithdrawableAmount",
      "outputs": [
        {
          "internalType": "uint256",
          "name": "sum",
          "type": "uint256"
        },
        {
          "internalType": "uint256[][]",
          "name": "amounts",
          "type": "uint256[][]"
        }
      ],
      "stateMutability": "view",
      "type": "function"
    },
    {
      "inputs": [
        {
          "internalType": "uint72",
          "name": "_articleStorageAddress",
          "type": "uint72"
        }
      ],
      "name": "increaseBounty",
      "outputs": [],
      "stateMutability": "payable",
      "type": "function"
    },
    {
      "inputs": [
        {
          "internalType": "string",
          "name": "_articleID",
          "type": "string"
        },
        {
          "internalType": "uint8",
          "name": "_category",
          "type": "uint8"
        },
        {
          "internalType": "uint72",
          "name": "_searchPointer",
          "type": "uint72"
        }
      ],
      "name": "initializeArticle",
      "outputs": [],
      "stateMutability": "payable",
      "type": "function"
    },
    {
      "inputs": [
        {
          "internalType": "uint72",
          "name": "_articleStorageAddress",
          "type": "uint72"
        }
      ],
      "name": "initiateWithdrawal",
      "outputs": [],
      "stateMutability": "nonpayable",
      "type": "function"
    },
    {
      "inputs": [
        {
          "internalType": "string",
          "name": "_metaevidenceIpfsUri",
          "type": "string"
        },
        {
          "internalType": "bytes",
          "name": "_arbitratorExtraData",
          "type": "bytes"
        }
      ],
      "name": "newCategory",
      "outputs": [],
      "stateMutability": "nonpayable",
      "type": "function"
    },
    {
      "inputs": [
        {
          "internalType": "uint256",
          "name": "_disputeID",
          "type": "uint256"
        },
        {
          "internalType": "uint256",
          "name": "_ruling",
          "type": "uint256"
        }
      ],
      "name": "rule",
      "outputs": [],
      "stateMutability": "nonpayable",
      "type": "function"
    },
    {
      "inputs": [
        {
          "internalType": "uint256",
          "name": "_disputeID",
          "type": "uint256"
        },
        {
          "internalType": "string",
          "name": "_evidenceURI",
          "type": "string"
        }
      ],
      "name": "submitEvidence",
      "outputs": [],
      "stateMutability": "nonpayable",
      "type": "function"
    },
    {
      "inputs": [],
      "name": "switchPublishingLock",
      "outputs": [],
      "stateMutability": "nonpayable",
      "type": "function"
    },
    {
      "inputs": [],
      "name": "transferBalanceToTreasury",
      "outputs": [],
      "stateMutability": "nonpayable",
      "type": "function"
    },
    {
      "inputs": [
        {
          "internalType": "uint72",
          "name": "_articleStorageAddress",
          "type": "uint72"
        },
        {
          "internalType": "address payable",
          "name": "_newOwner",
          "type": "address"
        }
      ],
      "name": "transferOwnership",
      "outputs": [],
      "stateMutability": "nonpayable",
      "type": "function"
    },
    {
      "inputs": [],
      "name": "treasuryBalance",
      "outputs": [
        {
          "internalType": "uint256",
          "name": "",
          "type": "uint256"
        }
      ],
      "stateMutability": "view",
      "type": "function"
    },
    {
      "inputs": [
        {
          "internalType": "uint256",
          "name": "_newChallengeTaxRate",
          "type": "uint256"
        }
      ],
      "name": "updateChallengeTaxRate",
      "outputs": [],
      "stateMutability": "nonpayable",
      "type": "function"
    },
    {
      "inputs": [
        {
          "internalType": "uint72",
          "name": "_articleStorageAddress",
          "type": "uint72"
        }
      ],
      "name": "withdraw",
      "outputs": [],
      "stateMutability": "nonpayable",
      "type": "function"
    },
    {
      "inputs": [
        {
          "internalType": "uint256",
          "name": "_disputeID",
          "type": "uint256"
        },
        {
          "internalType": "address payable",
          "name": "_contributor",
          "type": "address"
        },
        {
          "internalType": "uint256",
          "name": "_roundNumber",
          "type": "uint256"
        },
        {
          "internalType": "enum ITruthPost.RulingOptions",
          "name": "_ruling",
          "type": "uint8"
        }
      ],
      "name": "withdrawFeesAndRewards",
      "outputs": [
        {
          "internalType": "uint256",
          "name": "amount",
          "type": "uint256"
        }
      ],
      "stateMutability": "nonpayable",
      "type": "function"
    },
    {
      "inputs": [
        {
          "internalType": "uint256",
          "name": "_disputeID",
          "type": "uint256"
        },
        {
          "internalType": "address payable",
          "name": "_contributor",
          "type": "address"
        },
        {
          "internalType": "enum ITruthPost.RulingOptions",
          "name": "_ruling",
          "type": "uint8"
        }
      ],
      "name": "withdrawFeesAndRewardsForAllRounds",
      "outputs": [],
      "stateMutability": "nonpayable",
      "type": "function"
    },
    {
      "inputs": [
        {
          "internalType": "uint256",
          "name": "_disputeID",
          "type": "uint256"
        },
        {
          "internalType": "address payable",
          "name": "_contributor",
          "type": "address"
        }
      ],
      "name": "withdrawFeesAndRewardsForAllRoundsAndAllRulings",
      "outputs": [],
      "stateMutability": "nonpayable",
      "type": "function"
    },
    {
      "inputs": [
        {
          "internalType": "uint256",
          "name": "_disputeID",
          "type": "uint256"
        },
        {
          "internalType": "address payable",
          "name": "_contributor",
          "type": "address"
        },
        {
          "internalType": "uint256[][]",
          "name": "positions",
          "type": "uint256[][]"
        }
      ],
      "name": "withdrawFeesAndRewardsForGivenPositions",
      "outputs": [],
      "stateMutability": "nonpayable",
      "type": "function"
    }
  ],
  "bytecode": "0x60a06040526000805460ff1916600117905561020060025560106006556007805433610100026001600160a81b03199091161790553480156200004157600080fd5b506040516200451738038062004517833981016040819052620000649162000389565b600384905560048390556005829055600080546001600160a01b0380841661010002610100600160a81b0319909216919091179091558716608052620000ab8587620000b8565b5050505050505062000539565b600754620000cb9060ff16600162000466565b60ff166200011f5760405162461bcd60e51b815260206004820181905260248201527f4e6f207370616365206c65667420666f722061206e65772063617465676f7279604482015260640160405180910390fd5b60075460405160ff909116907f61606860eb6c87306811e2695215385101daab53bd6ab4e9f9049aead9363c7d906200015a9085906200048e565b60405180910390a2600754819060089060ff1660408110620001805762000180620004c3565b01908051906020019062000196929190620001c9565b506007805460ff16906000620001ac83620004d9565b91906101000a81548160ff021916908360ff160217905550505050565b828054620001d790620004fc565b90600052602060002090601f016020900481019282620001fb576000855562000246565b82601f106200021657805160ff191683800117855562000246565b8280016001018555821562000246579182015b828111156200024657825182559160200191906001019062000229565b506200025492915062000258565b5090565b5b8082111562000254576000815560010162000259565b6001600160a01b03811681146200028557600080fd5b50565b634e487b7160e01b600052604160045260246000fd5b60005b83811015620002bb578181015183820152602001620002a1565b83811115620002cb576000848401525b50505050565b60006001600160401b0380841115620002ee57620002ee62000288565b604051601f8501601f19908116603f0116810190828211818310171562000319576200031962000288565b816040528093508581528686860111156200033357600080fd5b620003438660208301876200029e565b5050509392505050565b600082601f8301126200035f57600080fd5b6200037083835160208501620002d1565b9392505050565b805162000384816200026f565b919050565b600080600080600080600060e0888a031215620003a557600080fd5b8751620003b2816200026f565b60208901519097506001600160401b0380821115620003d057600080fd5b818a0191508a601f830112620003e557600080fd5b620003f68b835160208501620002d1565b975060408a01519150808211156200040d57600080fd5b506200041c8a828b016200034d565b955050606088015193506080880151925060a088015191506200044260c0890162000377565b905092959891949750929550565b634e487b7160e01b600052601160045260246000fd5b600060ff821660ff84168060ff0382111562000486576200048662000450565b019392505050565b6020815260008251806020840152620004af8160408501602087016200029e565b601f01601f19169190910160400192915050565b634e487b7160e01b600052603260045260246000fd5b600060ff821660ff811415620004f357620004f362000450565b60010192915050565b600181811c908216806200051157607f821691505b602082108114156200053357634e487b7160e01b600052602260045260246000fd5b50919050565b608051613f67620005b06000396000818161067001528181610c0101528181610d7f01528181610e3d01528181610ecb015281816110b1015281816114ee01528181611628015281816117ae01528181611a5e01528181611e450152818161208c015281816123e101526124db0152613f676000f3fe60806040526004361061031e5760003560e01c8063a509efeb116101a5578063c9330c0f116100ec578063e349ad3011610095578063faa0ba9d1161006f578063faa0ba9d146109c0578063fc0ac672146109d3578063fe6ca782146109e9578063ffa1ad74146109ff57600080fd5b8063e349ad3014610965578063ec4adca91461097b578063f851a4401461099b57600080fd5b8063d970d18c116100c6578063d970d18c14610910578063dc227fc214610925578063e165720c1461094557600080fd5b8063c9330c0f146108ba578063c94828f0146108da578063d3b476b1146108fa57600080fd5b8063b34bfaa81161014e578063ba0ec60b11610128578063ba0ec60b1461086f578063ba4c8f8f14610884578063be467604146108a457600080fd5b8063b34bfaa814610824578063b4c705811461083a578063b7bddc721461085a57600080fd5b8063adc7faba1161017f578063adc7faba146107b6578063af4a9144146107d6578063b14f2a391461080457600080fd5b8063a509efeb14610756578063a6a7f0eb14610776578063a92c47071461079657600080fd5b80634de12db0116102695780637597b3cb116102125780638f283970116101ec5780638f283970146106f657806392239dff1461071657806392e259251461073657600080fd5b80637597b3cb146106925780637f67bd6c146106a75780638a9bb02a146106c757600080fd5b806367284f211161024357806367284f211461061e5780636760aeb01461063e57806368871c9c1461065e57600080fd5b80634de12db014610541578063564a565d1461056e578063638af3da146105e957600080fd5b8063311a6c56116102cb5780633e556162116102a55780633e5561621461046d57806344b9ad061461050e5780634c55c0001461052157600080fd5b8063311a6c5614610417578063313dab2014610437578063376414831461044d57600080fd5b80631e26de34116102fc5780631e26de341461038c57806326804bef146103ba5780632d2c5565146103da57600080fd5b806303624fc01461032357806312a145e11461035457806312b3a2c014610369575b600080fd5b34801561032f57600080fd5b5060075461033d9060ff1681565b60405160ff90911681526020015b60405180910390f35b610367610362366004613579565b610a48565b005b61037c6103773660046135a3565b610e17565b604051901515815260200161034b565b34801561039857600080fd5b506103ac6103a73660046135cf565b611613565b60405190815260200161034b565b3480156103c657600080fd5b506103676103d53660046135cf565b6116dc565b3480156103e657600080fd5b506000546103ff9061010090046001600160a01b031681565b6040516001600160a01b03909116815260200161034b565b34801561042357600080fd5b506103676104323660046135e8565b6117a3565b34801561044357600080fd5b506103ac60015481565b34801561045957600080fd5b506103ac610468366004613579565b611a3b565b34801561047957600080fd5b506104ce610488366004613579565b6048602052600090815260409020546001600160a01b03811690600160a01b810463ffffffff1690600160c01b810466ffffffffffffff1690600160f81b900460ff1684565b604080516001600160a01b03909516855263ffffffff909316602085015266ffffffffffffff9091169183019190915260ff16606082015260800161034b565b61036761051c366004613579565b611b56565b34801561052d57600080fd5b5061036761053c366004613696565b611c9c565b34801561054d57600080fd5b5061056161055c3660046135cf565b611d9d565b60405161034b9190613772565b34801561057a57600080fd5b506105d86105893660046135cf565b6049602052600090815260409020546001600160a01b0381169060ff600160a01b8204811691600160a81b8104821691600160b01b8204169068ffffffffffffffffff600160b81b9091041685565b60405161034b9594939291906137bd565b3480156105f557600080fd5b506106096106043660046135a3565b611e3d565b6040805192835260208301919091520161034b565b34801561062a57600080fd5b5061036761063936600461381b565b611f6a565b34801561064a57600080fd5b506103676106593660046138a5565b61202e565b34801561066a57600080fd5b506103ff7f000000000000000000000000000000000000000000000000000000000000000081565b34801561069e57600080fd5b506103ac600281565b3480156106b357600080fd5b506103ac6106c23660046135cf565b612073565b3480156106d357600080fd5b506106e76106e23660046135e8565b612105565b60405161034b939291906138e1565b34801561070257600080fd5b50610367610711366004613946565b6121f5565b34801561072257600080fd5b506103676107313660046135cf565b612270565b34801561074257600080fd5b506103676107513660046135cf565b6122bf565b34801561076257600080fd5b506103ac6107713660046135a3565b61230e565b34801561078257600080fd5b506103676107913660046139a3565b6124ce565b3480156107a257600080fd5b506103676107b1366004613579565b612541565b3480156107c257600080fd5b506103676107d13660046135cf565b612777565b3480156107e257600080fd5b506107f66107f13660046139ef565b6127c6565b60405161034b929190613a12565b34801561081057600080fd5b5061036761081f366004613946565b6129b0565b34801561083057600080fd5b506103ac60055481565b34801561084657600080fd5b506103ac610855366004613aa4565b612a29565b34801561086657600080fd5b50610367612ab3565b34801561087b57600080fd5b50610367612b18565b34801561089057600080fd5b5061036761089f366004613579565b612b48565b3480156108b057600080fd5b506103ac60025481565b3480156108c657600080fd5b506103676108d53660046139ef565b612cb1565b3480156108e657600080fd5b506103676108f53660046135cf565b612d18565b34801561090657600080fd5b506103ac60035481565b34801561091c57600080fd5b506103ac602081565b34801561093157600080fd5b506103ac610940366004613ace565b612d67565b34801561095157600080fd5b506103ac610960366004613579565b612ecb565b34801561097157600080fd5b506103ac60045481565b34801561098757600080fd5b50610367610996366004613b14565b612f33565b3480156109a757600080fd5b506007546103ff9061010090046001600160a01b031681565b6103676109ce366004613b3e565b61302d565b3480156109df57600080fd5b506103ac60065481565b3480156109f557600080fd5b506103ac61040081565b348015610a0b57600080fd5b506105616040518060400160405280600581526020017f312e322e3000000000000000000000000000000000000000000000000000000081525081565b68ffffffffffffffffff811660009081526048602052604090208054600160c01b900466ffffffffffffff16610ac55760405162461bcd60e51b815260206004820152601560248201527f4e6f7468696e6720746f206368616c6c656e67652e000000000000000000000060448201526064015b60405180910390fd5b8054600160a01b900463ffffffff9081161415610b245760405162461bcd60e51b815260206004820152601e60248201527f546865726520697320616e206f6e676f696e67206368616c6c656e67652e00006044820152606401610abc565b805463ffffffff60a01b191677ffffffff0000000000000000000000000000000000000000178155610b5582611a3b565b341015610ba45760405162461bcd60e51b815260206004820181905260248201527f496e73756666696369656e742066756e647320746f206368616c6c656e67652e6044820152606401610abc565b600654815460009161040091610bd19190600160c01b900460201b6affffffffffffff0000000016613bb5565b610bdb9190613bd4565b90508060016000828254610bef9190613bf6565b90915550600090506001600160a01b037f00000000000000000000000000000000000000000000000000000000000000001663c13517e1610c308434613c0e565b8554600290600890600160f81b900460ff1660408110610c5257610c52613c25565b016040518463ffffffff1660e01b8152600401610c70929190613d16565b60206040518083038185885af1158015610c8e573d6000803e3d6000fd5b50505050506040513d601f19601f82011682018060405250810190610cb39190613d37565b600081815260496020908152604091829020805460018083018054909101905576ffffff0000000000000000000000000000000000000000163376ffffffffffffffffffffffffffffffffffffffffffffff1617600160b81b68ffffffffffffffffff8a16021780825587547fffffffffffffffffffff00ffffffffffffffffffffffffffffffffffffffffff909116600160f81b9182900460ff908116600160a81b029190911790925587548451919004909116815290810183905291925082916001600160a01b037f000000000000000000000000000000000000000000000000000000000000000016917f74baab670a4015ab2f1b467c5252a96141a2573f2908e58a92081e80d3cfde3d910160405180910390a3604080513381526020810183905268ffffffffffffffffff8616917f1e5338a1fb672aa84963dc9f9e4afd009b4ed726debb09224bf4d02a6c68b4e4910160405180910390a250505050565b6000828152604960205260408082209051631c3db16d60e01b81526004810185905282907f00000000000000000000000000000000000000000000000000000000000000006001600160a01b031690631c3db16d90602401602060405180830381865afa158015610e8c573d6000803e3d6000fd5b505050506040513d601f19601f82011682018060405250810190610eb09190613d37565b6002811115610ec157610ec1613785565b90506000806000807f00000000000000000000000000000000000000000000000000000000000000006001600160a01b031663afe15cfb8a6040518263ffffffff1660e01b8152600401610f1791815260200190565b6040805180830381865afa158015610f33573d6000803e3d6000fd5b505050506040513d601f19601f82011682018060405250810190610f579190613d50565b915091506000856002811115610f6f57610f6f613785565b896002811115610f8157610f81613785565b141561100557814210610ffc5760405162461bcd60e51b815260206004820152602e60248201527f46756e64696e67206d757374206265206d6164652077697468696e207468652060448201527f61707065616c20706572696f642e0000000000000000000000000000000000006064820152608401610abc565b506004546110ad565b600254610400906110168585613c0e565b6110209190613bb5565b61102a9190613bd4565b6110349084613bf6565b42106110a85760405162461bcd60e51b815260206004820152603960248201527f46756e64696e67206d757374206265206d6164652077697468696e207468652060448201527f66697273742068616c662061707065616c20706572696f642e000000000000006064820152608401610abc565b506005545b86547f00000000000000000000000000000000000000000000000000000000000000006001600160a01b03169063f23f16e6908c90600890600160a81b900460ff16604081106110ff576110ff613c25565b016040518363ffffffff1660e01b815260040161111d929190613d16565b602060405180830381865afa15801561113a573d6000803e3d6000fd5b505050506040513d601f19601f8201168201806040525081019061115e9190613d37565b945061040061116d8287613bb5565b6111779190613bd4565b6111819086613bf6565b6001888101549195508a94506000935061119c925090613c0e565b905060008660010182815481106111b5576111b5613c25565b90600052602060002090600602019050806001018360028111156111db576111db613785565b600381106111eb576111eb613c25565b602081049091015460ff601f9092166101000a900416156112745760405162461bcd60e51b815260206004820152602160248201527f41707065616c206665652068617320616c7265616479206265656e207061696460448201527f2e000000000000000000000000000000000000000000000000000000000000006064820152608401610abc565b6000808260020185600281111561128d5761128d613785565b6003811061129d5761129d613c25565b015490508581106112b157600091506112d5565b346112bc8288613c0e565b116112d0576112cb8187613c0e565b6112d2565b345b91505b50336001600160a01b0316838c7f2b4ef80a862edc5616a4e61c11f4a368f33323faca91fa7635d48b85c183e66a8d85604051611313929190613d74565b60405180910390a4336000908152602083905260409020819085600281111561133e5761133e613785565b6003811061134e5761134e613c25565b01600082825461135e9190613bf6565b92505081905550808260020185600281111561137c5761137c613785565b6003811061138c5761138c613c25565b01600082825461139c9190613bf6565b9250508190555084826002018560028111156113ba576113ba613785565b600381106113ca576113ca613c25565b01541061149857816002018460028111156113e7576113e7613785565b600381106113f7576113f7613c25565b015482600501600082825461140c9190613bf6565b909155506001905082810185600281111561142957611429613785565b6003811061143957611439613c25565b602091828204019190066101000a81548160ff02191690831515021790555089600281111561146a5761146a613785565b60405184908d907fb5681f036910f38d8c2fa06f2cbedc227ecf03d7c4a358ee9096197b15ff8fd090600090a45b6001820154610100900460ff1680156114bb5750600182015462010000900460ff165b1561158f5760018089018054909101815560009081526005830180548892906114e5908490613c0e565b909155505087547f00000000000000000000000000000000000000000000000000000000000000006001600160a01b0316906349912f889088908e90600890600160a81b900460ff166040811061153e5761153e613c25565b016040518463ffffffff1660e01b815260040161155c929190613d16565b6000604051808303818588803b15801561157557600080fd5b505af1158015611589573d6000803e3d6000fd5b50505050505b600061159b8234613c0e565b11156115c757336108fc6115af8334613c0e565b6040518115909202916000818181858888f150505050505b816001018460028111156115dd576115dd613785565b600381106115ed576115ed613c25565b602081049091015460ff601f9092166101000a9004169850505050505050505092915050565b600081815260496020526040808220805490917f00000000000000000000000000000000000000000000000000000000000000006001600160a01b03169163f23f16e6918691600891600160a81b90910460ff1690811061167657611676613c25565b016040518363ffffffff1660e01b8152600401611694929190613d16565b602060405180830381865afa1580156116b1573d6000803e3d6000fd5b505050506040513d601f19601f820116820180604052508101906116d59190613d37565b9392505050565b60075461010090046001600160a01b031633146116f857600080fd5b6101008111156117705760405162461bcd60e51b815260206004820152603660248201527f5468652074617820726174652063616e206f6e6c7920626520696e637265617360448201527f65642062792061206d6178696d756d206f6620323525000000000000000000006064820152608401610abc565b600681905560405181907f5100ab374784a62034356f9af3b71ea723c1e89beb5627c6c1dacea1117250b890600090a250565b336001600160a01b037f000000000000000000000000000000000000000000000000000000000000000016146117d857600080fd5b60008281526049602052604081206001808201805492939290916117fb91613c0e565b8154811061180b5761180b613c25565b60009182526020822060016006929092020190810154909250610100900460ff16156118395750600161184f565b6001820154610100900460ff161561184f575060025b60008082600281111561186457611864613785565b14156118815784600281111561187c5761187c613785565b611883565b815b8454909150819085907fffffffffffffffffffffff00ffffffffffffffffffffffffffffffffffffffff16600160a01b8360028111156118c5576118c5613785565b02179055508354600160b81b900468ffffffffffffffffff166000818152604860205260409020600283600281111561190057611900613785565b14156119b95780547fff00000000000000ffffffffffffffffffffffffffffffffffffffffffffffff8116825560405168ffffffffffffffffff84168152600160c01b909104602090811b6affffffffffffff0000000016917f8271992f9b3a3f30dc2a464982dc4a136e7357403462443a171a0fb0c6ccc265910160405180910390a16000898152604960205260408082205490516001600160a01b039091169183156108fc02918491818181858888f15050505050505b805463ffffffff60a01b1916815585547fffffffffffffffffff00ffffffffffffffffffffffffffffffffffffffffffff16600160b01b178655604051889033907f394027a5fa6e098a1191094d1719d6929b9abc535fcc0c8f448d6a4e7562227690611a29908b815260200190565b60405180910390a35050505050505050565b68ffffffffffffffffff81166000908152604860205260408082208054909183917f00000000000000000000000000000000000000000000000000000000000000006001600160a01b03169163f7434ea991600891600160f81b90910460ff16908110611aaa57611aaa613c25565b016040518263ffffffff1660e01b8152600401611ac79190613d8f565b602060405180830381865afa158015611ae4573d6000803e3d6000fd5b505050506040513d601f19601f82011682018060405250810190611b089190613d37565b600654835491925060009161040091611b3791600160c01b900460201b6affffffffffffff0000000016613bb5565b611b419190613bd4565b9050611b4d8183613bf6565b95945050505050565b68ffffffffffffffffff8116600090815260486020526040902080546001600160a01b03163314611bef5760405162461bcd60e51b815260206004820152602e60248201527f4f6e6c7920617574686f722063616e20696e63726561736520626f756e74792060448201527f6f6620616e2061727469636c652e0000000000000000000000000000000000006064820152608401610abc565b80543460201c908290601890611c16908490600160c01b900466ffffffffffffff16613da2565b82546101009290920a66ffffffffffffff8181021990931691909216919091021790555080546040805168ffffffffffffffffff85168152600160c01b909204602090811b6affffffffffffff0000000016908301527fdf5fc410d3381cc7f0a7fe3af72f4e3cf53ef5787f20554af69035a950e1b2e391015b60405180910390a15050565b600754611cad9060ff166001613dcd565b60ff16611cfc5760405162461bcd60e51b815260206004820181905260248201527f4e6f207370616365206c65667420666f722061206e65772063617465676f72796044820152606401610abc565b60075460405160ff909116907f61606860eb6c87306811e2695215385101daab53bd6ab4e9f9049aead9363c7d90611d35908590613772565b60405180910390a2600754819060089060ff1660408110611d5857611d58613c25565b019080519060200190611d6c9291906134a4565b506007805460ff16906000611d8083613df2565b91906101000a81548160ff021916908360ff160217905550505050565b60088160408110611dad57600080fd5b018054909150611dbc90613c3b565b80601f0160208091040260200160405190810160405280929190818152602001828054611de890613c3b565b8015611e355780601f10611e0a57610100808354040283529160200191611e35565b820191906000526020600020905b815481529060010190602001808311611e1857829003601f168201915b505050505081565b6000806000807f00000000000000000000000000000000000000000000000000000000000000006001600160a01b031663afe15cfb876040518263ffffffff1660e01b8152600401611e9191815260200190565b6040805180830381865afa158015611ead573d6000803e3d6000fd5b505050506040513d601f19601f82011682018060405250810190611ed19190613d50565b9150915060006104006002548484611ee99190613c0e565b611ef39190613bb5565b611efd9190613bd4565b611f079084613bf6565b90506000866002811115611f1d57611f1d613785565b611f2689612073565b6002811115611f3757611f37613785565b6002811115611f4857611f48613785565b14905080611f57578382611f5a565b83835b95509550505050505b9250929050565b60005b818110156120275760005b838383818110611f8a57611f8a613c25565b9050602002810190611f9c9190613e12565b9050811015612014576000848484818110611fb957611fb9613c25565b9050602002810190611fcb9190613e12565b83818110611fdb57611fdb613c25565b9050602002013511156120025761200086868484600281111561094057610940613785565b505b8061200c81613e5c565b915050611f78565b508061201f81613e5c565b915050611f6d565b5050505050565b6000838152604960205260408120600181015490915b8181101561206b5761205886868387612d67565b508061206381613e5c565b915050612044565b505050505050565b604051631c3db16d60e01b8152600481018290526000907f00000000000000000000000000000000000000000000000000000000000000006001600160a01b031690631c3db16d90602401602060405180830381865afa1580156120db573d6000803e3d6000fd5b505050506040513d601f19601f820116820180604052508101906120ff9190613d37565b92915050565b61210d613528565b612115613528565b600084815260496020526040812060010180548291908690811061213b5761213b613c25565b9060005260206000209060060201905080600101816002018260050154826003806020026040519081016040528092919082600380156121b0576020028201916000905b825461010083900a900460ff16151581526020600192830181810494850194909303909202910180841161217f5790505b505060408051606081019182905294975086935060039250905082845b8154815260200190600101908083116121cd5750505050509150935093509350509250925092565b60075461010090046001600160a01b0316331461221157600080fd5b6007805474ffffffffffffffffffffffffffffffffffffffff0019166101006001600160a01b038416908102919091179091556040517f0c2515f25186df02132ad46f01e062c3b8982c8de57fa2b1b0a280d8e810f39b90600090a250565b60075461010090046001600160a01b0316331461228c57600080fd5b600581905560405181907f505f3bf1e426c82f14f7c9cfb2d31ef5b7bb76428e16bd90dabec113e3d4a2bc90600090a250565b60075461010090046001600160a01b031633146122db57600080fd5b600381905560405181907f207e19e347becb468ef02d25790188e4d5da0fe37176d3bbb7940168ec5d613690600090a250565b6000828152604960205260408120600180820154839161232d91613c0e565b9050600082600101828154811061234657612346613c25565b90600052602060002090600602019050600085600281111561236a5761236a613785565b61237388612073565b600281111561238457612384613785565b600281111561239557612395613785565b1490506000816123a7576005546123ab565b6004545b90506000836002018860028111156123c5576123c5613785565b600381106123d5576123d5613c25565b015486549091506000907f00000000000000000000000000000000000000000000000000000000000000006001600160a01b03169063f23f16e6908c90600890600160a81b900460ff166040811061242f5761242f613c25565b016040518363ffffffff1660e01b815260040161244d929190613d16565b602060405180830381865afa15801561246a573d6000803e3d6000fd5b505050506040513d601f19601f8201168201806040525081019061248e9190613d37565b9050600061040061249f8584613bb5565b6124a99190613bd4565b6124b39083613bf6565b90506124bf8382613c0e565b9b9a5050505050505050505050565b336001600160a01b0316837f00000000000000000000000000000000000000000000000000000000000000006001600160a01b03167fdccf2f8b2cc26eafcd61905cba744cff4b81d14740725f6376390dc6298a6a3c8585604051612534929190613ea0565b60405180910390a4505050565b68ffffffffffffffffff8116600090815260486020526040902080546001600160a01b031633146125c05760405162461bcd60e51b8152602060048201526024808201527f4f6e6c7920617574686f722063616e20776974686472617720616e206172746960448201526331b6329760e11b6064820152608401610abc565b8054600160a01b900463ffffffff166126415760405162461bcd60e51b815260206004820152602660248201527f596f75206e65656420746f20696e697469617465207769746864726177616c2060448201527f66697273742e00000000000000000000000000000000000000000000000000006064820152608401610abc565b805442600160a01b90910463ffffffff1611156126c65760405162461bcd60e51b815260206004820152603f60248201527f596f75206e65656420746f207761697420666f722074696d656c6f636b206f7260448201527f207761697420756e74696c20746865206368616c6c656e676520656e64732e006064820152608401610abc565b80547fff0000000000000000000000ffffffffffffffffffffffffffffffffffffffff81168255604051600160c01b90910460201b6affffffffffffff00000000169033906108fc8315029083906000818181858888f19350505050158015612733573d6000803e3d6000fd5b5060405168ffffffffffffffffff841681527f70b41d8cca762ceec66d93f536dbb31f5cabbf1901f862508b9438de54fce4eb9060200160405180910390a1505050565b60075461010090046001600160a01b0316331461279357600080fd5b600481905560405181907f8df75282265171690a1298cf028f5e3c7d8d42313394a4f25d4aeea6c1ea62cf90600090a250565b6000828152604960205260408120805460609190600160b01b900460ff166127f2576000925050611f63565b60018101548154600160a01b900460ff168167ffffffffffffffff81111561281c5761281c61360a565b60405190808252806020026020018201604052801561284f57816020015b606081526020019060019003908161283a5790505b50935060005b828110156129a55761286960026001613bf6565b67ffffffffffffffff8111156128815761288161360a565b6040519080825280602002602001820160405280156128aa578160200160208202803683370190505b508582815181106128bd576128bd613c25565b602002602001018190525060008460010182815481106128df576128df613c25565b9060005260206000209060060201905060005b60028111612990576000612919838b84600281111561291357612913613785565b88613285565b9050801561297d57612938838b84600281111561291357612913613785565b612942908a613bf6565b98508088858151811061295757612957613c25565b6020026020010151838151811061297057612970613c25565b6020026020010181815250505b508061298881613e5c565b9150506128f2565b5050808061299d90613e5c565b915050612855565b505050509250929050565b60075461010090046001600160a01b031633146129cc57600080fd5b6000805474ffffffffffffffffffffffffffffffffffffffff0019166101006001600160a01b03841690810291909117825560405190917f8a3509a4057c89a5993a4a3140c2ebf7e829d325d8998eaa6c48adcff98b2cef91a250565b600080836002811115612a3e57612a3e613785565b836002811115612a5057612a50613785565b1490506103e8600082612a6557600554612a69565b6004545b9050612a7761040082613bf6565b82610400600554600454612a8b9190613bf6565b612a959190613bf6565b612a9f9190613bb5565b612aa99190613bd4565b9695505050505050565b60018054600091829055815460405191926101009091046001600160a01b0316916108fc84150291849190818181858888f150506040518493507fb315332b30dc40d1e51def214ce42d93a73bd0c17b08db04b34f10736bb2f06f925060009150a250565b60075461010090046001600160a01b03163314612b3457600080fd5b6000805460ff19811660ff90911615179055565b68ffffffffffffffffff8116600090815260486020526040902080546001600160a01b03163314612bc75760405162461bcd60e51b8152602060048201526024808201527f4f6e6c7920617574686f722063616e20776974686472617720616e206172746960448201526331b6329760e11b6064820152608401610abc565b8054600160a01b900463ffffffff1615612c495760405162461bcd60e51b815260206004820152603560248201527f5769746864726177616c20616c726561647920696e69746961746564206f722060448201527f74686572652069732061206368616c6c656e67652e00000000000000000000006064820152608401610abc565b600354612c569042613bf6565b815463ffffffff91909116600160a01b0263ffffffff60a01b1990911617815560405168ffffffffffffffffff831681527f416c1ad2b96c356f3bbd35431f86cce449ddbb4f8c3755ea9d2776b04c2e9c8f90602001611c90565b6000828152604960205260408120600181015490915b818110156120275760005b60028111612d0557612cf286868484600281111561094057610940613785565b5080612cfd81613e5c565b915050612cd2565b5080612d1081613e5c565b915050612cc7565b60075461010090046001600160a01b03163314612d3457600080fd5b600281905560405181907fbf39faa024d2f97599a0095e84098ee2171b6681738416c0030f442ba956d52b90600090a250565b60008481526049602052604081208054600160b01b900460ff16612dcd5760405162461bcd60e51b815260206004820152601760248201527f5468657265206973206e6f2072756c696e67207965742e0000000000000000006044820152606401610abc565b6000816001018581548110612de457612de4613c25565b90600052602060002090600602019050612e118187868560000160149054906101000a900460ff16613285565b92508215612ec1576001600160a01b0386166000908152602082905260408120856002811115612e4357612e43613785565b60038110612e5357612e53613c25565b01556040516001600160a01b0387169084156108fc029085906000818181858888f1935050505050856001600160a01b031685887fff2b7c936d6023fea901b3455cefc23b124c1ca5997dc5b48c461fd20984289d8787604051612eb8929190613d74565b60405180910390a45b5050949350505050565b6000805b6048600084612edd81613eb4565b68ffffffffffffffffff919091168252602082019290925260400160002080549194509150600160c01b900466ffffffffffffff16612ecf57612f21600184613edd565b68ffffffffffffffffff169392505050565b68ffffffffffffffffff8216600090815260486020526040902080546001600160a01b03163314612fcc5760405162461bcd60e51b815260206004820152602360248201527f4f6e6c7920617574686f722063616e207472616e73666572206f776e6572736860448201527f69702e00000000000000000000000000000000000000000000000000000000006064820152608401610abc565b80547fffffffffffffffffffffffff0000000000000000000000000000000000000000166001600160a01b03831690811782556040517fdfc39691aec87dc6aa51ff70c0e592f260c54d2ed6c64e8c4c2306da0eec872b90600090a2505050565b60075460ff908116908316106130855760405162461bcd60e51b815260206004820152601c60248201527f546869732063617465676f727920646f6573206e6f74206578697374000000006044820152606401610abc565b60005b604860008361309681613eb4565b68ffffffffffffffffff919091168252602082019290925260400160002080549193509150600160c01b900466ffffffffffffff166130885780547fff00000000000000ffffffff000000000000000000000000000000000000000016337fff00000000000000ffffffffffffffffffffffffffffffffffffffffffffffff1617600160c01b3460201c66ffffffffffffff9081168202929092177effffffffffffffffffffffffffffffffffffffffffffffffffffffffffffff16600160f81b60ff8716021780845504166131d45760405162461bcd60e51b815260206004820152603960248201527f596f752063616e277420696e697469616c697a6520616e2061727469636c652060448201527f776974686f75742070757474696e67206120626f756e74792e000000000000006064820152608401610abc565b60006131e1600184613edd565b68ffffffffffffffffff1690507f4f9a2b734331c583faf3f19d1feb5f08b742e016a56fb61379950beaf3e22341868686846040516132239493929190613f07565b60405180910390a1815460408051838152600160c01b909204602090811b6affffffffffffff0000000016908301527fdf5fc410d3381cc7f0a7fe3af72f4e3cf53ef5787f20554af69035a950e1b2e3910160405180910390a1505050505050565b6000826001860181600281111561329e5761329e613785565b600381106132ae576132ae613c25565b602081049091015460ff601f9092166101000a90041661330b576001600160a01b03851660009081526020879052604090208160028111156132f2576132f2613785565b6003811061330257613302613c25565b0154915061349b565b82600281111561331d5761331d613785565b84600281111561332f5761332f613785565b14156133ef5760008660020182600281111561334d5761334d613785565b6003811061335d5761335d613c25565b01541161336b5760006133e8565b8560020181600281111561338157613381613785565b6003811061339157613391613c25565b015460058701546001600160a01b03871660009081526020899052604090208360028111156133c2576133c2613785565b600381106133d2576133d2613c25565b01546133de9190613bb5565b6133e89190613bd4565b915061349b565b8560010183600281111561340557613405613785565b6003811061341557613415613c25565b602081049091015460ff601f9092166101000a90041661349b57600486015460038701546134439190613bf6565b60058701546001600160a01b038716600090815260208990526040902083600281111561347257613472613785565b6003811061348257613482613c25565b015461348e9190613bb5565b6134989190613bd4565b91505b50949350505050565b8280546134b090613c3b565b90600052602060002090601f0160209004810192826134d25760008555613518565b82601f106134eb57805160ff1916838001178555613518565b82800160010185558215613518579182015b828111156135185782518255916020019190600101906134fd565b50613524929150613546565b5090565b60405180606001604052806003906020820280368337509192915050565b5b808211156135245760008155600101613547565b803568ffffffffffffffffff8116811461357457600080fd5b919050565b60006020828403121561358b57600080fd5b6116d58261355b565b80356003811061357457600080fd5b600080604083850312156135b657600080fd5b823591506135c660208401613594565b90509250929050565b6000602082840312156135e157600080fd5b5035919050565b600080604083850312156135fb57600080fd5b50508035926020909101359150565b634e487b7160e01b600052604160045260246000fd5b600067ffffffffffffffff8084111561363b5761363b61360a565b604051601f8501601f19908116603f011681019082821181831017156136635761366361360a565b8160405280935085815286868601111561367c57600080fd5b858560208301376000602087830101525050509392505050565b600080604083850312156136a957600080fd5b823567ffffffffffffffff808211156136c157600080fd5b818501915085601f8301126136d557600080fd5b6136e486833560208501613620565b935060208501359150808211156136fa57600080fd5b508301601f8101851361370c57600080fd5b61371b85823560208401613620565b9150509250929050565b6000815180845260005b8181101561374b5760208185018101518683018201520161372f565b8181111561375d576000602083870101525b50601f01601f19169290920160200192915050565b6020815260006116d56020830184613725565b634e487b7160e01b600052602160045260246000fd5b600381106137b957634e487b7160e01b600052602160045260246000fd5b9052565b6001600160a01b038616815260a081016137da602083018761379b565b60ff949094166040820152911515606083015268ffffffffffffffffff1660809091015292915050565b80356001600160a01b038116811461357457600080fd5b6000806000806060858703121561383157600080fd5b8435935061384160208601613804565b9250604085013567ffffffffffffffff8082111561385e57600080fd5b818701915087601f83011261387257600080fd5b81358181111561388157600080fd5b8860208260051b850101111561389657600080fd5b95989497505060200194505050565b6000806000606084860312156138ba57600080fd5b833592506138ca60208501613804565b91506138d860408501613594565b90509250925092565b60e08101818560005b600381101561390b57815115158352602092830192909101906001016138ea565b505050606082018460005b6003811015613935578151835260209283019290910190600101613916565b5050508260c0830152949350505050565b60006020828403121561395857600080fd5b6116d582613804565b60008083601f84011261397357600080fd5b50813567ffffffffffffffff81111561398b57600080fd5b602083019150836020828501011115611f6357600080fd5b6000806000604084860312156139b857600080fd5b83359250602084013567ffffffffffffffff8111156139d657600080fd5b6139e286828701613961565b9497909650939450505050565b60008060408385031215613a0257600080fd5b823591506135c660208401613804565b600060408201848352602060408185015281855180845260608601915060608160051b87010193508287016000805b83811015613a9557888703605f19018552825180518089529087019087890190845b81811015613a7f57835183529289019291890191600101613a63565b5090985050509385019391850191600101613a41565b50949998505050505050505050565b60008060408385031215613ab757600080fd5b613ac083613594565b91506135c660208401613594565b60008060008060808587031215613ae457600080fd5b84359350613af460208601613804565b925060408501359150613b0960608601613594565b905092959194509250565b60008060408385031215613b2757600080fd5b613b308361355b565b91506135c660208401613804565b60008060008060608587031215613b5457600080fd5b843567ffffffffffffffff811115613b6b57600080fd5b613b7787828801613961565b909550935050602085013560ff81168114613b9157600080fd5b9150613b096040860161355b565b634e487b7160e01b600052601160045260246000fd5b6000816000190483118215151615613bcf57613bcf613b9f565b500290565b600082613bf157634e487b7160e01b600052601260045260246000fd5b500490565b60008219821115613c0957613c09613b9f565b500190565b600082821015613c2057613c20613b9f565b500390565b634e487b7160e01b600052603260045260246000fd5b600181811c90821680613c4f57607f821691505b60208210811415613c7057634e487b7160e01b600052602260045260246000fd5b50919050565b8054600090600181811c9080831680613c9057607f831692505b6020808410821415613cb257634e487b7160e01b600052602260045260246000fd5b83885260208801828015613ccd5760018114613cde57613d09565b60ff19871682528282019750613d09565b60008981526020902060005b87811015613d0357815484820152908601908401613cea565b83019850505b5050505050505092915050565b828152604060208201526000613d2f6040830184613c76565b949350505050565b600060208284031215613d4957600080fd5b5051919050565b60008060408385031215613d6357600080fd5b505080516020909101519092909150565b60408101613d82828561379b565b8260208301529392505050565b6020815260006116d56020830184613c76565b600066ffffffffffffff808316818516808303821115613dc457613dc4613b9f565b01949350505050565b600060ff821660ff84168060ff03821115613dea57613dea613b9f565b019392505050565b600060ff821660ff811415613e0957613e09613b9f565b60010192915050565b6000808335601e19843603018112613e2957600080fd5b83018035915067ffffffffffffffff821115613e4457600080fd5b6020019150600581901b3603821315611f6357600080fd5b6000600019821415613e7057613e70613b9f565b5060010190565b81835281816020850137506000828201602090810191909152601f909101601f19169091010190565b602081526000613d2f602083018486613e77565b600068ffffffffffffffffff80831681811415613ed357613ed3613b9f565b6001019392505050565b600068ffffffffffffffffff83811690831681811015613eff57613eff613b9f565b039392505050565b606081526000613f1b606083018688613e77565b60ff94909416602083015250604001529291505056fea2646970667358221220f1e1cb00e7da3751f5eca34bfae917e6ed7ae374360e6f75aa58fb76f012d62764736f6c634300080a0033",
  "linkReferences": {},
  "deployedLinkReferences": {}
}