{
  "_format": "hh-sol-artifact-1",
  "contractName": "TruthPost",
  "sourceName": "contracts/TruthPost.sol",
  "abi": [
    {
      "inputs": [
        {
          "internalType": "contract IArbitrator",
          "name": "_arbitrator",
          "type": "address"
        },
        {
          "internalType": "bytes",
          "name": "_arbitratorExtraData",
          "type": "bytes"
        },
        {
          "internalType": "string",
          "name": "_metaevidenceIpfsUri",
          "type": "string"
        },
        {
          "internalType": "uint256",
          "name": "_articleWithdrawalTimelock",
          "type": "uint256"
        },
        {
          "internalType": "uint256",
          "name": "_winnerStakeMultiplier",
          "type": "uint256"
        },
        {
          "internalType": "uint256",
          "name": "_loserStakeMultiplier",
          "type": "uint256"
        },
        {
          "internalType": "address payable",
          "name": "_treasury",
          "type": "address"
        }
      ],
      "stateMutability": "nonpayable",
      "type": "constructor"
    },
    {
      "anonymous": false,
      "inputs": [
        {
          "indexed": true,
          "internalType": "address",
          "name": "_newAdmin",
          "type": "address"
        }
      ],
      "name": "AdminUpdate",
      "type": "event"
    },
    {
      "anonymous": false,
      "inputs": [
        {
          "indexed": true,
          "internalType": "uint256",
          "name": "_newWithdrawalTimelock",
          "type": "uint256"
        }
      ],
      "name": "ArticleWithdrawalTimelockUpdate",
      "type": "event"
    },
    {
      "anonymous": false,
      "inputs": [
        {
          "indexed": false,
          "internalType": "uint256",
          "name": "articleAddress",
          "type": "uint256"
        }
      ],
      "name": "ArticleWithdrawn",
      "type": "event"
    },
    {
      "anonymous": false,
      "inputs": [
        {
          "indexed": false,
          "internalType": "uint256",
          "name": "articleAddress",
          "type": "uint256"
        },
        {
          "indexed": false,
          "internalType": "uint256",
          "name": "newTotal",
          "type": "uint256"
        }
      ],
      "name": "BalanceUpdate",
      "type": "event"
    },
    {
      "anonymous": false,
      "inputs": [
        {
          "indexed": true,
          "internalType": "uint256",
          "name": "articleAddress",
          "type": "uint256"
        },
        {
          "indexed": false,
          "internalType": "address",
          "name": "challanger",
          "type": "address"
        },
        {
          "indexed": false,
          "internalType": "uint256",
          "name": "disputeID",
          "type": "uint256"
        }
      ],
      "name": "Challenge",
      "type": "event"
    },
    {
      "anonymous": false,
      "inputs": [
        {
          "indexed": true,
          "internalType": "uint256",
          "name": "_newTaxRate",
          "type": "uint256"
        }
      ],
      "name": "ChallengeTaxRateUpdate",
      "type": "event"
    },
    {
      "anonymous": false,
      "inputs": [
        {
          "indexed": true,
          "internalType": "uint256",
          "name": "disputeId",
          "type": "uint256"
        },
        {
          "indexed": true,
          "internalType": "uint256",
          "name": "round",
          "type": "uint256"
        },
        {
          "indexed": false,
          "internalType": "enum ITruthPost.RulingOptions",
          "name": "ruling",
          "type": "uint8"
        },
        {
          "indexed": true,
          "internalType": "address",
          "name": "contributor",
          "type": "address"
        },
        {
          "indexed": false,
          "internalType": "uint256",
          "name": "amount",
          "type": "uint256"
        }
      ],
      "name": "Contribution",
      "type": "event"
    },
    {
      "anonymous": false,
      "inputs": [
        {
          "indexed": false,
          "internalType": "uint256",
          "name": "articleAddress",
          "type": "uint256"
        }
      ],
      "name": "Debunked",
      "type": "event"
    },
    {
      "anonymous": false,
      "inputs": [
        {
          "indexed": true,
          "internalType": "contract IArbitrator",
          "name": "_arbitrator",
          "type": "address"
        },
        {
          "indexed": true,
          "internalType": "uint256",
          "name": "_disputeID",
          "type": "uint256"
        },
        {
          "indexed": false,
          "internalType": "uint256",
          "name": "_metaEvidenceID",
          "type": "uint256"
        },
        {
          "indexed": false,
          "internalType": "uint256",
          "name": "_evidenceGroupID",
          "type": "uint256"
        }
      ],
      "name": "Dispute",
      "type": "event"
    },
    {
      "anonymous": false,
      "inputs": [
        {
          "indexed": true,
          "internalType": "contract IArbitrator",
          "name": "_arbitrator",
          "type": "address"
        },
        {
          "indexed": true,
          "internalType": "uint256",
          "name": "_evidenceGroupID",
          "type": "uint256"
        },
        {
          "indexed": true,
          "internalType": "address",
          "name": "_party",
          "type": "address"
        },
        {
          "indexed": false,
          "internalType": "string",
          "name": "_evidence",
          "type": "string"
        }
      ],
      "name": "Evidence",
      "type": "event"
    },
    {
      "anonymous": false,
      "inputs": [
        {
          "indexed": true,
          "internalType": "uint256",
          "name": "_newLoserAppealPeriodMultiplier",
          "type": "uint256"
        }
      ],
      "name": "LoserAppealPeriodMultiplierUpdate",
      "type": "event"
    },
    {
      "anonymous": false,
      "inputs": [
        {
          "indexed": true,
          "internalType": "uint256",
          "name": "_newLoserStakeMultiplier",
          "type": "uint256"
        }
      ],
      "name": "LoserStakeMultiplierUpdate",
      "type": "event"
    },
    {
      "anonymous": false,
      "inputs": [
        {
          "indexed": true,
          "internalType": "uint256",
          "name": "_metaEvidenceID",
          "type": "uint256"
        },
        {
          "indexed": false,
          "internalType": "string",
          "name": "_evidence",
          "type": "string"
        }
      ],
      "name": "MetaEvidence",
      "type": "event"
    },
    {
      "anonymous": false,
      "inputs": [
        {
          "indexed": false,
          "internalType": "string",
          "name": "articleID",
          "type": "string"
        },
        {
          "indexed": false,
          "internalType": "uint8",
          "name": "category",
          "type": "uint8"
        },
        {
          "indexed": false,
          "internalType": "uint256",
          "name": "articleAddress",
          "type": "uint256"
        }
      ],
      "name": "NewArticle",
      "type": "event"
    },
    {
      "anonymous": false,
      "inputs": [
        {
          "indexed": true,
          "internalType": "address",
          "name": "_newOwner",
          "type": "address"
        }
      ],
      "name": "OwnershipTransfer",
      "type": "event"
    },
    {
      "anonymous": false,
      "inputs": [
        {
          "indexed": true,
          "internalType": "contract IArbitrator",
          "name": "_arbitrator",
          "type": "address"
        },
        {
          "indexed": true,
          "internalType": "uint256",
          "name": "_disputeID",
          "type": "uint256"
        },
        {
          "indexed": false,
          "internalType": "uint256",
          "name": "_ruling",
          "type": "uint256"
        }
      ],
      "name": "Ruling",
      "type": "event"
    },
    {
      "anonymous": false,
      "inputs": [
        {
          "indexed": true,
          "internalType": "uint256",
          "name": "disputeId",
          "type": "uint256"
        },
        {
          "indexed": true,
          "internalType": "uint256",
          "name": "round",
          "type": "uint256"
        },
        {
          "indexed": true,
          "internalType": "enum ITruthPost.RulingOptions",
          "name": "ruling",
          "type": "uint8"
        }
      ],
      "name": "RulingFunded",
      "type": "event"
    },
    {
      "anonymous": false,
      "inputs": [
        {
          "indexed": false,
          "internalType": "uint256",
          "name": "articleAddress",
          "type": "uint256"
        }
      ],
      "name": "TimelockStarted",
      "type": "event"
    },
    {
      "anonymous": false,
      "inputs": [
        {
          "indexed": true,
          "internalType": "uint256",
          "name": "_byAmount",
          "type": "uint256"
        }
      ],
      "name": "TreasuryBalanceUpdate",
      "type": "event"
    },
    {
      "anonymous": false,
      "inputs": [
        {
          "indexed": true,
          "internalType": "address",
          "name": "_newTreasury",
          "type": "address"
        }
      ],
      "name": "TreasuryUpdate",
      "type": "event"
    },
    {
      "anonymous": false,
      "inputs": [
        {
          "indexed": true,
          "internalType": "uint256",
          "name": "_newWinnerStakeMultiplier",
          "type": "uint256"
        }
      ],
      "name": "WinnerStakeMultiplierUpdate",
      "type": "event"
    },
    {
      "anonymous": false,
      "inputs": [
        {
          "indexed": true,
          "internalType": "uint256",
          "name": "disputeId",
          "type": "uint256"
        },
        {
          "indexed": true,
          "internalType": "uint256",
          "name": "round",
          "type": "uint256"
        },
        {
          "indexed": false,
          "internalType": "enum ITruthPost.RulingOptions",
          "name": "ruling",
          "type": "uint8"
        },
        {
          "indexed": true,
          "internalType": "address",
          "name": "contributor",
          "type": "address"
        },
        {
          "indexed": false,
          "internalType": "uint256",
          "name": "reward",
          "type": "uint256"
        }
      ],
      "name": "Withdrawal",
      "type": "event"
    },
    {
      "inputs": [],
      "name": "ARBITRATOR",
      "outputs": [
        {
          "internalType": "contract IArbitrator",
          "name": "",
          "type": "address"
        }
      ],
      "stateMutability": "view",
      "type": "function"
    },
    {
      "inputs": [],
      "name": "ARTICLE_WITHDRAWAL_TIMELOCK",
      "outputs": [
        {
          "internalType": "uint256",
          "name": "",
          "type": "uint256"
        }
      ],
      "stateMutability": "view",
      "type": "function"
    },
    {
      "inputs": [],
      "name": "LOSER_APPEAL_PERIOD_MULTIPLIER",
      "outputs": [
        {
          "internalType": "uint256",
          "name": "",
          "type": "uint256"
        }
      ],
      "stateMutability": "view",
      "type": "function"
    },
    {
      "inputs": [],
      "name": "LOSER_STAKE_MULTIPLIER",
      "outputs": [
        {
          "internalType": "uint256",
          "name": "",
          "type": "uint256"
        }
      ],
      "stateMutability": "view",
      "type": "function"
    },
    {
      "inputs": [],
      "name": "MULTIPLIER_DENOMINATOR",
      "outputs": [
        {
          "internalType": "uint256",
          "name": "",
          "type": "uint256"
        }
      ],
      "stateMutability": "view",
      "type": "function"
    },
    {
      "inputs": [],
      "name": "NUMBER_OF_LEAST_SIGNIFICANT_BITS_TO_IGNORE",
      "outputs": [
        {
          "internalType": "uint256",
          "name": "",
          "type": "uint256"
        }
      ],
      "stateMutability": "view",
      "type": "function"
    },
    {
      "inputs": [],
      "name": "NUMBER_OF_RULING_OPTIONS",
      "outputs": [
        {
          "internalType": "uint256",
          "name": "",
          "type": "uint256"
        }
      ],
      "stateMutability": "view",
      "type": "function"
    },
    {
      "inputs": [],
      "name": "TREASURY",
      "outputs": [
        {
          "internalType": "address payable",
          "name": "",
          "type": "address"
        }
      ],
      "stateMutability": "view",
      "type": "function"
    },
    {
      "inputs": [],
      "name": "VERSION",
      "outputs": [
        {
          "internalType": "string",
          "name": "",
          "type": "string"
        }
      ],
      "stateMutability": "view",
      "type": "function"
    },
    {
      "inputs": [],
      "name": "WINNER_STAKE_MULTIPLIER",
      "outputs": [
        {
          "internalType": "uint256",
          "name": "",
          "type": "uint256"
        }
      ],
      "stateMutability": "view",
      "type": "function"
    },
    {
      "inputs": [],
      "name": "admin",
      "outputs": [
        {
          "internalType": "address payable",
          "name": "",
          "type": "address"
        }
      ],
      "stateMutability": "view",
      "type": "function"
    },
    {
      "inputs": [
        {
          "internalType": "uint256",
          "name": "_disputeID",
          "type": "uint256"
        }
      ],
      "name": "appealFee",
      "outputs": [
        {
          "internalType": "uint256",
          "name": "arbitrationFee",
          "type": "uint256"
        }
      ],
      "stateMutability": "view",
      "type": "function"
    },
    {
      "inputs": [
        {
          "internalType": "uint80",
          "name": "",
          "type": "uint80"
        }
      ],
      "name": "articleStorage",
      "outputs": [
        {
          "internalType": "address payable",
          "name": "owner",
          "type": "address"
        },
        {
          "internalType": "uint32",
          "name": "withdrawalPermittedAt",
          "type": "uint32"
        },
        {
          "internalType": "uint56",
          "name": "bountyAmount",
          "type": "uint56"
        },
        {
          "internalType": "uint8",
          "name": "category",
          "type": "uint8"
        }
      ],
      "stateMutability": "view",
      "type": "function"
    },
    {
      "inputs": [],
      "name": "categoryCounter",
      "outputs": [
        {
          "internalType": "uint8",
          "name": "",
          "type": "uint8"
        }
      ],
      "stateMutability": "view",
      "type": "function"
    },
    {
      "inputs": [
        {
          "internalType": "uint256",
          "name": "",
          "type": "uint256"
        }
      ],
      "name": "categoryToArbitratorExtraData",
      "outputs": [
        {
          "internalType": "bytes",
          "name": "",
          "type": "bytes"
        }
      ],
      "stateMutability": "view",
      "type": "function"
    },
    {
      "inputs": [
        {
          "internalType": "uint80",
          "name": "_articleStorageAddress",
          "type": "uint80"
        }
      ],
      "name": "challenge",
      "outputs": [],
      "stateMutability": "payable",
      "type": "function"
    },
    {
      "inputs": [
        {
          "internalType": "uint80",
          "name": "_articleStorageAddress",
          "type": "uint80"
        }
      ],
      "name": "challengeFee",
      "outputs": [
        {
          "internalType": "uint256",
          "name": "",
          "type": "uint256"
        }
      ],
      "stateMutability": "view",
      "type": "function"
    },
    {
      "inputs": [],
      "name": "challengeTaxRate",
      "outputs": [
        {
          "internalType": "uint256",
          "name": "",
          "type": "uint256"
        }
      ],
      "stateMutability": "view",
      "type": "function"
    },
    {
      "inputs": [
        {
          "internalType": "address payable",
          "name": "_newAdmin",
          "type": "address"
        }
      ],
      "name": "changeAdmin",
      "outputs": [],
      "stateMutability": "nonpayable",
      "type": "function"
    },
    {
      "inputs": [
        {
          "internalType": "uint256",
          "name": "_newArticleWithdrawalTimelock",
          "type": "uint256"
        }
      ],
      "name": "changeArticleWithdrawalTimelock",
      "outputs": [],
      "stateMutability": "nonpayable",
      "type": "function"
    },
    {
      "inputs": [
        {
          "internalType": "uint256",
          "name": "_newLoserAppealPeriodMultiplier",
          "type": "uint256"
        }
      ],
      "name": "changeLoserAppealPeriodMultiplier",
      "outputs": [],
      "stateMutability": "nonpayable",
      "type": "function"
    },
    {
      "inputs": [
        {
          "internalType": "uint256",
          "name": "_newLoserStakeMultiplier",
          "type": "uint256"
        }
      ],
      "name": "changeLoserStakeMultiplier",
      "outputs": [],
      "stateMutability": "nonpayable",
      "type": "function"
    },
    {
      "inputs": [
        {
          "internalType": "address payable",
          "name": "_newTreasury",
          "type": "address"
        }
      ],
      "name": "changeTreasury",
      "outputs": [],
      "stateMutability": "nonpayable",
      "type": "function"
    },
    {
      "inputs": [
        {
          "internalType": "uint256",
          "name": "_newWinnerStakeMultiplier",
          "type": "uint256"
        }
      ],
      "name": "changeWinnerStakeMultiplier",
      "outputs": [],
      "stateMutability": "nonpayable",
      "type": "function"
    },
    {
      "inputs": [
        {
          "internalType": "uint256",
          "name": "",
          "type": "uint256"
        }
      ],
      "name": "disputes",
      "outputs": [
        {
          "internalType": "address payable",
          "name": "challenger",
          "type": "address"
        },
        {
          "internalType": "enum ITruthPost.RulingOptions",
          "name": "outcome",
          "type": "uint8"
        },
        {
          "internalType": "uint8",
          "name": "articleCategory",
          "type": "uint8"
        },
        {
          "internalType": "bool",
          "name": "resolved",
          "type": "bool"
        },
        {
          "internalType": "uint80",
          "name": "articleStorageAddress",
          "type": "uint80"
        }
      ],
      "stateMutability": "view",
      "type": "function"
    },
    {
      "inputs": [
        {
          "internalType": "uint80",
          "name": "_searchPointer",
          "type": "uint80"
        }
      ],
      "name": "findVacantStorageSlot",
      "outputs": [
        {
          "internalType": "uint256",
          "name": "vacantSlotIndex",
          "type": "uint256"
        }
      ],
      "stateMutability": "view",
      "type": "function"
    },
    {
      "inputs": [
        {
          "internalType": "uint256",
          "name": "_disputeID",
          "type": "uint256"
        },
        {
          "internalType": "enum ITruthPost.RulingOptions",
          "name": "_supportedRuling",
          "type": "uint8"
        }
      ],
      "name": "fundAppeal",
      "outputs": [
        {
          "internalType": "bool",
          "name": "fullyFunded",
          "type": "bool"
        }
      ],
      "stateMutability": "payable",
      "type": "function"
    },
    {
      "inputs": [
        {
          "internalType": "uint256",
          "name": "_disputeID",
          "type": "uint256"
        },
        {
          "internalType": "enum ITruthPost.RulingOptions",
          "name": "_ruling",
          "type": "uint8"
        }
      ],
      "name": "getAmountRemainsToBeRaised",
      "outputs": [
        {
          "internalType": "uint256",
          "name": "",
          "type": "uint256"
        }
      ],
      "stateMutability": "view",
      "type": "function"
    },
    {
      "inputs": [
        {
          "internalType": "uint256",
          "name": "_disputeID",
          "type": "uint256"
        },
        {
          "internalType": "enum ITruthPost.RulingOptions",
          "name": "_ruling",
          "type": "uint8"
        }
      ],
      "name": "getAppealPeriod",
      "outputs": [
        {
          "internalType": "uint256",
          "name": "",
          "type": "uint256"
        },
        {
          "internalType": "uint256",
          "name": "",
          "type": "uint256"
        }
      ],
      "stateMutability": "view",
      "type": "function"
    },
    {
      "inputs": [
        {
          "internalType": "uint256",
          "name": "_disputeID",
          "type": "uint256"
        }
      ],
      "name": "getLastRoundWinner",
      "outputs": [
        {
          "internalType": "uint256",
          "name": "",
          "type": "uint256"
        }
      ],
      "stateMutability": "view",
      "type": "function"
    },
    {
      "inputs": [
        {
          "internalType": "enum ITruthPost.RulingOptions",
          "name": "_ruling",
          "type": "uint8"
        },
        {
          "internalType": "enum ITruthPost.RulingOptions",
          "name": "_lastRoundWinner",
          "type": "uint8"
        }
      ],
      "name": "getReturnOfInvestmentRatio",
      "outputs": [
        {
          "internalType": "uint256",
          "name": "",
          "type": "uint256"
        }
      ],
      "stateMutability": "view",
      "type": "function"
    },
    {
      "inputs": [
        {
          "internalType": "uint256",
          "name": "_disputeID",
          "type": "uint256"
        },
        {
          "internalType": "uint256",
          "name": "_round",
          "type": "uint256"
        }
      ],
      "name": "getRoundInfo",
      "outputs": [
        {
          "internalType": "bool[3]",
          "name": "hasPaid",
          "type": "bool[3]"
        },
        {
          "internalType": "uint256[3]",
          "name": "totalPerRuling",
          "type": "uint256[3]"
        },
        {
          "internalType": "uint256",
          "name": "totalClaimableAfterExpenses",
          "type": "uint256"
        }
      ],
      "stateMutability": "view",
      "type": "function"
    },
    {
      "inputs": [
        {
          "internalType": "uint256",
          "name": "_disputeID",
          "type": "uint256"
        },
        {
          "internalType": "address payable",
          "name": "_contributor",
          "type": "address"
        }
      ],
      "name": "getTotalWithdrawableAmount",
      "outputs": [
        {
          "internalType": "uint256",
          "name": "sum",
          "type": "uint256"
        },
        {
          "internalType": "uint256[][]",
          "name": "amounts",
          "type": "uint256[][]"
        }
      ],
      "stateMutability": "view",
      "type": "function"
    },
    {
      "inputs": [
        {
          "internalType": "uint80",
          "name": "_articleStorageAddress",
          "type": "uint80"
        }
      ],
      "name": "increaseBounty",
      "outputs": [],
      "stateMutability": "payable",
      "type": "function"
    },
    {
      "inputs": [
        {
          "internalType": "string",
          "name": "_articleID",
          "type": "string"
        },
        {
          "internalType": "uint8",
          "name": "_category",
          "type": "uint8"
        },
        {
          "internalType": "uint80",
          "name": "_searchPointer",
          "type": "uint80"
        }
      ],
      "name": "initializeArticle",
      "outputs": [],
      "stateMutability": "payable",
      "type": "function"
    },
    {
      "inputs": [
        {
          "internalType": "uint80",
          "name": "_articleStorageAddress",
          "type": "uint80"
        }
      ],
      "name": "initiateWithdrawal",
      "outputs": [],
      "stateMutability": "nonpayable",
      "type": "function"
    },
    {
      "inputs": [
        {
          "internalType": "string",
          "name": "_metaevidenceIpfsUri",
          "type": "string"
        },
        {
          "internalType": "bytes",
          "name": "_arbitratorExtraData",
          "type": "bytes"
        }
      ],
      "name": "newCategory",
      "outputs": [],
      "stateMutability": "nonpayable",
      "type": "function"
    },
    {
      "inputs": [
        {
          "internalType": "uint256",
          "name": "_disputeID",
          "type": "uint256"
        },
        {
          "internalType": "uint256",
          "name": "_ruling",
          "type": "uint256"
        }
      ],
      "name": "rule",
      "outputs": [],
      "stateMutability": "nonpayable",
      "type": "function"
    },
    {
      "inputs": [
        {
          "internalType": "uint256",
          "name": "_disputeID",
          "type": "uint256"
        },
        {
          "internalType": "string",
          "name": "_evidenceURI",
          "type": "string"
        }
      ],
      "name": "submitEvidence",
      "outputs": [],
      "stateMutability": "nonpayable",
      "type": "function"
    },
    {
      "inputs": [],
      "name": "switchPublishingLock",
      "outputs": [],
      "stateMutability": "nonpayable",
      "type": "function"
    },
    {
      "inputs": [],
      "name": "transferBalanceToTreasury",
      "outputs": [],
      "stateMutability": "nonpayable",
      "type": "function"
    },
    {
      "inputs": [
        {
          "internalType": "uint80",
          "name": "_articleStorageAddress",
          "type": "uint80"
        },
        {
          "internalType": "address payable",
          "name": "_newOwner",
          "type": "address"
        }
      ],
      "name": "transferOwnership",
      "outputs": [],
      "stateMutability": "nonpayable",
      "type": "function"
    },
    {
      "inputs": [],
      "name": "treasuryBalance",
      "outputs": [
        {
          "internalType": "uint256",
          "name": "",
          "type": "uint256"
        }
      ],
      "stateMutability": "view",
      "type": "function"
    },
    {
      "inputs": [
        {
          "internalType": "uint256",
          "name": "_newChallengeTaxRate",
          "type": "uint256"
        }
      ],
      "name": "updateChallengeTaxRate",
      "outputs": [],
      "stateMutability": "nonpayable",
      "type": "function"
    },
    {
      "inputs": [
        {
          "internalType": "uint80",
          "name": "_articleStorageAddress",
          "type": "uint80"
        }
      ],
      "name": "withdraw",
      "outputs": [],
      "stateMutability": "nonpayable",
      "type": "function"
    },
    {
      "inputs": [
        {
          "internalType": "uint256",
          "name": "_disputeID",
          "type": "uint256"
        },
        {
          "internalType": "address payable",
          "name": "_contributor",
          "type": "address"
        },
        {
          "internalType": "uint256",
          "name": "_roundNumber",
          "type": "uint256"
        },
        {
          "internalType": "enum ITruthPost.RulingOptions",
          "name": "_ruling",
          "type": "uint8"
        }
      ],
      "name": "withdrawFeesAndRewards",
      "outputs": [
        {
          "internalType": "uint256",
          "name": "amount",
          "type": "uint256"
        }
      ],
      "stateMutability": "nonpayable",
      "type": "function"
    },
    {
      "inputs": [
        {
          "internalType": "uint256",
          "name": "_disputeID",
          "type": "uint256"
        },
        {
          "internalType": "address payable",
          "name": "_contributor",
          "type": "address"
        },
        {
          "internalType": "enum ITruthPost.RulingOptions",
          "name": "_ruling",
          "type": "uint8"
        }
      ],
      "name": "withdrawFeesAndRewardsForAllRounds",
      "outputs": [],
      "stateMutability": "nonpayable",
      "type": "function"
    },
    {
      "inputs": [
        {
          "internalType": "uint256",
          "name": "_disputeID",
          "type": "uint256"
        },
        {
          "internalType": "address payable",
          "name": "_contributor",
          "type": "address"
        }
      ],
      "name": "withdrawFeesAndRewardsForAllRoundsAndAllRulings",
      "outputs": [],
      "stateMutability": "nonpayable",
      "type": "function"
    },
    {
      "inputs": [
        {
          "internalType": "uint256",
          "name": "_disputeID",
          "type": "uint256"
        },
        {
          "internalType": "address payable",
          "name": "_contributor",
          "type": "address"
        },
        {
          "internalType": "uint256[][]",
          "name": "positions",
          "type": "uint256[][]"
        }
      ],
      "name": "withdrawFeesAndRewardsForGivenPositions",
      "outputs": [],
      "stateMutability": "nonpayable",
      "type": "function"
    }
  ],
  "bytecode": "0x60a06040526000805460ff1916600117905561020060025560106006556007805433610100026001600160a81b03199091161790553480156200004157600080fd5b50604051620044f9380380620044f9833981016040819052620000649162000389565b600384905560048390556005829055600080546001600160a01b0380841661010002610100600160a81b0319909216919091179091558716608052620000ab8587620000b8565b5050505050505062000539565b600754620000cb9060ff16600162000466565b60ff166200011f5760405162461bcd60e51b815260206004820181905260248201527f4e6f207370616365206c65667420666f722061206e65772063617465676f7279604482015260640160405180910390fd5b60075460405160ff909116907f61606860eb6c87306811e2695215385101daab53bd6ab4e9f9049aead9363c7d906200015a9085906200048e565b60405180910390a2600754819060089060ff1660408110620001805762000180620004c3565b01908051906020019062000196929190620001c9565b506007805460ff16906000620001ac83620004d9565b91906101000a81548160ff021916908360ff160217905550505050565b828054620001d790620004fc565b90600052602060002090601f016020900481019282620001fb576000855562000246565b82601f106200021657805160ff191683800117855562000246565b8280016001018555821562000246579182015b828111156200024657825182559160200191906001019062000229565b506200025492915062000258565b5090565b5b8082111562000254576000815560010162000259565b6001600160a01b03811681146200028557600080fd5b50565b634e487b7160e01b600052604160045260246000fd5b60005b83811015620002bb578181015183820152602001620002a1565b83811115620002cb576000848401525b50505050565b60006001600160401b0380841115620002ee57620002ee62000288565b604051601f8501601f19908116603f0116810190828211818310171562000319576200031962000288565b816040528093508581528686860111156200033357600080fd5b620003438660208301876200029e565b5050509392505050565b600082601f8301126200035f57600080fd5b6200037083835160208501620002d1565b9392505050565b805162000384816200026f565b919050565b600080600080600080600060e0888a031215620003a557600080fd5b8751620003b2816200026f565b60208901519097506001600160401b0380821115620003d057600080fd5b818a0191508a601f830112620003e557600080fd5b620003f68b835160208501620002d1565b975060408a01519150808211156200040d57600080fd5b506200041c8a828b016200034d565b955050606088015193506080880151925060a088015191506200044260c0890162000377565b905092959891949750929550565b634e487b7160e01b600052601160045260246000fd5b600060ff821660ff84168060ff0382111562000486576200048662000450565b019392505050565b6020815260008251806020840152620004af8160408501602087016200029e565b601f01601f19169190910160400192915050565b634e487b7160e01b600052603260045260246000fd5b600060ff821660ff811415620004f357620004f362000450565b60010192915050565b600181811c908216806200051157607f821691505b602082108114156200053357634e487b7160e01b600052602260045260246000fd5b50919050565b608051613f49620005b0600039600081816105fb01528181610b5f01528181610bed01528181610dd301528181611210015281816113ae0152818161178801528181611bb601528181611cfc015281816120af01528181612245015281816122f4015281816127b801526128b20152613f496000f3fe60806040526004361061031e5760003560e01c806392239dff116101a5578063ba0ec60b116100ec578063d970d18c11610095578063f851a4401161006f578063f851a440146109ad578063fc0ac672146109d2578063fe6ca782146109e8578063ffa1ad74146109fe57600080fd5b8063d970d18c14610962578063dc227fc214610977578063e349ad301461099757600080fd5b8063c9330c0f116100c6578063c9330c0f1461090c578063c94828f01461092c578063d3b476b11461094c57600080fd5b8063ba0ec60b146108ce578063bc0936fd146108e3578063be467604146108f657600080fd5b8063adc7faba1161014e578063b34bfaa811610128578063b34bfaa814610883578063b4c7058114610899578063b7bddc72146108b957600080fd5b8063adc7faba14610815578063af4a914414610835578063b14f2a391461086357600080fd5b8063a509efeb1161017f578063a509efeb146107b5578063a6a7f0eb146107d5578063ab9cd37e146107f557600080fd5b806392239dff1461075557806392e2592514610775578063956dcbd21461079557600080fd5b8063564a565d11610269578063736ed418116102125780637f67bd6c116101ec5780637f67bd6c146106e65780638a9bb02a146107065780638f2839701461073557600080fd5b8063736ed4181461061d5780637597b3cb1461063057806378431ce91461064557600080fd5b806367284f211161024357806367284f21146105a95780636760aeb0146105c957806368871c9c146105e957600080fd5b8063564a565d146104da578063638af3da1461055457806364ff9dfa1461058957600080fd5b806329238089116102cb578063313dab20116102a5578063313dab20146104775780634c55c0001461048d5780634de12db0146104ad57600080fd5b806329238089146104075780632d2c55651461041a578063311a6c561461045757600080fd5b806315f36ebe116102fc57806315f36ebe146103995780631e26de34146103c757806326804bef146103e757600080fd5b806303624fc01461032357806306bcbd731461035457806312b3a2c014610376575b600080fd5b34801561032f57600080fd5b5060075461033d9060ff1681565b60405160ff90911681526020015b60405180910390f35b34801561036057600080fd5b5061037461036f366004613578565b610a47565b005b6103896103843660046135ba565b610b39565b604051901515815260200161034b565b3480156103a557600080fd5b506103b96103b43660046135dd565b611335565b60405190815260200161034b565b3480156103d357600080fd5b506103b96103e23660046135f8565b611399565b3480156103f357600080fd5b506103746104023660046135f8565b611462565b610374610415366004613653565b611529565b34801561042657600080fd5b5060005461043f9061010090046001600160a01b031681565b6040516001600160a01b03909116815260200161034b565b34801561046357600080fd5b506103746104723660046136bf565b61177d565b34801561048357600080fd5b506103b960015481565b34801561049957600080fd5b506103746104a836600461376d565b611a0d565b3480156104b957600080fd5b506104cd6104c83660046135f8565b611b0e565b60405161034b9190613849565b3480156104e657600080fd5b506105436104f53660046135f8565b604960205260009081526040902080546001909101546001600160a01b0382169160ff600160a01b8204811692600160a81b8304821692600160b01b9004909116906001600160501b031685565b60405161034b959493929190613894565b34801561056057600080fd5b5061057461056f3660046135ba565b611bae565b6040805192835260208301919091520161034b565b34801561059557600080fd5b506103b96105a43660046135dd565b611cdb565b3480156105b557600080fd5b506103746105c43660046138d9565b611df4565b3480156105d557600080fd5b506103746105e4366004613963565b611eb8565b3480156105f557600080fd5b5061043f7f000000000000000000000000000000000000000000000000000000000000000081565b61037461062b3660046135dd565b611efd565b34801561063c57600080fd5b506103b9600281565b34801561065157600080fd5b506106a66106603660046135dd565b6048602052600090815260409020546001600160a01b03811690600160a01b810463ffffffff1690600160c01b810466ffffffffffffff1690600160f81b900460ff1684565b604080516001600160a01b03909516855263ffffffff909316602085015266ffffffffffffff9091169183019190915260ff16606082015260800161034b565b3480156106f257600080fd5b506103b96107013660046135f8565b6122db565b34801561071257600080fd5b506107266107213660046136bf565b61236d565b60405161034b9392919061399f565b34801561074157600080fd5b50610374610750366004613a04565b61245d565b34801561076157600080fd5b506103746107703660046135f8565b6124d8565b34801561078157600080fd5b506103746107903660046135f8565b612527565b3480156107a157600080fd5b506103746107b03660046135dd565b612576565b3480156107c157600080fd5b506103b96107d03660046135ba565b6126e3565b3480156107e157600080fd5b506103746107f0366004613a1f565b6128a5565b34801561080157600080fd5b506103746108103660046135dd565b612918565b34801561082157600080fd5b506103746108303660046135f8565b612b4a565b34801561084157600080fd5b50610855610850366004613a6b565b612b99565b60405161034b929190613a8e565b34801561086f57600080fd5b5061037461087e366004613a04565b612d83565b34801561088f57600080fd5b506103b960055481565b3480156108a557600080fd5b506103b96108b4366004613b20565b612dfc565b3480156108c557600080fd5b50610374612e86565b3480156108da57600080fd5b50610374612eeb565b6103746108f13660046135dd565b612f1b565b34801561090257600080fd5b506103b960025481565b34801561091857600080fd5b50610374610927366004613a6b565b613055565b34801561093857600080fd5b506103746109473660046135f8565b6130bc565b34801561095857600080fd5b506103b960035481565b34801561096e57600080fd5b506103b9602081565b34801561098357600080fd5b506103b9610992366004613b4a565b61310b565b3480156109a357600080fd5b506103b960045481565b3480156109b957600080fd5b5060075461043f9061010090046001600160a01b031681565b3480156109de57600080fd5b506103b960065481565b3480156109f457600080fd5b506103b961040081565b348015610a0a57600080fd5b506104cd6040518060400160405280600581526020017f312e322e3000000000000000000000000000000000000000000000000000000081525081565b6001600160501b038216600090815260486020526040902080546001600160a01b03163314610ae35760405162461bcd60e51b815260206004820152602360248201527f4f6e6c7920617574686f722063616e207472616e73666572206f776e6572736860448201527f69702e000000000000000000000000000000000000000000000000000000000060648201526084015b60405180910390fd5b805473ffffffffffffffffffffffffffffffffffffffff19166001600160a01b03831690811782556040517fdfc39691aec87dc6aa51ff70c0e592f260c54d2ed6c64e8c4c2306da0eec872b90600090a2505050565b6000828152604960205260408082209051631c3db16d60e01b81526004810185905282907f00000000000000000000000000000000000000000000000000000000000000006001600160a01b031690631c3db16d90602401602060405180830381865afa158015610bae573d6000803e3d6000fd5b505050506040513d601f19601f82011682018060405250810190610bd29190613b85565b6002811115610be357610be361385c565b90506000806000807f00000000000000000000000000000000000000000000000000000000000000006001600160a01b031663afe15cfb8a6040518263ffffffff1660e01b8152600401610c3991815260200190565b6040805180830381865afa158015610c55573d6000803e3d6000fd5b505050506040513d601f19601f82011682018060405250810190610c799190613b9e565b915091506000856002811115610c9157610c9161385c565b896002811115610ca357610ca361385c565b1415610d2757814210610d1e5760405162461bcd60e51b815260206004820152602e60248201527f46756e64696e67206d757374206265206d6164652077697468696e207468652060448201527f61707065616c20706572696f642e0000000000000000000000000000000000006064820152608401610ada565b50600454610dcf565b60025461040090610d388585613bd8565b610d429190613bef565b610d4c9190613c0e565b610d569084613c30565b4210610dca5760405162461bcd60e51b815260206004820152603960248201527f46756e64696e67206d757374206265206d6164652077697468696e207468652060448201527f66697273742068616c662061707065616c20706572696f642e000000000000006064820152608401610ada565b506005545b86547f00000000000000000000000000000000000000000000000000000000000000006001600160a01b03169063f23f16e6908c90600890600160a81b900460ff1660408110610e2157610e21613c48565b016040518363ffffffff1660e01b8152600401610e3f929190613d39565b602060405180830381865afa158015610e5c573d6000803e3d6000fd5b505050506040513d601f19601f82011682018060405250810190610e809190613b85565b9450610400610e8f8287613bef565b610e999190613c0e565b610ea39086613c30565b600288015490945089935060009250610ebf9150600190613bd8565b90506000866002018281548110610ed857610ed8613c48565b9060005260206000209060060201905080600101836002811115610efe57610efe61385c565b60038110610f0e57610f0e613c48565b602081049091015460ff601f9092166101000a90041615610f975760405162461bcd60e51b815260206004820152602160248201527f41707065616c206665652068617320616c7265616479206265656e207061696460448201527f2e000000000000000000000000000000000000000000000000000000000000006064820152608401610ada565b60008082600201856002811115610fb057610fb061385c565b60038110610fc057610fc0613c48565b01549050858110610fd45760009150610ff8565b34610fdf8288613bd8565b11610ff357610fee8187613bd8565b610ff5565b345b91505b50336001600160a01b0316838c7f2b4ef80a862edc5616a4e61c11f4a368f33323faca91fa7635d48b85c183e66a8d85604051611036929190613d5a565b60405180910390a433600090815260208390526040902081908560028111156110615761106161385c565b6003811061107157611071613c48565b0160008282546110819190613c30565b92505081905550808260020185600281111561109f5761109f61385c565b600381106110af576110af613c48565b0160008282546110bf9190613c30565b9250508190555084826002018560028111156110dd576110dd61385c565b600381106110ed576110ed613c48565b0154106111bb578160020184600281111561110a5761110a61385c565b6003811061111a5761111a613c48565b015482600501600082825461112f9190613c30565b909155506001905082810185600281111561114c5761114c61385c565b6003811061115c5761115c613c48565b602091828204019190066101000a81548160ff02191690831515021790555089600281111561118d5761118d61385c565b60405184908d907fb5681f036910f38d8c2fa06f2cbedc227ecf03d7c4a358ee9096197b15ff8fd090600090a45b6001820154610100900460ff1680156111de5750600182015462010000900460ff165b156112b15760028801805460010181556000908152600583018054889290611207908490613bd8565b909155505087547f00000000000000000000000000000000000000000000000000000000000000006001600160a01b0316906349912f889088908e90600890600160a81b900460ff166040811061126057611260613c48565b016040518463ffffffff1660e01b815260040161127e929190613d39565b6000604051808303818588803b15801561129757600080fd5b505af11580156112ab573d6000803e3d6000fd5b50505050505b60006112bd8234613bd8565b11156112e957336108fc6112d18334613bd8565b6040518115909202916000818181858888f150505050505b816001018460028111156112ff576112ff61385c565b6003811061130f5761130f613c48565b602081049091015460ff601f9092166101000a9004169850505050505050505092915050565b6000805b604860008461134781613d75565b6001600160501b03919091168252602082019290925260400160002080549194509150600160c01b900466ffffffffffffff1661133957611389600184613d9c565b6001600160501b03169392505050565b600081815260496020526040808220805490917f00000000000000000000000000000000000000000000000000000000000000006001600160a01b03169163f23f16e6918691600891600160a81b90910460ff169081106113fc576113fc613c48565b016040518363ffffffff1660e01b815260040161141a929190613d39565b602060405180830381865afa158015611437573d6000803e3d6000fd5b505050506040513d601f19601f8201168201806040525081019061145b9190613b85565b9392505050565b60075461010090046001600160a01b0316331461147e57600080fd5b6101008111156114f65760405162461bcd60e51b815260206004820152603660248201527f5468652074617820726174652063616e206f6e6c7920626520696e637265617360448201527f65642062792061206d6178696d756d206f6620323525000000000000000000006064820152608401610ada565b600681905560405181907f5100ab374784a62034356f9af3b71ea723c1e89beb5627c6c1dacea1117250b890600090a250565b60075460ff908116908316106115815760405162461bcd60e51b815260206004820152601c60248201527f546869732063617465676f727920646f6573206e6f74206578697374000000006044820152606401610ada565b60005b604860008361159281613d75565b6001600160501b03919091168252602082019290925260400160002080549193509150600160c01b900466ffffffffffffff166115845780547fff00000000000000ffffffff000000000000000000000000000000000000000016337fff00000000000000ffffffffffffffffffffffffffffffffffffffffffffffff1617600160c01b3460201c66ffffffffffffff9081168202929092177effffffffffffffffffffffffffffffffffffffffffffffffffffffffffffff16600160f81b60ff8716021780845504166116ce5760405162461bcd60e51b815260206004820152603960248201527f596f752063616e277420696e697469616c697a6520616e2061727469636c652060448201527f776974686f75742070757474696e67206120626f756e74792e000000000000006064820152608401610ada565b60006116db600184613d9c565b6001600160501b031690507f4f9a2b734331c583faf3f19d1feb5f08b742e016a56fb61379950beaf3e223418686868460405161171b9493929190613ded565b60405180910390a1815460408051838152600160c01b909204602090811b6affffffffffffff0000000016908301527fdf5fc410d3381cc7f0a7fe3af72f4e3cf53ef5787f20554af69035a950e1b2e3910160405180910390a1505050505050565b336001600160a01b037f000000000000000000000000000000000000000000000000000000000000000016146117b257600080fd5b60008281526049602052604081206002810180549192916117d590600190613bd8565b815481106117e5576117e5613c48565b60009182526020822060016006929092020190810154909250610100900460ff161561181357506001611829565b6001820154610100900460ff1615611829575060025b60008082600281111561183e5761183e61385c565b141561185b578460028111156118565761185661385c565b61185d565b815b8454909150819085907fffffffffffffffffffffff00ffffffffffffffffffffffffffffffffffffffff16600160a01b83600281111561189f5761189f61385c565b021790555060018401546001600160501b0316600081815260486020526040902060028360028111156118d4576118d461385c565b141561198b5780547fff00000000000000ffffffffffffffffffffffffffffffffffffffffffffffff811682556040516001600160501b0384168152600160c01b909104602090811b6affffffffffffff0000000016917f8271992f9b3a3f30dc2a464982dc4a136e7357403462443a171a0fb0c6ccc265910160405180910390a16000898152604960205260408082205490516001600160a01b039091169183156108fc02918491818181858888f15050505050505b805463ffffffff60a01b1916815585547fffffffffffffffffff00ffffffffffffffffffffffffffffffffffffffffffff16600160b01b178655604051889033907f394027a5fa6e098a1191094d1719d6929b9abc535fcc0c8f448d6a4e75622276906119fb908b815260200190565b60405180910390a35050505050505050565b600754611a1e9060ff166001613e17565b60ff16611a6d5760405162461bcd60e51b815260206004820181905260248201527f4e6f207370616365206c65667420666f722061206e65772063617465676f72796044820152606401610ada565b60075460405160ff909116907f61606860eb6c87306811e2695215385101daab53bd6ab4e9f9049aead9363c7d90611aa6908590613849565b60405180910390a2600754819060089060ff1660408110611ac957611ac9613c48565b019080519060200190611add92919061348e565b506007805460ff16906000611af183613e3c565b91906101000a81548160ff021916908360ff160217905550505050565b60088160408110611b1e57600080fd5b018054909150611b2d90613c5e565b80601f0160208091040260200160405190810160405280929190818152602001828054611b5990613c5e565b8015611ba65780601f10611b7b57610100808354040283529160200191611ba6565b820191906000526020600020905b815481529060010190602001808311611b8957829003601f168201915b505050505081565b6000806000807f00000000000000000000000000000000000000000000000000000000000000006001600160a01b031663afe15cfb876040518263ffffffff1660e01b8152600401611c0291815260200190565b6040805180830381865afa158015611c1e573d6000803e3d6000fd5b505050506040513d601f19601f82011682018060405250810190611c429190613b9e565b9150915060006104006002548484611c5a9190613bd8565b611c649190613bef565b611c6e9190613c0e565b611c789084613c30565b90506000866002811115611c8e57611c8e61385c565b611c97896122db565b6002811115611ca857611ca861385c565b6002811115611cb957611cb961385c565b14905080611cc8578382611ccb565b83835b95509550505050505b9250929050565b6001600160501b0381166000908152604860205260408082208054909183917f00000000000000000000000000000000000000000000000000000000000000006001600160a01b03169163f7434ea991600891600160f81b90910460ff16908110611d4857611d48613c48565b016040518263ffffffff1660e01b8152600401611d659190613e5c565b602060405180830381865afa158015611d82573d6000803e3d6000fd5b505050506040513d601f19601f82011682018060405250810190611da69190613b85565b600654835491925060009161040091611dd591600160c01b900460201b6affffffffffffff0000000016613bef565b611ddf9190613c0e565b9050611deb8183613c30565b95945050505050565b60005b81811015611eb15760005b838383818110611e1457611e14613c48565b9050602002810190611e269190613e6f565b9050811015611e9e576000848484818110611e4357611e43613c48565b9050602002810190611e559190613e6f565b83818110611e6557611e65613c48565b905060200201351115611e8c57611e8a8686848460028111156109925761099261385c565b505b80611e9681613eb9565b915050611e02565b5080611ea981613eb9565b915050611df7565b5050505050565b6000838152604960205260408120600281015490915b81811015611ef557611ee28686838761310b565b5080611eed81613eb9565b915050611ece565b505050505050565b6001600160501b03811660009081526048602052604090208054600160c01b900466ffffffffffffff16611f735760405162461bcd60e51b815260206004820152601560248201527f4e6f7468696e6720746f206368616c6c656e67652e00000000000000000000006044820152606401610ada565b8054600160a01b900463ffffffff9081161415611fd25760405162461bcd60e51b815260206004820152601e60248201527f546865726520697320616e206f6e676f696e67206368616c6c656e67652e00006044820152606401610ada565b805463ffffffff60a01b191677ffffffff000000000000000000000000000000000000000017815561200382611cdb565b3410156120525760405162461bcd60e51b815260206004820181905260248201527f496e73756666696369656e742066756e647320746f206368616c6c656e67652e6044820152606401610ada565b60065481546000916104009161207f9190600160c01b900460201b6affffffffffffff0000000016613bef565b6120899190613c0e565b9050806001600082825461209d9190613c30565b90915550600090506001600160a01b037f00000000000000000000000000000000000000000000000000000000000000001663c13517e16120de8434613bd8565b8554600290600890600160f81b900460ff166040811061210057612100613c48565b016040518463ffffffff1660e01b815260040161211e929190613d39565b60206040518083038185885af115801561213c573d6000803e3d6000fd5b50505050506040513d601f19601f820116820180604052508101906121619190613b85565b60008181526049602090815260409182902080543373ffffffffffffffffffffffffffffffffffffffff1982168117835560028301805460019081019091558301805469ffffffffffffffffffff19166001600160501b038c1617905588547fffffffffffffffffffff00ff00000000000000000000000000000000000000009092167fffffffffffffffffffff00ffffffffffffffffffffffffffffffffffffffffff90911617600160f81b9182900460ff908116600160a81b029190911790925587548451919004909116815290810183905291925082916001600160a01b037f000000000000000000000000000000000000000000000000000000000000000016917f74baab670a4015ab2f1b467c5252a96141a2573f2908e58a92081e80d3cfde3d910160405180910390a360408051338152602081018390526001600160501b038616917f1e5338a1fb672aa84963dc9f9e4afd009b4ed726debb09224bf4d02a6c68b4e4910160405180910390a250505050565b604051631c3db16d60e01b8152600481018290526000907f00000000000000000000000000000000000000000000000000000000000000006001600160a01b031690631c3db16d90602401602060405180830381865afa158015612343573d6000803e3d6000fd5b505050506040513d601f19601f820116820180604052508101906123679190613b85565b92915050565b612375613512565b61237d613512565b60008481526049602052604081206002018054829190869081106123a3576123a3613c48565b906000526020600020906006020190508060010181600201826005015482600380602002604051908101604052809291908260038015612418576020028201916000905b825461010083900a900460ff1615158152602060019283018181049485019490930390920291018084116123e75790505b505060408051606081019182905294975086935060039250905082845b8154815260200190600101908083116124355750505050509150935093509350509250925092565b60075461010090046001600160a01b0316331461247957600080fd5b6007805474ffffffffffffffffffffffffffffffffffffffff0019166101006001600160a01b038416908102919091179091556040517f0c2515f25186df02132ad46f01e062c3b8982c8de57fa2b1b0a280d8e810f39b90600090a250565b60075461010090046001600160a01b031633146124f457600080fd5b600581905560405181907f505f3bf1e426c82f14f7c9cfb2d31ef5b7bb76428e16bd90dabec113e3d4a2bc90600090a250565b60075461010090046001600160a01b0316331461254357600080fd5b600381905560405181907f207e19e347becb468ef02d25790188e4d5da0fe37176d3bbb7940168ec5d613690600090a250565b6001600160501b038116600090815260486020526040902080546001600160a01b031633146125f35760405162461bcd60e51b8152602060048201526024808201527f4f6e6c7920617574686f722063616e20776974686472617720616e206172746960448201526331b6329760e11b6064820152608401610ada565b8054600160a01b900463ffffffff16156126755760405162461bcd60e51b815260206004820152603560248201527f5769746864726177616c20616c726561647920696e69746961746564206f722060448201527f74686572652069732061206368616c6c656e67652e00000000000000000000006064820152608401610ada565b6003546126829042613c30565b815463ffffffff91909116600160a01b0263ffffffff60a01b199091161781556040516001600160501b03831681527f416c1ad2b96c356f3bbd35431f86cce449ddbb4f8c3755ea9d2776b04c2e9c8f906020015b60405180910390a15050565b60008281526049602052604081206002810154829061270490600190613bd8565b9050600082600201828154811061271d5761271d613c48565b9060005260206000209060060201905060008560028111156127415761274161385c565b61274a886122db565b600281111561275b5761275b61385c565b600281111561276c5761276c61385c565b14905060008161277e57600554612782565b6004545b905060008360020188600281111561279c5761279c61385c565b600381106127ac576127ac613c48565b015486549091506000907f00000000000000000000000000000000000000000000000000000000000000006001600160a01b03169063f23f16e6908c90600890600160a81b900460ff166040811061280657612806613c48565b016040518363ffffffff1660e01b8152600401612824929190613d39565b602060405180830381865afa158015612841573d6000803e3d6000fd5b505050506040513d601f19601f820116820180604052508101906128659190613b85565b905060006104006128768584613bef565b6128809190613c0e565b61288a9083613c30565b90506128968382613bd8565b9b9a5050505050505050505050565b336001600160a01b0316837f00000000000000000000000000000000000000000000000000000000000000006001600160a01b03167fdccf2f8b2cc26eafcd61905cba744cff4b81d14740725f6376390dc6298a6a3c858560405161290b929190613ed4565b60405180910390a4505050565b6001600160501b038116600090815260486020526040902080546001600160a01b031633146129955760405162461bcd60e51b8152602060048201526024808201527f4f6e6c7920617574686f722063616e20776974686472617720616e206172746960448201526331b6329760e11b6064820152608401610ada565b8054600160a01b900463ffffffff16612a165760405162461bcd60e51b815260206004820152602660248201527f596f75206e65656420746f20696e697469617465207769746864726177616c2060448201527f66697273742e00000000000000000000000000000000000000000000000000006064820152608401610ada565b805442600160a01b90910463ffffffff161115612a9b5760405162461bcd60e51b815260206004820152603f60248201527f596f75206e65656420746f207761697420666f722074696d656c6f636b206f7260448201527f207761697420756e74696c20746865206368616c6c656e676520656e64732e006064820152608401610ada565b80547fff0000000000000000000000ffffffffffffffffffffffffffffffffffffffff81168255604051600160c01b90910460201b6affffffffffffff00000000169033906108fc8315029083906000818181858888f19350505050158015612b08573d6000803e3d6000fd5b506040516001600160501b03841681527f70b41d8cca762ceec66d93f536dbb31f5cabbf1901f862508b9438de54fce4eb9060200160405180910390a1505050565b60075461010090046001600160a01b03163314612b6657600080fd5b600481905560405181907f8df75282265171690a1298cf028f5e3c7d8d42313394a4f25d4aeea6c1ea62cf90600090a250565b6000828152604960205260408120805460609190600160b01b900460ff16612bc5576000925050611cd4565b60028101548154600160a01b900460ff168167ffffffffffffffff811115612bef57612bef6136e1565b604051908082528060200260200182016040528015612c2257816020015b6060815260200190600190039081612c0d5790505b50935060005b82811015612d7857612c3c60026001613c30565b67ffffffffffffffff811115612c5457612c546136e1565b604051908082528060200260200182016040528015612c7d578160200160208202803683370190505b50858281518110612c9057612c90613c48565b60200260200101819052506000846002018281548110612cb257612cb2613c48565b9060005260206000209060060201905060005b60028111612d63576000612cec838b846002811115612ce657612ce661385c565b8861326f565b90508015612d5057612d0b838b846002811115612ce657612ce661385c565b612d15908a613c30565b985080888581518110612d2a57612d2a613c48565b60200260200101518381518110612d4357612d43613c48565b6020026020010181815250505b5080612d5b81613eb9565b915050612cc5565b50508080612d7090613eb9565b915050612c28565b505050509250929050565b60075461010090046001600160a01b03163314612d9f57600080fd5b6000805474ffffffffffffffffffffffffffffffffffffffff0019166101006001600160a01b03841690810291909117825560405190917f8a3509a4057c89a5993a4a3140c2ebf7e829d325d8998eaa6c48adcff98b2cef91a250565b600080836002811115612e1157612e1161385c565b836002811115612e2357612e2361385c565b1490506103e8600082612e3857600554612e3c565b6004545b9050612e4a61040082613c30565b82610400600554600454612e5e9190613c30565b612e689190613c30565b612e729190613bef565b612e7c9190613c0e565b9695505050505050565b60018054600091829055815460405191926101009091046001600160a01b0316916108fc84150291849190818181858888f150506040518493507fb315332b30dc40d1e51def214ce42d93a73bd0c17b08db04b34f10736bb2f06f925060009150a250565b60075461010090046001600160a01b03163314612f0757600080fd5b6000805460ff19811660ff90911615179055565b6001600160501b038116600090815260486020526040902080546001600160a01b03163314612fb25760405162461bcd60e51b815260206004820152602e60248201527f4f6e6c7920617574686f722063616e20696e63726561736520626f756e74792060448201527f6f6620616e2061727469636c652e0000000000000000000000000000000000006064820152608401610ada565b80543460201c908290601890612fd9908490600160c01b900466ffffffffffffff16613ee8565b82546101009290920a66ffffffffffffff818102199093169190921691909102179055508054604080516001600160501b0385168152600160c01b909204602090811b6affffffffffffff0000000016908301527fdf5fc410d3381cc7f0a7fe3af72f4e3cf53ef5787f20554af69035a950e1b2e391016126d7565b6000828152604960205260408120600281015490915b81811015611eb15760005b600281116130a9576130968686848460028111156109925761099261385c565b50806130a181613eb9565b915050613076565b50806130b481613eb9565b91505061306b565b60075461010090046001600160a01b031633146130d857600080fd5b600281905560405181907fbf39faa024d2f97599a0095e84098ee2171b6681738416c0030f442ba956d52b90600090a250565b60008481526049602052604081208054600160b01b900460ff166131715760405162461bcd60e51b815260206004820152601760248201527f5468657265206973206e6f2072756c696e67207965742e0000000000000000006044820152606401610ada565b600081600201858154811061318857613188613c48565b906000526020600020906006020190506131b58187868560000160149054906101000a900460ff1661326f565b92508215613265576001600160a01b03861660009081526020829052604081208560028111156131e7576131e761385c565b600381106131f7576131f7613c48565b01556040516001600160a01b0387169084156108fc029085906000818181858888f1935050505050856001600160a01b031685887fff2b7c936d6023fea901b3455cefc23b124c1ca5997dc5b48c461fd20984289d878760405161325c929190613d5a565b60405180910390a45b5050949350505050565b600082600186018160028111156132885761328861385c565b6003811061329857613298613c48565b602081049091015460ff601f9092166101000a9004166132f5576001600160a01b03851660009081526020879052604090208160028111156132dc576132dc61385c565b600381106132ec576132ec613c48565b01549150613485565b8260028111156133075761330761385c565b8460028111156133195761331961385c565b14156133d9576000866002018260028111156133375761333761385c565b6003811061334757613347613c48565b0154116133555760006133d2565b8560020181600281111561336b5761336b61385c565b6003811061337b5761337b613c48565b015460058701546001600160a01b03871660009081526020899052604090208360028111156133ac576133ac61385c565b600381106133bc576133bc613c48565b01546133c89190613bef565b6133d29190613c0e565b9150613485565b856001018360028111156133ef576133ef61385c565b600381106133ff576133ff613c48565b602081049091015460ff601f9092166101000a900416613485576004860154600387015461342d9190613c30565b60058701546001600160a01b038716600090815260208990526040902083600281111561345c5761345c61385c565b6003811061346c5761346c613c48565b01546134789190613bef565b6134829190613c0e565b91505b50949350505050565b82805461349a90613c5e565b90600052602060002090601f0160209004810192826134bc5760008555613502565b82601f106134d557805160ff1916838001178555613502565b82800160010185558215613502579182015b828111156135025782518255916020019190600101906134e7565b5061350e929150613530565b5090565b60405180606001604052806003906020820280368337509192915050565b5b8082111561350e5760008155600101613531565b80356001600160501b038116811461355c57600080fd5b919050565b80356001600160a01b038116811461355c57600080fd5b6000806040838503121561358b57600080fd5b61359483613545565b91506135a260208401613561565b90509250929050565b80356003811061355c57600080fd5b600080604083850312156135cd57600080fd5b823591506135a2602084016135ab565b6000602082840312156135ef57600080fd5b61145b82613545565b60006020828403121561360a57600080fd5b5035919050565b60008083601f84011261362357600080fd5b50813567ffffffffffffffff81111561363b57600080fd5b602083019150836020828501011115611cd457600080fd5b6000806000806060858703121561366957600080fd5b843567ffffffffffffffff81111561368057600080fd5b61368c87828801613611565b909550935050602085013560ff811681146136a657600080fd5b91506136b460408601613545565b905092959194509250565b600080604083850312156136d257600080fd5b50508035926020909101359150565b634e487b7160e01b600052604160045260246000fd5b600067ffffffffffffffff80841115613712576137126136e1565b604051601f8501601f19908116603f0116810190828211818310171561373a5761373a6136e1565b8160405280935085815286868601111561375357600080fd5b858560208301376000602087830101525050509392505050565b6000806040838503121561378057600080fd5b823567ffffffffffffffff8082111561379857600080fd5b818501915085601f8301126137ac57600080fd5b6137bb868335602085016136f7565b935060208501359150808211156137d157600080fd5b508301601f810185136137e357600080fd5b6137f2858235602084016136f7565b9150509250929050565b6000815180845260005b8181101561382257602081850181015186830182015201613806565b81811115613834576000602083870101525b50601f01601f19169290920160200192915050565b60208152600061145b60208301846137fc565b634e487b7160e01b600052602160045260246000fd5b6003811061389057634e487b7160e01b600052602160045260246000fd5b9052565b6001600160a01b038616815260a081016138b16020830187613872565b60ff94909416604082015291151560608301526001600160501b031660809091015292915050565b600080600080606085870312156138ef57600080fd5b843593506138ff60208601613561565b9250604085013567ffffffffffffffff8082111561391c57600080fd5b818701915087601f83011261393057600080fd5b81358181111561393f57600080fd5b8860208260051b850101111561395457600080fd5b95989497505060200194505050565b60008060006060848603121561397857600080fd5b8335925061398860208501613561565b9150613996604085016135ab565b90509250925092565b60e08101818560005b60038110156139c957815115158352602092830192909101906001016139a8565b505050606082018460005b60038110156139f35781518352602092830192909101906001016139d4565b5050508260c0830152949350505050565b600060208284031215613a1657600080fd5b61145b82613561565b600080600060408486031215613a3457600080fd5b83359250602084013567ffffffffffffffff811115613a5257600080fd5b613a5e86828701613611565b9497909650939450505050565b60008060408385031215613a7e57600080fd5b823591506135a260208401613561565b600060408201848352602060408185015281855180845260608601915060608160051b87010193508287016000805b83811015613b1157888703605f19018552825180518089529087019087890190845b81811015613afb57835183529289019291890191600101613adf565b5090985050509385019391850191600101613abd565b50949998505050505050505050565b60008060408385031215613b3357600080fd5b613b3c836135ab565b91506135a2602084016135ab565b60008060008060808587031215613b6057600080fd5b84359350613b7060208601613561565b9250604085013591506136b4606086016135ab565b600060208284031215613b9757600080fd5b5051919050565b60008060408385031215613bb157600080fd5b505080516020909101519092909150565b634e487b7160e01b600052601160045260246000fd5b600082821015613bea57613bea613bc2565b500390565b6000816000190483118215151615613c0957613c09613bc2565b500290565b600082613c2b57634e487b7160e01b600052601260045260246000fd5b500490565b60008219821115613c4357613c43613bc2565b500190565b634e487b7160e01b600052603260045260246000fd5b600181811c90821680613c7257607f821691505b60208210811415613c9357634e487b7160e01b600052602260045260246000fd5b50919050565b8054600090600181811c9080831680613cb357607f831692505b6020808410821415613cd557634e487b7160e01b600052602260045260246000fd5b83885260208801828015613cf05760018114613d0157613d2c565b60ff19871682528282019750613d2c565b60008981526020902060005b87811015613d2657815484820152908601908401613d0d565b83019850505b5050505050505092915050565b828152604060208201526000613d526040830184613c99565b949350505050565b60408101613d688285613872565b8260208301529392505050565b60006001600160501b0380831681811415613d9257613d92613bc2565b6001019392505050565b60006001600160501b0383811690831681811015613dbc57613dbc613bc2565b039392505050565b81835281816020850137506000828201602090810191909152601f909101601f19169091010190565b606081526000613e01606083018688613dc4565b60ff949094166020830152506040015292915050565b600060ff821660ff84168060ff03821115613e3457613e34613bc2565b019392505050565b600060ff821660ff811415613e5357613e53613bc2565b60010192915050565b60208152600061145b6020830184613c99565b6000808335601e19843603018112613e8657600080fd5b83018035915067ffffffffffffffff821115613ea157600080fd5b6020019150600581901b3603821315611cd457600080fd5b6000600019821415613ecd57613ecd613bc2565b5060010190565b602081526000613d52602083018486613dc4565b600066ffffffffffffff808316818516808303821115613f0a57613f0a613bc2565b0194935050505056fea2646970667358221220a906a41ab294bd1772920ea2f89288b3be011f722e02fbdcd5fd7de216c3d2f564736f6c634300080a0033",
  "linkReferences": {},
  "deployedLinkReferences": {}
}