{
  "address": "0xD119E5b528a62C38D9eD8a90F37359f3957b3Ee1",
  "abi": [
    {
      "inputs": [
        {
          "internalType": "contract IArbitrator",
          "name": "_arbitrator",
          "type": "address"
        },
        {
          "internalType": "bytes",
          "name": "_arbitratorExtraData",
          "type": "bytes"
        },
        {
          "internalType": "string",
          "name": "_metaevidenceIpfsUri",
          "type": "string"
        },
        {
          "internalType": "uint256",
          "name": "_claimWithdrawalTimelock",
          "type": "uint256"
        },
        {
          "internalType": "uint256",
          "name": "_winnerStakeMultiplier",
          "type": "uint256"
        },
        {
          "internalType": "uint256",
          "name": "_loserStakeMultiplier",
          "type": "uint256"
        }
      ],
      "stateMutability": "nonpayable",
      "type": "constructor"
    },
    {
      "anonymous": false,
      "inputs": [
        {
          "indexed": false,
          "internalType": "uint256",
          "name": "claimAddress",
          "type": "uint256"
        },
        {
          "indexed": false,
          "internalType": "uint256",
          "name": "newTotal",
          "type": "uint256"
        }
      ],
      "name": "BalanceUpdate",
      "type": "event"
    },
    {
      "anonymous": false,
      "inputs": [
        {
          "indexed": true,
          "internalType": "uint256",
          "name": "claimAddress",
          "type": "uint256"
        },
        {
          "indexed": false,
          "internalType": "address",
          "name": "challanger",
          "type": "address"
        },
        {
          "indexed": false,
          "internalType": "uint256",
          "name": "disputeID",
          "type": "uint256"
        }
      ],
      "name": "Challenge",
      "type": "event"
    },
    {
      "anonymous": false,
      "inputs": [
        {
          "indexed": true,
          "internalType": "uint256",
          "name": "claimStorageAddress",
          "type": "uint256"
        },
        {
          "indexed": true,
          "internalType": "uint256",
          "name": "round",
          "type": "uint256"
        },
        {
          "indexed": false,
          "internalType": "enum IProveMeWrong.RulingOptions",
          "name": "ruling",
          "type": "uint8"
        },
        {
          "indexed": true,
          "internalType": "address",
          "name": "contributor",
          "type": "address"
        },
        {
          "indexed": false,
          "internalType": "uint256",
          "name": "amount",
          "type": "uint256"
        }
      ],
      "name": "Contribution",
      "type": "event"
    },
    {
      "anonymous": false,
      "inputs": [
        {
          "indexed": false,
          "internalType": "uint256",
          "name": "claimAddress",
          "type": "uint256"
        }
      ],
      "name": "Debunked",
      "type": "event"
    },
    {
      "anonymous": false,
      "inputs": [
        {
          "indexed": true,
          "internalType": "contract IArbitrator",
          "name": "_arbitrator",
          "type": "address"
        },
        {
          "indexed": true,
          "internalType": "uint256",
          "name": "_disputeID",
          "type": "uint256"
        },
        {
          "indexed": false,
          "internalType": "uint256",
          "name": "_metaEvidenceID",
          "type": "uint256"
        },
        {
          "indexed": false,
          "internalType": "uint256",
          "name": "_evidenceGroupID",
          "type": "uint256"
        }
      ],
      "name": "Dispute",
      "type": "event"
    },
    {
      "anonymous": false,
      "inputs": [
        {
          "indexed": true,
          "internalType": "contract IArbitrator",
          "name": "_arbitrator",
          "type": "address"
        },
        {
          "indexed": true,
          "internalType": "uint256",
          "name": "_evidenceGroupID",
          "type": "uint256"
        },
        {
          "indexed": true,
          "internalType": "address",
          "name": "_party",
          "type": "address"
        },
        {
          "indexed": false,
          "internalType": "string",
          "name": "_evidence",
          "type": "string"
        }
      ],
      "name": "Evidence",
      "type": "event"
    },
    {
      "anonymous": false,
      "inputs": [
        {
          "indexed": true,
          "internalType": "uint256",
          "name": "_metaEvidenceID",
          "type": "uint256"
        },
        {
          "indexed": false,
          "internalType": "string",
          "name": "_evidence",
          "type": "string"
        }
      ],
      "name": "MetaEvidence",
      "type": "event"
    },
    {
      "anonymous": false,
      "inputs": [
        {
          "indexed": false,
          "internalType": "string",
          "name": "claimID",
          "type": "string"
        },
        {
          "indexed": false,
          "internalType": "uint256",
          "name": "claimAddress",
          "type": "uint256"
        }
      ],
      "name": "NewClaim",
      "type": "event"
    },
    {
      "anonymous": false,
      "inputs": [
        {
          "indexed": true,
          "internalType": "contract IArbitrator",
          "name": "_arbitrator",
          "type": "address"
        },
        {
          "indexed": true,
          "internalType": "uint256",
          "name": "_disputeID",
          "type": "uint256"
        },
        {
          "indexed": false,
          "internalType": "uint256",
          "name": "_ruling",
          "type": "uint256"
        }
      ],
      "name": "Ruling",
      "type": "event"
    },
    {
      "anonymous": false,
      "inputs": [
        {
          "indexed": true,
          "internalType": "uint256",
          "name": "claimStorageAddress",
          "type": "uint256"
        },
        {
          "indexed": true,
          "internalType": "uint256",
          "name": "round",
          "type": "uint256"
        },
        {
          "indexed": true,
          "internalType": "enum IProveMeWrong.RulingOptions",
          "name": "ruling",
          "type": "uint8"
        }
      ],
      "name": "RulingFunded",
      "type": "event"
    },
    {
      "anonymous": false,
      "inputs": [
        {
          "indexed": false,
          "internalType": "uint256",
          "name": "claimAddress",
          "type": "uint256"
        }
      ],
      "name": "TimelockStarted",
      "type": "event"
    },
    {
      "anonymous": false,
      "inputs": [
        {
          "indexed": true,
          "internalType": "uint256",
          "name": "claimStorageAddress",
          "type": "uint256"
        },
        {
          "indexed": true,
          "internalType": "uint256",
          "name": "round",
          "type": "uint256"
        },
        {
          "indexed": false,
          "internalType": "enum IProveMeWrong.RulingOptions",
          "name": "ruling",
          "type": "uint8"
        },
        {
          "indexed": true,
          "internalType": "address",
          "name": "contributor",
          "type": "address"
        },
        {
          "indexed": false,
          "internalType": "uint256",
          "name": "reward",
          "type": "uint256"
        }
      ],
      "name": "Withdrawal",
      "type": "event"
    },
    {
      "anonymous": false,
      "inputs": [
        {
          "indexed": false,
          "internalType": "uint256",
          "name": "claimAddress",
          "type": "uint256"
        }
      ],
      "name": "Withdrew",
      "type": "event"
    },
    {
      "inputs": [],
      "name": "ARBITRATOR",
      "outputs": [
        {
          "internalType": "contract IArbitrator",
          "name": "",
          "type": "address"
        }
      ],
      "stateMutability": "view",
      "type": "function"
    },
    {
      "inputs": [],
      "name": "ARBITRATOR_EXTRA_DATA",
      "outputs": [
        {
          "internalType": "bytes",
          "name": "",
          "type": "bytes"
        }
      ],
      "stateMutability": "view",
      "type": "function"
    },
    {
      "inputs": [],
      "name": "CLAIM_WITHDRAWAL_TIMELOCK",
      "outputs": [
        {
          "internalType": "uint256",
          "name": "",
          "type": "uint256"
        }
      ],
      "stateMutability": "view",
      "type": "function"
    },
    {
      "inputs": [],
      "name": "LOSER_APPEAL_PERIOD_MULTIPLIER",
      "outputs": [
        {
          "internalType": "uint256",
          "name": "",
          "type": "uint256"
        }
      ],
      "stateMutability": "view",
      "type": "function"
    },
    {
      "inputs": [],
      "name": "LOSER_STAKE_MULTIPLIER",
      "outputs": [
        {
          "internalType": "uint256",
          "name": "",
          "type": "uint256"
        }
      ],
      "stateMutability": "view",
      "type": "function"
    },
    {
      "inputs": [],
      "name": "MULTIPLIER_DENOMINATOR",
      "outputs": [
        {
          "internalType": "uint256",
          "name": "",
          "type": "uint256"
        }
      ],
      "stateMutability": "view",
      "type": "function"
    },
    {
      "inputs": [],
      "name": "NUMBER_OF_LEAST_SIGNIFICANT_BITS_TO_IGNORE",
      "outputs": [
        {
          "internalType": "uint256",
          "name": "",
          "type": "uint256"
        }
      ],
      "stateMutability": "view",
      "type": "function"
    },
    {
      "inputs": [],
      "name": "NUMBER_OF_RULING_OPTIONS",
      "outputs": [
        {
          "internalType": "uint256",
          "name": "",
          "type": "uint256"
        }
      ],
      "stateMutability": "view",
      "type": "function"
    },
    {
      "inputs": [],
      "name": "PMW_VERSION",
      "outputs": [
        {
          "internalType": "string",
          "name": "",
          "type": "string"
        }
      ],
      "stateMutability": "view",
      "type": "function"
    },
    {
      "inputs": [],
      "name": "WINNER_STAKE_MULTIPLIER",
      "outputs": [
        {
          "internalType": "uint256",
          "name": "",
          "type": "uint256"
        }
      ],
      "stateMutability": "view",
      "type": "function"
    },
    {
      "inputs": [
        {
          "internalType": "uint256",
          "name": "_disputeID",
          "type": "uint256"
        }
      ],
      "name": "appealFee",
      "outputs": [
        {
          "internalType": "uint256",
          "name": "arbitrationFee",
          "type": "uint256"
        }
      ],
      "stateMutability": "view",
      "type": "function"
    },
    {
      "inputs": [
        {
          "internalType": "uint80",
          "name": "_claimStorageAddress",
          "type": "uint80"
        }
      ],
      "name": "challenge",
      "outputs": [],
      "stateMutability": "payable",
      "type": "function"
    },
    {
      "inputs": [],
      "name": "challengeFee",
      "outputs": [
        {
          "internalType": "uint256",
          "name": "arbitrationFee",
          "type": "uint256"
        }
      ],
      "stateMutability": "view",
      "type": "function"
    },
    {
      "inputs": [
        {
          "internalType": "uint80",
          "name": "",
          "type": "uint80"
        }
      ],
      "name": "claimStorage",
      "outputs": [
        {
          "internalType": "address payable",
          "name": "owner",
          "type": "address"
        },
        {
          "internalType": "uint32",
          "name": "withdrawalPermittedAt",
          "type": "uint32"
        },
        {
          "internalType": "uint64",
          "name": "bountyAmount",
          "type": "uint64"
        }
      ],
      "stateMutability": "view",
      "type": "function"
    },
    {
      "inputs": [
        {
          "internalType": "uint80",
          "name": "_searchPointer",
          "type": "uint80"
        }
      ],
      "name": "findVacantStorageSlot",
      "outputs": [
        {
          "internalType": "uint256",
          "name": "vacantSlotIndex",
          "type": "uint256"
        }
      ],
      "stateMutability": "view",
      "type": "function"
    },
    {
      "inputs": [
        {
          "internalType": "uint256",
          "name": "_disputeID",
          "type": "uint256"
        },
        {
          "internalType": "enum IProveMeWrong.RulingOptions",
          "name": "_supportedRuling",
          "type": "uint8"
        }
      ],
      "name": "fundAppeal",
      "outputs": [
        {
          "internalType": "bool",
          "name": "fullyFunded",
          "type": "bool"
        }
      ],
      "stateMutability": "payable",
      "type": "function"
    },
    {
      "inputs": [
        {
          "internalType": "uint256",
          "name": "_disputeID",
          "type": "uint256"
        },
        {
          "internalType": "address payable",
          "name": "_contributor",
          "type": "address"
        },
        {
          "internalType": "enum IProveMeWrong.RulingOptions",
          "name": "_ruling",
          "type": "uint8"
        }
      ],
      "name": "getTotalWithdrawableAmount",
      "outputs": [
        {
          "internalType": "uint256",
          "name": "sum",
          "type": "uint256"
        }
      ],
      "stateMutability": "view",
      "type": "function"
    },
    {
      "inputs": [
        {
          "internalType": "uint80",
          "name": "_claimStorageAddress",
          "type": "uint80"
        }
      ],
      "name": "increaseBounty",
      "outputs": [],
      "stateMutability": "payable",
      "type": "function"
    },
    {
      "inputs": [
        {
          "internalType": "string",
          "name": "_claimID",
          "type": "string"
        },
        {
          "internalType": "uint80",
          "name": "_searchPointer",
          "type": "uint80"
        }
      ],
      "name": "initializeClaim",
      "outputs": [],
      "stateMutability": "payable",
      "type": "function"
    },
    {
      "inputs": [
        {
          "internalType": "uint80",
          "name": "_claimStorageAddress",
          "type": "uint80"
        }
      ],
      "name": "initiateWithdrawal",
      "outputs": [],
      "stateMutability": "nonpayable",
      "type": "function"
    },
    {
      "inputs": [
        {
          "internalType": "uint256",
          "name": "_disputeID",
          "type": "uint256"
        },
        {
          "internalType": "uint256",
          "name": "_ruling",
          "type": "uint256"
        }
      ],
      "name": "rule",
      "outputs": [],
      "stateMutability": "nonpayable",
      "type": "function"
    },
    {
      "inputs": [
        {
          "internalType": "uint256",
          "name": "_disputeID",
          "type": "uint256"
        },
        {
          "internalType": "string",
          "name": "_evidenceURI",
          "type": "string"
        }
      ],
      "name": "submitEvidence",
      "outputs": [],
      "stateMutability": "nonpayable",
      "type": "function"
    },
    {
      "inputs": [
        {
          "internalType": "uint80",
          "name": "_claimStorageAddress",
          "type": "uint80"
        },
        {
          "internalType": "address payable",
          "name": "_newOwner",
          "type": "address"
        }
      ],
      "name": "transferOwnership",
      "outputs": [],
      "stateMutability": "nonpayable",
      "type": "function"
    },
    {
      "inputs": [
        {
          "internalType": "uint80",
          "name": "_claimStorageAddress",
          "type": "uint80"
        }
      ],
      "name": "withdraw",
      "outputs": [],
      "stateMutability": "nonpayable",
      "type": "function"
    },
    {
      "inputs": [
        {
          "internalType": "uint256",
          "name": "_disputeID",
          "type": "uint256"
        },
        {
          "internalType": "address payable",
          "name": "_contributor",
          "type": "address"
        },
        {
          "internalType": "uint256",
          "name": "_roundNumber",
          "type": "uint256"
        },
        {
          "internalType": "enum IProveMeWrong.RulingOptions",
          "name": "_ruling",
          "type": "uint8"
        }
      ],
      "name": "withdrawFeesAndRewards",
      "outputs": [
        {
          "internalType": "uint256",
          "name": "amount",
          "type": "uint256"
        }
      ],
      "stateMutability": "nonpayable",
      "type": "function"
    },
    {
      "inputs": [
        {
          "internalType": "uint256",
          "name": "_disputeID",
          "type": "uint256"
        },
        {
          "internalType": "address payable",
          "name": "_contributor",
          "type": "address"
        },
        {
          "internalType": "enum IProveMeWrong.RulingOptions",
          "name": "_ruling",
          "type": "uint8"
        }
      ],
      "name": "withdrawFeesAndRewardsForAllRounds",
      "outputs": [],
      "stateMutability": "nonpayable",
      "type": "function"
    }
  ],
  "transactionHash": "0x1c157ef0e365cc3747f70c5075a8eca8162f821e5cd1ebb33050208d7e14191b",
  "args": [
    "0x6e376E049BD375b53d31AFDc21415AeD360C1E70",
    "0x00000000000000000000000000000000000000000000000000000000000000000000000000000000000000000000000000000000000000000000000000000001",
    "/ipfs/QmeK99hdTGqPJH6WiCH9g1iYaU2ZvshFHiUPmJr6557Rh8/metaEvidence.json",
    1,
    1,
    1
  ],
  "solcInputHash": "2e5108cde25b083d270c23268ee87aaa",
  "bytecode": "0x6101006040523480156200001257600080fd5b5060405162002c9338038062002c93833981016040819052620000359162000245565b60808390526001600160a01b03861660a05284516200005c906000906020880190620000b0565b5060c082905260e08190526040516000907f61606860eb6c87306811e2695215385101daab53bd6ab4e9f9049aead9363c7d906200009c90879062000303565b60405180910390a250505050505062000375565b828054620000be9062000338565b90600052602060002090601f016020900481019282620000e257600085556200012d565b82601f10620000fd57805160ff19168380011785556200012d565b828001600101855582156200012d579182015b828111156200012d57825182559160200191906001019062000110565b506200013b9291506200013f565b5090565b5b808211156200013b576000815560010162000140565b634e487b7160e01b600052604160045260246000fd5b60005b83811015620001895781810151838201526020016200016f565b8381111562000199576000848401525b50505050565b60006001600160401b0380841115620001bc57620001bc62000156565b604051601f8501601f19908116603f01168101908282118183101715620001e757620001e762000156565b816040528093508581528686860111156200020157600080fd5b620002118660208301876200016c565b5050509392505050565b600082601f8301126200022d57600080fd5b6200023e838351602085016200019f565b9392505050565b60008060008060008060c087890312156200025f57600080fd5b86516001600160a01b03811681146200027757600080fd5b60208801519096506001600160401b03808211156200029557600080fd5b818901915089601f830112620002aa57600080fd5b620002bb8a8351602085016200019f565b96506040890151915080821115620002d257600080fd5b50620002e189828a016200021b565b945050606087015192506080870151915060a087015190509295509295509295565b6020815260008251806020840152620003248160408501602087016200016c565b601f01601f19169190910160400192915050565b600181811c908216806200034d57607f821691505b602082108114156200036f57634e487b7160e01b600052602260045260246000fd5b50919050565b60805160a05160c05160e0516128896200040a6000396000818161042b01526109340152600081816104dd0152610879015260008181610323015281816106b7015281816107450152818161096b01528181610e0201528181610f9101528181611026015281816110af015281816116bf015281816117d20152611a070152600081816103f7015261197101526128896000f3fe6080604052600436106101a15760003560e01c8063956dcbd2116100e1578063bc0936fd1161008a578063dc227fc211610064578063dc227fc2146104ab578063e349ad30146104cb578063f767cada146104ff578063fe6ca7821461058a57600080fd5b8063bc0936fd1461046d578063be46760414610480578063d970d18c1461049657600080fd5b8063ae049161116100bb578063ae049161146103e5578063b34bfaa814610419578063b9caab4c1461044d57600080fd5b8063956dcbd214610385578063a6a7f0eb146103a5578063ab9cd37e146103c557600080fd5b8063342762981161014e5780636760aeb0116101285780636760aeb0146102f157806368871c9c14610311578063736ed4181461035d5780637597b3cb1461037057600080fd5b8063342762981461027357806345804aab1461029557806347f24e4b146102de57600080fd5b80631bd8f9ca1161017f5780631bd8f9ca1461021e5780631e26de3414610233578063311a6c561461025357600080fd5b806306bcbd73146101a657806312b3a2c0146101c857806315f36ebe146101f0575b600080fd5b3480156101b257600080fd5b506101c66101c13660046122af565b6105a0565b005b6101db6101d63660046122f1565b610678565b60405190151581526020015b60405180910390f35b3480156101fc57600080fd5b5061021061020b366004612314565b610ef3565b6040519081526020016101e7565b34801561022a57600080fd5b50610210610f5e565b34801561023f57600080fd5b5061021061024e36600461232f565b61100c565b34801561025f57600080fd5b506101c661026e366004612348565b6110a4565b34801561027f57600080fd5b50610288611343565b6040516101e791906123b7565b3480156102a157600080fd5b506102886040518060400160405280600581526020017f312e302e3000000000000000000000000000000000000000000000000000000081525081565b6101c66102ec366004612413565b6113d1565b3480156102fd57600080fd5b506101c661030c366004612467565b611586565b34801561031d57600080fd5b506103457f000000000000000000000000000000000000000000000000000000000000000081565b6040516001600160a01b0390911681526020016101e7565b6101c661036b366004612314565b6115cb565b34801561037c57600080fd5b50610210600281565b34801561039157600080fd5b506101c66103a0366004612314565b61186a565b3480156103b157600080fd5b506101c66103c036600461249a565b6119fa565b3480156103d157600080fd5b506101c66103e0366004612314565b611a6d565b3480156103f157600080fd5b506102107f000000000000000000000000000000000000000000000000000000000000000081565b34801561042557600080fd5b506102107f000000000000000000000000000000000000000000000000000000000000000081565b34801561045957600080fd5b50610210610468366004612467565b611c8d565b6101c661047b366004612314565b611d30565b34801561048c57600080fd5b5061021061138881565b3480156104a257600080fd5b50610210602081565b3480156104b757600080fd5b506102106104c63660046124e6565b611e73565b3480156104d757600080fd5b506102107f000000000000000000000000000000000000000000000000000000000000000081565b34801561050b57600080fd5b5061055661051a366004612314565b6001602052600090815260409020546001600160a01b03811690600160a01b810463ffffffff1690600160c01b900467ffffffffffffffff1683565b604080516001600160a01b03909416845263ffffffff909216602084015267ffffffffffffffff16908201526060016101e7565b34801561059657600080fd5b5061021061271081565b69ffffffffffffffffffff8216600090815260016020526040902080546001600160a01b0316331461063f5760405162461bcd60e51b815260206004820152602560248201527f4f6e6c7920636c61696d616e742063616e207472616e73666572206f776e657260448201527f736869702e00000000000000000000000000000000000000000000000000000060648201526084015b60405180910390fd5b80547fffffffffffffffffffffffff0000000000000000000000000000000000000000166001600160a01b039290921691909117905550565b60008281526002602052604080822090517f1c3db16d0000000000000000000000000000000000000000000000000000000081526004810185905282907f00000000000000000000000000000000000000000000000000000000000000006001600160a01b031690631c3db16d90602401602060405180830381865afa158015610706573d6000803e3d6000fd5b505050506040513d601f19601f8201168201806040525081019061072a919061252c565b600281111561073b5761073b612545565b90506000806000807f00000000000000000000000000000000000000000000000000000000000000006001600160a01b031663afe15cfb8a6040518263ffffffff1660e01b815260040161079191815260200190565b6040805180830381865afa1580156107ad573d6000803e3d6000fd5b505050506040513d601f19601f820116820180604052508101906107d1919061255b565b9150915060008560028111156107e9576107e9612545565b8960028111156107fb576107fb612545565b141561089d578142106108765760405162461bcd60e51b815260206004820152602e60248201527f46756e64696e67206d757374206265206d6164652077697468696e207468652060448201527f61707065616c20706572696f642e0000000000000000000000000000000000006064820152608401610636565b507f0000000000000000000000000000000000000000000000000000000000000000610954565b60026108a98484612595565b6108b391906125ac565b6108bd90846125ce565b42106109315760405162461bcd60e51b815260206004820152603960248201527f46756e64696e67206d757374206265206d6164652077697468696e207468652060448201527f66697273742068616c662061707065616c20706572696f642e000000000000006064820152608401610636565b507f00000000000000000000000000000000000000000000000000000000000000005b60405163791f8b7360e11b81526001600160a01b037f0000000000000000000000000000000000000000000000000000000000000000169063f23f16e6906109a3908d906000906004016126c1565b602060405180830381865afa1580156109c0573d6000803e3d6000fd5b505050506040513d601f19601f820116820180604052508101906109e4919061252c565b94506127106109f382876126e2565b6109fd91906125ac565b610a0790866125ce565b6001888101549195508a945060009350610a22925090612595565b90506000866001018281548110610a3b57610a3b612701565b90600052602060002090600402019050806001016000846002811115610a6357610a63612545565b6002811115610a7457610a74612545565b815260208101919091526040016000205460ff1615610afb5760405162461bcd60e51b815260206004820152602160248201527f41707065616c206665652068617320616c7265616479206265656e207061696460448201527f2e000000000000000000000000000000000000000000000000000000000000006064820152608401610636565b600080826002016000866002811115610b1657610b16612545565b6002811115610b2757610b27612545565b8152602001908152602001600020549050858110610b485760009150610b6c565b34610b538288612595565b11610b6757610b628187612595565b610b69565b345b91505b50336001600160a01b0316838c7f2b4ef80a862edc5616a4e61c11f4a368f33323faca91fa7635d48b85c183e66a8d85604051610baa929190612717565b60405180910390a43360009081526020839052604081208291866002811115610bd557610bd5612545565b6002811115610be657610be6612545565b81526020019081526020016000206000828254610c0391906125ce565b9250508190555080826002016000866002811115610c2357610c23612545565b6002811115610c3457610c34612545565b81526020019081526020016000206000828254610c5191906125ce565b9250508190555084826002016000866002811115610c7157610c71612545565b6002811115610c8257610c82612545565b81526020019081526020016000205410610d7057816002016000856002811115610cae57610cae612545565b6002811115610cbf57610cbf612545565b815260200190815260200160002054826003016000828254610ce191906125ce565b90915550600190508281016000866002811115610d0057610d00612545565b6002811115610d1157610d11612545565b81526020810191909152604001600020805460ff1916911515919091179055896002811115610d4257610d42612545565b60405184908d907fb5681f036910f38d8c2fa06f2cbedc227ecf03d7c4a358ee9096197b15ff8fd090600090a45b60016000818152908301602052604090205460ff168015610da357506002600090815260018301602052604090205460ff165b15610e6f576001808901805490910181556000908152600383018054889290610dcd908490612595565b90915550506040517f49912f880000000000000000000000000000000000000000000000000000000081526001600160a01b037f000000000000000000000000000000000000000000000000000000000000000016906349912f88908890610e3c908f906000906004016126c1565b6000604051808303818588803b158015610e5557600080fd5b505af1158015610e69573d6000803e3d6000fd5b50505050505b6000610e7b8234612595565b1115610ea757336108fc610e8f8334612595565b6040518115909202916000818181858888f150505050505b816001016000856002811115610ebf57610ebf612545565b6002811115610ed057610ed0612545565b815260208101919091526040016000205460ff169b9a5050505050505050505050565b6000805b6001600084610f0581612743565b69ffffffffffffffffffff919091168252602082019290925260400160002080549194509150600160c01b900467ffffffffffffffff16610ef757610f4b60018461276d565b69ffffffffffffffffffff169392505050565b6040517ff7434ea90000000000000000000000000000000000000000000000000000000081526000906001600160a01b037f0000000000000000000000000000000000000000000000000000000000000000169063f7434ea990610fc6908490600401612798565b602060405180830381865afa158015610fe3573d6000803e3d6000fd5b505050506040513d601f19601f82011682018060405250810190611007919061252c565b905090565b60405163791f8b7360e11b81526000906001600160a01b037f0000000000000000000000000000000000000000000000000000000000000000169063f23f16e69061105d90859085906004016126c1565b602060405180830381865afa15801561107a573d6000803e3d6000fd5b505050506040513d601f19601f8201168201806040525081019061109e919061252c565b92915050565b336001600160a01b037f000000000000000000000000000000000000000000000000000000000000000016146110d957600080fd5b60008281526002602052604081206001808201805492939290916110fc91612595565b8154811061110c5761110c612701565b600091825260208083206001808552600493909302019182019052604082205490925060ff161561113f5750600161115c565b60016000818152908301602052604090205460ff1661115c575060025b60008082600281111561117157611171612545565b141561118e5784600281111561118957611189612545565b611190565b815b8454909150819085907fffffffffffffffffffffff00ffffffffffffffffffffffffffffffffffffffff16600160a01b8360028111156111d2576111d2612545565b02179055508354600160b01b900469ffffffffffffffffffff166000818152600160205260409020600283600281111561120e5761120e612545565b14156112c157805477ffffffffffffffffffffffffffffffffffffffffffffffff8116825560405169ffffffffffffffffffff84168152600160c01b909104602090811b6bffffffffffffffff0000000016917f8271992f9b3a3f30dc2a464982dc4a136e7357403462443a171a0fb0c6ccc265910160405180910390a16000898152600260205260408082205490516001600160a01b039091169183156108fc02918491818181858888f15050505050505b805463ffffffff60a01b1916815585547fffffffffffffffffffff00ffffffffffffffffffffffffffffffffffffffffff16600160a81b178655604051889033907f394027a5fa6e098a1191094d1719d6929b9abc535fcc0c8f448d6a4e7562227690611331908b815260200190565b60405180910390a35050505050505050565b60008054611350906125e6565b80601f016020809104026020016040519081016040528092919081815260200182805461137c906125e6565b80156113c95780601f1061139e576101008083540402835291602001916113c9565b820191906000526020600020905b8154815290600101906020018083116113ac57829003601f168201915b505050505081565b60005b60016000836113e281612743565b69ffffffffffffffffffff919091168252602082019290925260400160002080549193509150600160c01b900467ffffffffffffffff166113d457805463ffffffff60a01b163377ffffffffffffffffffffffffffffffffffffffffffffffff1617600160c01b3460201c67ffffffffffffffff90811682029290921780845504166114d65760405162461bcd60e51b815260206004820152603660248201527f596f752063616e277420696e697469616c697a65206120636c61696d2077697460448201527f686f75742070757474696e67206120626f756e74792e000000000000000000006064820152608401610636565b60006114e360018461276d565b69ffffffffffffffffffff1690507fe75a0683a8145275454285bac9e146f3f7bf8bb9924266d336adb2b57afc5e97858583604051611524939291906127d4565b60405180910390a1815460408051838152600160c01b909204602090811b6bffffffffffffffff0000000016908301527fdf5fc410d3381cc7f0a7fe3af72f4e3cf53ef5787f20554af69035a950e1b2e3910160405180910390a15050505050565b6000838152600260205260408120600181015490915b818110156115c3576115b086868387611e73565b50806115bb816127f8565b91505061159c565b505050505050565b69ffffffffffffffffffff811660009081526001602052604090208054600160a01b900463ffffffff90811614156116455760405162461bcd60e51b815260206004820152601e60248201527f546865726520697320616e206f6e676f696e67206368616c6c656e67652e00006044820152606401610636565b805463ffffffff60a01b191663ffffffff60a01b1780825567ffffffffffffffff600160c01b909104166116bb5760405162461bcd60e51b815260206004820152601560248201527f4e6f7468696e6720746f206368616c6c656e67652e00000000000000000000006044820152606401610636565b60007f00000000000000000000000000000000000000000000000000000000000000006001600160a01b031663c13517e134600260006040518463ffffffff1660e01b815260040161170e9291906126c1565b60206040518083038185885af115801561172c573d6000803e3d6000fd5b50505050506040513d601f19601f82011682018060405250810190611751919061252c565b6000818152600260209081526040808320805460018083018054909101905575ffff0000000000000000000000000000000000000000163375ffffffffffffffffffffffffffffffffffffffffffff1617600160b01b69ffffffffffffffffffff8a1602179055805192835290820183905291925082916001600160a01b037f000000000000000000000000000000000000000000000000000000000000000016917f74baab670a4015ab2f1b467c5252a96141a2573f2908e58a92081e80d3cfde3d910160405180910390a3604080513381526020810183905269ffffffffffffffffffff8516917f1e5338a1fb672aa84963dc9f9e4afd009b4ed726debb09224bf4d02a6c68b4e4910160405180910390a2505050565b69ffffffffffffffffffff8116600090815260016020526040902080546001600160a01b031633146118ea5760405162461bcd60e51b815260206004820152602360248201527f4f6e6c7920636c61696d616e742063616e207769746864726177206120636c6160448201526234b69760e91b6064820152608401610636565b8054600160a01b900463ffffffff161561196c5760405162461bcd60e51b815260206004820152603560248201527f5769746864726177616c20616c726561647920696e69746961746564206f722060448201527f74686572652069732061206368616c6c656e67652e00000000000000000000006064820152608401610636565b6119967f0000000000000000000000000000000000000000000000000000000000000000426125ce565b815463ffffffff91909116600160a01b0263ffffffff60a01b1990911617815560405169ffffffffffffffffffff831681527f416c1ad2b96c356f3bbd35431f86cce449ddbb4f8c3755ea9d2776b04c2e9c8f906020015b60405180910390a15050565b336001600160a01b0316837f00000000000000000000000000000000000000000000000000000000000000006001600160a01b03167fdccf2f8b2cc26eafcd61905cba744cff4b81d14740725f6376390dc6298a6a3c8585604051611a60929190612813565b60405180910390a4505050565b69ffffffffffffffffffff8116600090815260016020526040902080546001600160a01b03163314611aed5760405162461bcd60e51b815260206004820152602360248201527f4f6e6c7920636c61696d616e742063616e207769746864726177206120636c6160448201526234b69760e91b6064820152608401610636565b8054600160a01b900463ffffffff16611b6e5760405162461bcd60e51b815260206004820152602660248201527f596f75206e65656420746f20696e697469617465207769746864726177616c2060448201527f66697273742e00000000000000000000000000000000000000000000000000006064820152608401610636565b805442600160a01b90910463ffffffff161115611bf35760405162461bcd60e51b815260206004820152603f60248201527f596f75206e65656420746f207761697420666f722074696d656c6f636b206f7260448201527f207761697420756e74696c20746865206368616c6c656e676520656e64732e006064820152608401610636565b80546001600160a01b0381168255604051600160c01b90910460201b6bffffffffffffffff00000000169033906108fc8315029083906000818181858888f19350505050158015611c48573d6000803e3d6000fd5b5060405169ffffffffffffffffffff841681527fb6b476da71cea8275cac6b1720c04966afaff5e637472cedb6cbd32c43a232519060200160405180910390a1505050565b60008381526002602052604081208054600160a81b900460ff16611cb5576000915050611d29565b60018101548154600160a01b900460ff1660005b82811015611d24576000846001018281548110611ce857611ce8612701565b90600052602060002090600402019050611d0481898986611fec565b611d0e90876125ce565b9550508080611d1c906127f8565b915050611cc9565b505050505b9392505050565b69ffffffffffffffffffff8116600090815260016020526040902080546001600160a01b03163314611dca5760405162461bcd60e51b815260206004820152602d60248201527f4f6e6c7920636c61696d616e742063616e20696e63726561736520626f756e7460448201527f79206f66206120636c61696d2e000000000000000000000000000000000000006064820152608401610636565b80543460201c908290601890611df2908490600160c01b900467ffffffffffffffff16612827565b82546101009290920a67ffffffffffffffff8181021990931691909216919091021790555080546040805169ffffffffffffffffffff85168152600160c01b909204602090811b6bffffffffffffffff0000000016908301527fdf5fc410d3381cc7f0a7fe3af72f4e3cf53ef5787f20554af69035a950e1b2e391016119ee565b60008481526002602052604081208054600160a81b900460ff16611ed95760405162461bcd60e51b815260206004820152601760248201527f5468657265206973206e6f2072756c696e67207965742e0000000000000000006044820152606401610636565b6000816001018581548110611ef057611ef0612701565b90600052602060002090600402019050611f1d8187868560000160149054906101000a900460ff16611fec565b92508215611fe2576001600160a01b038616600090815260208290526040812081866002811115611f5057611f50612545565b6002811115611f6157611f61612545565b815260200190815260200160002081905550856001600160a01b03166108fc849081150290604051600060405180830381858888f1935050505050856001600160a01b031685887fff2b7c936d6023fea901b3455cefc23b124c1ca5997dc5b48c461fd20984289d8787604051611fd9929190612717565b60405180910390a45b5050949350505050565b600082600186018282600281111561200657612006612545565b600281111561201757612017612545565b815260208101919091526040016000205460ff16612081576001600160a01b03851660009081526020879052604081209082600281111561205a5761205a612545565b600281111561206b5761206b612545565b8152602001908152602001600020549150612270565b82600281111561209357612093612545565b8460028111156120a5576120a5612545565b14156121a45760008660020160008360028111156120c5576120c5612545565b60028111156120d6576120d6612545565b815260200190815260200160002054116120f157600061219d565b85600201600082600281111561210957612109612545565b600281111561211a5761211a612545565b8152602001908152602001600020548660030154876000016000886001600160a01b03166001600160a01b03168152602001908152602001600020600084600281111561216957612169612545565b600281111561217a5761217a612545565b81526020019081526020016000205461219391906126e2565b61219d91906125ac565b9150612270565b8560010160008460028111156121bc576121bc612545565b60028111156121cd576121cd612545565b815260208101919091526040016000205460ff1661227057600260008181529087016020526040808220546001835291205461220991906125ce565b60038701546001600160a01b03871660009081526020899052604081209084600281111561223957612239612545565b600281111561224a5761224a612545565b81526020019081526020016000205461226391906126e2565b61226d91906125ac565b91505b50949350505050565b803569ffffffffffffffffffff8116811461229357600080fd5b919050565b80356001600160a01b038116811461229357600080fd5b600080604083850312156122c257600080fd5b6122cb83612279565b91506122d960208401612298565b90509250929050565b80356003811061229357600080fd5b6000806040838503121561230457600080fd5b823591506122d9602084016122e2565b60006020828403121561232657600080fd5b611d2982612279565b60006020828403121561234157600080fd5b5035919050565b6000806040838503121561235b57600080fd5b50508035926020909101359150565b6000815180845260005b8181101561239057602081850181015186830182015201612374565b818111156123a2576000602083870101525b50601f01601f19169290920160200192915050565b602081526000611d29602083018461236a565b60008083601f8401126123dc57600080fd5b50813567ffffffffffffffff8111156123f457600080fd5b60208301915083602082850101111561240c57600080fd5b9250929050565b60008060006040848603121561242857600080fd5b833567ffffffffffffffff81111561243f57600080fd5b61244b868287016123ca565b909450925061245e905060208501612279565b90509250925092565b60008060006060848603121561247c57600080fd5b8335925061248c60208501612298565b915061245e604085016122e2565b6000806000604084860312156124af57600080fd5b83359250602084013567ffffffffffffffff8111156124cd57600080fd5b6124d9868287016123ca565b9497909650939450505050565b600080600080608085870312156124fc57600080fd5b8435935061250c60208601612298565b925060408501359150612521606086016122e2565b905092959194509250565b60006020828403121561253e57600080fd5b5051919050565b634e487b7160e01b600052602160045260246000fd5b6000806040838503121561256e57600080fd5b505080516020909101519092909150565b634e487b7160e01b600052601160045260246000fd5b6000828210156125a7576125a761257f565b500390565b6000826125c957634e487b7160e01b600052601260045260246000fd5b500490565b600082198211156125e1576125e161257f565b500190565b600181811c908216806125fa57607f821691505b6020821081141561261b57634e487b7160e01b600052602260045260246000fd5b50919050565b8054600090600181811c908083168061263b57607f831692505b602080841082141561265d57634e487b7160e01b600052602260045260246000fd5b838852602088018280156126785760018114612689576126b4565b60ff198716825282820197506126b4565b60008981526020902060005b878110156126ae57815484820152908601908401612695565b83019850505b5050505050505092915050565b8281526040602082015260006126da6040830184612621565b949350505050565b60008160001904831182151516156126fc576126fc61257f565b500290565b634e487b7160e01b600052603260045260246000fd5b604081016003841061273957634e487b7160e01b600052602160045260246000fd5b9281526020015290565b600069ffffffffffffffffffff808316818114156127635761276361257f565b6001019392505050565b600069ffffffffffffffffffff838116908316818110156127905761279061257f565b039392505050565b602081526000611d296020830184612621565b81835281816020850137506000828201602090810191909152601f909101601f19169091010190565b6040815260006127e86040830185876127ab565b9050826020830152949350505050565b600060001982141561280c5761280c61257f565b5060010190565b6020815260006126da6020830184866127ab565b600067ffffffffffffffff80831681851680830382111561284a5761284a61257f565b0194935050505056fea2646970667358221220ab9d3a397cef1a86deb81d04d179753af40047f5d57daa31fe303e172521f82b64736f6c634300080a0033",
  "devdoc": {
    "details": "Claims are not addressed with their identifiers. That enables us to reuse same storage address for another claim later. Arbitrator and the extra data is fixed. Also the metaevidence. Deploy another contract to change them. We prevent claims to get withdrawn immediately. This is to prevent submitter to escape punishment in case someone discovers an argument to debunk the claim. Bounty amounts are compressed with a lossy compression method to save on storage cost.",
    "kind": "dev",
    "methods": {
      "challenge(uint80)": {
        "details": "withdrawalPermittedAt has some special values: 0 indicates withdrawal possible but process not started yet, max value indicates there is a challenge and during challenge it's forbidden to start another challenge.",
        "params": {
          "_claimStorageAddress": "The address of the claim in the storage."
        }
      },
      "fundAppeal(uint256,uint8)": {
        "params": {
          "_disputeID": "The dispute ID as in the arbitrator.",
          "_supportedRuling": "The supported ruling in this funding."
        }
      },
      "increaseBounty(uint80)": {
        "params": {
          "_claimStorageAddress": "The address of the claim in the storage."
        }
      },
      "initializeClaim(string,uint80)": {
        "params": {
          "_claimID": "Unique identifier of a claim. Usually an IPFS content identifier.",
          "_searchPointer": "Starting point of the search. Find a vacant storage slot before calling this function to minimize gas cost."
        }
      },
      "initiateWithdrawal(uint80)": {
        "details": "withdrawalPermittedAt has some special values: 0 indicates withdrawal possible but process not started yet, max value indicates there is a challenge and during challenge it's forbidden to start withdrawal process.",
        "params": {
          "_claimStorageAddress": "The address of the claim in the storage."
        }
      },
      "rule(uint256,uint256)": {
        "params": {
          "_disputeID": "The dispute ID as in the arbitrator.",
          "_ruling": "The ruling that arbitrator gave."
        }
      },
      "submitEvidence(uint256,string)": {
        "params": {
          "_disputeID": "Dispute ID as in arbitrator.",
          "_evidenceURI": "IPFS content identifier of the evidence."
        }
      },
      "withdraw(uint80)": {
        "details": "withdrawalPermittedAt has some special values: 0 indicates withdrawal possible but process not started yet, max value indicates there is a challenge and during challenge it's forbidden to start withdrawal process.",
        "params": {
          "_claimStorageAddress": "The address of the claim in the storage."
        }
      },
      "withdrawFeesAndRewards(uint256,address,uint256,uint8)": {
        "params": {
          "_contributor": "The address whose rewards to withdraw.",
          "_disputeID": "ID of the dispute as in arbitrator.",
          "_roundNumber": "The number of the round caller wants to withdraw from.",
          "_ruling": "Ruling that received contribution from contributor."
        },
        "returns": {
          "amount": "The amount available to withdraw for given question, contributor, round number and ruling option."
        }
      },
      "withdrawFeesAndRewardsForAllRounds(uint256,address,uint8)": {
        "params": {
          "_contributor": "The address whose rewards to withdraw.",
          "_disputeID": "ID of the dispute as in arbitrator.",
          "_ruling": "Ruling that received contributions from contributor."
        }
      }
    },
    "title": "Prove Me Wrong",
    "version": 1
  },
  "userdoc": {
    "kind": "user",
    "methods": {
      "appealFee(uint256)": {
        "notice": "Returns the total amount needs to be paid to appeal a dispute."
      },
      "challenge(uint80)": {
        "notice": "Challenges the claim at the given storage address. Follow events to find out which claim resides in which slot."
      },
      "challengeFee()": {
        "notice": "Returns the total amount needs to be paid to challenge a claim."
      },
      "findVacantStorageSlot(uint80)": {
        "notice": "Helper function to find a vacant slot for claim. Use this function before calling initialize to minimize your gas cost."
      },
      "fundAppeal(uint256,uint8)": {
        "notice": "Lets you fund a crowdfunded appeal. In case of funding is incomplete, you will be refunded. Withdrawal will be carried out using withdrawFeesAndRewards function."
      },
      "getTotalWithdrawableAmount(uint256,address,uint8)": {
        "notice": "Returns the sum of withdrawable amount. This function has O(m) time complexity where m is number of rounds. It is safe to assume m is always less than 10 as appeal cost growth order is O(m^2)."
      },
      "increaseBounty(uint80)": {
        "notice": "Lets you increase a bounty of a live claim."
      },
      "initializeClaim(string,uint80)": {
        "notice": "Initializes a claim."
      },
      "initiateWithdrawal(uint80)": {
        "notice": "Lets a claimant to start withdrawal process."
      },
      "rule(uint256,uint256)": {
        "notice": "For arbitrator to call, to execute it's ruling. In case arbitrator rules in favor of challenger, challenger wins the bounty. In any case, withdrawalPermittedAt will be reset."
      },
      "submitEvidence(uint256,string)": {
        "notice": "Lets you submit evidence as defined in evidence (ERC-1497) standard."
      },
      "transferOwnership(uint80,address)": {
        "notice": "Lets you to transfer ownership of a claim. This is useful when you want to change owner account without withdrawing and resubmitting."
      },
      "withdraw(uint80)": {
        "notice": "Executes a withdrawal. Can only be executed by claimant."
      },
      "withdrawFeesAndRewards(uint256,address,uint256,uint8)": {
        "notice": "Allows to withdraw any reimbursable fees or rewards after the dispute gets solved."
      },
      "withdrawFeesAndRewardsForAllRounds(uint256,address,uint8)": {
        "notice": "Allows to withdraw any rewards or reimbursable fees after the dispute gets resolved. For all rounds at once. This function has O(m) time complexity where m is number of rounds. It is safe to assume m is always less than 10 as appeal cost growth order is O(2^m)."
      }
    },
    "notice": "Smart contract for a type of curation, where submitted items are on hold until they are withdrawn and the amount of security deposits are determined by submitters.",
    "version": 1
  },
  "storageLayout": {
    "storage": [
      {
        "astId": 568,
        "contract": "contracts/ProveMeWrong.sol:ProveMeWrong",
        "label": "ARBITRATOR_EXTRA_DATA",
        "offset": 0,
        "slot": "0",
        "type": "t_bytes_storage"
      },
      {
        "astId": 573,
        "contract": "contracts/ProveMeWrong.sol:ProveMeWrong",
        "label": "claimStorage",
        "offset": 0,
        "slot": "1",
        "type": "t_mapping(t_uint80,t_struct(Claim)566_storage)"
      },
      {
        "astId": 578,
        "contract": "contracts/ProveMeWrong.sol:ProveMeWrong",
        "label": "disputes",
        "offset": 0,
        "slot": "2",
        "type": "t_mapping(t_uint256,t_struct(DisputeData)539_storage)"
      }
    ],
    "types": {
      "t_address": {
        "encoding": "inplace",
        "label": "address",
        "numberOfBytes": "20"
      },
      "t_address_payable": {
        "encoding": "inplace",
        "label": "address payable",
        "numberOfBytes": "20"
      },
      "t_array(t_struct(Round)559_storage)dyn_storage": {
        "base": "t_struct(Round)559_storage",
        "encoding": "dynamic_array",
        "label": "struct ProveMeWrong.Round[]",
        "numberOfBytes": "32"
      },
      "t_bool": {
        "encoding": "inplace",
        "label": "bool",
        "numberOfBytes": "1"
      },
      "t_bytes_storage": {
        "encoding": "bytes",
        "label": "bytes",
        "numberOfBytes": "32"
      },
      "t_enum(RulingOptions)295": {
        "encoding": "inplace",
        "label": "enum IProveMeWrong.RulingOptions",
        "numberOfBytes": "1"
      },
      "t_mapping(t_address,t_mapping(t_enum(RulingOptions)295,t_uint256))": {
        "encoding": "mapping",
        "key": "t_address",
        "label": "mapping(address => mapping(enum IProveMeWrong.RulingOptions => uint256))",
        "numberOfBytes": "32",
        "value": "t_mapping(t_enum(RulingOptions)295,t_uint256)"
      },
      "t_mapping(t_enum(RulingOptions)295,t_bool)": {
        "encoding": "mapping",
        "key": "t_enum(RulingOptions)295",
        "label": "mapping(enum IProveMeWrong.RulingOptions => bool)",
        "numberOfBytes": "32",
        "value": "t_bool"
      },
      "t_mapping(t_enum(RulingOptions)295,t_uint256)": {
        "encoding": "mapping",
        "key": "t_enum(RulingOptions)295",
        "label": "mapping(enum IProveMeWrong.RulingOptions => uint256)",
        "numberOfBytes": "32",
        "value": "t_uint256"
      },
      "t_mapping(t_uint256,t_struct(DisputeData)539_storage)": {
        "encoding": "mapping",
        "key": "t_uint256",
        "label": "mapping(uint256 => struct ProveMeWrong.DisputeData)",
        "numberOfBytes": "32",
        "value": "t_struct(DisputeData)539_storage"
      },
      "t_mapping(t_uint80,t_struct(Claim)566_storage)": {
        "encoding": "mapping",
        "key": "t_uint80",
        "label": "mapping(uint80 => struct ProveMeWrong.Claim)",
        "numberOfBytes": "32",
        "value": "t_struct(Claim)566_storage"
      },
      "t_struct(Claim)566_storage": {
        "encoding": "inplace",
        "label": "struct ProveMeWrong.Claim",
        "members": [
          {
            "astId": 561,
            "contract": "contracts/ProveMeWrong.sol:ProveMeWrong",
            "label": "owner",
            "offset": 0,
            "slot": "0",
            "type": "t_address_payable"
          },
          {
            "astId": 563,
            "contract": "contracts/ProveMeWrong.sol:ProveMeWrong",
            "label": "withdrawalPermittedAt",
            "offset": 20,
            "slot": "0",
            "type": "t_uint32"
          },
          {
            "astId": 565,
            "contract": "contracts/ProveMeWrong.sol:ProveMeWrong",
            "label": "bountyAmount",
            "offset": 24,
            "slot": "0",
            "type": "t_uint64"
          }
        ],
        "numberOfBytes": "32"
      },
      "t_struct(DisputeData)539_storage": {
        "encoding": "inplace",
        "label": "struct ProveMeWrong.DisputeData",
        "members": [
          {
            "astId": 527,
            "contract": "contracts/ProveMeWrong.sol:ProveMeWrong",
            "label": "challenger",
            "offset": 0,
            "slot": "0",
            "type": "t_address_payable"
          },
          {
            "astId": 530,
            "contract": "contracts/ProveMeWrong.sol:ProveMeWrong",
            "label": "outcome",
            "offset": 20,
            "slot": "0",
            "type": "t_enum(RulingOptions)295"
          },
          {
            "astId": 532,
            "contract": "contracts/ProveMeWrong.sol:ProveMeWrong",
            "label": "resolved",
            "offset": 21,
            "slot": "0",
            "type": "t_bool"
          },
          {
            "astId": 534,
            "contract": "contracts/ProveMeWrong.sol:ProveMeWrong",
            "label": "claimStorageAddress",
            "offset": 22,
            "slot": "0",
            "type": "t_uint80"
          },
          {
            "astId": 538,
            "contract": "contracts/ProveMeWrong.sol:ProveMeWrong",
            "label": "rounds",
            "offset": 0,
            "slot": "1",
            "type": "t_array(t_struct(Round)559_storage)dyn_storage"
          }
        ],
        "numberOfBytes": "64"
      },
      "t_struct(Round)559_storage": {
        "encoding": "inplace",
        "label": "struct ProveMeWrong.Round",
        "members": [
          {
            "astId": 546,
            "contract": "contracts/ProveMeWrong.sol:ProveMeWrong",
            "label": "contributions",
            "offset": 0,
            "slot": "0",
            "type": "t_mapping(t_address,t_mapping(t_enum(RulingOptions)295,t_uint256))"
          },
          {
            "astId": 551,
            "contract": "contracts/ProveMeWrong.sol:ProveMeWrong",
            "label": "hasPaid",
            "offset": 0,
            "slot": "1",
            "type": "t_mapping(t_enum(RulingOptions)295,t_bool)"
          },
          {
            "astId": 556,
            "contract": "contracts/ProveMeWrong.sol:ProveMeWrong",
            "label": "totalPerRuling",
            "offset": 0,
            "slot": "2",
            "type": "t_mapping(t_enum(RulingOptions)295,t_uint256)"
          },
          {
            "astId": 558,
            "contract": "contracts/ProveMeWrong.sol:ProveMeWrong",
            "label": "totalClaimableAfterExpenses",
            "offset": 0,
            "slot": "3",
            "type": "t_uint256"
          }
        ],
        "numberOfBytes": "128"
      },
      "t_uint256": {
        "encoding": "inplace",
        "label": "uint256",
        "numberOfBytes": "32"
      },
      "t_uint32": {
        "encoding": "inplace",
        "label": "uint32",
        "numberOfBytes": "4"
      },
      "t_uint64": {
        "encoding": "inplace",
        "label": "uint64",
        "numberOfBytes": "8"
      },
      "t_uint80": {
        "encoding": "inplace",
        "label": "uint80",
        "numberOfBytes": "10"
      }
    }
  }
}