{
  "address": "0xA5002f1f0D0f7c4477d11137f9dDc0F1cEE38Ed3",
  "abi": [
    {
      "inputs": [
        {
          "internalType": "contract IArbitrator",
          "name": "_arbitrator",
          "type": "address"
        },
        {
          "internalType": "bytes",
          "name": "_arbitratorExtraData",
          "type": "bytes"
        },
        {
          "internalType": "string",
          "name": "_metaevidenceIpfsUri",
          "type": "string"
        },
        {
          "internalType": "uint256",
          "name": "_articleWithdrawalTimelock",
          "type": "uint256"
        },
        {
          "internalType": "uint256",
          "name": "_winnerStakeMultiplier",
          "type": "uint256"
        },
        {
          "internalType": "uint256",
          "name": "_loserStakeMultiplier",
          "type": "uint256"
        }
      ],
      "stateMutability": "nonpayable",
      "type": "constructor"
    },
    {
      "anonymous": false,
      "inputs": [
        {
          "indexed": false,
          "internalType": "uint256",
          "name": "articleAddress",
          "type": "uint256"
        }
      ],
      "name": "ArticleWithdrawn",
      "type": "event"
    },
    {
      "anonymous": false,
      "inputs": [
        {
          "indexed": false,
          "internalType": "uint256",
          "name": "articleAddress",
          "type": "uint256"
        },
        {
          "indexed": false,
          "internalType": "uint256",
          "name": "newTotal",
          "type": "uint256"
        }
      ],
      "name": "BalanceUpdate",
      "type": "event"
    },
    {
      "anonymous": false,
      "inputs": [
        {
          "indexed": true,
          "internalType": "uint256",
          "name": "articleAddress",
          "type": "uint256"
        },
        {
          "indexed": false,
          "internalType": "address",
          "name": "challanger",
          "type": "address"
        },
        {
          "indexed": false,
          "internalType": "uint256",
          "name": "disputeID",
          "type": "uint256"
        }
      ],
      "name": "Challenge",
      "type": "event"
    },
    {
      "anonymous": false,
      "inputs": [
        {
          "indexed": true,
          "internalType": "uint256",
          "name": "disputeId",
          "type": "uint256"
        },
        {
          "indexed": true,
          "internalType": "uint256",
          "name": "round",
          "type": "uint256"
        },
        {
          "indexed": false,
          "internalType": "enum ITruthPost.RulingOptions",
          "name": "ruling",
          "type": "uint8"
        },
        {
          "indexed": true,
          "internalType": "address",
          "name": "contributor",
          "type": "address"
        },
        {
          "indexed": false,
          "internalType": "uint256",
          "name": "amount",
          "type": "uint256"
        }
      ],
      "name": "Contribution",
      "type": "event"
    },
    {
      "anonymous": false,
      "inputs": [
        {
          "indexed": false,
          "internalType": "uint256",
          "name": "articleAddress",
          "type": "uint256"
        }
      ],
      "name": "Debunked",
      "type": "event"
    },
    {
      "anonymous": false,
      "inputs": [
        {
          "indexed": true,
          "internalType": "contract IArbitrator",
          "name": "_arbitrator",
          "type": "address"
        },
        {
          "indexed": true,
          "internalType": "uint256",
          "name": "_disputeID",
          "type": "uint256"
        },
        {
          "indexed": false,
          "internalType": "uint256",
          "name": "_metaEvidenceID",
          "type": "uint256"
        },
        {
          "indexed": false,
          "internalType": "uint256",
          "name": "_evidenceGroupID",
          "type": "uint256"
        }
      ],
      "name": "Dispute",
      "type": "event"
    },
    {
      "anonymous": false,
      "inputs": [
        {
          "indexed": true,
          "internalType": "contract IArbitrator",
          "name": "_arbitrator",
          "type": "address"
        },
        {
          "indexed": true,
          "internalType": "uint256",
          "name": "_evidenceGroupID",
          "type": "uint256"
        },
        {
          "indexed": true,
          "internalType": "address",
          "name": "_party",
          "type": "address"
        },
        {
          "indexed": false,
          "internalType": "string",
          "name": "_evidence",
          "type": "string"
        }
      ],
      "name": "Evidence",
      "type": "event"
    },
    {
      "anonymous": false,
      "inputs": [
        {
          "indexed": true,
          "internalType": "uint256",
          "name": "_metaEvidenceID",
          "type": "uint256"
        },
        {
          "indexed": false,
          "internalType": "string",
          "name": "_evidence",
          "type": "string"
        }
      ],
      "name": "MetaEvidence",
      "type": "event"
    },
    {
      "anonymous": false,
      "inputs": [
        {
          "indexed": false,
          "internalType": "string",
          "name": "articleID",
          "type": "string"
        },
        {
          "indexed": false,
          "internalType": "uint8",
          "name": "category",
          "type": "uint8"
        },
        {
          "indexed": false,
          "internalType": "uint256",
          "name": "articleAddress",
          "type": "uint256"
        }
      ],
      "name": "NewArticle",
      "type": "event"
    },
    {
      "anonymous": false,
      "inputs": [
        {
          "indexed": true,
          "internalType": "contract IArbitrator",
          "name": "_arbitrator",
          "type": "address"
        },
        {
          "indexed": true,
          "internalType": "uint256",
          "name": "_disputeID",
          "type": "uint256"
        },
        {
          "indexed": false,
          "internalType": "uint256",
          "name": "_ruling",
          "type": "uint256"
        }
      ],
      "name": "Ruling",
      "type": "event"
    },
    {
      "anonymous": false,
      "inputs": [
        {
          "indexed": true,
          "internalType": "uint256",
          "name": "disputeId",
          "type": "uint256"
        },
        {
          "indexed": true,
          "internalType": "uint256",
          "name": "round",
          "type": "uint256"
        },
        {
          "indexed": true,
          "internalType": "enum ITruthPost.RulingOptions",
          "name": "ruling",
          "type": "uint8"
        }
      ],
      "name": "RulingFunded",
      "type": "event"
    },
    {
      "anonymous": false,
      "inputs": [
        {
          "indexed": false,
          "internalType": "uint256",
          "name": "articleAddress",
          "type": "uint256"
        }
      ],
      "name": "TimelockStarted",
      "type": "event"
    },
    {
      "anonymous": false,
      "inputs": [
        {
          "indexed": true,
          "internalType": "uint256",
          "name": "disputeId",
          "type": "uint256"
        },
        {
          "indexed": true,
          "internalType": "uint256",
          "name": "round",
          "type": "uint256"
        },
        {
          "indexed": false,
          "internalType": "enum ITruthPost.RulingOptions",
          "name": "ruling",
          "type": "uint8"
        },
        {
          "indexed": true,
          "internalType": "address",
          "name": "contributor",
          "type": "address"
        },
        {
          "indexed": false,
          "internalType": "uint256",
          "name": "reward",
          "type": "uint256"
        }
      ],
      "name": "Withdrawal",
      "type": "event"
    },
    {
      "inputs": [],
      "name": "ARBITRATOR",
      "outputs": [
        {
          "internalType": "contract IArbitrator",
          "name": "",
          "type": "address"
        }
      ],
      "stateMutability": "view",
      "type": "function"
    },
    {
      "inputs": [],
      "name": "ARTICLE_WITHDRAWAL_TIMELOCK",
      "outputs": [
        {
          "internalType": "uint256",
          "name": "",
          "type": "uint256"
        }
      ],
      "stateMutability": "view",
      "type": "function"
    },
    {
      "inputs": [],
      "name": "LOSER_APPEAL_PERIOD_MULTIPLIER",
      "outputs": [
        {
          "internalType": "uint256",
          "name": "",
          "type": "uint256"
        }
      ],
      "stateMutability": "view",
      "type": "function"
    },
    {
      "inputs": [],
      "name": "LOSER_STAKE_MULTIPLIER",
      "outputs": [
        {
          "internalType": "uint256",
          "name": "",
          "type": "uint256"
        }
      ],
      "stateMutability": "view",
      "type": "function"
    },
    {
      "inputs": [],
      "name": "MULTIPLIER_DENOMINATOR",
      "outputs": [
        {
          "internalType": "uint256",
          "name": "",
          "type": "uint256"
        }
      ],
      "stateMutability": "view",
      "type": "function"
    },
    {
      "inputs": [],
      "name": "NUMBER_OF_LEAST_SIGNIFICANT_BITS_TO_IGNORE",
      "outputs": [
        {
          "internalType": "uint256",
          "name": "",
          "type": "uint256"
        }
      ],
      "stateMutability": "view",
      "type": "function"
    },
    {
      "inputs": [],
      "name": "NUMBER_OF_RULING_OPTIONS",
      "outputs": [
        {
          "internalType": "uint256",
          "name": "",
          "type": "uint256"
        }
      ],
      "stateMutability": "view",
      "type": "function"
    },
    {
      "inputs": [],
      "name": "VERSION",
      "outputs": [
        {
          "internalType": "string",
          "name": "",
          "type": "string"
        }
      ],
      "stateMutability": "view",
      "type": "function"
    },
    {
      "inputs": [],
      "name": "WINNER_STAKE_MULTIPLIER",
      "outputs": [
        {
          "internalType": "uint256",
          "name": "",
          "type": "uint256"
        }
      ],
      "stateMutability": "view",
      "type": "function"
    },
    {
      "inputs": [],
      "name": "admin",
      "outputs": [
        {
          "internalType": "address payable",
          "name": "",
          "type": "address"
        }
      ],
      "stateMutability": "view",
      "type": "function"
    },
    {
      "inputs": [
        {
          "internalType": "uint256",
          "name": "_disputeID",
          "type": "uint256"
        }
      ],
      "name": "appealFee",
      "outputs": [
        {
          "internalType": "uint256",
          "name": "arbitrationFee",
          "type": "uint256"
        }
      ],
      "stateMutability": "view",
      "type": "function"
    },
    {
      "inputs": [
        {
          "internalType": "uint80",
          "name": "",
          "type": "uint80"
        }
      ],
      "name": "articleStorage",
      "outputs": [
        {
          "internalType": "address payable",
          "name": "owner",
          "type": "address"
        },
        {
          "internalType": "uint32",
          "name": "withdrawalPermittedAt",
          "type": "uint32"
        },
        {
          "internalType": "uint56",
          "name": "bountyAmount",
          "type": "uint56"
        },
        {
          "internalType": "uint8",
          "name": "category",
          "type": "uint8"
        }
      ],
      "stateMutability": "view",
      "type": "function"
    },
    {
      "inputs": [],
      "name": "buyAndBurn",
      "outputs": [],
      "stateMutability": "nonpayable",
      "type": "function"
    },
    {
      "inputs": [],
      "name": "categoryCounter",
      "outputs": [
        {
          "internalType": "uint8",
          "name": "",
          "type": "uint8"
        }
      ],
      "stateMutability": "view",
      "type": "function"
    },
    {
      "inputs": [
        {
          "internalType": "uint256",
          "name": "",
          "type": "uint256"
        }
      ],
      "name": "categoryToArbitratorExtraData",
      "outputs": [
        {
          "internalType": "bytes",
          "name": "",
          "type": "bytes"
        }
      ],
      "stateMutability": "view",
      "type": "function"
    },
    {
      "inputs": [
        {
          "internalType": "uint80",
          "name": "_articleStorageAddress",
          "type": "uint80"
        }
      ],
      "name": "challenge",
      "outputs": [],
      "stateMutability": "payable",
      "type": "function"
    },
    {
      "inputs": [
        {
          "internalType": "uint80",
          "name": "_articleStorageAddress",
          "type": "uint80"
        }
      ],
      "name": "challengeFee",
      "outputs": [
        {
          "internalType": "uint256",
          "name": "",
          "type": "uint256"
        }
      ],
      "stateMutability": "view",
      "type": "function"
    },
    {
      "inputs": [],
      "name": "challengeTaxRate",
      "outputs": [
        {
          "internalType": "uint256",
          "name": "",
          "type": "uint256"
        }
      ],
      "stateMutability": "view",
      "type": "function"
    },
    {
      "inputs": [
        {
          "internalType": "address payable",
          "name": "_newAdmin",
          "type": "address"
        }
      ],
      "name": "changeAdmin",
      "outputs": [],
      "stateMutability": "nonpayable",
      "type": "function"
    },
    {
      "inputs": [
        {
          "internalType": "uint256",
          "name": "",
          "type": "uint256"
        }
      ],
      "name": "disputes",
      "outputs": [
        {
          "internalType": "address payable",
          "name": "challenger",
          "type": "address"
        },
        {
          "internalType": "enum ITruthPost.RulingOptions",
          "name": "outcome",
          "type": "uint8"
        },
        {
          "internalType": "uint8",
          "name": "articleCategory",
          "type": "uint8"
        },
        {
          "internalType": "bool",
          "name": "resolved",
          "type": "bool"
        },
        {
          "internalType": "uint80",
          "name": "articleStorageAddress",
          "type": "uint80"
        }
      ],
      "stateMutability": "view",
      "type": "function"
    },
    {
      "inputs": [
        {
          "internalType": "uint80",
          "name": "_searchPointer",
          "type": "uint80"
        }
      ],
      "name": "findVacantStorageSlot",
      "outputs": [
        {
          "internalType": "uint256",
          "name": "vacantSlotIndex",
          "type": "uint256"
        }
      ],
      "stateMutability": "view",
      "type": "function"
    },
    {
      "inputs": [
        {
          "internalType": "uint256",
          "name": "_disputeID",
          "type": "uint256"
        },
        {
          "internalType": "enum ITruthPost.RulingOptions",
          "name": "_supportedRuling",
          "type": "uint8"
        }
      ],
      "name": "fundAppeal",
      "outputs": [
        {
          "internalType": "bool",
          "name": "fullyFunded",
          "type": "bool"
        }
      ],
      "stateMutability": "payable",
      "type": "function"
    },
    {
      "inputs": [
        {
          "internalType": "uint256",
          "name": "_disputeID",
          "type": "uint256"
        },
        {
          "internalType": "enum ITruthPost.RulingOptions",
          "name": "_ruling",
          "type": "uint8"
        }
      ],
      "name": "getAmountRemainsToBeRaised",
      "outputs": [
        {
          "internalType": "uint256",
          "name": "",
          "type": "uint256"
        }
      ],
      "stateMutability": "view",
      "type": "function"
    },
    {
      "inputs": [
        {
          "internalType": "uint256",
          "name": "_disputeID",
          "type": "uint256"
        },
        {
          "internalType": "enum ITruthPost.RulingOptions",
          "name": "_ruling",
          "type": "uint8"
        }
      ],
      "name": "getAppealPeriod",
      "outputs": [
        {
          "internalType": "uint256",
          "name": "",
          "type": "uint256"
        },
        {
          "internalType": "uint256",
          "name": "",
          "type": "uint256"
        }
      ],
      "stateMutability": "view",
      "type": "function"
    },
    {
      "inputs": [
        {
          "internalType": "uint256",
          "name": "_disputeID",
          "type": "uint256"
        }
      ],
      "name": "getLastRoundWinner",
      "outputs": [
        {
          "internalType": "uint256",
          "name": "",
          "type": "uint256"
        }
      ],
      "stateMutability": "view",
      "type": "function"
    },
    {
      "inputs": [
        {
          "internalType": "enum ITruthPost.RulingOptions",
          "name": "_ruling",
          "type": "uint8"
        },
        {
          "internalType": "enum ITruthPost.RulingOptions",
          "name": "_lastRoundWinner",
          "type": "uint8"
        }
      ],
      "name": "getReturnOfInvestmentRatio",
      "outputs": [
        {
          "internalType": "uint256",
          "name": "",
          "type": "uint256"
        }
      ],
      "stateMutability": "view",
      "type": "function"
    },
    {
      "inputs": [
        {
          "internalType": "uint256",
          "name": "_disputeID",
          "type": "uint256"
        },
        {
          "internalType": "uint256",
          "name": "_round",
          "type": "uint256"
        }
      ],
      "name": "getRoundInfo",
      "outputs": [
        {
          "internalType": "bool[3]",
          "name": "hasPaid",
          "type": "bool[3]"
        },
        {
          "internalType": "uint256[3]",
          "name": "totalPerRuling",
          "type": "uint256[3]"
        },
        {
          "internalType": "uint256",
          "name": "totalClaimableAfterExpenses",
          "type": "uint256"
        }
      ],
      "stateMutability": "view",
      "type": "function"
    },
    {
      "inputs": [
        {
          "internalType": "uint256",
          "name": "_disputeID",
          "type": "uint256"
        },
        {
          "internalType": "address payable",
          "name": "_contributor",
          "type": "address"
        }
      ],
      "name": "getTotalWithdrawableAmount",
      "outputs": [
        {
          "internalType": "uint256",
          "name": "sum",
          "type": "uint256"
        },
        {
          "internalType": "uint256[][]",
          "name": "amounts",
          "type": "uint256[][]"
        }
      ],
      "stateMutability": "view",
      "type": "function"
    },
    {
      "inputs": [
        {
          "internalType": "uint80",
          "name": "_articleStorageAddress",
          "type": "uint80"
        }
      ],
      "name": "increaseBounty",
      "outputs": [],
      "stateMutability": "payable",
      "type": "function"
    },
    {
      "inputs": [
        {
          "internalType": "string",
          "name": "_articleID",
          "type": "string"
        },
        {
          "internalType": "uint8",
          "name": "_category",
          "type": "uint8"
        },
        {
          "internalType": "uint80",
          "name": "_searchPointer",
          "type": "uint80"
        }
      ],
      "name": "initializeArticle",
      "outputs": [],
      "stateMutability": "payable",
      "type": "function"
    },
    {
      "inputs": [
        {
          "internalType": "uint80",
          "name": "_articleStorageAddress",
          "type": "uint80"
        }
      ],
      "name": "initiateWithdrawal",
      "outputs": [],
      "stateMutability": "nonpayable",
      "type": "function"
    },
    {
      "inputs": [
        {
          "internalType": "string",
          "name": "_metaevidenceIpfsUri",
          "type": "string"
        },
        {
          "internalType": "bytes",
          "name": "_arbitratorExtraData",
          "type": "bytes"
        }
      ],
      "name": "newCategory",
      "outputs": [],
      "stateMutability": "nonpayable",
      "type": "function"
    },
    {
      "inputs": [
        {
          "internalType": "uint256",
          "name": "_disputeID",
          "type": "uint256"
        },
        {
          "internalType": "uint256",
          "name": "_ruling",
          "type": "uint256"
        }
      ],
      "name": "rule",
      "outputs": [],
      "stateMutability": "nonpayable",
      "type": "function"
    },
    {
      "inputs": [
        {
          "internalType": "uint256",
          "name": "_disputeID",
          "type": "uint256"
        },
        {
          "internalType": "string",
          "name": "_evidenceURI",
          "type": "string"
        }
      ],
      "name": "submitEvidence",
      "outputs": [],
      "stateMutability": "nonpayable",
      "type": "function"
    },
    {
      "inputs": [
        {
          "internalType": "uint80",
          "name": "_articleStorageAddress",
          "type": "uint80"
        },
        {
          "internalType": "address payable",
          "name": "_newOwner",
          "type": "address"
        }
      ],
      "name": "transferOwnership",
      "outputs": [],
      "stateMutability": "nonpayable",
      "type": "function"
    },
    {
      "inputs": [],
      "name": "treasuryBalance",
      "outputs": [
        {
          "internalType": "uint256",
          "name": "",
          "type": "uint256"
        }
      ],
      "stateMutability": "view",
      "type": "function"
    },
    {
      "inputs": [
        {
          "internalType": "uint256",
          "name": "_newChallengeTaxRate",
          "type": "uint256"
        }
      ],
      "name": "updateChallengeTaxRate",
      "outputs": [],
      "stateMutability": "nonpayable",
      "type": "function"
    },
    {
      "inputs": [
        {
          "internalType": "uint80",
          "name": "_articleStorageAddress",
          "type": "uint80"
        }
      ],
      "name": "withdraw",
      "outputs": [],
      "stateMutability": "nonpayable",
      "type": "function"
    },
    {
      "inputs": [
        {
          "internalType": "uint256",
          "name": "_disputeID",
          "type": "uint256"
        },
        {
          "internalType": "address payable",
          "name": "_contributor",
          "type": "address"
        },
        {
          "internalType": "uint256",
          "name": "_roundNumber",
          "type": "uint256"
        },
        {
          "internalType": "enum ITruthPost.RulingOptions",
          "name": "_ruling",
          "type": "uint8"
        }
      ],
      "name": "withdrawFeesAndRewards",
      "outputs": [
        {
          "internalType": "uint256",
          "name": "amount",
          "type": "uint256"
        }
      ],
      "stateMutability": "nonpayable",
      "type": "function"
    },
    {
      "inputs": [
        {
          "internalType": "uint256",
          "name": "_disputeID",
          "type": "uint256"
        },
        {
          "internalType": "address payable",
          "name": "_contributor",
          "type": "address"
        },
        {
          "internalType": "enum ITruthPost.RulingOptions",
          "name": "_ruling",
          "type": "uint8"
        }
      ],
      "name": "withdrawFeesAndRewardsForAllRounds",
      "outputs": [],
      "stateMutability": "nonpayable",
      "type": "function"
    },
    {
      "inputs": [
        {
          "internalType": "uint256",
          "name": "_disputeID",
          "type": "uint256"
        },
        {
          "internalType": "address payable",
          "name": "_contributor",
          "type": "address"
        }
      ],
      "name": "withdrawFeesAndRewardsForAllRoundsAndAllRulings",
      "outputs": [],
      "stateMutability": "nonpayable",
      "type": "function"
    },
    {
      "inputs": [
        {
          "internalType": "uint256",
          "name": "_disputeID",
          "type": "uint256"
        },
        {
          "internalType": "address payable",
          "name": "_contributor",
          "type": "address"
        },
        {
          "internalType": "uint256[][]",
          "name": "positions",
          "type": "uint256[][]"
        }
      ],
      "name": "withdrawFeesAndRewardsForGivenPositions",
      "outputs": [],
      "stateMutability": "nonpayable",
      "type": "function"
    }
  ],
  "transactionHash": "0x266a36db2e2d5bcd0000d9ac85e64c67808da1d451002816a02dfb9af6af936d",
  "args": [
    "0x1128eD55ab2d796fa92D2F8E1f336d745354a77A",
    "0x00000000000000000000000000000000000000000000000000000000000000000000000000000000000000000000000000000000000000000000000000000001",
    "/ipfs/QmbTC5Exnke5ZHnb1Mt1dBPAW4Ub12n4JZ9gRNAiz65AKS/metaEvidence.json",
    1,
    1,
    1
  ],
  "solcInputHash": "7ba63076ccd1a53520c447e5970ac5ce",
  "bytecode": "0x61010060408190526010600055600280546001600160a81b031916339092029190911790553480156200003157600080fd5b50604051620042493803806200424983398101604081905262000054916200032e565b60808390526001600160a01b03861660a05260c082905260e08190526200007c848662000088565b505050505050620004d5565b6002546200009b9060ff16600162000402565b60ff16620000ef5760405162461bcd60e51b815260206004820181905260248201527f4e6f207370616365206c65667420666f722061206e65772063617465676f7279604482015260640160405180910390fd5b60025460405160ff909116907f61606860eb6c87306811e2695215385101daab53bd6ab4e9f9049aead9363c7d906200012a9085906200042a565b60405180910390a2600254819060039060ff16604081106200015057620001506200045f565b0190805190602001906200016692919062000199565b506002805460ff169060006200017c8362000475565b91906101000a81548160ff021916908360ff160217905550505050565b828054620001a79062000498565b90600052602060002090601f016020900481019282620001cb576000855562000216565b82601f10620001e657805160ff191683800117855562000216565b8280016001018555821562000216579182015b8281111562000216578251825591602001919060010190620001f9565b506200022492915062000228565b5090565b5b8082111562000224576000815560010162000229565b634e487b7160e01b600052604160045260246000fd5b60005b838110156200027257818101518382015260200162000258565b8381111562000282576000848401525b50505050565b60006001600160401b0380841115620002a557620002a56200023f565b604051601f8501601f19908116603f01168101908282118183101715620002d057620002d06200023f565b81604052809350858152868686011115620002ea57600080fd5b620002fa86602083018762000255565b5050509392505050565b600082601f8301126200031657600080fd5b620003278383516020850162000288565b9392505050565b60008060008060008060c087890312156200034857600080fd5b86516001600160a01b03811681146200036057600080fd5b60208801519096506001600160401b03808211156200037e57600080fd5b818901915089601f8301126200039357600080fd5b620003a48a83516020850162000288565b96506040890151915080821115620003bb57600080fd5b50620003ca89828a0162000304565b945050606087015192506080870151915060a087015190509295509295509295565b634e487b7160e01b600052601160045260246000fd5b600060ff821660ff84168060ff03821115620004225762000422620003ec565b019392505050565b60208152600082518060208401526200044b81604085016020870162000255565b601f01601f19169190910160400192915050565b634e487b7160e01b600052603260045260246000fd5b600060ff821660ff8114156200048f576200048f620003ec565b60010192915050565b600181811c90821680620004ad57607f821691505b60208210811415620004cf57634e487b7160e01b600052602260045260246000fd5b50919050565b60805160a05160c05160e051613ca0620005a9600039600081816107b801528181610cf5015281816125ab01528181612bf70152612c540152600081816108be01528181610c2c015281816125d101528181612c1d0152612c7501526000818161057101528181610a6a01528181610af801528181610d1901528181611156015281816112f40152818161167901528181611aa701528181611bec01528181611f840152818161211a015281816121c801528181612627015261272101526000818161085501526124900152613ca06000f3fe6080604052600436106102d15760003560e01c80638a9bb02a11610179578063bc0936fd116100d6578063dc227fc21161008a578063fc0ac67211610064578063fc0ac67214610905578063fe6ca7821461091b578063ffa1ad741461093157600080fd5b8063dc227fc21461088c578063e349ad30146108ac578063f851a440146108e057600080fd5b8063c9330c0f116100bb578063c9330c0f14610823578063d3b476b114610843578063d970d18c1461087757600080fd5b8063bc0936fd146107fa578063be4676041461080d57600080fd5b8063aa6df2991161012d578063af4a914411610112578063af4a914414610778578063b34bfaa8146107a6578063b4c70581146107da57600080fd5b8063aa6df29914610743578063ab9cd37e1461075857600080fd5b8063956dcbd21161015e578063956dcbd2146106e3578063a509efeb14610703578063a6a7f0eb1461072357600080fd5b80638a9bb02a146106945780638f283970146106c357600080fd5b80634de12db0116102325780636760aeb0116101e65780637597b3cb116101c05780637597b3cb146105be57806378431ce9146105d35780637f67bd6c1461067457600080fd5b80636760aeb01461053f57806368871c9c1461055f578063736ed418146105ab57600080fd5b8063638af3da11610217578063638af3da146104ca57806364ff9dfa146104ff57806367284f211461051f57600080fd5b80634de12db014610423578063564a565d1461045057600080fd5b806326804bef11610289578063311a6c561161026e578063311a6c56146103cd578063313dab20146103ed5780634c55c0001461040357600080fd5b806326804bef1461039a57806329238089146103ba57600080fd5b806312b3a2c0116102ba57806312b3a2c01461032957806315f36ebe1461034c5780631e26de341461037a57600080fd5b806303624fc0146102d657806306bcbd7314610307575b600080fd5b3480156102e257600080fd5b506002546102f09060ff1681565b60405160ff90911681526020015b60405180910390f35b34801561031357600080fd5b506103276103223660046132cf565b61097a565b005b61033c610337366004613311565b610a44565b60405190151581526020016102fe565b34801561035857600080fd5b5061036c610367366004613334565b61127b565b6040519081526020016102fe565b34801561038657600080fd5b5061036c61039536600461334f565b6112df565b3480156103a657600080fd5b506103276103b536600461334f565b6113a8565b6103276103c83660046133aa565b61141a565b3480156103d957600080fd5b506103276103e8366004613416565b61166e565b3480156103f957600080fd5b5061036c60015481565b34801561040f57600080fd5b5061032761041e3660046134c4565b6118fe565b34801561042f57600080fd5b5061044361043e36600461334f565b6119ff565b6040516102fe91906135a0565b34801561045c57600080fd5b506104b961046b36600461334f565b604460205260009081526040902080546001909101546001600160a01b0382169160ff600160a01b8204811692600160a81b8304821692600160b01b9004909116906001600160501b031685565b6040516102fe9594939291906135eb565b3480156104d657600080fd5b506104ea6104e5366004613311565b611a9f565b604080519283526020830191909152016102fe565b34801561050b57600080fd5b5061036c61051a366004613334565b611bcb565b34801561052b57600080fd5b5061032761053a366004613630565b611cdd565b34801561054b57600080fd5b5061032761055a3660046136ba565b611da1565b34801561056b57600080fd5b506105937f000000000000000000000000000000000000000000000000000000000000000081565b6040516001600160a01b0390911681526020016102fe565b6103276105b9366004613334565b611de6565b3480156105ca57600080fd5b5061036c600281565b3480156105df57600080fd5b506106346105ee366004613334565b6043602052600090815260409020546001600160a01b03811690600160a01b810463ffffffff1690600160c01b810466ffffffffffffff1690600160f81b900460ff1684565b604080516001600160a01b03909516855263ffffffff909316602085015266ffffffffffffff9091169183019190915260ff1660608201526080016102fe565b34801561068057600080fd5b5061036c61068f36600461334f565b6121af565b3480156106a057600080fd5b506106b46106af366004613416565b612241565b6040516102fe939291906136f6565b3480156106cf57600080fd5b506103276106de36600461375b565b612331565b3480156106ef57600080fd5b506103276106fe366004613334565b61238c565b34801561070f57600080fd5b5061036c61071e366004613311565b612516565b34801561072f57600080fd5b5061032761073e366004613776565b612714565b34801561074f57600080fd5b50610327612787565b34801561076457600080fd5b50610327610773366004613334565b6127a5565b34801561078457600080fd5b506107986107933660046137c2565b6129d7565b6040516102fe9291906137e5565b3480156107b257600080fd5b5061036c7f000000000000000000000000000000000000000000000000000000000000000081565b3480156107e657600080fd5b5061036c6107f5366004613877565b612bc1565b610327610808366004613334565b612cc1565b34801561081957600080fd5b5061036c61020081565b34801561082f57600080fd5b5061032761083e3660046137c2565b612dfb565b34801561084f57600080fd5b5061036c7f000000000000000000000000000000000000000000000000000000000000000081565b34801561088357600080fd5b5061036c602081565b34801561089857600080fd5b5061036c6108a73660046138a1565b612e62565b3480156108b857600080fd5b5061036c7f000000000000000000000000000000000000000000000000000000000000000081565b3480156108ec57600080fd5b506002546105939061010090046001600160a01b031681565b34801561091157600080fd5b5061036c60005481565b34801561092757600080fd5b5061036c61040081565b34801561093d57600080fd5b506104436040518060400160405280600581526020017f312e312e3000000000000000000000000000000000000000000000000000000081525081565b6001600160501b038216600090815260436020526040902080546001600160a01b03163314610a165760405162461bcd60e51b815260206004820152602360248201527f4f6e6c7920617574686f722063616e207472616e73666572206f776e6572736860448201527f69702e000000000000000000000000000000000000000000000000000000000060648201526084015b60405180910390fd5b805473ffffffffffffffffffffffffffffffffffffffff19166001600160a01b039290921691909117905550565b6000828152604460205260408082209051631c3db16d60e01b81526004810185905282907f00000000000000000000000000000000000000000000000000000000000000006001600160a01b031690631c3db16d90602401602060405180830381865afa158015610ab9573d6000803e3d6000fd5b505050506040513d601f19601f82011682018060405250810190610add91906138dc565b6002811115610aee57610aee6135b3565b90506000806000807f00000000000000000000000000000000000000000000000000000000000000006001600160a01b031663afe15cfb8a6040518263ffffffff1660e01b8152600401610b4491815260200190565b6040805180830381865afa158015610b60573d6000803e3d6000fd5b505050506040513d601f19601f82011682018060405250810190610b8491906138f5565b915091506000856002811115610b9c57610b9c6135b3565b896002811115610bae57610bae6135b3565b1415610c5057814210610c295760405162461bcd60e51b815260206004820152602e60248201527f46756e64696e67206d757374206265206d6164652077697468696e207468652060448201527f61707065616c20706572696f642e0000000000000000000000000000000000006064820152608401610a0d565b507f0000000000000000000000000000000000000000000000000000000000000000610d15565b610400610200610c60858561392f565b610c6a9190613946565b610c749190613965565b610c7e9084613987565b4210610cf25760405162461bcd60e51b815260206004820152603960248201527f46756e64696e67206d757374206265206d6164652077697468696e207468652060448201527f66697273742068616c662061707065616c20706572696f642e000000000000006064820152608401610a0d565b507f00000000000000000000000000000000000000000000000000000000000000005b86547f00000000000000000000000000000000000000000000000000000000000000006001600160a01b03169063f23f16e6908c90600390600160a81b900460ff1660408110610d6757610d6761399f565b016040518363ffffffff1660e01b8152600401610d85929190613a90565b602060405180830381865afa158015610da2573d6000803e3d6000fd5b505050506040513d601f19601f82011682018060405250810190610dc691906138dc565b9450610400610dd58287613946565b610ddf9190613965565b610de99086613987565b600288015490945089935060009250610e05915060019061392f565b90506000866002018281548110610e1e57610e1e61399f565b9060005260206000209060060201905080600101836002811115610e4457610e446135b3565b60038110610e5457610e5461399f565b602081049091015460ff601f9092166101000a90041615610edd5760405162461bcd60e51b815260206004820152602160248201527f41707065616c206665652068617320616c7265616479206265656e207061696460448201527f2e000000000000000000000000000000000000000000000000000000000000006064820152608401610a0d565b60008082600201856002811115610ef657610ef66135b3565b60038110610f0657610f0661399f565b01549050858110610f1a5760009150610f3e565b34610f25828861392f565b11610f3957610f34818761392f565b610f3b565b345b91505b50336001600160a01b0316838c7f2b4ef80a862edc5616a4e61c11f4a368f33323faca91fa7635d48b85c183e66a8d85604051610f7c929190613ab1565b60405180910390a43360009081526020839052604090208190856002811115610fa757610fa76135b3565b60038110610fb757610fb761399f565b016000828254610fc79190613987565b925050819055508082600201856002811115610fe557610fe56135b3565b60038110610ff557610ff561399f565b0160008282546110059190613987565b925050819055508482600201856002811115611023576110236135b3565b600381106110335761103361399f565b0154106111015781600201846002811115611050576110506135b3565b600381106110605761106061399f565b01548260050160008282546110759190613987565b9091555060019050828101856002811115611092576110926135b3565b600381106110a2576110a261399f565b602091828204019190066101000a81548160ff0219169083151502179055508960028111156110d3576110d36135b3565b60405184908d907fb5681f036910f38d8c2fa06f2cbedc227ecf03d7c4a358ee9096197b15ff8fd090600090a45b6001820154610100900460ff1680156111245750600182015462010000900460ff165b156111f7576002880180546001018155600090815260058301805488929061114d90849061392f565b909155505087547f00000000000000000000000000000000000000000000000000000000000000006001600160a01b0316906349912f889088908e90600390600160a81b900460ff16604081106111a6576111a661399f565b016040518463ffffffff1660e01b81526004016111c4929190613a90565b6000604051808303818588803b1580156111dd57600080fd5b505af11580156111f1573d6000803e3d6000fd5b50505050505b6000611203823461392f565b111561122f57336108fc611217833461392f565b6040518115909202916000818181858888f150505050505b81600101846002811115611245576112456135b3565b600381106112555761125561399f565b602081049091015460ff601f9092166101000a9004169850505050505050505092915050565b6000805b604360008461128d81613acc565b6001600160501b03919091168252602082019290925260400160002080549194509150600160c01b900466ffffffffffffff1661127f576112cf600184613af3565b6001600160501b03169392505050565b600081815260446020526040808220805490917f00000000000000000000000000000000000000000000000000000000000000006001600160a01b03169163f23f16e6918691600391600160a81b90910460ff169081106113425761134261399f565b016040518363ffffffff1660e01b8152600401611360929190613a90565b602060405180830381865afa15801561137d573d6000803e3d6000fd5b505050506040513d601f19601f820116820180604052508101906113a191906138dc565b9392505050565b60025461010090046001600160a01b031633146113c457600080fd5b80600054116114155760405162461bcd60e51b815260206004820152601960248201527f596f752063616e277420696e6372656173652074617865732e000000000000006044820152606401610a0d565b600055565b60025460ff908116908316106114725760405162461bcd60e51b815260206004820152601c60248201527f546869732063617465676f727920646f6573206e6f74206578697374000000006044820152606401610a0d565b60005b604360008361148381613acc565b6001600160501b03919091168252602082019290925260400160002080549193509150600160c01b900466ffffffffffffff166114755780547fff00000000000000ffffffff000000000000000000000000000000000000000016337fff00000000000000ffffffffffffffffffffffffffffffffffffffffffffffff1617600160c01b3460201c66ffffffffffffff9081168202929092177effffffffffffffffffffffffffffffffffffffffffffffffffffffffffffff16600160f81b60ff8716021780845504166115bf5760405162461bcd60e51b815260206004820152603960248201527f596f752063616e277420696e697469616c697a6520616e2061727469636c652060448201527f776974686f75742070757474696e67206120626f756e74792e000000000000006064820152608401610a0d565b60006115cc600184613af3565b6001600160501b031690507f4f9a2b734331c583faf3f19d1feb5f08b742e016a56fb61379950beaf3e223418686868460405161160c9493929190613b44565b60405180910390a1815460408051838152600160c01b909204602090811b6affffffffffffff0000000016908301527fdf5fc410d3381cc7f0a7fe3af72f4e3cf53ef5787f20554af69035a950e1b2e3910160405180910390a1505050505050565b336001600160a01b037f000000000000000000000000000000000000000000000000000000000000000016146116a357600080fd5b60008281526044602052604081206002810180549192916116c69060019061392f565b815481106116d6576116d661399f565b60009182526020822060016006929092020190810154909250610100900460ff16156117045750600161171a565b6001820154610100900460ff161561171a575060025b60008082600281111561172f5761172f6135b3565b141561174c57846002811115611747576117476135b3565b61174e565b815b8454909150819085907fffffffffffffffffffffff00ffffffffffffffffffffffffffffffffffffffff16600160a01b836002811115611790576117906135b3565b021790555060018401546001600160501b0316600081815260436020526040902060028360028111156117c5576117c56135b3565b141561187c5780547fff00000000000000ffffffffffffffffffffffffffffffffffffffffffffffff811682556040516001600160501b0384168152600160c01b909104602090811b6affffffffffffff0000000016917f8271992f9b3a3f30dc2a464982dc4a136e7357403462443a171a0fb0c6ccc265910160405180910390a16000898152604460205260408082205490516001600160a01b039091169183156108fc02918491818181858888f15050505050505b805463ffffffff60a01b1916815585547fffffffffffffffffff00ffffffffffffffffffffffffffffffffffffffffffff16600160b01b178655604051889033907f394027a5fa6e098a1191094d1719d6929b9abc535fcc0c8f448d6a4e75622276906118ec908b815260200190565b60405180910390a35050505050505050565b60025461190f9060ff166001613b6e565b60ff1661195e5760405162461bcd60e51b815260206004820181905260248201527f4e6f207370616365206c65667420666f722061206e65772063617465676f72796044820152606401610a0d565b60025460405160ff909116907f61606860eb6c87306811e2695215385101daab53bd6ab4e9f9049aead9363c7d906119979085906135a0565b60405180910390a2600254819060039060ff16604081106119ba576119ba61399f565b0190805190602001906119ce9291906131e5565b506002805460ff169060006119e283613b93565b91906101000a81548160ff021916908360ff160217905550505050565b60038160408110611a0f57600080fd5b018054909150611a1e906139b5565b80601f0160208091040260200160405190810160405280929190818152602001828054611a4a906139b5565b8015611a975780601f10611a6c57610100808354040283529160200191611a97565b820191906000526020600020905b815481529060010190602001808311611a7a57829003601f168201915b505050505081565b6000806000807f00000000000000000000000000000000000000000000000000000000000000006001600160a01b031663afe15cfb876040518263ffffffff1660e01b8152600401611af391815260200190565b6040805180830381865afa158015611b0f573d6000803e3d6000fd5b505050506040513d601f19601f82011682018060405250810190611b3391906138f5565b90925090506000610400610200611b4a858561392f565b611b549190613946565b611b5e9190613965565b611b689084613987565b90506000866002811115611b7e57611b7e6135b3565b611b87896121af565b6002811115611b9857611b986135b3565b6002811115611ba957611ba96135b3565b14905080611bb8578382611bbb565b83835b95509550505050505b9250929050565b6001600160501b0381166000908152604360205260408082208054909183917f00000000000000000000000000000000000000000000000000000000000000006001600160a01b03169163f7434ea991600391600160f81b90910460ff16908110611c3857611c3861399f565b016040518263ffffffff1660e01b8152600401611c559190613bb3565b602060405180830381865afa158015611c72573d6000803e3d6000fd5b505050506040513d601f19601f82011682018060405250810190611c9691906138dc565b600080548454929350909161040091611cbe91600160c01b900466ffffffffffffff16613946565b611cc89190613965565b9050611cd48183613987565b95945050505050565b60005b81811015611d9a5760005b838383818110611cfd57611cfd61399f565b9050602002810190611d0f9190613bc6565b9050811015611d87576000848484818110611d2c57611d2c61399f565b9050602002810190611d3e9190613bc6565b83818110611d4e57611d4e61399f565b905060200201351115611d7557611d738686848460028111156108a7576108a76135b3565b505b80611d7f81613c10565b915050611ceb565b5080611d9281613c10565b915050611ce0565b5050505050565b6000838152604460205260408120600281015490915b81811015611dde57611dcb86868387612e62565b5080611dd681613c10565b915050611db7565b505050505050565b6001600160501b03811660009081526043602052604090208054600160a01b900463ffffffff9081161415611e5d5760405162461bcd60e51b815260206004820152601e60248201527f546865726520697320616e206f6e676f696e67206368616c6c656e67652e00006044820152606401610a0d565b805463ffffffff60a01b191677ffffffff0000000000000000000000000000000000000000178155611e8e82611bcb565b341015611edd5760405162461bcd60e51b815260206004820181905260248201527f496e73756666696369656e742066756e647320746f206368616c6c656e67652e6044820152606401610a0d565b600054815461040091611eff91600160c01b900466ffffffffffffff16613946565b611f099190613965565b60016000828254611f1a9190613987565b90915550508054600160c01b900466ffffffffffffff16611f7d5760405162461bcd60e51b815260206004820152601560248201527f4e6f7468696e6720746f206368616c6c656e67652e00000000000000000000006044820152606401610a0d565b80546000907f00000000000000000000000000000000000000000000000000000000000000006001600160a01b03169063c13517e1903490600290600390600160f81b900460ff1660408110611fd557611fd561399f565b016040518463ffffffff1660e01b8152600401611ff3929190613a90565b60206040518083038185885af1158015612011573d6000803e3d6000fd5b50505050506040513d601f19601f8201168201806040525081019061203691906138dc565b60008181526044602090815260409182902080543373ffffffffffffffffffffffffffffffffffffffff1982168117835560028301805460019081019091558301805469ffffffffffffffffffff19166001600160501b038b1617905587547fffffffffffffffffffff00ff00000000000000000000000000000000000000009092167fffffffffffffffffffff00ffffffffffffffffffffffffffffffffffffffffff90911617600160f81b9182900460ff908116600160a81b029190911790925586548451919004909116815290810183905291925082916001600160a01b037f000000000000000000000000000000000000000000000000000000000000000016917f74baab670a4015ab2f1b467c5252a96141a2573f2908e58a92081e80d3cfde3d910160405180910390a360408051338152602081018390526001600160501b038516917f1e5338a1fb672aa84963dc9f9e4afd009b4ed726debb09224bf4d02a6c68b4e4910160405180910390a2505050565b604051631c3db16d60e01b8152600481018290526000907f00000000000000000000000000000000000000000000000000000000000000006001600160a01b031690631c3db16d90602401602060405180830381865afa158015612217573d6000803e3d6000fd5b505050506040513d601f19601f8201168201806040525081019061223b91906138dc565b92915050565b612249613269565b612251613269565b60008481526044602052604081206002018054829190869081106122775761227761399f565b9060005260206000209060060201905080600101816002018260050154826003806020026040519081016040528092919082600380156122ec576020028201916000905b825461010083900a900460ff1615158152602060019283018181049485019490930390920291018084116122bb5790505b505060408051606081019182905294975086935060039250905082845b8154815260200190600101908083116123095750505050509150935093509350509250925092565b60025461010090046001600160a01b0316331461234d57600080fd5b600280546001600160a01b03909216610100027fffffffffffffffffffffff0000000000000000000000000000000000000000ff909216919091179055565b6001600160501b038116600090815260436020526040902080546001600160a01b031633146124095760405162461bcd60e51b8152602060048201526024808201527f4f6e6c7920617574686f722063616e20776974686472617720616e206172746960448201526331b6329760e11b6064820152608401610a0d565b8054600160a01b900463ffffffff161561248b5760405162461bcd60e51b815260206004820152603560248201527f5769746864726177616c20616c726561647920696e69746961746564206f722060448201527f74686572652069732061206368616c6c656e67652e00000000000000000000006064820152608401610a0d565b6124b57f000000000000000000000000000000000000000000000000000000000000000042613987565b815463ffffffff91909116600160a01b0263ffffffff60a01b199091161781556040516001600160501b03831681527f416c1ad2b96c356f3bbd35431f86cce449ddbb4f8c3755ea9d2776b04c2e9c8f906020015b60405180910390a15050565b6000828152604460205260408120600281015482906125379060019061392f565b905060008260020182815481106125505761255061399f565b906000526020600020906006020190506000856002811115612574576125746135b3565b61257d886121af565b600281111561258e5761258e6135b3565b600281111561259f5761259f6135b3565b1490506000816125cf577f00000000000000000000000000000000000000000000000000000000000000006125f1565b7f00000000000000000000000000000000000000000000000000000000000000005b905060008360020188600281111561260b5761260b6135b3565b6003811061261b5761261b61399f565b015486549091506000907f00000000000000000000000000000000000000000000000000000000000000006001600160a01b03169063f23f16e6908c90600390600160a81b900460ff16604081106126755761267561399f565b016040518363ffffffff1660e01b8152600401612693929190613a90565b602060405180830381865afa1580156126b0573d6000803e3d6000fd5b505050506040513d601f19601f820116820180604052508101906126d491906138dc565b905060006104006126e58584613946565b6126ef9190613965565b6126f99083613987565b9050612705838261392f565b9b9a5050505050505050505050565b336001600160a01b0316837f00000000000000000000000000000000000000000000000000000000000000006001600160a01b03167fdccf2f8b2cc26eafcd61905cba744cff4b81d14740725f6376390dc6298a6a3c858560405161277a929190613c2b565b60405180910390a4505050565b60025461010090046001600160a01b031633146127a357600080fd5b565b6001600160501b038116600090815260436020526040902080546001600160a01b031633146128225760405162461bcd60e51b8152602060048201526024808201527f4f6e6c7920617574686f722063616e20776974686472617720616e206172746960448201526331b6329760e11b6064820152608401610a0d565b8054600160a01b900463ffffffff166128a35760405162461bcd60e51b815260206004820152602660248201527f596f75206e65656420746f20696e697469617465207769746864726177616c2060448201527f66697273742e00000000000000000000000000000000000000000000000000006064820152608401610a0d565b805442600160a01b90910463ffffffff1611156129285760405162461bcd60e51b815260206004820152603f60248201527f596f75206e65656420746f207761697420666f722074696d656c6f636b206f7260448201527f207761697420756e74696c20746865206368616c6c656e676520656e64732e006064820152608401610a0d565b80547fff0000000000000000000000ffffffffffffffffffffffffffffffffffffffff81168255604051600160c01b90910460201b6affffffffffffff00000000169033906108fc8315029083906000818181858888f19350505050158015612995573d6000803e3d6000fd5b506040516001600160501b03841681527f70b41d8cca762ceec66d93f536dbb31f5cabbf1901f862508b9438de54fce4eb9060200160405180910390a1505050565b6000828152604460205260408120805460609190600160b01b900460ff16612a03576000925050611bc4565b60028101548154600160a01b900460ff168167ffffffffffffffff811115612a2d57612a2d613438565b604051908082528060200260200182016040528015612a6057816020015b6060815260200190600190039081612a4b5790505b50935060005b82811015612bb657612a7a60026001613987565b67ffffffffffffffff811115612a9257612a92613438565b604051908082528060200260200182016040528015612abb578160200160208202803683370190505b50858281518110612ace57612ace61399f565b60200260200101819052506000846002018281548110612af057612af061399f565b9060005260206000209060060201905060005b60028111612ba1576000612b2a838b846002811115612b2457612b246135b3565b88612fc6565b90508015612b8e57612b49838b846002811115612b2457612b246135b3565b612b53908a613987565b985080888581518110612b6857612b6861399f565b60200260200101518381518110612b8157612b8161399f565b6020026020010181815250505b5080612b9981613c10565b915050612b03565b50508080612bae90613c10565b915050612a66565b505050509250929050565b600080836002811115612bd657612bd66135b3565b836002811115612be857612be86135b3565b1490506103e8600082612c1b577f0000000000000000000000000000000000000000000000000000000000000000612c3d565b7f00000000000000000000000000000000000000000000000000000000000000005b9050612c4b61040082613987565b82610400612c997f00000000000000000000000000000000000000000000000000000000000000007f0000000000000000000000000000000000000000000000000000000000000000613987565b612ca39190613987565b612cad9190613946565b612cb79190613965565b9695505050505050565b6001600160501b038116600090815260436020526040902080546001600160a01b03163314612d585760405162461bcd60e51b815260206004820152602e60248201527f4f6e6c7920617574686f722063616e20696e63726561736520626f756e74792060448201527f6f6620616e2061727469636c652e0000000000000000000000000000000000006064820152608401610a0d565b80543460201c908290601890612d7f908490600160c01b900466ffffffffffffff16613c3f565b82546101009290920a66ffffffffffffff818102199093169190921691909102179055508054604080516001600160501b0385168152600160c01b909204602090811b6affffffffffffff0000000016908301527fdf5fc410d3381cc7f0a7fe3af72f4e3cf53ef5787f20554af69035a950e1b2e3910161250a565b6000828152604460205260408120600281015490915b81811015611d9a5760005b60028111612e4f57612e3c8686848460028111156108a7576108a76135b3565b5080612e4781613c10565b915050612e1c565b5080612e5a81613c10565b915050612e11565b60008481526044602052604081208054600160b01b900460ff16612ec85760405162461bcd60e51b815260206004820152601760248201527f5468657265206973206e6f2072756c696e67207965742e0000000000000000006044820152606401610a0d565b6000816002018581548110612edf57612edf61399f565b90600052602060002090600602019050612f0c8187868560000160149054906101000a900460ff16612fc6565b92508215612fbc576001600160a01b0386166000908152602082905260408120856002811115612f3e57612f3e6135b3565b60038110612f4e57612f4e61399f565b01556040516001600160a01b0387169084156108fc029085906000818181858888f1935050505050856001600160a01b031685887fff2b7c936d6023fea901b3455cefc23b124c1ca5997dc5b48c461fd20984289d8787604051612fb3929190613ab1565b60405180910390a45b5050949350505050565b60008260018601816002811115612fdf57612fdf6135b3565b60038110612fef57612fef61399f565b602081049091015460ff601f9092166101000a90041661304c576001600160a01b0385166000908152602087905260409020816002811115613033576130336135b3565b600381106130435761304361399f565b015491506131dc565b82600281111561305e5761305e6135b3565b846002811115613070576130706135b3565b14156131305760008660020182600281111561308e5761308e6135b3565b6003811061309e5761309e61399f565b0154116130ac576000613129565b856002018160028111156130c2576130c26135b3565b600381106130d2576130d261399f565b015460058701546001600160a01b0387166000908152602089905260409020836002811115613103576131036135b3565b600381106131135761311361399f565b015461311f9190613946565b6131299190613965565b91506131dc565b85600101836002811115613146576131466135b3565b600381106131565761315661399f565b602081049091015460ff601f9092166101000a9004166131dc57600486015460038701546131849190613987565b60058701546001600160a01b03871660009081526020899052604090208360028111156131b3576131b36135b3565b600381106131c3576131c361399f565b01546131cf9190613946565b6131d99190613965565b91505b50949350505050565b8280546131f1906139b5565b90600052602060002090601f0160209004810192826132135760008555613259565b82601f1061322c57805160ff1916838001178555613259565b82800160010185558215613259579182015b8281111561325957825182559160200191906001019061323e565b50613265929150613287565b5090565b60405180606001604052806003906020820280368337509192915050565b5b808211156132655760008155600101613288565b80356001600160501b03811681146132b357600080fd5b919050565b80356001600160a01b03811681146132b357600080fd5b600080604083850312156132e257600080fd5b6132eb8361329c565b91506132f9602084016132b8565b90509250929050565b8035600381106132b357600080fd5b6000806040838503121561332457600080fd5b823591506132f960208401613302565b60006020828403121561334657600080fd5b6113a18261329c565b60006020828403121561336157600080fd5b5035919050565b60008083601f84011261337a57600080fd5b50813567ffffffffffffffff81111561339257600080fd5b602083019150836020828501011115611bc457600080fd5b600080600080606085870312156133c057600080fd5b843567ffffffffffffffff8111156133d757600080fd5b6133e387828801613368565b909550935050602085013560ff811681146133fd57600080fd5b915061340b6040860161329c565b905092959194509250565b6000806040838503121561342957600080fd5b50508035926020909101359150565b634e487b7160e01b600052604160045260246000fd5b600067ffffffffffffffff8084111561346957613469613438565b604051601f8501601f19908116603f0116810190828211818310171561349157613491613438565b816040528093508581528686860111156134aa57600080fd5b858560208301376000602087830101525050509392505050565b600080604083850312156134d757600080fd5b823567ffffffffffffffff808211156134ef57600080fd5b818501915085601f83011261350357600080fd5b6135128683356020850161344e565b9350602085013591508082111561352857600080fd5b508301601f8101851361353a57600080fd5b6135498582356020840161344e565b9150509250929050565b6000815180845260005b818110156135795760208185018101518683018201520161355d565b8181111561358b576000602083870101525b50601f01601f19169290920160200192915050565b6020815260006113a16020830184613553565b634e487b7160e01b600052602160045260246000fd5b600381106135e757634e487b7160e01b600052602160045260246000fd5b9052565b6001600160a01b038616815260a0810161360860208301876135c9565b60ff94909416604082015291151560608301526001600160501b031660809091015292915050565b6000806000806060858703121561364657600080fd5b84359350613656602086016132b8565b9250604085013567ffffffffffffffff8082111561367357600080fd5b818701915087601f83011261368757600080fd5b81358181111561369657600080fd5b8860208260051b85010111156136ab57600080fd5b95989497505060200194505050565b6000806000606084860312156136cf57600080fd5b833592506136df602085016132b8565b91506136ed60408501613302565b90509250925092565b60e08101818560005b600381101561372057815115158352602092830192909101906001016136ff565b505050606082018460005b600381101561374a57815183526020928301929091019060010161372b565b5050508260c0830152949350505050565b60006020828403121561376d57600080fd5b6113a1826132b8565b60008060006040848603121561378b57600080fd5b83359250602084013567ffffffffffffffff8111156137a957600080fd5b6137b586828701613368565b9497909650939450505050565b600080604083850312156137d557600080fd5b823591506132f9602084016132b8565b600060408201848352602060408185015281855180845260608601915060608160051b87010193508287016000805b8381101561386857888703605f19018552825180518089529087019087890190845b8181101561385257835183529289019291890191600101613836565b5090985050509385019391850191600101613814565b50949998505050505050505050565b6000806040838503121561388a57600080fd5b61389383613302565b91506132f960208401613302565b600080600080608085870312156138b757600080fd5b843593506138c7602086016132b8565b92506040850135915061340b60608601613302565b6000602082840312156138ee57600080fd5b5051919050565b6000806040838503121561390857600080fd5b505080516020909101519092909150565b634e487b7160e01b600052601160045260246000fd5b60008282101561394157613941613919565b500390565b600081600019048311821515161561396057613960613919565b500290565b60008261398257634e487b7160e01b600052601260045260246000fd5b500490565b6000821982111561399a5761399a613919565b500190565b634e487b7160e01b600052603260045260246000fd5b600181811c908216806139c957607f821691505b602082108114156139ea57634e487b7160e01b600052602260045260246000fd5b50919050565b8054600090600181811c9080831680613a0a57607f831692505b6020808410821415613a2c57634e487b7160e01b600052602260045260246000fd5b83885260208801828015613a475760018114613a5857613a83565b60ff19871682528282019750613a83565b60008981526020902060005b87811015613a7d57815484820152908601908401613a64565b83019850505b5050505050505092915050565b828152604060208201526000613aa960408301846139f0565b949350505050565b60408101613abf82856135c9565b8260208301529392505050565b60006001600160501b0380831681811415613ae957613ae9613919565b6001019392505050565b60006001600160501b0383811690831681811015613b1357613b13613919565b039392505050565b81835281816020850137506000828201602090810191909152601f909101601f19169091010190565b606081526000613b58606083018688613b1b565b60ff949094166020830152506040015292915050565b600060ff821660ff84168060ff03821115613b8b57613b8b613919565b019392505050565b600060ff821660ff811415613baa57613baa613919565b60010192915050565b6020815260006113a160208301846139f0565b6000808335601e19843603018112613bdd57600080fd5b83018035915067ffffffffffffffff821115613bf857600080fd5b6020019150600581901b3603821315611bc457600080fd5b6000600019821415613c2457613c24613919565b5060010190565b602081526000613aa9602083018486613b1b565b600066ffffffffffffff808316818516808303821115613c6157613c61613919565b0194935050505056fea264697066735822122099b8060869fafadb2c7c07234682ead6c77e8619fbb49139740f26e74c3fc68564736f6c634300080a0033",
  "devdoc": {
    "details": "Articles are not addressed with their identifiers. That enables us to reuse same storage address for another article later. Arbitrator is fixed, but subcourts, jury size and metaevidence are not. We prevent articles to get withdrawn immediately. This is to prevent submitter to escape punishment in case someone discovers an argument to debunk the article. Bounty amounts are compressed with a lossy compression method to save on storage cost.",
    "kind": "dev",
    "methods": {
      "challenge(uint80)": {
        "details": "withdrawalPermittedAt has some special values: 0 indicates withdrawal possible but process not started yet, max value indicates there is a challenge and during challenge it's forbidden to start another challenge.",
        "params": {
          "_articleStorageAddress": "The address of the article in the storage."
        }
      },
      "fundAppeal(uint256,uint8)": {
        "params": {
          "_disputeID": "The dispute ID as in the arbitrator.",
          "_supportedRuling": "The supported ruling in this funding."
        }
      },
      "increaseBounty(uint80)": {
        "params": {
          "_articleStorageAddress": "The address of the article in the storage."
        }
      },
      "initializeArticle(string,uint8,uint80)": {
        "params": {
          "_articleID": "Unique identifier of an article. Usually an IPFS content identifier.",
          "_category": "Article category. This changes which metaevidence will be used.",
          "_searchPointer": "Starting point of the search. Find a vacant storage slot before calling this function to minimize gas cost."
        }
      },
      "initiateWithdrawal(uint80)": {
        "details": "withdrawalPermittedAt has some special values: 0 indicates withdrawal possible but process not started yet, max value indicates there is a challenge and during challenge it's forbidden to start withdrawal process.",
        "params": {
          "_articleStorageAddress": "The address of the article in the storage."
        }
      },
      "newCategory(string,bytes)": {
        "params": {
          "_arbitratorExtraData": "Extra data of Kleros arbitrator, signaling subcourt and jury size selection.",
          "_metaevidenceIpfsUri": "IPFS content identifier for metaevidence."
        }
      },
      "rule(uint256,uint256)": {
        "params": {
          "_disputeID": "The dispute ID as in the arbitrator.",
          "_ruling": "The ruling that arbitrator gave."
        }
      },
      "submitEvidence(uint256,string)": {
        "params": {
          "_disputeID": "Dispute ID as in arbitrator.",
          "_evidenceURI": "IPFS content identifier of the evidence."
        }
      },
      "withdraw(uint80)": {
        "details": "withdrawalPermittedAt has some special values: 0 indicates withdrawal possible but process not started yet, max value indicates there is a challenge and during challenge it's forbidden to start withdrawal process.",
        "params": {
          "_articleStorageAddress": "The address of the article in the storage."
        }
      },
      "withdrawFeesAndRewards(uint256,address,uint256,uint8)": {
        "params": {
          "_contributor": "The address whose rewards to withdraw.",
          "_disputeID": "ID of the dispute as in arbitrator.",
          "_roundNumber": "The number of the round caller wants to withdraw from.",
          "_ruling": "Ruling that received contribution from contributor."
        },
        "returns": {
          "amount": "The amount available to withdraw for given question, contributor, round number and ruling option."
        }
      },
      "withdrawFeesAndRewardsForAllRounds(uint256,address,uint8)": {
        "params": {
          "_contributor": "The address whose rewards to withdraw.",
          "_disputeID": "ID of the dispute as in arbitrator.",
          "_ruling": "Ruling that received contributions from contributor."
        }
      },
      "withdrawFeesAndRewardsForAllRoundsAndAllRulings(uint256,address)": {
        "params": {
          "_contributor": "The address whose rewards to withdraw.",
          "_disputeID": "ID of the dispute as in arbitrator."
        }
      }
    },
    "title": "The Trust Post",
    "version": 1
  },
  "userdoc": {
    "kind": "user",
    "methods": {
      "appealFee(uint256)": {
        "notice": "Returns the total amount needs to be paid to appeal a dispute."
      },
      "buyAndBurn()": {
        "notice": "TODO. This function should use treasuryBalance to buy a token and send it to 0x0."
      },
      "challenge(uint80)": {
        "notice": "Challenges the article at the given storage address. Follow events to find out which article resides in which slot."
      },
      "challengeFee(uint80)": {
        "notice": "Returns the total amount needs to be paid to challenge an article."
      },
      "changeAdmin(address)": {
        "notice": "Lets you to transfer ownership of an article. This is useful when you want to change owner account without withdrawing and resubmitting."
      },
      "findVacantStorageSlot(uint80)": {
        "notice": "Helper function to find a vacant slot for article. Use this function before calling initialize to minimize your gas cost."
      },
      "fundAppeal(uint256,uint8)": {
        "notice": "Lets you fund a crowdfunded appeal. In case of funding is incomplete, you will be refunded. Withdrawal will be carried out using withdrawFeesAndRewards function."
      },
      "getTotalWithdrawableAmount(uint256,address)": {
        "notice": "Returns the sum of withdrawable amount. This function has O(m) time complexity where m is number of rounds. It is safe to assume m is always less than 10 as appeal cost growth order is O(m^2)."
      },
      "increaseBounty(uint80)": {
        "notice": "Lets you increase a bounty of a live article."
      },
      "initializeArticle(string,uint8,uint80)": {
        "notice": "Initializes an article."
      },
      "initiateWithdrawal(uint80)": {
        "notice": "Lets a author to start withdrawal process."
      },
      "newCategory(string,bytes)": {
        "notice": "Initializes a category."
      },
      "rule(uint256,uint256)": {
        "notice": "For arbitrator to call, to execute it's ruling. In case arbitrator rules in favor of challenger, challenger wins the bounty. In any case, withdrawalPermittedAt will be reset."
      },
      "submitEvidence(uint256,string)": {
        "notice": "Lets you submit evidence as defined in evidence (ERC-1497) standard."
      },
      "transferOwnership(uint80,address)": {
        "notice": "Lets you to transfer ownership of an article. This is useful when you want to change owner account without withdrawing and resubmitting."
      },
      "updateChallengeTaxRate(uint256)": {
        "notice": "Lets you to transfer ownership of an article. This is useful when you want to change owner account without withdrawing and resubmitting."
      },
      "withdraw(uint80)": {
        "notice": "Executes a withdrawal. Can only be executed by author."
      },
      "withdrawFeesAndRewards(uint256,address,uint256,uint8)": {
        "notice": "Allows to withdraw any reimbursable fees or rewards after the dispute gets solved."
      },
      "withdrawFeesAndRewardsForAllRounds(uint256,address,uint8)": {
        "notice": "Allows to withdraw any rewards or reimbursable fees after the dispute gets resolved. For all rounds at once. This function has O(m) time complexity where m is number of rounds. It is safe to assume m is always less than 10 as appeal cost growth order is O(2^m)."
      },
      "withdrawFeesAndRewardsForAllRoundsAndAllRulings(uint256,address)": {
        "notice": "Allows to withdraw any rewards or reimbursable fees after the dispute gets resolved. For all rounds at once. This function has O(mn) time complexity where m is number of rounds and n is number of ruling options. It is safe to assume m is always less than 10 as appeal cost growth order is O(2^m). When number of rulings options are high, this function can run out of gas."
      }
    },
    "notice": "Smart contract for a type of curation, where submitted items are on hold until they are withdrawn and the amount of security deposits are determined by submitters.",
    "version": 1
  },
  "storageLayout": {
    "storage": [
      {
        "astId": 543,
        "contract": "contracts/TruthPost.sol:TruthPost",
        "label": "challengeTaxRate",
        "offset": 0,
        "slot": "0",
        "type": "t_uint256"
      },
      {
        "astId": 545,
        "contract": "contracts/TruthPost.sol:TruthPost",
        "label": "treasuryBalance",
        "offset": 0,
        "slot": "1",
        "type": "t_uint256"
      },
      {
        "astId": 548,
        "contract": "contracts/TruthPost.sol:TruthPost",
        "label": "categoryCounter",
        "offset": 0,
        "slot": "2",
        "type": "t_uint8"
      },
      {
        "astId": 555,
        "contract": "contracts/TruthPost.sol:TruthPost",
        "label": "admin",
        "offset": 1,
        "slot": "2",
        "type": "t_address_payable"
      },
      {
        "astId": 618,
        "contract": "contracts/TruthPost.sol:TruthPost",
        "label": "categoryToArbitratorExtraData",
        "offset": 0,
        "slot": "3",
        "type": "t_array(t_bytes_storage)64_storage"
      },
      {
        "astId": 623,
        "contract": "contracts/TruthPost.sol:TruthPost",
        "label": "articleStorage",
        "offset": 0,
        "slot": "67",
        "type": "t_mapping(t_uint80,t_struct(Article)614_storage)"
      },
      {
        "astId": 628,
        "contract": "contracts/TruthPost.sol:TruthPost",
        "label": "disputes",
        "offset": 0,
        "slot": "68",
        "type": "t_mapping(t_uint256,t_struct(DisputeData)582_storage)"
      }
    ],
    "types": {
      "t_address": {
        "encoding": "inplace",
        "label": "address",
        "numberOfBytes": "20"
      },
      "t_address_payable": {
        "encoding": "inplace",
        "label": "address payable",
        "numberOfBytes": "20"
      },
      "t_array(t_bool)3_storage": {
        "base": "t_bool",
        "encoding": "inplace",
        "label": "bool[3]",
        "numberOfBytes": "32"
      },
      "t_array(t_bytes_storage)64_storage": {
        "base": "t_bytes_storage",
        "encoding": "inplace",
        "label": "bytes[64]",
        "numberOfBytes": "2048"
      },
      "t_array(t_struct(Round)605_storage)dyn_storage": {
        "base": "t_struct(Round)605_storage",
        "encoding": "dynamic_array",
        "label": "struct TruthPost.Round[]",
        "numberOfBytes": "32"
      },
      "t_array(t_uint256)3_storage": {
        "base": "t_uint256",
        "encoding": "inplace",
        "label": "uint256[3]",
        "numberOfBytes": "96"
      },
      "t_bool": {
        "encoding": "inplace",
        "label": "bool",
        "numberOfBytes": "1"
      },
      "t_bytes_storage": {
        "encoding": "bytes",
        "label": "bytes",
        "numberOfBytes": "32"
      },
      "t_enum(RulingOptions)295": {
        "encoding": "inplace",
        "label": "enum ITruthPost.RulingOptions",
        "numberOfBytes": "1"
      },
      "t_mapping(t_address,t_array(t_uint256)3_storage)": {
        "encoding": "mapping",
        "key": "t_address",
        "label": "mapping(address => uint256[3])",
        "numberOfBytes": "32",
        "value": "t_array(t_uint256)3_storage"
      },
      "t_mapping(t_uint256,t_struct(DisputeData)582_storage)": {
        "encoding": "mapping",
        "key": "t_uint256",
        "label": "mapping(uint256 => struct TruthPost.DisputeData)",
        "numberOfBytes": "32",
        "value": "t_struct(DisputeData)582_storage"
      },
      "t_mapping(t_uint80,t_struct(Article)614_storage)": {
        "encoding": "mapping",
        "key": "t_uint80",
        "label": "mapping(uint80 => struct TruthPost.Article)",
        "numberOfBytes": "32",
        "value": "t_struct(Article)614_storage"
      },
      "t_struct(Article)614_storage": {
        "encoding": "inplace",
        "label": "struct TruthPost.Article",
        "members": [
          {
            "astId": 607,
            "contract": "contracts/TruthPost.sol:TruthPost",
            "label": "owner",
            "offset": 0,
            "slot": "0",
            "type": "t_address_payable"
          },
          {
            "astId": 609,
            "contract": "contracts/TruthPost.sol:TruthPost",
            "label": "withdrawalPermittedAt",
            "offset": 20,
            "slot": "0",
            "type": "t_uint32"
          },
          {
            "astId": 611,
            "contract": "contracts/TruthPost.sol:TruthPost",
            "label": "bountyAmount",
            "offset": 24,
            "slot": "0",
            "type": "t_uint56"
          },
          {
            "astId": 613,
            "contract": "contracts/TruthPost.sol:TruthPost",
            "label": "category",
            "offset": 31,
            "slot": "0",
            "type": "t_uint8"
          }
        ],
        "numberOfBytes": "32"
      },
      "t_struct(DisputeData)582_storage": {
        "encoding": "inplace",
        "label": "struct TruthPost.DisputeData",
        "members": [
          {
            "astId": 568,
            "contract": "contracts/TruthPost.sol:TruthPost",
            "label": "challenger",
            "offset": 0,
            "slot": "0",
            "type": "t_address_payable"
          },
          {
            "astId": 571,
            "contract": "contracts/TruthPost.sol:TruthPost",
            "label": "outcome",
            "offset": 20,
            "slot": "0",
            "type": "t_enum(RulingOptions)295"
          },
          {
            "astId": 573,
            "contract": "contracts/TruthPost.sol:TruthPost",
            "label": "articleCategory",
            "offset": 21,
            "slot": "0",
            "type": "t_uint8"
          },
          {
            "astId": 575,
            "contract": "contracts/TruthPost.sol:TruthPost",
            "label": "resolved",
            "offset": 22,
            "slot": "0",
            "type": "t_bool"
          },
          {
            "astId": 577,
            "contract": "contracts/TruthPost.sol:TruthPost",
            "label": "articleStorageAddress",
            "offset": 0,
            "slot": "1",
            "type": "t_uint80"
          },
          {
            "astId": 581,
            "contract": "contracts/TruthPost.sol:TruthPost",
            "label": "rounds",
            "offset": 0,
            "slot": "2",
            "type": "t_array(t_struct(Round)605_storage)dyn_storage"
          }
        ],
        "numberOfBytes": "96"
      },
      "t_struct(Round)605_storage": {
        "encoding": "inplace",
        "label": "struct TruthPost.Round",
        "members": [
          {
            "astId": 590,
            "contract": "contracts/TruthPost.sol:TruthPost",
            "label": "contributions",
            "offset": 0,
            "slot": "0",
            "type": "t_mapping(t_address,t_array(t_uint256)3_storage)"
          },
          {
            "astId": 596,
            "contract": "contracts/TruthPost.sol:TruthPost",
            "label": "hasPaid",
            "offset": 0,
            "slot": "1",
            "type": "t_array(t_bool)3_storage"
          },
          {
            "astId": 602,
            "contract": "contracts/TruthPost.sol:TruthPost",
            "label": "totalPerRuling",
            "offset": 0,
            "slot": "2",
            "type": "t_array(t_uint256)3_storage"
          },
          {
            "astId": 604,
            "contract": "contracts/TruthPost.sol:TruthPost",
            "label": "totalClaimableAfterExpenses",
            "offset": 0,
            "slot": "5",
            "type": "t_uint256"
          }
        ],
        "numberOfBytes": "192"
      },
      "t_uint256": {
        "encoding": "inplace",
        "label": "uint256",
        "numberOfBytes": "32"
      },
      "t_uint32": {
        "encoding": "inplace",
        "label": "uint32",
        "numberOfBytes": "4"
      },
      "t_uint56": {
        "encoding": "inplace",
        "label": "uint56",
        "numberOfBytes": "7"
      },
      "t_uint8": {
        "encoding": "inplace",
        "label": "uint8",
        "numberOfBytes": "1"
      },
      "t_uint80": {
        "encoding": "inplace",
        "label": "uint80",
        "numberOfBytes": "10"
      }
    }
  }
}