{
  "address": "0x597ACAeF5A4b09add9e304EFeD453d33DDecA76a",
  "abi": [
    {
      "inputs": [
        {
          "internalType": "contract IArbitrator",
          "name": "_arbitrator",
          "type": "address"
        },
        {
          "internalType": "bytes",
          "name": "_arbitratorExtraData",
          "type": "bytes"
        },
        {
          "internalType": "string",
          "name": "_metaevidenceIpfsUri",
          "type": "string"
        },
        {
          "internalType": "uint256",
          "name": "_articleWithdrawalTimelock",
          "type": "uint256"
        },
        {
          "internalType": "uint256",
          "name": "_winnerStakeMultiplier",
          "type": "uint256"
        },
        {
          "internalType": "uint256",
          "name": "_loserStakeMultiplier",
          "type": "uint256"
        },
        {
          "internalType": "address payable",
          "name": "_treasury",
          "type": "address"
        }
      ],
      "stateMutability": "nonpayable",
      "type": "constructor"
    },
    {
      "anonymous": false,
      "inputs": [
        {
          "indexed": false,
          "internalType": "uint256",
          "name": "articleAddress",
          "type": "uint256"
        }
      ],
      "name": "ArticleWithdrawn",
      "type": "event"
    },
    {
      "anonymous": false,
      "inputs": [
        {
          "indexed": false,
          "internalType": "uint256",
          "name": "articleAddress",
          "type": "uint256"
        },
        {
          "indexed": false,
          "internalType": "uint256",
          "name": "newTotal",
          "type": "uint256"
        }
      ],
      "name": "BalanceUpdate",
      "type": "event"
    },
    {
      "anonymous": false,
      "inputs": [
        {
          "indexed": true,
          "internalType": "uint256",
          "name": "articleAddress",
          "type": "uint256"
        },
        {
          "indexed": false,
          "internalType": "address",
          "name": "challanger",
          "type": "address"
        },
        {
          "indexed": false,
          "internalType": "uint256",
          "name": "disputeID",
          "type": "uint256"
        }
      ],
      "name": "Challenge",
      "type": "event"
    },
    {
      "anonymous": false,
      "inputs": [
        {
          "indexed": true,
          "internalType": "uint256",
          "name": "disputeId",
          "type": "uint256"
        },
        {
          "indexed": true,
          "internalType": "uint256",
          "name": "round",
          "type": "uint256"
        },
        {
          "indexed": false,
          "internalType": "enum ITruthPost.RulingOptions",
          "name": "ruling",
          "type": "uint8"
        },
        {
          "indexed": true,
          "internalType": "address",
          "name": "contributor",
          "type": "address"
        },
        {
          "indexed": false,
          "internalType": "uint256",
          "name": "amount",
          "type": "uint256"
        }
      ],
      "name": "Contribution",
      "type": "event"
    },
    {
      "anonymous": false,
      "inputs": [
        {
          "indexed": false,
          "internalType": "uint256",
          "name": "articleAddress",
          "type": "uint256"
        }
      ],
      "name": "Debunked",
      "type": "event"
    },
    {
      "anonymous": false,
      "inputs": [
        {
          "indexed": true,
          "internalType": "contract IArbitrator",
          "name": "_arbitrator",
          "type": "address"
        },
        {
          "indexed": true,
          "internalType": "uint256",
          "name": "_disputeID",
          "type": "uint256"
        },
        {
          "indexed": false,
          "internalType": "uint256",
          "name": "_metaEvidenceID",
          "type": "uint256"
        },
        {
          "indexed": false,
          "internalType": "uint256",
          "name": "_evidenceGroupID",
          "type": "uint256"
        }
      ],
      "name": "Dispute",
      "type": "event"
    },
    {
      "anonymous": false,
      "inputs": [
        {
          "indexed": true,
          "internalType": "contract IArbitrator",
          "name": "_arbitrator",
          "type": "address"
        },
        {
          "indexed": true,
          "internalType": "uint256",
          "name": "_evidenceGroupID",
          "type": "uint256"
        },
        {
          "indexed": true,
          "internalType": "address",
          "name": "_party",
          "type": "address"
        },
        {
          "indexed": false,
          "internalType": "string",
          "name": "_evidence",
          "type": "string"
        }
      ],
      "name": "Evidence",
      "type": "event"
    },
    {
      "anonymous": false,
      "inputs": [
        {
          "indexed": true,
          "internalType": "uint256",
          "name": "_metaEvidenceID",
          "type": "uint256"
        },
        {
          "indexed": false,
          "internalType": "string",
          "name": "_evidence",
          "type": "string"
        }
      ],
      "name": "MetaEvidence",
      "type": "event"
    },
    {
      "anonymous": false,
      "inputs": [
        {
          "indexed": false,
          "internalType": "string",
          "name": "articleID",
          "type": "string"
        },
        {
          "indexed": false,
          "internalType": "uint8",
          "name": "category",
          "type": "uint8"
        },
        {
          "indexed": false,
          "internalType": "uint256",
          "name": "articleAddress",
          "type": "uint256"
        }
      ],
      "name": "NewArticle",
      "type": "event"
    },
    {
      "anonymous": false,
      "inputs": [
        {
          "indexed": true,
          "internalType": "contract IArbitrator",
          "name": "_arbitrator",
          "type": "address"
        },
        {
          "indexed": true,
          "internalType": "uint256",
          "name": "_disputeID",
          "type": "uint256"
        },
        {
          "indexed": false,
          "internalType": "uint256",
          "name": "_ruling",
          "type": "uint256"
        }
      ],
      "name": "Ruling",
      "type": "event"
    },
    {
      "anonymous": false,
      "inputs": [
        {
          "indexed": true,
          "internalType": "uint256",
          "name": "disputeId",
          "type": "uint256"
        },
        {
          "indexed": true,
          "internalType": "uint256",
          "name": "round",
          "type": "uint256"
        },
        {
          "indexed": true,
          "internalType": "enum ITruthPost.RulingOptions",
          "name": "ruling",
          "type": "uint8"
        }
      ],
      "name": "RulingFunded",
      "type": "event"
    },
    {
      "anonymous": false,
      "inputs": [
        {
          "indexed": false,
          "internalType": "uint256",
          "name": "articleAddress",
          "type": "uint256"
        }
      ],
      "name": "TimelockStarted",
      "type": "event"
    },
    {
      "anonymous": false,
      "inputs": [
        {
          "indexed": true,
          "internalType": "uint256",
          "name": "disputeId",
          "type": "uint256"
        },
        {
          "indexed": true,
          "internalType": "uint256",
          "name": "round",
          "type": "uint256"
        },
        {
          "indexed": false,
          "internalType": "enum ITruthPost.RulingOptions",
          "name": "ruling",
          "type": "uint8"
        },
        {
          "indexed": true,
          "internalType": "address",
          "name": "contributor",
          "type": "address"
        },
        {
          "indexed": false,
          "internalType": "uint256",
          "name": "reward",
          "type": "uint256"
        }
      ],
      "name": "Withdrawal",
      "type": "event"
    },
    {
      "inputs": [],
      "name": "ARBITRATOR",
      "outputs": [
        {
          "internalType": "contract IArbitrator",
          "name": "",
          "type": "address"
        }
      ],
      "stateMutability": "view",
      "type": "function"
    },
    {
      "inputs": [],
      "name": "ARTICLE_WITHDRAWAL_TIMELOCK",
      "outputs": [
        {
          "internalType": "uint256",
          "name": "",
          "type": "uint256"
        }
      ],
      "stateMutability": "view",
      "type": "function"
    },
    {
      "inputs": [],
      "name": "LOSER_APPEAL_PERIOD_MULTIPLIER",
      "outputs": [
        {
          "internalType": "uint256",
          "name": "",
          "type": "uint256"
        }
      ],
      "stateMutability": "view",
      "type": "function"
    },
    {
      "inputs": [],
      "name": "LOSER_STAKE_MULTIPLIER",
      "outputs": [
        {
          "internalType": "uint256",
          "name": "",
          "type": "uint256"
        }
      ],
      "stateMutability": "view",
      "type": "function"
    },
    {
      "inputs": [],
      "name": "MULTIPLIER_DENOMINATOR",
      "outputs": [
        {
          "internalType": "uint256",
          "name": "",
          "type": "uint256"
        }
      ],
      "stateMutability": "view",
      "type": "function"
    },
    {
      "inputs": [],
      "name": "NUMBER_OF_LEAST_SIGNIFICANT_BITS_TO_IGNORE",
      "outputs": [
        {
          "internalType": "uint256",
          "name": "",
          "type": "uint256"
        }
      ],
      "stateMutability": "view",
      "type": "function"
    },
    {
      "inputs": [],
      "name": "NUMBER_OF_RULING_OPTIONS",
      "outputs": [
        {
          "internalType": "uint256",
          "name": "",
          "type": "uint256"
        }
      ],
      "stateMutability": "view",
      "type": "function"
    },
    {
      "inputs": [],
      "name": "TREASURY",
      "outputs": [
        {
          "internalType": "address payable",
          "name": "",
          "type": "address"
        }
      ],
      "stateMutability": "view",
      "type": "function"
    },
    {
      "inputs": [],
      "name": "VERSION",
      "outputs": [
        {
          "internalType": "string",
          "name": "",
          "type": "string"
        }
      ],
      "stateMutability": "view",
      "type": "function"
    },
    {
      "inputs": [],
      "name": "WINNER_STAKE_MULTIPLIER",
      "outputs": [
        {
          "internalType": "uint256",
          "name": "",
          "type": "uint256"
        }
      ],
      "stateMutability": "view",
      "type": "function"
    },
    {
      "inputs": [],
      "name": "admin",
      "outputs": [
        {
          "internalType": "address payable",
          "name": "",
          "type": "address"
        }
      ],
      "stateMutability": "view",
      "type": "function"
    },
    {
      "inputs": [
        {
          "internalType": "uint256",
          "name": "_disputeID",
          "type": "uint256"
        }
      ],
      "name": "appealFee",
      "outputs": [
        {
          "internalType": "uint256",
          "name": "arbitrationFee",
          "type": "uint256"
        }
      ],
      "stateMutability": "view",
      "type": "function"
    },
    {
      "inputs": [
        {
          "internalType": "uint80",
          "name": "",
          "type": "uint80"
        }
      ],
      "name": "articleStorage",
      "outputs": [
        {
          "internalType": "address payable",
          "name": "owner",
          "type": "address"
        },
        {
          "internalType": "uint32",
          "name": "withdrawalPermittedAt",
          "type": "uint32"
        },
        {
          "internalType": "uint56",
          "name": "bountyAmount",
          "type": "uint56"
        },
        {
          "internalType": "uint8",
          "name": "category",
          "type": "uint8"
        }
      ],
      "stateMutability": "view",
      "type": "function"
    },
    {
      "inputs": [],
      "name": "categoryCounter",
      "outputs": [
        {
          "internalType": "uint8",
          "name": "",
          "type": "uint8"
        }
      ],
      "stateMutability": "view",
      "type": "function"
    },
    {
      "inputs": [
        {
          "internalType": "uint256",
          "name": "",
          "type": "uint256"
        }
      ],
      "name": "categoryToArbitratorExtraData",
      "outputs": [
        {
          "internalType": "bytes",
          "name": "",
          "type": "bytes"
        }
      ],
      "stateMutability": "view",
      "type": "function"
    },
    {
      "inputs": [
        {
          "internalType": "uint80",
          "name": "_articleStorageAddress",
          "type": "uint80"
        }
      ],
      "name": "challenge",
      "outputs": [],
      "stateMutability": "payable",
      "type": "function"
    },
    {
      "inputs": [
        {
          "internalType": "uint80",
          "name": "_articleStorageAddress",
          "type": "uint80"
        }
      ],
      "name": "challengeFee",
      "outputs": [
        {
          "internalType": "uint256",
          "name": "",
          "type": "uint256"
        }
      ],
      "stateMutability": "view",
      "type": "function"
    },
    {
      "inputs": [],
      "name": "challengeTaxRate",
      "outputs": [
        {
          "internalType": "uint256",
          "name": "",
          "type": "uint256"
        }
      ],
      "stateMutability": "view",
      "type": "function"
    },
    {
      "inputs": [
        {
          "internalType": "address payable",
          "name": "_newAdmin",
          "type": "address"
        }
      ],
      "name": "changeAdmin",
      "outputs": [],
      "stateMutability": "nonpayable",
      "type": "function"
    },
    {
      "inputs": [
        {
          "internalType": "address payable",
          "name": "_newTreasury",
          "type": "address"
        }
      ],
      "name": "changeTreasury",
      "outputs": [],
      "stateMutability": "nonpayable",
      "type": "function"
    },
    {
      "inputs": [
        {
          "internalType": "uint256",
          "name": "",
          "type": "uint256"
        }
      ],
      "name": "disputes",
      "outputs": [
        {
          "internalType": "address payable",
          "name": "challenger",
          "type": "address"
        },
        {
          "internalType": "enum ITruthPost.RulingOptions",
          "name": "outcome",
          "type": "uint8"
        },
        {
          "internalType": "uint8",
          "name": "articleCategory",
          "type": "uint8"
        },
        {
          "internalType": "bool",
          "name": "resolved",
          "type": "bool"
        },
        {
          "internalType": "uint80",
          "name": "articleStorageAddress",
          "type": "uint80"
        }
      ],
      "stateMutability": "view",
      "type": "function"
    },
    {
      "inputs": [
        {
          "internalType": "uint80",
          "name": "_searchPointer",
          "type": "uint80"
        }
      ],
      "name": "findVacantStorageSlot",
      "outputs": [
        {
          "internalType": "uint256",
          "name": "vacantSlotIndex",
          "type": "uint256"
        }
      ],
      "stateMutability": "view",
      "type": "function"
    },
    {
      "inputs": [
        {
          "internalType": "uint256",
          "name": "_disputeID",
          "type": "uint256"
        },
        {
          "internalType": "enum ITruthPost.RulingOptions",
          "name": "_supportedRuling",
          "type": "uint8"
        }
      ],
      "name": "fundAppeal",
      "outputs": [
        {
          "internalType": "bool",
          "name": "fullyFunded",
          "type": "bool"
        }
      ],
      "stateMutability": "payable",
      "type": "function"
    },
    {
      "inputs": [
        {
          "internalType": "uint256",
          "name": "_disputeID",
          "type": "uint256"
        },
        {
          "internalType": "enum ITruthPost.RulingOptions",
          "name": "_ruling",
          "type": "uint8"
        }
      ],
      "name": "getAmountRemainsToBeRaised",
      "outputs": [
        {
          "internalType": "uint256",
          "name": "",
          "type": "uint256"
        }
      ],
      "stateMutability": "view",
      "type": "function"
    },
    {
      "inputs": [
        {
          "internalType": "uint256",
          "name": "_disputeID",
          "type": "uint256"
        },
        {
          "internalType": "enum ITruthPost.RulingOptions",
          "name": "_ruling",
          "type": "uint8"
        }
      ],
      "name": "getAppealPeriod",
      "outputs": [
        {
          "internalType": "uint256",
          "name": "",
          "type": "uint256"
        },
        {
          "internalType": "uint256",
          "name": "",
          "type": "uint256"
        }
      ],
      "stateMutability": "view",
      "type": "function"
    },
    {
      "inputs": [
        {
          "internalType": "uint256",
          "name": "_disputeID",
          "type": "uint256"
        }
      ],
      "name": "getLastRoundWinner",
      "outputs": [
        {
          "internalType": "uint256",
          "name": "",
          "type": "uint256"
        }
      ],
      "stateMutability": "view",
      "type": "function"
    },
    {
      "inputs": [
        {
          "internalType": "enum ITruthPost.RulingOptions",
          "name": "_ruling",
          "type": "uint8"
        },
        {
          "internalType": "enum ITruthPost.RulingOptions",
          "name": "_lastRoundWinner",
          "type": "uint8"
        }
      ],
      "name": "getReturnOfInvestmentRatio",
      "outputs": [
        {
          "internalType": "uint256",
          "name": "",
          "type": "uint256"
        }
      ],
      "stateMutability": "view",
      "type": "function"
    },
    {
      "inputs": [
        {
          "internalType": "uint256",
          "name": "_disputeID",
          "type": "uint256"
        },
        {
          "internalType": "uint256",
          "name": "_round",
          "type": "uint256"
        }
      ],
      "name": "getRoundInfo",
      "outputs": [
        {
          "internalType": "bool[3]",
          "name": "hasPaid",
          "type": "bool[3]"
        },
        {
          "internalType": "uint256[3]",
          "name": "totalPerRuling",
          "type": "uint256[3]"
        },
        {
          "internalType": "uint256",
          "name": "totalClaimableAfterExpenses",
          "type": "uint256"
        }
      ],
      "stateMutability": "view",
      "type": "function"
    },
    {
      "inputs": [
        {
          "internalType": "uint256",
          "name": "_disputeID",
          "type": "uint256"
        },
        {
          "internalType": "address payable",
          "name": "_contributor",
          "type": "address"
        }
      ],
      "name": "getTotalWithdrawableAmount",
      "outputs": [
        {
          "internalType": "uint256",
          "name": "sum",
          "type": "uint256"
        },
        {
          "internalType": "uint256[][]",
          "name": "amounts",
          "type": "uint256[][]"
        }
      ],
      "stateMutability": "view",
      "type": "function"
    },
    {
      "inputs": [
        {
          "internalType": "uint80",
          "name": "_articleStorageAddress",
          "type": "uint80"
        }
      ],
      "name": "increaseBounty",
      "outputs": [],
      "stateMutability": "payable",
      "type": "function"
    },
    {
      "inputs": [
        {
          "internalType": "string",
          "name": "_articleID",
          "type": "string"
        },
        {
          "internalType": "uint8",
          "name": "_category",
          "type": "uint8"
        },
        {
          "internalType": "uint80",
          "name": "_searchPointer",
          "type": "uint80"
        }
      ],
      "name": "initializeArticle",
      "outputs": [],
      "stateMutability": "payable",
      "type": "function"
    },
    {
      "inputs": [
        {
          "internalType": "uint80",
          "name": "_articleStorageAddress",
          "type": "uint80"
        }
      ],
      "name": "initiateWithdrawal",
      "outputs": [],
      "stateMutability": "nonpayable",
      "type": "function"
    },
    {
      "inputs": [
        {
          "internalType": "string",
          "name": "_metaevidenceIpfsUri",
          "type": "string"
        },
        {
          "internalType": "bytes",
          "name": "_arbitratorExtraData",
          "type": "bytes"
        }
      ],
      "name": "newCategory",
      "outputs": [],
      "stateMutability": "nonpayable",
      "type": "function"
    },
    {
      "inputs": [
        {
          "internalType": "uint256",
          "name": "_disputeID",
          "type": "uint256"
        },
        {
          "internalType": "uint256",
          "name": "_ruling",
          "type": "uint256"
        }
      ],
      "name": "rule",
      "outputs": [],
      "stateMutability": "nonpayable",
      "type": "function"
    },
    {
      "inputs": [
        {
          "internalType": "uint256",
          "name": "_disputeID",
          "type": "uint256"
        },
        {
          "internalType": "string",
          "name": "_evidenceURI",
          "type": "string"
        }
      ],
      "name": "submitEvidence",
      "outputs": [],
      "stateMutability": "nonpayable",
      "type": "function"
    },
    {
      "inputs": [],
      "name": "transferBalanceToTreasury",
      "outputs": [],
      "stateMutability": "nonpayable",
      "type": "function"
    },
    {
      "inputs": [
        {
          "internalType": "uint80",
          "name": "_articleStorageAddress",
          "type": "uint80"
        },
        {
          "internalType": "address payable",
          "name": "_newOwner",
          "type": "address"
        }
      ],
      "name": "transferOwnership",
      "outputs": [],
      "stateMutability": "nonpayable",
      "type": "function"
    },
    {
      "inputs": [],
      "name": "treasuryBalance",
      "outputs": [
        {
          "internalType": "uint256",
          "name": "",
          "type": "uint256"
        }
      ],
      "stateMutability": "view",
      "type": "function"
    },
    {
      "inputs": [
        {
          "internalType": "uint256",
          "name": "_newChallengeTaxRate",
          "type": "uint256"
        }
      ],
      "name": "updateChallengeTaxRate",
      "outputs": [],
      "stateMutability": "nonpayable",
      "type": "function"
    },
    {
      "inputs": [
        {
          "internalType": "uint80",
          "name": "_articleStorageAddress",
          "type": "uint80"
        }
      ],
      "name": "withdraw",
      "outputs": [],
      "stateMutability": "nonpayable",
      "type": "function"
    },
    {
      "inputs": [
        {
          "internalType": "uint256",
          "name": "_disputeID",
          "type": "uint256"
        },
        {
          "internalType": "address payable",
          "name": "_contributor",
          "type": "address"
        },
        {
          "internalType": "uint256",
          "name": "_roundNumber",
          "type": "uint256"
        },
        {
          "internalType": "enum ITruthPost.RulingOptions",
          "name": "_ruling",
          "type": "uint8"
        }
      ],
      "name": "withdrawFeesAndRewards",
      "outputs": [
        {
          "internalType": "uint256",
          "name": "amount",
          "type": "uint256"
        }
      ],
      "stateMutability": "nonpayable",
      "type": "function"
    },
    {
      "inputs": [
        {
          "internalType": "uint256",
          "name": "_disputeID",
          "type": "uint256"
        },
        {
          "internalType": "address payable",
          "name": "_contributor",
          "type": "address"
        },
        {
          "internalType": "enum ITruthPost.RulingOptions",
          "name": "_ruling",
          "type": "uint8"
        }
      ],
      "name": "withdrawFeesAndRewardsForAllRounds",
      "outputs": [],
      "stateMutability": "nonpayable",
      "type": "function"
    },
    {
      "inputs": [
        {
          "internalType": "uint256",
          "name": "_disputeID",
          "type": "uint256"
        },
        {
          "internalType": "address payable",
          "name": "_contributor",
          "type": "address"
        }
      ],
      "name": "withdrawFeesAndRewardsForAllRoundsAndAllRulings",
      "outputs": [],
      "stateMutability": "nonpayable",
      "type": "function"
    },
    {
      "inputs": [
        {
          "internalType": "uint256",
          "name": "_disputeID",
          "type": "uint256"
        },
        {
          "internalType": "address payable",
          "name": "_contributor",
          "type": "address"
        },
        {
          "internalType": "uint256[][]",
          "name": "positions",
          "type": "uint256[][]"
        }
      ],
      "name": "withdrawFeesAndRewardsForGivenPositions",
      "outputs": [],
      "stateMutability": "nonpayable",
      "type": "function"
    }
  ],
  "transactionHash": "0x18779c59c3388f30cfe96433357745f5de51d0ffad80fae6fa3b330dfefc2409",
  "args": [
    "0x1128eD55ab2d796fa92D2F8E1f336d745354a77A",
    "0x00000000000000000000000000000000000000000000000000000000000000000000000000000000000000000000000000000000000000000000000000000001",
    "/ipfs/Qma9bJT7AgSW6zC3CwEBwoBkrKpdPotVgs5S6SjNXdXENg/metaEvidence.json",
    300,
    128,
    256,
    "0x387e8B40e332831b7a8ad629966df3E9f969C6ad"
  ],
  "solcInputHash": "6578032cdd0138b6b9bb8206553c7554",
  "bytecode": "0x61010060408190526010600255600380546001600160a81b031916339092029190911790553480156200003157600080fd5b506040516200439238038062004392833981016040819052620000549162000372565b608084905260a083905260c0829052600080546001600160a01b0319166001600160a01b0383811691909117909155871660e052620000948587620000a1565b5050505050505062000522565b600354620000b49060ff1660016200044f565b60ff16620001085760405162461bcd60e51b815260206004820181905260248201527f4e6f207370616365206c65667420666f722061206e65772063617465676f7279604482015260640160405180910390fd5b60035460405160ff909116907f61606860eb6c87306811e2695215385101daab53bd6ab4e9f9049aead9363c7d906200014390859062000477565b60405180910390a2600354819060049060ff1660408110620001695762000169620004ac565b0190805190602001906200017f929190620001b2565b506003805460ff169060006200019583620004c2565b91906101000a81548160ff021916908360ff160217905550505050565b828054620001c090620004e5565b90600052602060002090601f016020900481019282620001e457600085556200022f565b82601f10620001ff57805160ff19168380011785556200022f565b828001600101855582156200022f579182015b828111156200022f57825182559160200191906001019062000212565b506200023d92915062000241565b5090565b5b808211156200023d576000815560010162000242565b6001600160a01b03811681146200026e57600080fd5b50565b634e487b7160e01b600052604160045260246000fd5b60005b83811015620002a45781810151838201526020016200028a565b83811115620002b4576000848401525b50505050565b60006001600160401b0380841115620002d757620002d762000271565b604051601f8501601f19908116603f0116810190828211818310171562000302576200030262000271565b816040528093508581528686860111156200031c57600080fd5b6200032c86602083018762000287565b5050509392505050565b600082601f8301126200034857600080fd5b6200035983835160208501620002ba565b9392505050565b80516200036d8162000258565b919050565b600080600080600080600060e0888a0312156200038e57600080fd5b87516200039b8162000258565b60208901519097506001600160401b0380821115620003b957600080fd5b818a0191508a601f830112620003ce57600080fd5b620003df8b835160208501620002ba565b975060408a0151915080821115620003f657600080fd5b50620004058a828b0162000336565b955050606088015193506080880151925060a088015191506200042b60c0890162000360565b905092959891949750929550565b634e487b7160e01b600052601160045260246000fd5b600060ff821660ff84168060ff038211156200046f576200046f62000439565b019392505050565b60208152600082518060208401526200049881604085016020870162000287565b601f01601f19169190910160400192915050565b634e487b7160e01b600052603260045260246000fd5b600060ff821660ff811415620004dc57620004dc62000439565b60010192915050565b600181811c90821680620004fa57607f821691505b602082108114156200051c57634e487b7160e01b600052602260045260246000fd5b50919050565b60805160a05160c05160e051613d9c620005f6600039600081816105bf01528181610ac001528181610b4e01528181610d6f015281816111ac0152818161134a015281816116f601528181611b2401528181611c690152818161201c015281816121b201528181612261015281816126c001526127ba0152600081816107f901528181610d4b0152818161264401528181612cbd0152612d1a01526000818161091401528181610c820152818161266a01528181612ce30152612d3b0152600081816108ab01526125290152613d9c6000f3fe6080604052600436106102e75760003560e01c80638a9bb02a11610184578063bc0936fd116100d6578063dc227fc21161008a578063fc0ac67211610064578063fc0ac6721461095b578063fe6ca78214610971578063ffa1ad741461098757600080fd5b8063dc227fc2146108e2578063e349ad3014610902578063f851a4401461093657600080fd5b8063c9330c0f116100bb578063c9330c0f14610879578063d3b476b114610899578063d970d18c146108cd57600080fd5b8063bc0936fd14610850578063be4676041461086357600080fd5b8063ab9cd37e11610138578063b34bfaa811610112578063b34bfaa8146107e7578063b4c705811461081b578063b7bddc721461083b57600080fd5b8063ab9cd37e14610779578063af4a914414610799578063b14f2a39146107c757600080fd5b8063956dcbd211610169578063956dcbd214610719578063a509efeb14610739578063a6a7f0eb1461075957600080fd5b80638a9bb02a146106ca5780638f283970146106f957600080fd5b80634de12db01161023d5780636760aeb0116101f15780637597b3cb116101cb5780637597b3cb146105f457806378431ce9146106095780637f67bd6c146106aa57600080fd5b80636760aeb01461058d57806368871c9c146105ad578063736ed418146105e157600080fd5b8063638af3da11610222578063638af3da1461051857806364ff9dfa1461054d57806367284f211461056d57600080fd5b80634de12db014610471578063564a565d1461049e57600080fd5b806326804bef1161029f578063311a6c5611610279578063311a6c561461041b578063313dab201461043b5780634c55c0001461045157600080fd5b806326804bef146103b057806329238089146103d05780632d2c5565146103e357600080fd5b806312b3a2c0116102d057806312b3a2c01461033f57806315f36ebe146103625780631e26de341461039057600080fd5b806303624fc0146102ec57806306bcbd731461031d575b600080fd5b3480156102f857600080fd5b506003546103069060ff1681565b60405160ff90911681526020015b60405180910390f35b34801561032957600080fd5b5061033d6103383660046133cb565b6109d0565b005b61035261034d36600461340d565b610a9a565b6040519015158152602001610314565b34801561036e57600080fd5b5061038261037d366004613430565b6112d1565b604051908152602001610314565b34801561039c57600080fd5b506103826103ab36600461344b565b611335565b3480156103bc57600080fd5b5061033d6103cb36600461344b565b6113fe565b61033d6103de3660046134a6565b611497565b3480156103ef57600080fd5b50600054610403906001600160a01b031681565b6040516001600160a01b039091168152602001610314565b34801561042757600080fd5b5061033d610436366004613512565b6116eb565b34801561044757600080fd5b5061038260015481565b34801561045d57600080fd5b5061033d61046c3660046135c0565b61197b565b34801561047d57600080fd5b5061049161048c36600461344b565b611a7c565b604051610314919061369c565b3480156104aa57600080fd5b506105076104b936600461344b565b604560205260009081526040902080546001909101546001600160a01b0382169160ff600160a01b8204811692600160a81b8304821692600160b01b9004909116906001600160501b031685565b6040516103149594939291906136e7565b34801561052457600080fd5b5061053861053336600461340d565b611b1c565b60408051928352602083019190915201610314565b34801561055957600080fd5b50610382610568366004613430565b611c48565b34801561057957600080fd5b5061033d61058836600461372c565b611d61565b34801561059957600080fd5b5061033d6105a83660046137b6565b611e25565b3480156105b957600080fd5b506104037f000000000000000000000000000000000000000000000000000000000000000081565b61033d6105ef366004613430565b611e6a565b34801561060057600080fd5b50610382600281565b34801561061557600080fd5b5061066a610624366004613430565b6044602052600090815260409020546001600160a01b03811690600160a01b810463ffffffff1690600160c01b810466ffffffffffffff1690600160f81b900460ff1684565b604080516001600160a01b03909516855263ffffffff909316602085015266ffffffffffffff9091169183019190915260ff166060820152608001610314565b3480156106b657600080fd5b506103826106c536600461344b565b612248565b3480156106d657600080fd5b506106ea6106e5366004613512565b6122da565b604051610314939291906137f2565b34801561070557600080fd5b5061033d610714366004613857565b6123ca565b34801561072557600080fd5b5061033d610734366004613430565b612425565b34801561074557600080fd5b5061038261075436600461340d565b6125af565b34801561076557600080fd5b5061033d610774366004613872565b6127ad565b34801561078557600080fd5b5061033d610794366004613430565b612820565b3480156107a557600080fd5b506107b96107b43660046138be565b612a52565b6040516103149291906138e1565b3480156107d357600080fd5b5061033d6107e2366004613857565b612c3c565b3480156107f357600080fd5b506103827f000000000000000000000000000000000000000000000000000000000000000081565b34801561082757600080fd5b50610382610836366004613973565b612c87565b34801561084757600080fd5b5061033d612d87565b61033d61085e366004613430565b612dbd565b34801561086f57600080fd5b5061038261020081565b34801561088557600080fd5b5061033d6108943660046138be565b612ef7565b3480156108a557600080fd5b506103827f000000000000000000000000000000000000000000000000000000000000000081565b3480156108d957600080fd5b50610382602081565b3480156108ee57600080fd5b506103826108fd36600461399d565b612f5e565b34801561090e57600080fd5b506103827f000000000000000000000000000000000000000000000000000000000000000081565b34801561094257600080fd5b506003546104039061010090046001600160a01b031681565b34801561096757600080fd5b5061038260025481565b34801561097d57600080fd5b5061038261040081565b34801561099357600080fd5b506104916040518060400160405280600581526020017f312e322e3000000000000000000000000000000000000000000000000000000081525081565b6001600160501b038216600090815260446020526040902080546001600160a01b03163314610a6c5760405162461bcd60e51b815260206004820152602360248201527f4f6e6c7920617574686f722063616e207472616e73666572206f776e6572736860448201527f69702e000000000000000000000000000000000000000000000000000000000060648201526084015b60405180910390fd5b805473ffffffffffffffffffffffffffffffffffffffff19166001600160a01b039290921691909117905550565b6000828152604560205260408082209051631c3db16d60e01b81526004810185905282907f00000000000000000000000000000000000000000000000000000000000000006001600160a01b031690631c3db16d90602401602060405180830381865afa158015610b0f573d6000803e3d6000fd5b505050506040513d601f19601f82011682018060405250810190610b3391906139d8565b6002811115610b4457610b446136af565b90506000806000807f00000000000000000000000000000000000000000000000000000000000000006001600160a01b031663afe15cfb8a6040518263ffffffff1660e01b8152600401610b9a91815260200190565b6040805180830381865afa158015610bb6573d6000803e3d6000fd5b505050506040513d601f19601f82011682018060405250810190610bda91906139f1565b915091506000856002811115610bf257610bf26136af565b896002811115610c0457610c046136af565b1415610ca657814210610c7f5760405162461bcd60e51b815260206004820152602e60248201527f46756e64696e67206d757374206265206d6164652077697468696e207468652060448201527f61707065616c20706572696f642e0000000000000000000000000000000000006064820152608401610a63565b507f0000000000000000000000000000000000000000000000000000000000000000610d6b565b610400610200610cb68585613a2b565b610cc09190613a42565b610cca9190613a61565b610cd49084613a83565b4210610d485760405162461bcd60e51b815260206004820152603960248201527f46756e64696e67206d757374206265206d6164652077697468696e207468652060448201527f66697273742068616c662061707065616c20706572696f642e000000000000006064820152608401610a63565b507f00000000000000000000000000000000000000000000000000000000000000005b86547f00000000000000000000000000000000000000000000000000000000000000006001600160a01b03169063f23f16e6908c90600490600160a81b900460ff1660408110610dbd57610dbd613a9b565b016040518363ffffffff1660e01b8152600401610ddb929190613b8c565b602060405180830381865afa158015610df8573d6000803e3d6000fd5b505050506040513d601f19601f82011682018060405250810190610e1c91906139d8565b9450610400610e2b8287613a42565b610e359190613a61565b610e3f9086613a83565b600288015490945089935060009250610e5b9150600190613a2b565b90506000866002018281548110610e7457610e74613a9b565b9060005260206000209060060201905080600101836002811115610e9a57610e9a6136af565b60038110610eaa57610eaa613a9b565b602081049091015460ff601f9092166101000a90041615610f335760405162461bcd60e51b815260206004820152602160248201527f41707065616c206665652068617320616c7265616479206265656e207061696460448201527f2e000000000000000000000000000000000000000000000000000000000000006064820152608401610a63565b60008082600201856002811115610f4c57610f4c6136af565b60038110610f5c57610f5c613a9b565b01549050858110610f705760009150610f94565b34610f7b8288613a2b565b11610f8f57610f8a8187613a2b565b610f91565b345b91505b50336001600160a01b0316838c7f2b4ef80a862edc5616a4e61c11f4a368f33323faca91fa7635d48b85c183e66a8d85604051610fd2929190613bad565b60405180910390a43360009081526020839052604090208190856002811115610ffd57610ffd6136af565b6003811061100d5761100d613a9b565b01600082825461101d9190613a83565b92505081905550808260020185600281111561103b5761103b6136af565b6003811061104b5761104b613a9b565b01600082825461105b9190613a83565b925050819055508482600201856002811115611079576110796136af565b6003811061108957611089613a9b565b01541061115757816002018460028111156110a6576110a66136af565b600381106110b6576110b6613a9b565b01548260050160008282546110cb9190613a83565b90915550600190508281018560028111156110e8576110e86136af565b600381106110f8576110f8613a9b565b602091828204019190066101000a81548160ff021916908315150217905550896002811115611129576111296136af565b60405184908d907fb5681f036910f38d8c2fa06f2cbedc227ecf03d7c4a358ee9096197b15ff8fd090600090a45b6001820154610100900460ff16801561117a5750600182015462010000900460ff165b1561124d57600288018054600101815560009081526005830180548892906111a3908490613a2b565b909155505087547f00000000000000000000000000000000000000000000000000000000000000006001600160a01b0316906349912f889088908e90600490600160a81b900460ff16604081106111fc576111fc613a9b565b016040518463ffffffff1660e01b815260040161121a929190613b8c565b6000604051808303818588803b15801561123357600080fd5b505af1158015611247573d6000803e3d6000fd5b50505050505b60006112598234613a2b565b111561128557336108fc61126d8334613a2b565b6040518115909202916000818181858888f150505050505b8160010184600281111561129b5761129b6136af565b600381106112ab576112ab613a9b565b602081049091015460ff601f9092166101000a9004169850505050505050505092915050565b6000805b60446000846112e381613bc8565b6001600160501b03919091168252602082019290925260400160002080549194509150600160c01b900466ffffffffffffff166112d557611325600184613bef565b6001600160501b03169392505050565b600081815260456020526040808220805490917f00000000000000000000000000000000000000000000000000000000000000006001600160a01b03169163f23f16e6918691600491600160a81b90910460ff1690811061139857611398613a9b565b016040518363ffffffff1660e01b81526004016113b6929190613b8c565b602060405180830381865afa1580156113d3573d6000803e3d6000fd5b505050506040513d601f19601f820116820180604052508101906113f791906139d8565b9392505050565b60035461010090046001600160a01b0316331461141a57600080fd5b6101008111156114925760405162461bcd60e51b815260206004820152603660248201527f5468652074617820726174652063616e206f6e6c7920626520696e637265617360448201527f65642062792061206d6178696d756d206f6620323525000000000000000000006064820152608401610a63565b600255565b60035460ff908116908316106114ef5760405162461bcd60e51b815260206004820152601c60248201527f546869732063617465676f727920646f6573206e6f74206578697374000000006044820152606401610a63565b60005b604460008361150081613bc8565b6001600160501b03919091168252602082019290925260400160002080549193509150600160c01b900466ffffffffffffff166114f25780547fff00000000000000ffffffff000000000000000000000000000000000000000016337fff00000000000000ffffffffffffffffffffffffffffffffffffffffffffffff1617600160c01b3460201c66ffffffffffffff9081168202929092177effffffffffffffffffffffffffffffffffffffffffffffffffffffffffffff16600160f81b60ff87160217808455041661163c5760405162461bcd60e51b815260206004820152603960248201527f596f752063616e277420696e697469616c697a6520616e2061727469636c652060448201527f776974686f75742070757474696e67206120626f756e74792e000000000000006064820152608401610a63565b6000611649600184613bef565b6001600160501b031690507f4f9a2b734331c583faf3f19d1feb5f08b742e016a56fb61379950beaf3e22341868686846040516116899493929190613c40565b60405180910390a1815460408051838152600160c01b909204602090811b6affffffffffffff0000000016908301527fdf5fc410d3381cc7f0a7fe3af72f4e3cf53ef5787f20554af69035a950e1b2e3910160405180910390a1505050505050565b336001600160a01b037f0000000000000000000000000000000000000000000000000000000000000000161461172057600080fd5b600082815260456020526040812060028101805491929161174390600190613a2b565b8154811061175357611753613a9b565b60009182526020822060016006929092020190810154909250610100900460ff161561178157506001611797565b6001820154610100900460ff1615611797575060025b6000808260028111156117ac576117ac6136af565b14156117c9578460028111156117c4576117c46136af565b6117cb565b815b8454909150819085907fffffffffffffffffffffff00ffffffffffffffffffffffffffffffffffffffff16600160a01b83600281111561180d5761180d6136af565b021790555060018401546001600160501b031660008181526044602052604090206002836002811115611842576118426136af565b14156118f95780547fff00000000000000ffffffffffffffffffffffffffffffffffffffffffffffff811682556040516001600160501b0384168152600160c01b909104602090811b6affffffffffffff0000000016917f8271992f9b3a3f30dc2a464982dc4a136e7357403462443a171a0fb0c6ccc265910160405180910390a16000898152604560205260408082205490516001600160a01b039091169183156108fc02918491818181858888f15050505050505b805463ffffffff60a01b1916815585547fffffffffffffffffff00ffffffffffffffffffffffffffffffffffffffffffff16600160b01b178655604051889033907f394027a5fa6e098a1191094d1719d6929b9abc535fcc0c8f448d6a4e7562227690611969908b815260200190565b60405180910390a35050505050505050565b60035461198c9060ff166001613c6a565b60ff166119db5760405162461bcd60e51b815260206004820181905260248201527f4e6f207370616365206c65667420666f722061206e65772063617465676f72796044820152606401610a63565b60035460405160ff909116907f61606860eb6c87306811e2695215385101daab53bd6ab4e9f9049aead9363c7d90611a1490859061369c565b60405180910390a2600354819060049060ff1660408110611a3757611a37613a9b565b019080519060200190611a4b9291906132e1565b506003805460ff16906000611a5f83613c8f565b91906101000a81548160ff021916908360ff160217905550505050565b60048160408110611a8c57600080fd5b018054909150611a9b90613ab1565b80601f0160208091040260200160405190810160405280929190818152602001828054611ac790613ab1565b8015611b145780601f10611ae957610100808354040283529160200191611b14565b820191906000526020600020905b815481529060010190602001808311611af757829003601f168201915b505050505081565b6000806000807f00000000000000000000000000000000000000000000000000000000000000006001600160a01b031663afe15cfb876040518263ffffffff1660e01b8152600401611b7091815260200190565b6040805180830381865afa158015611b8c573d6000803e3d6000fd5b505050506040513d601f19601f82011682018060405250810190611bb091906139f1565b90925090506000610400610200611bc78585613a2b565b611bd19190613a42565b611bdb9190613a61565b611be59084613a83565b90506000866002811115611bfb57611bfb6136af565b611c0489612248565b6002811115611c1557611c156136af565b6002811115611c2657611c266136af565b14905080611c35578382611c38565b83835b95509550505050505b9250929050565b6001600160501b0381166000908152604460205260408082208054909183917f00000000000000000000000000000000000000000000000000000000000000006001600160a01b03169163f7434ea991600491600160f81b90910460ff16908110611cb557611cb5613a9b565b016040518263ffffffff1660e01b8152600401611cd29190613caf565b602060405180830381865afa158015611cef573d6000803e3d6000fd5b505050506040513d601f19601f82011682018060405250810190611d1391906139d8565b600254835491925060009161040091611d4291600160c01b900460201b6affffffffffffff0000000016613a42565b611d4c9190613a61565b9050611d588183613a83565b95945050505050565b60005b81811015611e1e5760005b838383818110611d8157611d81613a9b565b9050602002810190611d939190613cc2565b9050811015611e0b576000848484818110611db057611db0613a9b565b9050602002810190611dc29190613cc2565b83818110611dd257611dd2613a9b565b905060200201351115611df957611df78686848460028111156108fd576108fd6136af565b505b80611e0381613d0c565b915050611d6f565b5080611e1681613d0c565b915050611d64565b5050505050565b6000838152604560205260408120600281015490915b81811015611e6257611e4f86868387612f5e565b5080611e5a81613d0c565b915050611e3b565b505050505050565b6001600160501b03811660009081526044602052604090208054600160c01b900466ffffffffffffff16611ee05760405162461bcd60e51b815260206004820152601560248201527f4e6f7468696e6720746f206368616c6c656e67652e00000000000000000000006044820152606401610a63565b8054600160a01b900463ffffffff9081161415611f3f5760405162461bcd60e51b815260206004820152601e60248201527f546865726520697320616e206f6e676f696e67206368616c6c656e67652e00006044820152606401610a63565b805463ffffffff60a01b191677ffffffff0000000000000000000000000000000000000000178155611f7082611c48565b341015611fbf5760405162461bcd60e51b815260206004820181905260248201527f496e73756666696369656e742066756e647320746f206368616c6c656e67652e6044820152606401610a63565b600254815460009161040091611fec9190600160c01b900460201b6affffffffffffff0000000016613a42565b611ff69190613a61565b9050806001600082825461200a9190613a83565b90915550600090506001600160a01b037f00000000000000000000000000000000000000000000000000000000000000001663c13517e161204b8434613a2b565b8554600290600490600160f81b900460ff166040811061206d5761206d613a9b565b016040518463ffffffff1660e01b815260040161208b929190613b8c565b60206040518083038185885af11580156120a9573d6000803e3d6000fd5b50505050506040513d601f19601f820116820180604052508101906120ce91906139d8565b60008181526045602090815260409182902080543373ffffffffffffffffffffffffffffffffffffffff1982168117835560028301805460019081019091558301805469ffffffffffffffffffff19166001600160501b038c1617905588547fffffffffffffffffffff00ff00000000000000000000000000000000000000009092167fffffffffffffffffffff00ffffffffffffffffffffffffffffffffffffffffff90911617600160f81b9182900460ff908116600160a81b029190911790925587548451919004909116815290810183905291925082916001600160a01b037f000000000000000000000000000000000000000000000000000000000000000016917f74baab670a4015ab2f1b467c5252a96141a2573f2908e58a92081e80d3cfde3d910160405180910390a360408051338152602081018390526001600160501b038616917f1e5338a1fb672aa84963dc9f9e4afd009b4ed726debb09224bf4d02a6c68b4e4910160405180910390a250505050565b604051631c3db16d60e01b8152600481018290526000907f00000000000000000000000000000000000000000000000000000000000000006001600160a01b031690631c3db16d90602401602060405180830381865afa1580156122b0573d6000803e3d6000fd5b505050506040513d601f19601f820116820180604052508101906122d491906139d8565b92915050565b6122e2613365565b6122ea613365565b600084815260456020526040812060020180548291908690811061231057612310613a9b565b906000526020600020906006020190508060010181600201826005015482600380602002604051908101604052809291908260038015612385576020028201916000905b825461010083900a900460ff1615158152602060019283018181049485019490930390920291018084116123545790505b505060408051606081019182905294975086935060039250905082845b8154815260200190600101908083116123a25750505050509150935093509350509250925092565b60035461010090046001600160a01b031633146123e657600080fd5b600380546001600160a01b03909216610100027fffffffffffffffffffffff0000000000000000000000000000000000000000ff909216919091179055565b6001600160501b038116600090815260446020526040902080546001600160a01b031633146124a25760405162461bcd60e51b8152602060048201526024808201527f4f6e6c7920617574686f722063616e20776974686472617720616e206172746960448201526331b6329760e11b6064820152608401610a63565b8054600160a01b900463ffffffff16156125245760405162461bcd60e51b815260206004820152603560248201527f5769746864726177616c20616c726561647920696e69746961746564206f722060448201527f74686572652069732061206368616c6c656e67652e00000000000000000000006064820152608401610a63565b61254e7f000000000000000000000000000000000000000000000000000000000000000042613a83565b815463ffffffff91909116600160a01b0263ffffffff60a01b199091161781556040516001600160501b03831681527f416c1ad2b96c356f3bbd35431f86cce449ddbb4f8c3755ea9d2776b04c2e9c8f906020015b60405180910390a15050565b6000828152604560205260408120600281015482906125d090600190613a2b565b905060008260020182815481106125e9576125e9613a9b565b90600052602060002090600602019050600085600281111561260d5761260d6136af565b61261688612248565b6002811115612627576126276136af565b6002811115612638576126386136af565b149050600081612668577f000000000000000000000000000000000000000000000000000000000000000061268a565b7f00000000000000000000000000000000000000000000000000000000000000005b90506000836002018860028111156126a4576126a46136af565b600381106126b4576126b4613a9b565b015486549091506000907f00000000000000000000000000000000000000000000000000000000000000006001600160a01b03169063f23f16e6908c90600490600160a81b900460ff166040811061270e5761270e613a9b565b016040518363ffffffff1660e01b815260040161272c929190613b8c565b602060405180830381865afa158015612749573d6000803e3d6000fd5b505050506040513d601f19601f8201168201806040525081019061276d91906139d8565b9050600061040061277e8584613a42565b6127889190613a61565b6127929083613a83565b905061279e8382613a2b565b9b9a5050505050505050505050565b336001600160a01b0316837f00000000000000000000000000000000000000000000000000000000000000006001600160a01b03167fdccf2f8b2cc26eafcd61905cba744cff4b81d14740725f6376390dc6298a6a3c8585604051612813929190613d27565b60405180910390a4505050565b6001600160501b038116600090815260446020526040902080546001600160a01b0316331461289d5760405162461bcd60e51b8152602060048201526024808201527f4f6e6c7920617574686f722063616e20776974686472617720616e206172746960448201526331b6329760e11b6064820152608401610a63565b8054600160a01b900463ffffffff1661291e5760405162461bcd60e51b815260206004820152602660248201527f596f75206e65656420746f20696e697469617465207769746864726177616c2060448201527f66697273742e00000000000000000000000000000000000000000000000000006064820152608401610a63565b805442600160a01b90910463ffffffff1611156129a35760405162461bcd60e51b815260206004820152603f60248201527f596f75206e65656420746f207761697420666f722074696d656c6f636b206f7260448201527f207761697420756e74696c20746865206368616c6c656e676520656e64732e006064820152608401610a63565b80547fff0000000000000000000000ffffffffffffffffffffffffffffffffffffffff81168255604051600160c01b90910460201b6affffffffffffff00000000169033906108fc8315029083906000818181858888f19350505050158015612a10573d6000803e3d6000fd5b506040516001600160501b03841681527f70b41d8cca762ceec66d93f536dbb31f5cabbf1901f862508b9438de54fce4eb9060200160405180910390a1505050565b6000828152604560205260408120805460609190600160b01b900460ff16612a7e576000925050611c41565b60028101548154600160a01b900460ff168167ffffffffffffffff811115612aa857612aa8613534565b604051908082528060200260200182016040528015612adb57816020015b6060815260200190600190039081612ac65790505b50935060005b82811015612c3157612af560026001613a83565b67ffffffffffffffff811115612b0d57612b0d613534565b604051908082528060200260200182016040528015612b36578160200160208202803683370190505b50858281518110612b4957612b49613a9b565b60200260200101819052506000846002018281548110612b6b57612b6b613a9b565b9060005260206000209060060201905060005b60028111612c1c576000612ba5838b846002811115612b9f57612b9f6136af565b886130c2565b90508015612c0957612bc4838b846002811115612b9f57612b9f6136af565b612bce908a613a83565b985080888581518110612be357612be3613a9b565b60200260200101518381518110612bfc57612bfc613a9b565b6020026020010181815250505b5080612c1481613d0c565b915050612b7e565b50508080612c2990613d0c565b915050612ae1565b505050509250929050565b60035461010090046001600160a01b03163314612c5857600080fd5b6000805473ffffffffffffffffffffffffffffffffffffffff19166001600160a01b0392909216919091179055565b600080836002811115612c9c57612c9c6136af565b836002811115612cae57612cae6136af565b1490506103e8600082612ce1577f0000000000000000000000000000000000000000000000000000000000000000612d03565b7f00000000000000000000000000000000000000000000000000000000000000005b9050612d1161040082613a83565b82610400612d5f7f00000000000000000000000000000000000000000000000000000000000000007f0000000000000000000000000000000000000000000000000000000000000000613a83565b612d699190613a83565b612d739190613a42565b612d7d9190613a61565b9695505050505050565b60018054600091829055815460405191926001600160a01b039091169183156108fc0291849190818181858888f1505050505050565b6001600160501b038116600090815260446020526040902080546001600160a01b03163314612e545760405162461bcd60e51b815260206004820152602e60248201527f4f6e6c7920617574686f722063616e20696e63726561736520626f756e74792060448201527f6f6620616e2061727469636c652e0000000000000000000000000000000000006064820152608401610a63565b80543460201c908290601890612e7b908490600160c01b900466ffffffffffffff16613d3b565b82546101009290920a66ffffffffffffff818102199093169190921691909102179055508054604080516001600160501b0385168152600160c01b909204602090811b6affffffffffffff0000000016908301527fdf5fc410d3381cc7f0a7fe3af72f4e3cf53ef5787f20554af69035a950e1b2e391016125a3565b6000828152604560205260408120600281015490915b81811015611e1e5760005b60028111612f4b57612f388686848460028111156108fd576108fd6136af565b5080612f4381613d0c565b915050612f18565b5080612f5681613d0c565b915050612f0d565b60008481526045602052604081208054600160b01b900460ff16612fc45760405162461bcd60e51b815260206004820152601760248201527f5468657265206973206e6f2072756c696e67207965742e0000000000000000006044820152606401610a63565b6000816002018581548110612fdb57612fdb613a9b565b906000526020600020906006020190506130088187868560000160149054906101000a900460ff166130c2565b925082156130b8576001600160a01b038616600090815260208290526040812085600281111561303a5761303a6136af565b6003811061304a5761304a613a9b565b01556040516001600160a01b0387169084156108fc029085906000818181858888f1935050505050856001600160a01b031685887fff2b7c936d6023fea901b3455cefc23b124c1ca5997dc5b48c461fd20984289d87876040516130af929190613bad565b60405180910390a45b5050949350505050565b600082600186018160028111156130db576130db6136af565b600381106130eb576130eb613a9b565b602081049091015460ff601f9092166101000a900416613148576001600160a01b038516600090815260208790526040902081600281111561312f5761312f6136af565b6003811061313f5761313f613a9b565b015491506132d8565b82600281111561315a5761315a6136af565b84600281111561316c5761316c6136af565b141561322c5760008660020182600281111561318a5761318a6136af565b6003811061319a5761319a613a9b565b0154116131a8576000613225565b856002018160028111156131be576131be6136af565b600381106131ce576131ce613a9b565b015460058701546001600160a01b03871660009081526020899052604090208360028111156131ff576131ff6136af565b6003811061320f5761320f613a9b565b015461321b9190613a42565b6132259190613a61565b91506132d8565b85600101836002811115613242576132426136af565b6003811061325257613252613a9b565b602081049091015460ff601f9092166101000a9004166132d857600486015460038701546132809190613a83565b60058701546001600160a01b03871660009081526020899052604090208360028111156132af576132af6136af565b600381106132bf576132bf613a9b565b01546132cb9190613a42565b6132d59190613a61565b91505b50949350505050565b8280546132ed90613ab1565b90600052602060002090601f01602090048101928261330f5760008555613355565b82601f1061332857805160ff1916838001178555613355565b82800160010185558215613355579182015b8281111561335557825182559160200191906001019061333a565b50613361929150613383565b5090565b60405180606001604052806003906020820280368337509192915050565b5b808211156133615760008155600101613384565b80356001600160501b03811681146133af57600080fd5b919050565b80356001600160a01b03811681146133af57600080fd5b600080604083850312156133de57600080fd5b6133e783613398565b91506133f5602084016133b4565b90509250929050565b8035600381106133af57600080fd5b6000806040838503121561342057600080fd5b823591506133f5602084016133fe565b60006020828403121561344257600080fd5b6113f782613398565b60006020828403121561345d57600080fd5b5035919050565b60008083601f84011261347657600080fd5b50813567ffffffffffffffff81111561348e57600080fd5b602083019150836020828501011115611c4157600080fd5b600080600080606085870312156134bc57600080fd5b843567ffffffffffffffff8111156134d357600080fd5b6134df87828801613464565b909550935050602085013560ff811681146134f957600080fd5b915061350760408601613398565b905092959194509250565b6000806040838503121561352557600080fd5b50508035926020909101359150565b634e487b7160e01b600052604160045260246000fd5b600067ffffffffffffffff8084111561356557613565613534565b604051601f8501601f19908116603f0116810190828211818310171561358d5761358d613534565b816040528093508581528686860111156135a657600080fd5b858560208301376000602087830101525050509392505050565b600080604083850312156135d357600080fd5b823567ffffffffffffffff808211156135eb57600080fd5b818501915085601f8301126135ff57600080fd5b61360e8683356020850161354a565b9350602085013591508082111561362457600080fd5b508301601f8101851361363657600080fd5b6136458582356020840161354a565b9150509250929050565b6000815180845260005b8181101561367557602081850181015186830182015201613659565b81811115613687576000602083870101525b50601f01601f19169290920160200192915050565b6020815260006113f7602083018461364f565b634e487b7160e01b600052602160045260246000fd5b600381106136e357634e487b7160e01b600052602160045260246000fd5b9052565b6001600160a01b038616815260a0810161370460208301876136c5565b60ff94909416604082015291151560608301526001600160501b031660809091015292915050565b6000806000806060858703121561374257600080fd5b84359350613752602086016133b4565b9250604085013567ffffffffffffffff8082111561376f57600080fd5b818701915087601f83011261378357600080fd5b81358181111561379257600080fd5b8860208260051b85010111156137a757600080fd5b95989497505060200194505050565b6000806000606084860312156137cb57600080fd5b833592506137db602085016133b4565b91506137e9604085016133fe565b90509250925092565b60e08101818560005b600381101561381c57815115158352602092830192909101906001016137fb565b505050606082018460005b6003811015613846578151835260209283019290910190600101613827565b5050508260c0830152949350505050565b60006020828403121561386957600080fd5b6113f7826133b4565b60008060006040848603121561388757600080fd5b83359250602084013567ffffffffffffffff8111156138a557600080fd5b6138b186828701613464565b9497909650939450505050565b600080604083850312156138d157600080fd5b823591506133f5602084016133b4565b600060408201848352602060408185015281855180845260608601915060608160051b87010193508287016000805b8381101561396457888703605f19018552825180518089529087019087890190845b8181101561394e57835183529289019291890191600101613932565b5090985050509385019391850191600101613910565b50949998505050505050505050565b6000806040838503121561398657600080fd5b61398f836133fe565b91506133f5602084016133fe565b600080600080608085870312156139b357600080fd5b843593506139c3602086016133b4565b925060408501359150613507606086016133fe565b6000602082840312156139ea57600080fd5b5051919050565b60008060408385031215613a0457600080fd5b505080516020909101519092909150565b634e487b7160e01b600052601160045260246000fd5b600082821015613a3d57613a3d613a15565b500390565b6000816000190483118215151615613a5c57613a5c613a15565b500290565b600082613a7e57634e487b7160e01b600052601260045260246000fd5b500490565b60008219821115613a9657613a96613a15565b500190565b634e487b7160e01b600052603260045260246000fd5b600181811c90821680613ac557607f821691505b60208210811415613ae657634e487b7160e01b600052602260045260246000fd5b50919050565b8054600090600181811c9080831680613b0657607f831692505b6020808410821415613b2857634e487b7160e01b600052602260045260246000fd5b83885260208801828015613b435760018114613b5457613b7f565b60ff19871682528282019750613b7f565b60008981526020902060005b87811015613b7957815484820152908601908401613b60565b83019850505b5050505050505092915050565b828152604060208201526000613ba56040830184613aec565b949350505050565b60408101613bbb82856136c5565b8260208301529392505050565b60006001600160501b0380831681811415613be557613be5613a15565b6001019392505050565b60006001600160501b0383811690831681811015613c0f57613c0f613a15565b039392505050565b81835281816020850137506000828201602090810191909152601f909101601f19169091010190565b606081526000613c54606083018688613c17565b60ff949094166020830152506040015292915050565b600060ff821660ff84168060ff03821115613c8757613c87613a15565b019392505050565b600060ff821660ff811415613ca657613ca6613a15565b60010192915050565b6020815260006113f76020830184613aec565b6000808335601e19843603018112613cd957600080fd5b83018035915067ffffffffffffffff821115613cf457600080fd5b6020019150600581901b3603821315611c4157600080fd5b6000600019821415613d2057613d20613a15565b5060010190565b602081526000613ba5602083018486613c17565b600066ffffffffffffff808316818516808303821115613d5d57613d5d613a15565b0194935050505056fea26469706673582212204781a25a838e2b9aa1c5def9575162fea5e77f5d32d137e1669a0ebba064b3e564736f6c634300080a0033",
  "devdoc": {
    "author": "https://github.com/proveuswrong<0xferit, gratestas>",
    "custom:approvals": "0xferit, gratestas",
    "details": "You should target ITruthPost interface contract for building on top. Otherwise you risk incompatibility across versions.         Articles are not addressed with their identifiers. That enables us to reuse same storage address for another article later.///         Arbitrator is fixed, but subcourts, jury size and metaevidence are not.         We prevent articles to get withdrawn immediately. This is to prevent submitter to escape punishment in case someone discovers an argument to debunk the article.         Bounty amounts are compressed with a lossy compression method to save on storage cost.",
    "kind": "dev",
    "methods": {
      "appealFee(uint256)": {
        "details": "Returns the total amount needs to be paid to appeal a dispute, including fees and stake deposit.",
        "params": {
          "_disputeID": "ID of the dispute as in arbitrator."
        }
      },
      "challenge(uint80)": {
        "details": "Challenges the article at the given storage address. Emits Challenge.",
        "params": {
          "_articleStorageAddress": "The address of the article in the storage."
        }
      },
      "challengeFee(uint80)": {
        "details": "Returns the total amount needs to be paid to challenge an article, including taxes if any.",
        "params": {
          "_articleStorageAddress": "The address of article in the storage."
        }
      },
      "changeAdmin(address)": {
        "details": "Only the current administrator can call this function.",
        "params": {
          "_newAdmin": "The address of the new administrator."
        }
      },
      "changeTreasury(address)": {
        "details": "Only the current administrator can call this function.",
        "params": {
          "_newTreasury": "The address of the new treasury."
        }
      },
      "findVacantStorageSlot(uint80)": {
        "details": "Helper function to find a vacant slot for article. Use this function before calling initialize to minimize your gas cost.",
        "params": {
          "_searchPointer": "Starting point of the search. If you do not have a guess, just pass 0."
        }
      },
      "fundAppeal(uint256,uint8)": {
        "details": "Lets user to contribute funding of an appeal round. Emits Contribution. If fully funded, emits RulingFunded.",
        "params": {
          "_disputeID": "The dispute ID as in arbitrator.",
          "_ruling": "The ruling option to which the caller wants to contribute."
        },
        "returns": {
          "fullyFunded": "True if the ruling option got fully funded as a result of this contribution."
        }
      },
      "getAmountRemainsToBeRaised(uint256,uint8)": {
        "params": {
          "_disputeID": "The dispute ID as in arbitrator.",
          "_ruling": "The ruling option to query."
        },
        "returns": {
          "_0": "Amount needs to be raised"
        }
      },
      "getAppealPeriod(uint256,uint8)": {
        "params": {
          "_disputeID": "The dispute ID as in arbitrator.",
          "_ruling": "The ruling option to query."
        },
        "returns": {
          "_0": "Start",
          "_1": "End"
        }
      },
      "getLastRoundWinner(uint256)": {
        "params": {
          "_disputeID": "The dispute ID as in arbitrator."
        },
        "returns": {
          "_0": "Winning ruling option."
        }
      },
      "getReturnOfInvestmentRatio(uint8,uint8)": {
        "details": "Purely depends on whether given ruling option is winner and stake multipliers.",
        "params": {
          "_lastRoundWinner": "Winner of the last round.",
          "_ruling": "The ruling option to query."
        },
        "returns": {
          "_0": "Return of investment ratio, denominated by MULTIPLIER_DENOMINATOR."
        }
      },
      "getRoundInfo(uint256,uint256)": {
        "params": {
          "_disputeID": "The dispute ID as in arbitrator.",
          "_round": "Round ID."
        },
        "returns": {
          "hasPaid": "Whether given ruling option was fully funded.",
          "totalClaimableAfterExpenses": "Total amount will be distributed back to winners, after deducting expenses.",
          "totalPerRuling": "The total raised per ruling option."
        }
      },
      "getTotalWithdrawableAmount(uint256,address)": {
        "details": "Returns the sum of withdrawable amount and 2D array of positions[round][ruling].",
        "params": {
          "_contributor": "Beneficiary of withdraw operation.",
          "_disputeID": "The dispute ID as in arbitrator."
        },
        "returns": {
          "sum": "The total amount available to withdraw."
        }
      },
      "increaseBounty(uint80)": {
        "details": "Lets author to increase a bounty of a live article. Emits BalanceUpdate.",
        "params": {
          "_articleStorageAddress": "The address of the article in the storage."
        }
      },
      "initializeArticle(string,uint8,uint80)": {
        "details": "Do not confuse articleID with articleAddress. Emits NewArticle.",
        "params": {
          "_articleID": "Unique identifier of an article in IPFS content identifier format.",
          "_category": "The category code of this new article.",
          "_searchPointer": "Starting point of the search. Find a vacant storage slot before calling this function to minimize gas cost."
        }
      },
      "initiateWithdrawal(uint80)": {
        "details": "Lets an author to start unpublishing process. Emits TimelockStarted.",
        "params": {
          "_articleStorageAddress": "The address of the article in the storage."
        }
      },
      "newCategory(string,bytes)": {
        "params": {
          "_arbitratorExtraData": "Extra data of Kleros arbitrator, signaling subcourt and jury size selection.",
          "_metaevidenceIpfsUri": "IPFS content identifier for metaevidence."
        }
      },
      "rule(uint256,uint256)": {
        "details": "This is only for arbitrator to use.",
        "params": {
          "_disputeID": "The dispute ID as in arbitrator.",
          "_ruling": "Winning ruling option."
        }
      },
      "submitEvidence(uint256,string)": {
        "params": {
          "_disputeID": "The dispute ID as in arbitrator.",
          "_evidenceURI": "IPFS path to evidence, example: '/ipfs/Qmarwkf7C9RuzDEJNnarT3WZ7kem5bk8DZAzx78acJjMFH/evidence.json'"
        }
      },
      "transferBalanceToTreasury()": {
        "details": "Allows the contract to send its entire balance to the treasury address.         It is important to ensure that the treasury address is set correctly.         If the transfer fails, an exception will be raised, and the funds will remain in the contract."
      },
      "updateChallengeTaxRate(uint256)": {
        "details": "The new challenge tax rate must be at most 25% based on MULTIPLIER_DENOMINATOR.         Only the current administrator can call this function.",
        "params": {
          "_newChallengeTaxRate": "The new challenge tax rate to be set."
        }
      },
      "withdraw(uint80)": {
        "details": "Executes unpublishing of an article. Emits Withdrew.",
        "params": {
          "_articleStorageAddress": "The address of the article in the storage."
        }
      },
      "withdrawFeesAndRewards(uint256,address,uint256,uint8)": {
        "details": "Allows to withdraw any reimbursable fees or rewards after the dispute gets resolved.",
        "params": {
          "_contributor": "Beneficiary of withdraw operation.",
          "_disputeID": "The dispute ID as in arbitrator.",
          "_round": "Number of the round that caller wants to execute withdraw on.",
          "_ruling": "A ruling option that caller wants to execute withdraw on."
        },
        "returns": {
          "amount": "The amount that is going to be transferred to contributor as a result of this function call."
        }
      },
      "withdrawFeesAndRewardsForAllRounds(uint256,address,uint8)": {
        "details": "Allows to withdraw any rewards or reimbursable fees after the dispute gets resolved for all rounds at once.",
        "params": {
          "_contributor": "Beneficiary of withdraw operation.",
          "_disputeID": "The dispute ID as in arbitrator.",
          "_ruling": "Ruling option that caller wants to execute withdraw on."
        }
      },
      "withdrawFeesAndRewardsForAllRoundsAndAllRulings(uint256,address)": {
        "details": "Allows to withdraw any rewards or reimbursable fees after the dispute gets resolved for all rounds and all rulings at once.",
        "params": {
          "_contributor": "Beneficiary of withdraw operation.",
          "_disputeID": "The dispute ID as in arbitrator."
        }
      },
      "withdrawFeesAndRewardsForGivenPositions(uint256,address,uint256[][])": {
        "details": "Allows to withdraw any rewards or reimbursable fees after the dispute gets resolved for given positions at once.",
        "params": {
          "_contributor": "Beneficiary of withdraw operation.",
          "_disputeID": "The dispute ID as in arbitrator.",
          "positions": "[rounds][rulings]."
        }
      }
    },
    "title": "The Trust Post",
    "version": 1
  },
  "userdoc": {
    "kind": "user",
    "methods": {
      "appealFee(uint256)": {
        "notice": "Get required appeal fee and deposit."
      },
      "challenge(uint80)": {
        "notice": "Challenge article."
      },
      "challengeFee(uint80)": {
        "notice": "Get required challenge fee."
      },
      "changeAdmin(address)": {
        "notice": "Changes the administrator of the contract to a new address."
      },
      "changeTreasury(address)": {
        "notice": "Changes the treasury address of the contract to a new address."
      },
      "findVacantStorageSlot(uint80)": {
        "notice": "Find a vacant storage slot for an article."
      },
      "fundAppeal(uint256,uint8)": {
        "notice": "Fund a crowdfunding appeal."
      },
      "getAmountRemainsToBeRaised(uint256,uint8)": {
        "notice": "Learn about how much more needs to be raised for given ruling option."
      },
      "getAppealPeriod(uint256,uint8)": {
        "notice": "Get appeal time window."
      },
      "getLastRoundWinner(uint256)": {
        "notice": "Get last round's winner."
      },
      "getReturnOfInvestmentRatio(uint8,uint8)": {
        "notice": "Get return of investment ratio."
      },
      "getRoundInfo(uint256,uint256)": {
        "notice": "Learn about given dispute round."
      },
      "getTotalWithdrawableAmount(uint256,address)": {
        "notice": "Learn the total amount of appeal crowdfunding balance available."
      },
      "increaseBounty(uint80)": {
        "notice": "Increase bounty."
      },
      "initializeArticle(string,uint8,uint80)": {
        "notice": "Publish an article."
      },
      "initiateWithdrawal(uint80)": {
        "notice": "Initiate unpublishing process."
      },
      "newCategory(string,bytes)": {
        "notice": "Initialize a category."
      },
      "rule(uint256,uint256)": {
        "notice": "Execute a ruling"
      },
      "submitEvidence(uint256,string)": {
        "notice": "Submit an evidence."
      },
      "transferBalanceToTreasury()": {
        "notice": "Transfers the balance of the contract to the treasury."
      },
      "transferOwnership(uint80,address)": {
        "notice": "Lets you to transfer ownership of an article. This is useful when you want to change owner account without withdrawing and resubmitting."
      },
      "updateChallengeTaxRate(uint256)": {
        "notice": "Updates the challenge tax rate of the contract to a new value."
      },
      "withdraw(uint80)": {
        "notice": "Execute unpublishing."
      },
      "withdrawFeesAndRewards(uint256,address,uint256,uint8)": {
        "notice": "Withdraw appeal crowdfunding balance."
      },
      "withdrawFeesAndRewardsForAllRounds(uint256,address,uint8)": {
        "notice": "Withdraw appeal crowdfunding balance for given ruling option for all rounds."
      },
      "withdrawFeesAndRewardsForAllRoundsAndAllRulings(uint256,address)": {
        "notice": "Withdraw appeal crowdfunding balance for all ruling options and all rounds."
      },
      "withdrawFeesAndRewardsForGivenPositions(uint256,address,uint256[][])": {
        "notice": "Withdraw appeal crowdfunding balance for given ruling option and for given rounds."
      }
    },
    "notice": "Smart contract for a type of curation, where submitted items are on hold until they are withdrawn and the amount of security deposits are determined by submitters.",
    "version": 1
  },
  "storageLayout": {
    "storage": [
      {
        "astId": 297,
        "contract": "contracts/TruthPost.sol:TruthPost",
        "label": "TREASURY",
        "offset": 0,
        "slot": "0",
        "type": "t_address_payable"
      },
      {
        "astId": 299,
        "contract": "contracts/TruthPost.sol:TruthPost",
        "label": "treasuryBalance",
        "offset": 0,
        "slot": "1",
        "type": "t_uint256"
      },
      {
        "astId": 317,
        "contract": "contracts/TruthPost.sol:TruthPost",
        "label": "challengeTaxRate",
        "offset": 0,
        "slot": "2",
        "type": "t_uint256"
      },
      {
        "astId": 646,
        "contract": "contracts/TruthPost.sol:TruthPost",
        "label": "categoryCounter",
        "offset": 0,
        "slot": "3",
        "type": "t_uint8"
      },
      {
        "astId": 653,
        "contract": "contracts/TruthPost.sol:TruthPost",
        "label": "admin",
        "offset": 1,
        "slot": "3",
        "type": "t_address_payable"
      },
      {
        "astId": 716,
        "contract": "contracts/TruthPost.sol:TruthPost",
        "label": "categoryToArbitratorExtraData",
        "offset": 0,
        "slot": "4",
        "type": "t_array(t_bytes_storage)64_storage"
      },
      {
        "astId": 721,
        "contract": "contracts/TruthPost.sol:TruthPost",
        "label": "articleStorage",
        "offset": 0,
        "slot": "68",
        "type": "t_mapping(t_uint80,t_struct(Article)712_storage)"
      },
      {
        "astId": 726,
        "contract": "contracts/TruthPost.sol:TruthPost",
        "label": "disputes",
        "offset": 0,
        "slot": "69",
        "type": "t_mapping(t_uint256,t_struct(DisputeData)680_storage)"
      }
    ],
    "types": {
      "t_address": {
        "encoding": "inplace",
        "label": "address",
        "numberOfBytes": "20"
      },
      "t_address_payable": {
        "encoding": "inplace",
        "label": "address payable",
        "numberOfBytes": "20"
      },
      "t_array(t_bool)3_storage": {
        "base": "t_bool",
        "encoding": "inplace",
        "label": "bool[3]",
        "numberOfBytes": "32"
      },
      "t_array(t_bytes_storage)64_storage": {
        "base": "t_bytes_storage",
        "encoding": "inplace",
        "label": "bytes[64]",
        "numberOfBytes": "2048"
      },
      "t_array(t_struct(Round)703_storage)dyn_storage": {
        "base": "t_struct(Round)703_storage",
        "encoding": "dynamic_array",
        "label": "struct TruthPost.Round[]",
        "numberOfBytes": "32"
      },
      "t_array(t_uint256)3_storage": {
        "base": "t_uint256",
        "encoding": "inplace",
        "label": "uint256[3]",
        "numberOfBytes": "96"
      },
      "t_bool": {
        "encoding": "inplace",
        "label": "bool",
        "numberOfBytes": "1"
      },
      "t_bytes_storage": {
        "encoding": "bytes",
        "label": "bytes",
        "numberOfBytes": "32"
      },
      "t_enum(RulingOptions)295": {
        "encoding": "inplace",
        "label": "enum ITruthPost.RulingOptions",
        "numberOfBytes": "1"
      },
      "t_mapping(t_address,t_array(t_uint256)3_storage)": {
        "encoding": "mapping",
        "key": "t_address",
        "label": "mapping(address => uint256[3])",
        "numberOfBytes": "32",
        "value": "t_array(t_uint256)3_storage"
      },
      "t_mapping(t_uint256,t_struct(DisputeData)680_storage)": {
        "encoding": "mapping",
        "key": "t_uint256",
        "label": "mapping(uint256 => struct TruthPost.DisputeData)",
        "numberOfBytes": "32",
        "value": "t_struct(DisputeData)680_storage"
      },
      "t_mapping(t_uint80,t_struct(Article)712_storage)": {
        "encoding": "mapping",
        "key": "t_uint80",
        "label": "mapping(uint80 => struct TruthPost.Article)",
        "numberOfBytes": "32",
        "value": "t_struct(Article)712_storage"
      },
      "t_struct(Article)712_storage": {
        "encoding": "inplace",
        "label": "struct TruthPost.Article",
        "members": [
          {
            "astId": 705,
            "contract": "contracts/TruthPost.sol:TruthPost",
            "label": "owner",
            "offset": 0,
            "slot": "0",
            "type": "t_address_payable"
          },
          {
            "astId": 707,
            "contract": "contracts/TruthPost.sol:TruthPost",
            "label": "withdrawalPermittedAt",
            "offset": 20,
            "slot": "0",
            "type": "t_uint32"
          },
          {
            "astId": 709,
            "contract": "contracts/TruthPost.sol:TruthPost",
            "label": "bountyAmount",
            "offset": 24,
            "slot": "0",
            "type": "t_uint56"
          },
          {
            "astId": 711,
            "contract": "contracts/TruthPost.sol:TruthPost",
            "label": "category",
            "offset": 31,
            "slot": "0",
            "type": "t_uint8"
          }
        ],
        "numberOfBytes": "32"
      },
      "t_struct(DisputeData)680_storage": {
        "encoding": "inplace",
        "label": "struct TruthPost.DisputeData",
        "members": [
          {
            "astId": 666,
            "contract": "contracts/TruthPost.sol:TruthPost",
            "label": "challenger",
            "offset": 0,
            "slot": "0",
            "type": "t_address_payable"
          },
          {
            "astId": 669,
            "contract": "contracts/TruthPost.sol:TruthPost",
            "label": "outcome",
            "offset": 20,
            "slot": "0",
            "type": "t_enum(RulingOptions)295"
          },
          {
            "astId": 671,
            "contract": "contracts/TruthPost.sol:TruthPost",
            "label": "articleCategory",
            "offset": 21,
            "slot": "0",
            "type": "t_uint8"
          },
          {
            "astId": 673,
            "contract": "contracts/TruthPost.sol:TruthPost",
            "label": "resolved",
            "offset": 22,
            "slot": "0",
            "type": "t_bool"
          },
          {
            "astId": 675,
            "contract": "contracts/TruthPost.sol:TruthPost",
            "label": "articleStorageAddress",
            "offset": 0,
            "slot": "1",
            "type": "t_uint80"
          },
          {
            "astId": 679,
            "contract": "contracts/TruthPost.sol:TruthPost",
            "label": "rounds",
            "offset": 0,
            "slot": "2",
            "type": "t_array(t_struct(Round)703_storage)dyn_storage"
          }
        ],
        "numberOfBytes": "96"
      },
      "t_struct(Round)703_storage": {
        "encoding": "inplace",
        "label": "struct TruthPost.Round",
        "members": [
          {
            "astId": 688,
            "contract": "contracts/TruthPost.sol:TruthPost",
            "label": "contributions",
            "offset": 0,
            "slot": "0",
            "type": "t_mapping(t_address,t_array(t_uint256)3_storage)"
          },
          {
            "astId": 694,
            "contract": "contracts/TruthPost.sol:TruthPost",
            "label": "hasPaid",
            "offset": 0,
            "slot": "1",
            "type": "t_array(t_bool)3_storage"
          },
          {
            "astId": 700,
            "contract": "contracts/TruthPost.sol:TruthPost",
            "label": "totalPerRuling",
            "offset": 0,
            "slot": "2",
            "type": "t_array(t_uint256)3_storage"
          },
          {
            "astId": 702,
            "contract": "contracts/TruthPost.sol:TruthPost",
            "label": "totalClaimableAfterExpenses",
            "offset": 0,
            "slot": "5",
            "type": "t_uint256"
          }
        ],
        "numberOfBytes": "192"
      },
      "t_uint256": {
        "encoding": "inplace",
        "label": "uint256",
        "numberOfBytes": "32"
      },
      "t_uint32": {
        "encoding": "inplace",
        "label": "uint32",
        "numberOfBytes": "4"
      },
      "t_uint56": {
        "encoding": "inplace",
        "label": "uint56",
        "numberOfBytes": "7"
      },
      "t_uint8": {
        "encoding": "inplace",
        "label": "uint8",
        "numberOfBytes": "1"
      },
      "t_uint80": {
        "encoding": "inplace",
        "label": "uint80",
        "numberOfBytes": "10"
      }
    }
  }
}