{
  "address": "0xAA51402316075798040c2322D0361383577707ba",
  "abi": [
    {
      "inputs": [
        {
          "internalType": "contract IArbitrator",
          "name": "_arbitrator",
          "type": "address"
        },
        {
          "internalType": "bytes",
          "name": "_arbitratorExtraData",
          "type": "bytes"
        },
        {
          "internalType": "string",
          "name": "_metaevidenceIpfsUri",
          "type": "string"
        },
        {
          "internalType": "uint256",
          "name": "_articleWithdrawalTimelock",
          "type": "uint256"
        },
        {
          "internalType": "uint256",
          "name": "_winnerStakeMultiplier",
          "type": "uint256"
        },
        {
          "internalType": "uint256",
          "name": "_loserStakeMultiplier",
          "type": "uint256"
        }
      ],
      "stateMutability": "nonpayable",
      "type": "constructor"
    },
    {
      "anonymous": false,
      "inputs": [
        {
          "indexed": false,
          "internalType": "uint256",
          "name": "articleAddress",
          "type": "uint256"
        }
      ],
      "name": "ArticleWithdrawn",
      "type": "event"
    },
    {
      "anonymous": false,
      "inputs": [
        {
          "indexed": false,
          "internalType": "uint256",
          "name": "articleAddress",
          "type": "uint256"
        },
        {
          "indexed": false,
          "internalType": "uint256",
          "name": "newTotal",
          "type": "uint256"
        }
      ],
      "name": "BalanceUpdate",
      "type": "event"
    },
    {
      "anonymous": false,
      "inputs": [
        {
          "indexed": true,
          "internalType": "uint256",
          "name": "articleAddress",
          "type": "uint256"
        },
        {
          "indexed": false,
          "internalType": "address",
          "name": "challanger",
          "type": "address"
        },
        {
          "indexed": false,
          "internalType": "uint256",
          "name": "disputeID",
          "type": "uint256"
        }
      ],
      "name": "Challenge",
      "type": "event"
    },
    {
      "anonymous": false,
      "inputs": [
        {
          "indexed": true,
          "internalType": "uint256",
          "name": "disputeId",
          "type": "uint256"
        },
        {
          "indexed": true,
          "internalType": "uint256",
          "name": "round",
          "type": "uint256"
        },
        {
          "indexed": false,
          "internalType": "enum ITruthPost.RulingOptions",
          "name": "ruling",
          "type": "uint8"
        },
        {
          "indexed": true,
          "internalType": "address",
          "name": "contributor",
          "type": "address"
        },
        {
          "indexed": false,
          "internalType": "uint256",
          "name": "amount",
          "type": "uint256"
        }
      ],
      "name": "Contribution",
      "type": "event"
    },
    {
      "anonymous": false,
      "inputs": [
        {
          "indexed": false,
          "internalType": "uint256",
          "name": "articleAddress",
          "type": "uint256"
        }
      ],
      "name": "Debunked",
      "type": "event"
    },
    {
      "anonymous": false,
      "inputs": [
        {
          "indexed": true,
          "internalType": "contract IArbitrator",
          "name": "_arbitrator",
          "type": "address"
        },
        {
          "indexed": true,
          "internalType": "uint256",
          "name": "_disputeID",
          "type": "uint256"
        },
        {
          "indexed": false,
          "internalType": "uint256",
          "name": "_metaEvidenceID",
          "type": "uint256"
        },
        {
          "indexed": false,
          "internalType": "uint256",
          "name": "_evidenceGroupID",
          "type": "uint256"
        }
      ],
      "name": "Dispute",
      "type": "event"
    },
    {
      "anonymous": false,
      "inputs": [
        {
          "indexed": true,
          "internalType": "contract IArbitrator",
          "name": "_arbitrator",
          "type": "address"
        },
        {
          "indexed": true,
          "internalType": "uint256",
          "name": "_evidenceGroupID",
          "type": "uint256"
        },
        {
          "indexed": true,
          "internalType": "address",
          "name": "_party",
          "type": "address"
        },
        {
          "indexed": false,
          "internalType": "string",
          "name": "_evidence",
          "type": "string"
        }
      ],
      "name": "Evidence",
      "type": "event"
    },
    {
      "anonymous": false,
      "inputs": [
        {
          "indexed": true,
          "internalType": "uint256",
          "name": "_metaEvidenceID",
          "type": "uint256"
        },
        {
          "indexed": false,
          "internalType": "string",
          "name": "_evidence",
          "type": "string"
        }
      ],
      "name": "MetaEvidence",
      "type": "event"
    },
    {
      "anonymous": false,
      "inputs": [
        {
          "indexed": false,
          "internalType": "string",
          "name": "articleID",
          "type": "string"
        },
        {
          "indexed": false,
          "internalType": "uint8",
          "name": "category",
          "type": "uint8"
        },
        {
          "indexed": false,
          "internalType": "uint256",
          "name": "articleAddress",
          "type": "uint256"
        }
      ],
      "name": "NewArticle",
      "type": "event"
    },
    {
      "anonymous": false,
      "inputs": [
        {
          "indexed": true,
          "internalType": "contract IArbitrator",
          "name": "_arbitrator",
          "type": "address"
        },
        {
          "indexed": true,
          "internalType": "uint256",
          "name": "_disputeID",
          "type": "uint256"
        },
        {
          "indexed": false,
          "internalType": "uint256",
          "name": "_ruling",
          "type": "uint256"
        }
      ],
      "name": "Ruling",
      "type": "event"
    },
    {
      "anonymous": false,
      "inputs": [
        {
          "indexed": true,
          "internalType": "uint256",
          "name": "disputeId",
          "type": "uint256"
        },
        {
          "indexed": true,
          "internalType": "uint256",
          "name": "round",
          "type": "uint256"
        },
        {
          "indexed": true,
          "internalType": "enum ITruthPost.RulingOptions",
          "name": "ruling",
          "type": "uint8"
        }
      ],
      "name": "RulingFunded",
      "type": "event"
    },
    {
      "anonymous": false,
      "inputs": [
        {
          "indexed": false,
          "internalType": "uint256",
          "name": "articleAddress",
          "type": "uint256"
        }
      ],
      "name": "TimelockStarted",
      "type": "event"
    },
    {
      "anonymous": false,
      "inputs": [
        {
          "indexed": true,
          "internalType": "uint256",
          "name": "disputeId",
          "type": "uint256"
        },
        {
          "indexed": true,
          "internalType": "uint256",
          "name": "round",
          "type": "uint256"
        },
        {
          "indexed": false,
          "internalType": "enum ITruthPost.RulingOptions",
          "name": "ruling",
          "type": "uint8"
        },
        {
          "indexed": true,
          "internalType": "address",
          "name": "contributor",
          "type": "address"
        },
        {
          "indexed": false,
          "internalType": "uint256",
          "name": "reward",
          "type": "uint256"
        }
      ],
      "name": "Withdrawal",
      "type": "event"
    },
    {
      "inputs": [],
      "name": "ARBITRATOR",
      "outputs": [
        {
          "internalType": "contract IArbitrator",
          "name": "",
          "type": "address"
        }
      ],
      "stateMutability": "view",
      "type": "function"
    },
    {
      "inputs": [],
      "name": "ARTICLE_WITHDRAWAL_TIMELOCK",
      "outputs": [
        {
          "internalType": "uint256",
          "name": "",
          "type": "uint256"
        }
      ],
      "stateMutability": "view",
      "type": "function"
    },
    {
      "inputs": [],
      "name": "LOSER_APPEAL_PERIOD_MULTIPLIER",
      "outputs": [
        {
          "internalType": "uint256",
          "name": "",
          "type": "uint256"
        }
      ],
      "stateMutability": "view",
      "type": "function"
    },
    {
      "inputs": [],
      "name": "LOSER_STAKE_MULTIPLIER",
      "outputs": [
        {
          "internalType": "uint256",
          "name": "",
          "type": "uint256"
        }
      ],
      "stateMutability": "view",
      "type": "function"
    },
    {
      "inputs": [],
      "name": "MULTIPLIER_DENOMINATOR",
      "outputs": [
        {
          "internalType": "uint256",
          "name": "",
          "type": "uint256"
        }
      ],
      "stateMutability": "view",
      "type": "function"
    },
    {
      "inputs": [],
      "name": "NUMBER_OF_LEAST_SIGNIFICANT_BITS_TO_IGNORE",
      "outputs": [
        {
          "internalType": "uint256",
          "name": "",
          "type": "uint256"
        }
      ],
      "stateMutability": "view",
      "type": "function"
    },
    {
      "inputs": [],
      "name": "NUMBER_OF_RULING_OPTIONS",
      "outputs": [
        {
          "internalType": "uint256",
          "name": "",
          "type": "uint256"
        }
      ],
      "stateMutability": "view",
      "type": "function"
    },
    {
      "inputs": [],
      "name": "VERSION",
      "outputs": [
        {
          "internalType": "string",
          "name": "",
          "type": "string"
        }
      ],
      "stateMutability": "view",
      "type": "function"
    },
    {
      "inputs": [],
      "name": "WINNER_STAKE_MULTIPLIER",
      "outputs": [
        {
          "internalType": "uint256",
          "name": "",
          "type": "uint256"
        }
      ],
      "stateMutability": "view",
      "type": "function"
    },
    {
      "inputs": [],
      "name": "admin",
      "outputs": [
        {
          "internalType": "address payable",
          "name": "",
          "type": "address"
        }
      ],
      "stateMutability": "view",
      "type": "function"
    },
    {
      "inputs": [
        {
          "internalType": "uint256",
          "name": "_disputeID",
          "type": "uint256"
        }
      ],
      "name": "appealFee",
      "outputs": [
        {
          "internalType": "uint256",
          "name": "arbitrationFee",
          "type": "uint256"
        }
      ],
      "stateMutability": "view",
      "type": "function"
    },
    {
      "inputs": [
        {
          "internalType": "uint80",
          "name": "",
          "type": "uint80"
        }
      ],
      "name": "articleStorage",
      "outputs": [
        {
          "internalType": "address payable",
          "name": "owner",
          "type": "address"
        },
        {
          "internalType": "uint32",
          "name": "withdrawalPermittedAt",
          "type": "uint32"
        },
        {
          "internalType": "uint56",
          "name": "bountyAmount",
          "type": "uint56"
        },
        {
          "internalType": "uint8",
          "name": "category",
          "type": "uint8"
        }
      ],
      "stateMutability": "view",
      "type": "function"
    },
    {
      "inputs": [],
      "name": "buyAndBurn",
      "outputs": [],
      "stateMutability": "nonpayable",
      "type": "function"
    },
    {
      "inputs": [],
      "name": "categoryCounter",
      "outputs": [
        {
          "internalType": "uint8",
          "name": "",
          "type": "uint8"
        }
      ],
      "stateMutability": "view",
      "type": "function"
    },
    {
      "inputs": [
        {
          "internalType": "uint256",
          "name": "",
          "type": "uint256"
        }
      ],
      "name": "categoryToArbitratorExtraData",
      "outputs": [
        {
          "internalType": "bytes",
          "name": "",
          "type": "bytes"
        }
      ],
      "stateMutability": "view",
      "type": "function"
    },
    {
      "inputs": [
        {
          "internalType": "uint80",
          "name": "_articleStorageAddress",
          "type": "uint80"
        }
      ],
      "name": "challenge",
      "outputs": [],
      "stateMutability": "payable",
      "type": "function"
    },
    {
      "inputs": [
        {
          "internalType": "uint80",
          "name": "_articleStorageAddress",
          "type": "uint80"
        }
      ],
      "name": "challengeFee",
      "outputs": [
        {
          "internalType": "uint256",
          "name": "",
          "type": "uint256"
        }
      ],
      "stateMutability": "view",
      "type": "function"
    },
    {
      "inputs": [],
      "name": "challengeTaxRate",
      "outputs": [
        {
          "internalType": "uint256",
          "name": "",
          "type": "uint256"
        }
      ],
      "stateMutability": "view",
      "type": "function"
    },
    {
      "inputs": [
        {
          "internalType": "address payable",
          "name": "_newAdmin",
          "type": "address"
        }
      ],
      "name": "changeAdmin",
      "outputs": [],
      "stateMutability": "nonpayable",
      "type": "function"
    },
    {
      "inputs": [
        {
          "internalType": "uint256",
          "name": "",
          "type": "uint256"
        }
      ],
      "name": "disputes",
      "outputs": [
        {
          "internalType": "address payable",
          "name": "challenger",
          "type": "address"
        },
        {
          "internalType": "enum ITruthPost.RulingOptions",
          "name": "outcome",
          "type": "uint8"
        },
        {
          "internalType": "uint8",
          "name": "articleCategory",
          "type": "uint8"
        },
        {
          "internalType": "bool",
          "name": "resolved",
          "type": "bool"
        },
        {
          "internalType": "uint80",
          "name": "articleStorageAddress",
          "type": "uint80"
        }
      ],
      "stateMutability": "view",
      "type": "function"
    },
    {
      "inputs": [
        {
          "internalType": "uint80",
          "name": "_searchPointer",
          "type": "uint80"
        }
      ],
      "name": "findVacantStorageSlot",
      "outputs": [
        {
          "internalType": "uint256",
          "name": "vacantSlotIndex",
          "type": "uint256"
        }
      ],
      "stateMutability": "view",
      "type": "function"
    },
    {
      "inputs": [
        {
          "internalType": "uint256",
          "name": "_disputeID",
          "type": "uint256"
        },
        {
          "internalType": "enum ITruthPost.RulingOptions",
          "name": "_supportedRuling",
          "type": "uint8"
        }
      ],
      "name": "fundAppeal",
      "outputs": [
        {
          "internalType": "bool",
          "name": "fullyFunded",
          "type": "bool"
        }
      ],
      "stateMutability": "payable",
      "type": "function"
    },
    {
      "inputs": [
        {
          "internalType": "uint256",
          "name": "_disputeID",
          "type": "uint256"
        },
        {
          "internalType": "enum ITruthPost.RulingOptions",
          "name": "_ruling",
          "type": "uint8"
        }
      ],
      "name": "getAmountRemainsToBeRaised",
      "outputs": [
        {
          "internalType": "uint256",
          "name": "",
          "type": "uint256"
        }
      ],
      "stateMutability": "view",
      "type": "function"
    },
    {
      "inputs": [
        {
          "internalType": "uint256",
          "name": "_disputeID",
          "type": "uint256"
        },
        {
          "internalType": "enum ITruthPost.RulingOptions",
          "name": "_ruling",
          "type": "uint8"
        }
      ],
      "name": "getAppealPeriod",
      "outputs": [
        {
          "internalType": "uint256",
          "name": "",
          "type": "uint256"
        },
        {
          "internalType": "uint256",
          "name": "",
          "type": "uint256"
        }
      ],
      "stateMutability": "view",
      "type": "function"
    },
    {
      "inputs": [
        {
          "internalType": "uint256",
          "name": "_disputeID",
          "type": "uint256"
        }
      ],
      "name": "getLastRoundWinner",
      "outputs": [
        {
          "internalType": "uint256",
          "name": "",
          "type": "uint256"
        }
      ],
      "stateMutability": "view",
      "type": "function"
    },
    {
      "inputs": [
        {
          "internalType": "enum ITruthPost.RulingOptions",
          "name": "_ruling",
          "type": "uint8"
        },
        {
          "internalType": "enum ITruthPost.RulingOptions",
          "name": "_lastRoundWinner",
          "type": "uint8"
        }
      ],
      "name": "getReturnOfInvestmentRatio",
      "outputs": [
        {
          "internalType": "uint256",
          "name": "",
          "type": "uint256"
        }
      ],
      "stateMutability": "view",
      "type": "function"
    },
    {
      "inputs": [
        {
          "internalType": "uint256",
          "name": "_disputeID",
          "type": "uint256"
        },
        {
          "internalType": "uint256",
          "name": "_round",
          "type": "uint256"
        }
      ],
      "name": "getRoundInfo",
      "outputs": [
        {
          "internalType": "bool[3]",
          "name": "hasPaid",
          "type": "bool[3]"
        },
        {
          "internalType": "uint256[3]",
          "name": "totalPerRuling",
          "type": "uint256[3]"
        },
        {
          "internalType": "uint256",
          "name": "totalClaimableAfterExpenses",
          "type": "uint256"
        }
      ],
      "stateMutability": "view",
      "type": "function"
    },
    {
      "inputs": [
        {
          "internalType": "uint256",
          "name": "_disputeID",
          "type": "uint256"
        },
        {
          "internalType": "address payable",
          "name": "_contributor",
          "type": "address"
        },
        {
          "internalType": "enum ITruthPost.RulingOptions",
          "name": "_ruling",
          "type": "uint8"
        }
      ],
      "name": "getTotalWithdrawableAmount",
      "outputs": [
        {
          "internalType": "uint256",
          "name": "sum",
          "type": "uint256"
        }
      ],
      "stateMutability": "view",
      "type": "function"
    },
    {
      "inputs": [
        {
          "internalType": "uint80",
          "name": "_articleStorageAddress",
          "type": "uint80"
        }
      ],
      "name": "increaseBounty",
      "outputs": [],
      "stateMutability": "payable",
      "type": "function"
    },
    {
      "inputs": [
        {
          "internalType": "string",
          "name": "_articleID",
          "type": "string"
        },
        {
          "internalType": "uint8",
          "name": "_category",
          "type": "uint8"
        },
        {
          "internalType": "uint80",
          "name": "_searchPointer",
          "type": "uint80"
        }
      ],
      "name": "initializeArticle",
      "outputs": [],
      "stateMutability": "payable",
      "type": "function"
    },
    {
      "inputs": [
        {
          "internalType": "uint80",
          "name": "_articleStorageAddress",
          "type": "uint80"
        }
      ],
      "name": "initiateWithdrawal",
      "outputs": [],
      "stateMutability": "nonpayable",
      "type": "function"
    },
    {
      "inputs": [
        {
          "internalType": "string",
          "name": "_metaevidenceIpfsUri",
          "type": "string"
        },
        {
          "internalType": "bytes",
          "name": "_arbitratorExtraData",
          "type": "bytes"
        }
      ],
      "name": "newCategory",
      "outputs": [],
      "stateMutability": "nonpayable",
      "type": "function"
    },
    {
      "inputs": [
        {
          "internalType": "uint256",
          "name": "_disputeID",
          "type": "uint256"
        },
        {
          "internalType": "uint256",
          "name": "_ruling",
          "type": "uint256"
        }
      ],
      "name": "rule",
      "outputs": [],
      "stateMutability": "nonpayable",
      "type": "function"
    },
    {
      "inputs": [
        {
          "internalType": "uint256",
          "name": "_disputeID",
          "type": "uint256"
        },
        {
          "internalType": "string",
          "name": "_evidenceURI",
          "type": "string"
        }
      ],
      "name": "submitEvidence",
      "outputs": [],
      "stateMutability": "nonpayable",
      "type": "function"
    },
    {
      "inputs": [
        {
          "internalType": "uint80",
          "name": "_articleStorageAddress",
          "type": "uint80"
        },
        {
          "internalType": "address payable",
          "name": "_newOwner",
          "type": "address"
        }
      ],
      "name": "transferOwnership",
      "outputs": [],
      "stateMutability": "nonpayable",
      "type": "function"
    },
    {
      "inputs": [],
      "name": "treasuryBalance",
      "outputs": [
        {
          "internalType": "uint256",
          "name": "",
          "type": "uint256"
        }
      ],
      "stateMutability": "view",
      "type": "function"
    },
    {
      "inputs": [
        {
          "internalType": "uint256",
          "name": "_newChallengeTaxRate",
          "type": "uint256"
        }
      ],
      "name": "updateChallengeTaxRate",
      "outputs": [],
      "stateMutability": "nonpayable",
      "type": "function"
    },
    {
      "inputs": [
        {
          "internalType": "uint80",
          "name": "_articleStorageAddress",
          "type": "uint80"
        }
      ],
      "name": "withdraw",
      "outputs": [],
      "stateMutability": "nonpayable",
      "type": "function"
    },
    {
      "inputs": [
        {
          "internalType": "uint256",
          "name": "_disputeID",
          "type": "uint256"
        },
        {
          "internalType": "address payable",
          "name": "_contributor",
          "type": "address"
        },
        {
          "internalType": "uint256",
          "name": "_roundNumber",
          "type": "uint256"
        },
        {
          "internalType": "enum ITruthPost.RulingOptions",
          "name": "_ruling",
          "type": "uint8"
        }
      ],
      "name": "withdrawFeesAndRewards",
      "outputs": [
        {
          "internalType": "uint256",
          "name": "amount",
          "type": "uint256"
        }
      ],
      "stateMutability": "nonpayable",
      "type": "function"
    },
    {
      "inputs": [
        {
          "internalType": "uint256",
          "name": "_disputeID",
          "type": "uint256"
        },
        {
          "internalType": "address payable",
          "name": "_contributor",
          "type": "address"
        },
        {
          "internalType": "enum ITruthPost.RulingOptions",
          "name": "_ruling",
          "type": "uint8"
        }
      ],
      "name": "withdrawFeesAndRewardsForAllRounds",
      "outputs": [],
      "stateMutability": "nonpayable",
      "type": "function"
    }
  ],
  "transactionHash": "0x3e991b92630c783d412c33fee543ba7fe3243e34b91b0e2f6b336a0846d5fb08",
  "args": [
    "0x1128eD55ab2d796fa92D2F8E1f336d745354a77A",
    "0x00000000000000000000000000000000000000000000000000000000000000000000000000000000000000000000000000000000000000000000000000000001",
    "/ipfs/QmbTC5Exnke5ZHnb1Mt1dBPAW4Ub12n4JZ9gRNAiz65AKS/metaEvidence.json",
    1,
    1,
    1
  ],
  "solcInputHash": "f1b1333060c1fa7d5af8a281803325ac",
  "bytecode": "0x61010060408190526010600055600280546001600160a81b031916339092029190911790553480156200003157600080fd5b5060405162003de938038062003de983398101604081905262000054916200032e565b60808390526001600160a01b03861660a05260c082905260e08190526200007c848662000088565b505050505050620004d5565b6002546200009b9060ff16600162000402565b60ff16620000ef5760405162461bcd60e51b815260206004820181905260248201527f4e6f207370616365206c65667420666f722061206e65772063617465676f7279604482015260640160405180910390fd5b60025460405160ff909116907f61606860eb6c87306811e2695215385101daab53bd6ab4e9f9049aead9363c7d906200012a9085906200042a565b60405180910390a2600254819060039060ff16604081106200015057620001506200045f565b0190805190602001906200016692919062000199565b506002805460ff169060006200017c8362000475565b91906101000a81548160ff021916908360ff160217905550505050565b828054620001a79062000498565b90600052602060002090601f016020900481019282620001cb576000855562000216565b82601f10620001e657805160ff191683800117855562000216565b8280016001018555821562000216579182015b8281111562000216578251825591602001919060010190620001f9565b506200022492915062000228565b5090565b5b8082111562000224576000815560010162000229565b634e487b7160e01b600052604160045260246000fd5b60005b838110156200027257818101518382015260200162000258565b8381111562000282576000848401525b50505050565b60006001600160401b0380841115620002a557620002a56200023f565b604051601f8501601f19908116603f01168101908282118183101715620002d057620002d06200023f565b81604052809350858152868686011115620002ea57600080fd5b620002fa86602083018762000255565b5050509392505050565b600082601f8301126200031657600080fd5b620003278383516020850162000288565b9392505050565b60008060008060008060c087890312156200034857600080fd5b86516001600160a01b03811681146200036057600080fd5b60208801519096506001600160401b03808211156200037e57600080fd5b818901915089601f8301126200039357600080fd5b620003a48a83516020850162000288565b96506040890151915080821115620003bb57600080fd5b50620003ca89828a0162000304565b945050606087015192506080870151915060a087015190509295509295509295565b634e487b7160e01b600052601160045260246000fd5b600060ff821660ff84168060ff03821115620004225762000422620003ec565b019392505050565b60208152600082518060208401526200044b81604085016020870162000255565b601f01601f19169190910160400192915050565b634e487b7160e01b600052603260045260246000fd5b600060ff821660ff8114156200048f576200048f620003ec565b60010192915050565b600181811c90821680620004ad57607f821691505b60208210811415620004cf57634e487b7160e01b600052602260045260246000fd5b50919050565b60805160a05160c05160e051613840620005a96000396000818161075401528181610c9101528181612483015281816128e5015261294201526000818161085a01528181610bc8015281816124a90152818161290b015261296301526000818161053b01528181610a0601528181610a9401528181610cb5015281816110f2015281816112900152818161161501528181611a4301528181611b8801528181611e5c01528181611ff2015281816120a0015281816124ff01526125f90152600081816107f1015261236801526138406000f3fe6080604052600436106102bb5760003560e01c80638a9bb02a1161016e578063bc0936fd116100cb578063e349ad301161007f578063fc0ac67211610064578063fc0ac672146108a1578063fe6ca782146108b7578063ffa1ad74146108cd57600080fd5b8063e349ad3014610848578063f851a4401461087c57600080fd5b8063d3b476b1116100b0578063d3b476b1146107df578063d970d18c14610813578063dc227fc21461082857600080fd5b8063bc0936fd146107b6578063be467604146107c957600080fd5b8063aa6df29911610122578063b34bfaa811610107578063b34bfaa814610742578063b4c7058114610776578063b9caab4c1461079657600080fd5b8063aa6df2991461070d578063ab9cd37e1461072257600080fd5b8063956dcbd211610153578063956dcbd2146106ad578063a509efeb146106cd578063a6a7f0eb146106ed57600080fd5b80638a9bb02a1461065e5780638f2839701461068d57600080fd5b80634de12db01161021c57806368871c9c116101d05780637597b3cb116101b55780637597b3cb1461058857806378431ce91461059d5780637f67bd6c1461063e57600080fd5b806368871c9c14610529578063736ed4181461057557600080fd5b8063638af3da11610201578063638af3da146104b457806364ff9dfa146104e95780636760aeb01461050957600080fd5b80634de12db01461040d578063564a565d1461043a57600080fd5b806326804bef11610273578063311a6c5611610258578063311a6c56146103b7578063313dab20146103d75780634c55c000146103ed57600080fd5b806326804bef1461038457806329238089146103a457600080fd5b806312b3a2c0116102a457806312b3a2c01461031357806315f36ebe146103365780631e26de341461036457600080fd5b806303624fc0146102c057806306bcbd73146102f1575b600080fd5b3480156102cc57600080fd5b506002546102da9060ff1681565b60405160ff90911681526020015b60405180910390f35b3480156102fd57600080fd5b5061031161030c366004612ff8565b610916565b005b61032661032136600461303a565b6109e0565b60405190151581526020016102e8565b34801561034257600080fd5b5061035661035136600461305d565b611217565b6040519081526020016102e8565b34801561037057600080fd5b5061035661037f366004613078565b61127b565b34801561039057600080fd5b5061031161039f366004613078565b611344565b6103116103b23660046130d3565b6113b6565b3480156103c357600080fd5b506103116103d236600461313f565b61160a565b3480156103e357600080fd5b5061035660015481565b3480156103f957600080fd5b506103116104083660046131ed565b61189a565b34801561041957600080fd5b5061042d610428366004613078565b61199b565b6040516102e891906132c9565b34801561044657600080fd5b506104a3610455366004613078565b604460205260009081526040902080546001909101546001600160a01b0382169160ff600160a01b8204811692600160a81b8304821692600160b01b9004909116906001600160501b031685565b6040516102e8959493929190613314565b3480156104c057600080fd5b506104d46104cf36600461303a565b611a3b565b604080519283526020830191909152016102e8565b3480156104f557600080fd5b5061035661050436600461305d565b611b67565b34801561051557600080fd5b50610311610524366004613359565b611c79565b34801561053557600080fd5b5061055d7f000000000000000000000000000000000000000000000000000000000000000081565b6040516001600160a01b0390911681526020016102e8565b61031161058336600461305d565b611cbe565b34801561059457600080fd5b50610356600281565b3480156105a957600080fd5b506105fe6105b836600461305d565b6043602052600090815260409020546001600160a01b03811690600160a01b810463ffffffff1690600160c01b810466ffffffffffffff1690600160f81b900460ff1684565b604080516001600160a01b03909516855263ffffffff909316602085015266ffffffffffffff9091169183019190915260ff1660608201526080016102e8565b34801561064a57600080fd5b50610356610659366004613078565b612087565b34801561066a57600080fd5b5061067e61067936600461313f565b612119565b6040516102e893929190613395565b34801561069957600080fd5b506103116106a83660046133fa565b612209565b3480156106b957600080fd5b506103116106c836600461305d565b612264565b3480156106d957600080fd5b506103566106e836600461303a565b6123ee565b3480156106f957600080fd5b50610311610708366004613415565b6125ec565b34801561071957600080fd5b5061031161265f565b34801561072e57600080fd5b5061031161073d36600461305d565b61267d565b34801561074e57600080fd5b506103567f000000000000000000000000000000000000000000000000000000000000000081565b34801561078257600080fd5b50610356610791366004613461565b6128af565b3480156107a257600080fd5b506103566107b1366004613359565b6129af565b6103116107c436600461305d565b612a51565b3480156107d557600080fd5b5061035661020081565b3480156107eb57600080fd5b506103567f000000000000000000000000000000000000000000000000000000000000000081565b34801561081f57600080fd5b50610356602081565b34801561083457600080fd5b5061035661084336600461348b565b612b8b565b34801561085457600080fd5b506103567f000000000000000000000000000000000000000000000000000000000000000081565b34801561088857600080fd5b5060025461055d9061010090046001600160a01b031681565b3480156108ad57600080fd5b5061035660005481565b3480156108c357600080fd5b5061035661040081565b3480156108d957600080fd5b5061042d6040518060400160405280600581526020017f312e302e3000000000000000000000000000000000000000000000000000000081525081565b6001600160501b038216600090815260436020526040902080546001600160a01b031633146109b25760405162461bcd60e51b815260206004820152602360248201527f4f6e6c7920617574686f722063616e207472616e73666572206f776e6572736860448201527f69702e000000000000000000000000000000000000000000000000000000000060648201526084015b60405180910390fd5b805473ffffffffffffffffffffffffffffffffffffffff19166001600160a01b039290921691909117905550565b6000828152604460205260408082209051631c3db16d60e01b81526004810185905282907f00000000000000000000000000000000000000000000000000000000000000006001600160a01b031690631c3db16d90602401602060405180830381865afa158015610a55573d6000803e3d6000fd5b505050506040513d601f19601f82011682018060405250810190610a7991906134c6565b6002811115610a8a57610a8a6132dc565b90506000806000807f00000000000000000000000000000000000000000000000000000000000000006001600160a01b031663afe15cfb8a6040518263ffffffff1660e01b8152600401610ae091815260200190565b6040805180830381865afa158015610afc573d6000803e3d6000fd5b505050506040513d601f19601f82011682018060405250810190610b2091906134df565b915091506000856002811115610b3857610b386132dc565b896002811115610b4a57610b4a6132dc565b1415610bec57814210610bc55760405162461bcd60e51b815260206004820152602e60248201527f46756e64696e67206d757374206265206d6164652077697468696e207468652060448201527f61707065616c20706572696f642e00000000000000000000000000000000000060648201526084016109a9565b507f0000000000000000000000000000000000000000000000000000000000000000610cb1565b610400610200610bfc8585613519565b610c069190613530565b610c10919061354f565b610c1a9084613571565b4210610c8e5760405162461bcd60e51b815260206004820152603960248201527f46756e64696e67206d757374206265206d6164652077697468696e207468652060448201527f66697273742068616c662061707065616c20706572696f642e0000000000000060648201526084016109a9565b507f00000000000000000000000000000000000000000000000000000000000000005b86547f00000000000000000000000000000000000000000000000000000000000000006001600160a01b03169063f23f16e6908c90600390600160a81b900460ff1660408110610d0357610d03613589565b016040518363ffffffff1660e01b8152600401610d2192919061367a565b602060405180830381865afa158015610d3e573d6000803e3d6000fd5b505050506040513d601f19601f82011682018060405250810190610d6291906134c6565b9450610400610d718287613530565b610d7b919061354f565b610d859086613571565b600288015490945089935060009250610da19150600190613519565b90506000866002018281548110610dba57610dba613589565b9060005260206000209060060201905080600101836002811115610de057610de06132dc565b60038110610df057610df0613589565b602081049091015460ff601f9092166101000a90041615610e795760405162461bcd60e51b815260206004820152602160248201527f41707065616c206665652068617320616c7265616479206265656e207061696460448201527f2e0000000000000000000000000000000000000000000000000000000000000060648201526084016109a9565b60008082600201856002811115610e9257610e926132dc565b60038110610ea257610ea2613589565b01549050858110610eb65760009150610eda565b34610ec18288613519565b11610ed557610ed08187613519565b610ed7565b345b91505b50336001600160a01b0316838c7f2b4ef80a862edc5616a4e61c11f4a368f33323faca91fa7635d48b85c183e66a8d85604051610f1892919061369b565b60405180910390a43360009081526020839052604090208190856002811115610f4357610f436132dc565b60038110610f5357610f53613589565b016000828254610f639190613571565b925050819055508082600201856002811115610f8157610f816132dc565b60038110610f9157610f91613589565b016000828254610fa19190613571565b925050819055508482600201856002811115610fbf57610fbf6132dc565b60038110610fcf57610fcf613589565b01541061109d5781600201846002811115610fec57610fec6132dc565b60038110610ffc57610ffc613589565b01548260050160008282546110119190613571565b909155506001905082810185600281111561102e5761102e6132dc565b6003811061103e5761103e613589565b602091828204019190066101000a81548160ff02191690831515021790555089600281111561106f5761106f6132dc565b60405184908d907fb5681f036910f38d8c2fa06f2cbedc227ecf03d7c4a358ee9096197b15ff8fd090600090a45b6001820154610100900460ff1680156110c05750600182015462010000900460ff165b1561119357600288018054600101815560009081526005830180548892906110e9908490613519565b909155505087547f00000000000000000000000000000000000000000000000000000000000000006001600160a01b0316906349912f889088908e90600390600160a81b900460ff166040811061114257611142613589565b016040518463ffffffff1660e01b815260040161116092919061367a565b6000604051808303818588803b15801561117957600080fd5b505af115801561118d573d6000803e3d6000fd5b50505050505b600061119f8234613519565b11156111cb57336108fc6111b38334613519565b6040518115909202916000818181858888f150505050505b816001018460028111156111e1576111e16132dc565b600381106111f1576111f1613589565b602081049091015460ff601f9092166101000a9004169850505050505050505092915050565b6000805b6043600084611229816136b6565b6001600160501b03919091168252602082019290925260400160002080549194509150600160c01b900466ffffffffffffff1661121b5761126b6001846136dd565b6001600160501b03169392505050565b600081815260446020526040808220805490917f00000000000000000000000000000000000000000000000000000000000000006001600160a01b03169163f23f16e6918691600391600160a81b90910460ff169081106112de576112de613589565b016040518363ffffffff1660e01b81526004016112fc92919061367a565b602060405180830381865afa158015611319573d6000803e3d6000fd5b505050506040513d601f19601f8201168201806040525081019061133d91906134c6565b9392505050565b60025461010090046001600160a01b0316331461136057600080fd5b80600054116113b15760405162461bcd60e51b815260206004820152601960248201527f596f752063616e277420696e6372656173652074617865732e0000000000000060448201526064016109a9565b600055565b60025460ff9081169083161061140e5760405162461bcd60e51b815260206004820152601c60248201527f546869732063617465676f727920646f6573206e6f742065786973740000000060448201526064016109a9565b60005b604360008361141f816136b6565b6001600160501b03919091168252602082019290925260400160002080549193509150600160c01b900466ffffffffffffff166114115780547fff00000000000000ffffffff000000000000000000000000000000000000000016337fff00000000000000ffffffffffffffffffffffffffffffffffffffffffffffff1617600160c01b3460201c66ffffffffffffff9081168202929092177effffffffffffffffffffffffffffffffffffffffffffffffffffffffffffff16600160f81b60ff87160217808455041661155b5760405162461bcd60e51b815260206004820152603960248201527f596f752063616e277420696e697469616c697a6520616e2061727469636c652060448201527f776974686f75742070757474696e67206120626f756e74792e0000000000000060648201526084016109a9565b60006115686001846136dd565b6001600160501b031690507f4f9a2b734331c583faf3f19d1feb5f08b742e016a56fb61379950beaf3e22341868686846040516115a8949392919061372e565b60405180910390a1815460408051838152600160c01b909204602090811b6affffffffffffff0000000016908301527fdf5fc410d3381cc7f0a7fe3af72f4e3cf53ef5787f20554af69035a950e1b2e3910160405180910390a1505050505050565b336001600160a01b037f0000000000000000000000000000000000000000000000000000000000000000161461163f57600080fd5b600082815260446020526040812060028101805491929161166290600190613519565b8154811061167257611672613589565b60009182526020822060016006929092020190810154909250610100900460ff16156116a0575060016116b6565b6001820154610100900460ff16156116b6575060025b6000808260028111156116cb576116cb6132dc565b14156116e8578460028111156116e3576116e36132dc565b6116ea565b815b8454909150819085907fffffffffffffffffffffff00ffffffffffffffffffffffffffffffffffffffff16600160a01b83600281111561172c5761172c6132dc565b021790555060018401546001600160501b031660008181526043602052604090206002836002811115611761576117616132dc565b14156118185780547fff00000000000000ffffffffffffffffffffffffffffffffffffffffffffffff811682556040516001600160501b0384168152600160c01b909104602090811b6affffffffffffff0000000016917f8271992f9b3a3f30dc2a464982dc4a136e7357403462443a171a0fb0c6ccc265910160405180910390a16000898152604460205260408082205490516001600160a01b039091169183156108fc02918491818181858888f15050505050505b805463ffffffff60a01b1916815585547fffffffffffffffffff00ffffffffffffffffffffffffffffffffffffffffffff16600160b01b178655604051889033907f394027a5fa6e098a1191094d1719d6929b9abc535fcc0c8f448d6a4e7562227690611888908b815260200190565b60405180910390a35050505050505050565b6002546118ab9060ff166001613758565b60ff166118fa5760405162461bcd60e51b815260206004820181905260248201527f4e6f207370616365206c65667420666f722061206e65772063617465676f727960448201526064016109a9565b60025460405160ff909116907f61606860eb6c87306811e2695215385101daab53bd6ab4e9f9049aead9363c7d906119339085906132c9565b60405180910390a2600254819060039060ff166040811061195657611956613589565b01908051906020019061196a929190612f0e565b506002805460ff1690600061197e8361377d565b91906101000a81548160ff021916908360ff160217905550505050565b600381604081106119ab57600080fd5b0180549091506119ba9061359f565b80601f01602080910402602001604051908101604052809291908181526020018280546119e69061359f565b8015611a335780601f10611a0857610100808354040283529160200191611a33565b820191906000526020600020905b815481529060010190602001808311611a1657829003601f168201915b505050505081565b6000806000807f00000000000000000000000000000000000000000000000000000000000000006001600160a01b031663afe15cfb876040518263ffffffff1660e01b8152600401611a8f91815260200190565b6040805180830381865afa158015611aab573d6000803e3d6000fd5b505050506040513d601f19601f82011682018060405250810190611acf91906134df565b90925090506000610400610200611ae68585613519565b611af09190613530565b611afa919061354f565b611b049084613571565b90506000866002811115611b1a57611b1a6132dc565b611b2389612087565b6002811115611b3457611b346132dc565b6002811115611b4557611b456132dc565b14905080611b54578382611b57565b83835b95509550505050505b9250929050565b6001600160501b0381166000908152604360205260408082208054909183917f00000000000000000000000000000000000000000000000000000000000000006001600160a01b03169163f7434ea991600391600160f81b90910460ff16908110611bd457611bd4613589565b016040518263ffffffff1660e01b8152600401611bf1919061379d565b602060405180830381865afa158015611c0e573d6000803e3d6000fd5b505050506040513d601f19601f82011682018060405250810190611c3291906134c6565b600080548454929350909161040091611c5a91600160c01b900466ffffffffffffff16613530565b611c64919061354f565b9050611c708183613571565b95945050505050565b6000838152604460205260408120600281015490915b81811015611cb657611ca386868387612b8b565b5080611cae816137b0565b915050611c8f565b505050505050565b6001600160501b03811660009081526043602052604090208054600160a01b900463ffffffff9081161415611d355760405162461bcd60e51b815260206004820152601e60248201527f546865726520697320616e206f6e676f696e67206368616c6c656e67652e000060448201526064016109a9565b805463ffffffff60a01b191677ffffffff0000000000000000000000000000000000000000178155611d6682611b67565b341015611db55760405162461bcd60e51b815260206004820181905260248201527f496e73756666696369656e742066756e647320746f206368616c6c656e67652e60448201526064016109a9565b600054815461040091611dd791600160c01b900466ffffffffffffff16613530565b611de1919061354f565b60016000828254611df29190613571565b90915550508054600160c01b900466ffffffffffffff16611e555760405162461bcd60e51b815260206004820152601560248201527f4e6f7468696e6720746f206368616c6c656e67652e000000000000000000000060448201526064016109a9565b80546000907f00000000000000000000000000000000000000000000000000000000000000006001600160a01b03169063c13517e1903490600290600390600160f81b900460ff1660408110611ead57611ead613589565b016040518463ffffffff1660e01b8152600401611ecb92919061367a565b60206040518083038185885af1158015611ee9573d6000803e3d6000fd5b50505050506040513d601f19601f82011682018060405250810190611f0e91906134c6565b60008181526044602090815260409182902080543373ffffffffffffffffffffffffffffffffffffffff1982168117835560028301805460019081019091558301805469ffffffffffffffffffff19166001600160501b038b1617905587547fffffffffffffffffffff00ff00000000000000000000000000000000000000009092167fffffffffffffffffffff00ffffffffffffffffffffffffffffffffffffffffff90911617600160f81b9182900460ff908116600160a81b029190911790925586548451919004909116815290810183905291925082916001600160a01b037f000000000000000000000000000000000000000000000000000000000000000016917f74baab670a4015ab2f1b467c5252a96141a2573f2908e58a92081e80d3cfde3d910160405180910390a360408051338152602081018390526001600160501b038516917f1e5338a1fb672aa84963dc9f9e4afd009b4ed726debb09224bf4d02a6c68b4e4910160405180910390a2505050565b604051631c3db16d60e01b8152600481018290526000907f00000000000000000000000000000000000000000000000000000000000000006001600160a01b031690631c3db16d90602401602060405180830381865afa1580156120ef573d6000803e3d6000fd5b505050506040513d601f19601f8201168201806040525081019061211391906134c6565b92915050565b612121612f92565b612129612f92565b600084815260446020526040812060020180548291908690811061214f5761214f613589565b9060005260206000209060060201905080600101816002018260050154826003806020026040519081016040528092919082600380156121c4576020028201916000905b825461010083900a900460ff1615158152602060019283018181049485019490930390920291018084116121935790505b505060408051606081019182905294975086935060039250905082845b8154815260200190600101908083116121e15750505050509150935093509350509250925092565b60025461010090046001600160a01b0316331461222557600080fd5b600280546001600160a01b03909216610100027fffffffffffffffffffffff0000000000000000000000000000000000000000ff909216919091179055565b6001600160501b038116600090815260436020526040902080546001600160a01b031633146122e15760405162461bcd60e51b8152602060048201526024808201527f4f6e6c7920617574686f722063616e20776974686472617720616e206172746960448201526331b6329760e11b60648201526084016109a9565b8054600160a01b900463ffffffff16156123635760405162461bcd60e51b815260206004820152603560248201527f5769746864726177616c20616c726561647920696e69746961746564206f722060448201527f74686572652069732061206368616c6c656e67652e000000000000000000000060648201526084016109a9565b61238d7f000000000000000000000000000000000000000000000000000000000000000042613571565b815463ffffffff91909116600160a01b0263ffffffff60a01b199091161781556040516001600160501b03831681527f416c1ad2b96c356f3bbd35431f86cce449ddbb4f8c3755ea9d2776b04c2e9c8f906020015b60405180910390a15050565b60008281526044602052604081206002810154829061240f90600190613519565b9050600082600201828154811061242857612428613589565b90600052602060002090600602019050600085600281111561244c5761244c6132dc565b61245588612087565b6002811115612466576124666132dc565b6002811115612477576124776132dc565b1490506000816124a7577f00000000000000000000000000000000000000000000000000000000000000006124c9565b7f00000000000000000000000000000000000000000000000000000000000000005b90506000836002018860028111156124e3576124e36132dc565b600381106124f3576124f3613589565b015486549091506000907f00000000000000000000000000000000000000000000000000000000000000006001600160a01b03169063f23f16e6908c90600390600160a81b900460ff166040811061254d5761254d613589565b016040518363ffffffff1660e01b815260040161256b92919061367a565b602060405180830381865afa158015612588573d6000803e3d6000fd5b505050506040513d601f19601f820116820180604052508101906125ac91906134c6565b905060006104006125bd8584613530565b6125c7919061354f565b6125d19083613571565b90506125dd8382613519565b9b9a5050505050505050505050565b336001600160a01b0316837f00000000000000000000000000000000000000000000000000000000000000006001600160a01b03167fdccf2f8b2cc26eafcd61905cba744cff4b81d14740725f6376390dc6298a6a3c85856040516126529291906137cb565b60405180910390a4505050565b60025461010090046001600160a01b0316331461267b57600080fd5b565b6001600160501b038116600090815260436020526040902080546001600160a01b031633146126fa5760405162461bcd60e51b8152602060048201526024808201527f4f6e6c7920617574686f722063616e20776974686472617720616e206172746960448201526331b6329760e11b60648201526084016109a9565b8054600160a01b900463ffffffff1661277b5760405162461bcd60e51b815260206004820152602660248201527f596f75206e65656420746f20696e697469617465207769746864726177616c2060448201527f66697273742e000000000000000000000000000000000000000000000000000060648201526084016109a9565b805442600160a01b90910463ffffffff1611156128005760405162461bcd60e51b815260206004820152603f60248201527f596f75206e65656420746f207761697420666f722074696d656c6f636b206f7260448201527f207761697420756e74696c20746865206368616c6c656e676520656e64732e0060648201526084016109a9565b80547fff0000000000000000000000ffffffffffffffffffffffffffffffffffffffff81168255604051600160c01b90910460201b6affffffffffffff00000000169033906108fc8315029083906000818181858888f1935050505015801561286d573d6000803e3d6000fd5b506040516001600160501b03841681527f70b41d8cca762ceec66d93f536dbb31f5cabbf1901f862508b9438de54fce4eb9060200160405180910390a1505050565b6000808360028111156128c4576128c46132dc565b8360028111156128d6576128d66132dc565b1490506103e8600082612909577f000000000000000000000000000000000000000000000000000000000000000061292b565b7f00000000000000000000000000000000000000000000000000000000000000005b905061293961040082613571565b826104006129877f00000000000000000000000000000000000000000000000000000000000000007f0000000000000000000000000000000000000000000000000000000000000000613571565b6129919190613571565b61299b9190613530565b6129a5919061354f565b9695505050505050565b60008381526044602052604081208054600160b01b900460ff166129d757600091505061133d565b60028101548154600160a01b900460ff1660005b82811015612a46576000846002018281548110612a0a57612a0a613589565b90600052602060002090600602019050612a2681898986612cef565b612a309087613571565b9550508080612a3e906137b0565b9150506129eb565b505050509392505050565b6001600160501b038116600090815260436020526040902080546001600160a01b03163314612ae85760405162461bcd60e51b815260206004820152602e60248201527f4f6e6c7920617574686f722063616e20696e63726561736520626f756e74792060448201527f6f6620616e2061727469636c652e00000000000000000000000000000000000060648201526084016109a9565b80543460201c908290601890612b0f908490600160c01b900466ffffffffffffff166137df565b82546101009290920a66ffffffffffffff818102199093169190921691909102179055508054604080516001600160501b0385168152600160c01b909204602090811b6affffffffffffff0000000016908301527fdf5fc410d3381cc7f0a7fe3af72f4e3cf53ef5787f20554af69035a950e1b2e391016123e2565b60008481526044602052604081208054600160b01b900460ff16612bf15760405162461bcd60e51b815260206004820152601760248201527f5468657265206973206e6f2072756c696e67207965742e00000000000000000060448201526064016109a9565b6000816002018581548110612c0857612c08613589565b90600052602060002090600602019050612c358187868560000160149054906101000a900460ff16612cef565b92508215612ce5576001600160a01b0386166000908152602082905260408120856002811115612c6757612c676132dc565b60038110612c7757612c77613589565b01556040516001600160a01b0387169084156108fc029085906000818181858888f1935050505050856001600160a01b031685887fff2b7c936d6023fea901b3455cefc23b124c1ca5997dc5b48c461fd20984289d8787604051612cdc92919061369b565b60405180910390a45b5050949350505050565b60008260018601816002811115612d0857612d086132dc565b60038110612d1857612d18613589565b602081049091015460ff601f9092166101000a900416612d75576001600160a01b0385166000908152602087905260409020816002811115612d5c57612d5c6132dc565b60038110612d6c57612d6c613589565b01549150612f05565b826002811115612d8757612d876132dc565b846002811115612d9957612d996132dc565b1415612e5957600086600201826002811115612db757612db76132dc565b60038110612dc757612dc7613589565b015411612dd5576000612e52565b85600201816002811115612deb57612deb6132dc565b60038110612dfb57612dfb613589565b015460058701546001600160a01b0387166000908152602089905260409020836002811115612e2c57612e2c6132dc565b60038110612e3c57612e3c613589565b0154612e489190613530565b612e52919061354f565b9150612f05565b85600101836002811115612e6f57612e6f6132dc565b60038110612e7f57612e7f613589565b602081049091015460ff601f9092166101000a900416612f055760048601546003870154612ead9190613571565b60058701546001600160a01b0387166000908152602089905260409020836002811115612edc57612edc6132dc565b60038110612eec57612eec613589565b0154612ef89190613530565b612f02919061354f565b91505b50949350505050565b828054612f1a9061359f565b90600052602060002090601f016020900481019282612f3c5760008555612f82565b82601f10612f5557805160ff1916838001178555612f82565b82800160010185558215612f82579182015b82811115612f82578251825591602001919060010190612f67565b50612f8e929150612fb0565b5090565b60405180606001604052806003906020820280368337509192915050565b5b80821115612f8e5760008155600101612fb1565b80356001600160501b0381168114612fdc57600080fd5b919050565b80356001600160a01b0381168114612fdc57600080fd5b6000806040838503121561300b57600080fd5b61301483612fc5565b915061302260208401612fe1565b90509250929050565b803560038110612fdc57600080fd5b6000806040838503121561304d57600080fd5b823591506130226020840161302b565b60006020828403121561306f57600080fd5b61133d82612fc5565b60006020828403121561308a57600080fd5b5035919050565b60008083601f8401126130a357600080fd5b50813567ffffffffffffffff8111156130bb57600080fd5b602083019150836020828501011115611b6057600080fd5b600080600080606085870312156130e957600080fd5b843567ffffffffffffffff81111561310057600080fd5b61310c87828801613091565b909550935050602085013560ff8116811461312657600080fd5b915061313460408601612fc5565b905092959194509250565b6000806040838503121561315257600080fd5b50508035926020909101359150565b634e487b7160e01b600052604160045260246000fd5b600067ffffffffffffffff8084111561319257613192613161565b604051601f8501601f19908116603f011681019082821181831017156131ba576131ba613161565b816040528093508581528686860111156131d357600080fd5b858560208301376000602087830101525050509392505050565b6000806040838503121561320057600080fd5b823567ffffffffffffffff8082111561321857600080fd5b818501915085601f83011261322c57600080fd5b61323b86833560208501613177565b9350602085013591508082111561325157600080fd5b508301601f8101851361326357600080fd5b61327285823560208401613177565b9150509250929050565b6000815180845260005b818110156132a257602081850181015186830182015201613286565b818111156132b4576000602083870101525b50601f01601f19169290920160200192915050565b60208152600061133d602083018461327c565b634e487b7160e01b600052602160045260246000fd5b6003811061331057634e487b7160e01b600052602160045260246000fd5b9052565b6001600160a01b038616815260a0810161333160208301876132f2565b60ff94909416604082015291151560608301526001600160501b031660809091015292915050565b60008060006060848603121561336e57600080fd5b8335925061337e60208501612fe1565b915061338c6040850161302b565b90509250925092565b60e08101818560005b60038110156133bf578151151583526020928301929091019060010161339e565b505050606082018460005b60038110156133e95781518352602092830192909101906001016133ca565b5050508260c0830152949350505050565b60006020828403121561340c57600080fd5b61133d82612fe1565b60008060006040848603121561342a57600080fd5b83359250602084013567ffffffffffffffff81111561344857600080fd5b61345486828701613091565b9497909650939450505050565b6000806040838503121561347457600080fd5b61347d8361302b565b91506130226020840161302b565b600080600080608085870312156134a157600080fd5b843593506134b160208601612fe1565b9250604085013591506131346060860161302b565b6000602082840312156134d857600080fd5b5051919050565b600080604083850312156134f257600080fd5b505080516020909101519092909150565b634e487b7160e01b600052601160045260246000fd5b60008282101561352b5761352b613503565b500390565b600081600019048311821515161561354a5761354a613503565b500290565b60008261356c57634e487b7160e01b600052601260045260246000fd5b500490565b6000821982111561358457613584613503565b500190565b634e487b7160e01b600052603260045260246000fd5b600181811c908216806135b357607f821691505b602082108114156135d457634e487b7160e01b600052602260045260246000fd5b50919050565b8054600090600181811c90808316806135f457607f831692505b602080841082141561361657634e487b7160e01b600052602260045260246000fd5b8388526020880182801561363157600181146136425761366d565b60ff1987168252828201975061366d565b60008981526020902060005b878110156136675781548482015290860190840161364e565b83019850505b5050505050505092915050565b82815260406020820152600061369360408301846135da565b949350505050565b604081016136a982856132f2565b8260208301529392505050565b60006001600160501b03808316818114156136d3576136d3613503565b6001019392505050565b60006001600160501b03838116908316818110156136fd576136fd613503565b039392505050565b81835281816020850137506000828201602090810191909152601f909101601f19169091010190565b606081526000613742606083018688613705565b60ff949094166020830152506040015292915050565b600060ff821660ff84168060ff0382111561377557613775613503565b019392505050565b600060ff821660ff81141561379457613794613503565b60010192915050565b60208152600061133d60208301846135da565b60006000198214156137c4576137c4613503565b5060010190565b602081526000613693602083018486613705565b600066ffffffffffffff80831681851680830382111561380157613801613503565b0194935050505056fea2646970667358221220d9124c2aca79e9ac71f51c715b8dbcfae11db7f4719ad33e6729ab0a1774c6cc64736f6c634300080a0033",
  "devdoc": {
    "details": "Articles are not addressed with their identifiers. That enables us to reuse same storage address for another article later. Arbitrator is fixed, but subcourts, jury size and metaevidence are not. We prevent articles to get withdrawn immediately. This is to prevent submitter to escape punishment in case someone discovers an argument to debunk the article. Bounty amounts are compressed with a lossy compression method to save on storage cost.",
    "kind": "dev",
    "methods": {
      "challenge(uint80)": {
        "details": "withdrawalPermittedAt has some special values: 0 indicates withdrawal possible but process not started yet, max value indicates there is a challenge and during challenge it's forbidden to start another challenge.",
        "params": {
          "_articleStorageAddress": "The address of the article in the storage."
        }
      },
      "fundAppeal(uint256,uint8)": {
        "params": {
          "_disputeID": "The dispute ID as in the arbitrator.",
          "_supportedRuling": "The supported ruling in this funding."
        }
      },
      "increaseBounty(uint80)": {
        "params": {
          "_articleStorageAddress": "The address of the article in the storage."
        }
      },
      "initializeArticle(string,uint8,uint80)": {
        "params": {
          "_articleID": "Unique identifier of an article. Usually an IPFS content identifier.",
          "_category": "Article category. This changes which metaevidence will be used.",
          "_searchPointer": "Starting point of the search. Find a vacant storage slot before calling this function to minimize gas cost."
        }
      },
      "initiateWithdrawal(uint80)": {
        "details": "withdrawalPermittedAt has some special values: 0 indicates withdrawal possible but process not started yet, max value indicates there is a challenge and during challenge it's forbidden to start withdrawal process.",
        "params": {
          "_articleStorageAddress": "The address of the article in the storage."
        }
      },
      "newCategory(string,bytes)": {
        "params": {
          "_arbitratorExtraData": "Extra data of Kleros arbitrator, signaling subcourt and jury size selection.",
          "_metaevidenceIpfsUri": "IPFS content identifier for metaevidence."
        }
      },
      "rule(uint256,uint256)": {
        "params": {
          "_disputeID": "The dispute ID as in the arbitrator.",
          "_ruling": "The ruling that arbitrator gave."
        }
      },
      "submitEvidence(uint256,string)": {
        "params": {
          "_disputeID": "Dispute ID as in arbitrator.",
          "_evidenceURI": "IPFS content identifier of the evidence."
        }
      },
      "withdraw(uint80)": {
        "details": "withdrawalPermittedAt has some special values: 0 indicates withdrawal possible but process not started yet, max value indicates there is a challenge and during challenge it's forbidden to start withdrawal process.",
        "params": {
          "_articleStorageAddress": "The address of the article in the storage."
        }
      },
      "withdrawFeesAndRewards(uint256,address,uint256,uint8)": {
        "params": {
          "_contributor": "The address whose rewards to withdraw.",
          "_disputeID": "ID of the dispute as in arbitrator.",
          "_roundNumber": "The number of the round caller wants to withdraw from.",
          "_ruling": "Ruling that received contribution from contributor."
        },
        "returns": {
          "amount": "The amount available to withdraw for given question, contributor, round number and ruling option."
        }
      },
      "withdrawFeesAndRewardsForAllRounds(uint256,address,uint8)": {
        "params": {
          "_contributor": "The address whose rewards to withdraw.",
          "_disputeID": "ID of the dispute as in arbitrator.",
          "_ruling": "Ruling that received contributions from contributor."
        }
      }
    },
    "title": "The Trust Post",
    "version": 1
  },
  "userdoc": {
    "kind": "user",
    "methods": {
      "appealFee(uint256)": {
        "notice": "Returns the total amount needs to be paid to appeal a dispute."
      },
      "buyAndBurn()": {
        "notice": "TODO. This function should use treasuryBalance to buy a token and send it to 0x0."
      },
      "challenge(uint80)": {
        "notice": "Challenges the article at the given storage address. Follow events to find out which article resides in which slot."
      },
      "challengeFee(uint80)": {
        "notice": "Returns the total amount needs to be paid to challenge an article."
      },
      "changeAdmin(address)": {
        "notice": "Lets you to transfer ownership of an article. This is useful when you want to change owner account without withdrawing and resubmitting."
      },
      "findVacantStorageSlot(uint80)": {
        "notice": "Helper function to find a vacant slot for article. Use this function before calling initialize to minimize your gas cost."
      },
      "fundAppeal(uint256,uint8)": {
        "notice": "Lets you fund a crowdfunded appeal. In case of funding is incomplete, you will be refunded. Withdrawal will be carried out using withdrawFeesAndRewards function."
      },
      "getTotalWithdrawableAmount(uint256,address,uint8)": {
        "notice": "Returns the sum of withdrawable amount. This function has O(m) time complexity where m is number of rounds. It is safe to assume m is always less than 10 as appeal cost growth order is O(m^2)."
      },
      "increaseBounty(uint80)": {
        "notice": "Lets you increase a bounty of a live article."
      },
      "initializeArticle(string,uint8,uint80)": {
        "notice": "Initializes an article."
      },
      "initiateWithdrawal(uint80)": {
        "notice": "Lets a author to start withdrawal process."
      },
      "newCategory(string,bytes)": {
        "notice": "Initializes a category."
      },
      "rule(uint256,uint256)": {
        "notice": "For arbitrator to call, to execute it's ruling. In case arbitrator rules in favor of challenger, challenger wins the bounty. In any case, withdrawalPermittedAt will be reset."
      },
      "submitEvidence(uint256,string)": {
        "notice": "Lets you submit evidence as defined in evidence (ERC-1497) standard."
      },
      "transferOwnership(uint80,address)": {
        "notice": "Lets you to transfer ownership of an article. This is useful when you want to change owner account without withdrawing and resubmitting."
      },
      "updateChallengeTaxRate(uint256)": {
        "notice": "Lets you to transfer ownership of an article. This is useful when you want to change owner account without withdrawing and resubmitting."
      },
      "withdraw(uint80)": {
        "notice": "Executes a withdrawal. Can only be executed by author."
      },
      "withdrawFeesAndRewards(uint256,address,uint256,uint8)": {
        "notice": "Allows to withdraw any reimbursable fees or rewards after the dispute gets solved."
      },
      "withdrawFeesAndRewardsForAllRounds(uint256,address,uint8)": {
        "notice": "Allows to withdraw any rewards or reimbursable fees after the dispute gets resolved. For all rounds at once. This function has O(m) time complexity where m is number of rounds. It is safe to assume m is always less than 10 as appeal cost growth order is O(2^m)."
      }
    },
    "notice": "Smart contract for a type of curation, where submitted items are on hold until they are withdrawn and the amount of security deposits are determined by submitters.",
    "version": 1
  },
  "storageLayout": {
    "storage": [
      {
        "astId": 534,
        "contract": "contracts/TruthPost.sol:TruthPost",
        "label": "challengeTaxRate",
        "offset": 0,
        "slot": "0",
        "type": "t_uint256"
      },
      {
        "astId": 536,
        "contract": "contracts/TruthPost.sol:TruthPost",
        "label": "treasuryBalance",
        "offset": 0,
        "slot": "1",
        "type": "t_uint256"
      },
      {
        "astId": 539,
        "contract": "contracts/TruthPost.sol:TruthPost",
        "label": "categoryCounter",
        "offset": 0,
        "slot": "2",
        "type": "t_uint8"
      },
      {
        "astId": 546,
        "contract": "contracts/TruthPost.sol:TruthPost",
        "label": "admin",
        "offset": 1,
        "slot": "2",
        "type": "t_address_payable"
      },
      {
        "astId": 609,
        "contract": "contracts/TruthPost.sol:TruthPost",
        "label": "categoryToArbitratorExtraData",
        "offset": 0,
        "slot": "3",
        "type": "t_array(t_bytes_storage)64_storage"
      },
      {
        "astId": 614,
        "contract": "contracts/TruthPost.sol:TruthPost",
        "label": "articleStorage",
        "offset": 0,
        "slot": "67",
        "type": "t_mapping(t_uint80,t_struct(Article)605_storage)"
      },
      {
        "astId": 619,
        "contract": "contracts/TruthPost.sol:TruthPost",
        "label": "disputes",
        "offset": 0,
        "slot": "68",
        "type": "t_mapping(t_uint256,t_struct(DisputeData)573_storage)"
      }
    ],
    "types": {
      "t_address": {
        "encoding": "inplace",
        "label": "address",
        "numberOfBytes": "20"
      },
      "t_address_payable": {
        "encoding": "inplace",
        "label": "address payable",
        "numberOfBytes": "20"
      },
      "t_array(t_bool)3_storage": {
        "base": "t_bool",
        "encoding": "inplace",
        "label": "bool[3]",
        "numberOfBytes": "32"
      },
      "t_array(t_bytes_storage)64_storage": {
        "base": "t_bytes_storage",
        "encoding": "inplace",
        "label": "bytes[64]",
        "numberOfBytes": "2048"
      },
      "t_array(t_struct(Round)596_storage)dyn_storage": {
        "base": "t_struct(Round)596_storage",
        "encoding": "dynamic_array",
        "label": "struct TruthPost.Round[]",
        "numberOfBytes": "32"
      },
      "t_array(t_uint256)3_storage": {
        "base": "t_uint256",
        "encoding": "inplace",
        "label": "uint256[3]",
        "numberOfBytes": "96"
      },
      "t_bool": {
        "encoding": "inplace",
        "label": "bool",
        "numberOfBytes": "1"
      },
      "t_bytes_storage": {
        "encoding": "bytes",
        "label": "bytes",
        "numberOfBytes": "32"
      },
      "t_enum(RulingOptions)295": {
        "encoding": "inplace",
        "label": "enum ITruthPost.RulingOptions",
        "numberOfBytes": "1"
      },
      "t_mapping(t_address,t_array(t_uint256)3_storage)": {
        "encoding": "mapping",
        "key": "t_address",
        "label": "mapping(address => uint256[3])",
        "numberOfBytes": "32",
        "value": "t_array(t_uint256)3_storage"
      },
      "t_mapping(t_uint256,t_struct(DisputeData)573_storage)": {
        "encoding": "mapping",
        "key": "t_uint256",
        "label": "mapping(uint256 => struct TruthPost.DisputeData)",
        "numberOfBytes": "32",
        "value": "t_struct(DisputeData)573_storage"
      },
      "t_mapping(t_uint80,t_struct(Article)605_storage)": {
        "encoding": "mapping",
        "key": "t_uint80",
        "label": "mapping(uint80 => struct TruthPost.Article)",
        "numberOfBytes": "32",
        "value": "t_struct(Article)605_storage"
      },
      "t_struct(Article)605_storage": {
        "encoding": "inplace",
        "label": "struct TruthPost.Article",
        "members": [
          {
            "astId": 598,
            "contract": "contracts/TruthPost.sol:TruthPost",
            "label": "owner",
            "offset": 0,
            "slot": "0",
            "type": "t_address_payable"
          },
          {
            "astId": 600,
            "contract": "contracts/TruthPost.sol:TruthPost",
            "label": "withdrawalPermittedAt",
            "offset": 20,
            "slot": "0",
            "type": "t_uint32"
          },
          {
            "astId": 602,
            "contract": "contracts/TruthPost.sol:TruthPost",
            "label": "bountyAmount",
            "offset": 24,
            "slot": "0",
            "type": "t_uint56"
          },
          {
            "astId": 604,
            "contract": "contracts/TruthPost.sol:TruthPost",
            "label": "category",
            "offset": 31,
            "slot": "0",
            "type": "t_uint8"
          }
        ],
        "numberOfBytes": "32"
      },
      "t_struct(DisputeData)573_storage": {
        "encoding": "inplace",
        "label": "struct TruthPost.DisputeData",
        "members": [
          {
            "astId": 559,
            "contract": "contracts/TruthPost.sol:TruthPost",
            "label": "challenger",
            "offset": 0,
            "slot": "0",
            "type": "t_address_payable"
          },
          {
            "astId": 562,
            "contract": "contracts/TruthPost.sol:TruthPost",
            "label": "outcome",
            "offset": 20,
            "slot": "0",
            "type": "t_enum(RulingOptions)295"
          },
          {
            "astId": 564,
            "contract": "contracts/TruthPost.sol:TruthPost",
            "label": "articleCategory",
            "offset": 21,
            "slot": "0",
            "type": "t_uint8"
          },
          {
            "astId": 566,
            "contract": "contracts/TruthPost.sol:TruthPost",
            "label": "resolved",
            "offset": 22,
            "slot": "0",
            "type": "t_bool"
          },
          {
            "astId": 568,
            "contract": "contracts/TruthPost.sol:TruthPost",
            "label": "articleStorageAddress",
            "offset": 0,
            "slot": "1",
            "type": "t_uint80"
          },
          {
            "astId": 572,
            "contract": "contracts/TruthPost.sol:TruthPost",
            "label": "rounds",
            "offset": 0,
            "slot": "2",
            "type": "t_array(t_struct(Round)596_storage)dyn_storage"
          }
        ],
        "numberOfBytes": "96"
      },
      "t_struct(Round)596_storage": {
        "encoding": "inplace",
        "label": "struct TruthPost.Round",
        "members": [
          {
            "astId": 581,
            "contract": "contracts/TruthPost.sol:TruthPost",
            "label": "contributions",
            "offset": 0,
            "slot": "0",
            "type": "t_mapping(t_address,t_array(t_uint256)3_storage)"
          },
          {
            "astId": 587,
            "contract": "contracts/TruthPost.sol:TruthPost",
            "label": "hasPaid",
            "offset": 0,
            "slot": "1",
            "type": "t_array(t_bool)3_storage"
          },
          {
            "astId": 593,
            "contract": "contracts/TruthPost.sol:TruthPost",
            "label": "totalPerRuling",
            "offset": 0,
            "slot": "2",
            "type": "t_array(t_uint256)3_storage"
          },
          {
            "astId": 595,
            "contract": "contracts/TruthPost.sol:TruthPost",
            "label": "totalClaimableAfterExpenses",
            "offset": 0,
            "slot": "5",
            "type": "t_uint256"
          }
        ],
        "numberOfBytes": "192"
      },
      "t_uint256": {
        "encoding": "inplace",
        "label": "uint256",
        "numberOfBytes": "32"
      },
      "t_uint32": {
        "encoding": "inplace",
        "label": "uint32",
        "numberOfBytes": "4"
      },
      "t_uint56": {
        "encoding": "inplace",
        "label": "uint56",
        "numberOfBytes": "7"
      },
      "t_uint8": {
        "encoding": "inplace",
        "label": "uint8",
        "numberOfBytes": "1"
      },
      "t_uint80": {
        "encoding": "inplace",
        "label": "uint80",
        "numberOfBytes": "10"
      }
    }
  }
}