{
  "address": "0x4FE73e57343931E713728d5dc334F7298666E980",
  "abi": [
    {
      "inputs": [
        {
          "internalType": "contract IArbitrator",
          "name": "_arbitrator",
          "type": "address"
        },
        {
          "internalType": "bytes",
          "name": "_arbitratorExtraData",
          "type": "bytes"
        },
        {
          "internalType": "string",
          "name": "_metaevidenceIpfsUri",
          "type": "string"
        },
        {
          "internalType": "uint256",
          "name": "_articleWithdrawalTimelock",
          "type": "uint256"
        },
        {
          "internalType": "uint256",
          "name": "_winnerStakeMultiplier",
          "type": "uint256"
        },
        {
          "internalType": "uint256",
          "name": "_loserStakeMultiplier",
          "type": "uint256"
        },
        {
          "internalType": "address payable",
          "name": "_treasury",
          "type": "address"
        }
      ],
      "stateMutability": "nonpayable",
      "type": "constructor"
    },
    {
      "anonymous": false,
      "inputs": [
        {
          "indexed": false,
          "internalType": "uint256",
          "name": "articleAddress",
          "type": "uint256"
        }
      ],
      "name": "ArticleWithdrawn",
      "type": "event"
    },
    {
      "anonymous": false,
      "inputs": [
        {
          "indexed": false,
          "internalType": "uint256",
          "name": "articleAddress",
          "type": "uint256"
        },
        {
          "indexed": false,
          "internalType": "uint256",
          "name": "newTotal",
          "type": "uint256"
        }
      ],
      "name": "BalanceUpdate",
      "type": "event"
    },
    {
      "anonymous": false,
      "inputs": [
        {
          "indexed": true,
          "internalType": "uint256",
          "name": "articleAddress",
          "type": "uint256"
        },
        {
          "indexed": false,
          "internalType": "address",
          "name": "challanger",
          "type": "address"
        },
        {
          "indexed": false,
          "internalType": "uint256",
          "name": "disputeID",
          "type": "uint256"
        }
      ],
      "name": "Challenge",
      "type": "event"
    },
    {
      "anonymous": false,
      "inputs": [
        {
          "indexed": true,
          "internalType": "uint256",
          "name": "disputeId",
          "type": "uint256"
        },
        {
          "indexed": true,
          "internalType": "uint256",
          "name": "round",
          "type": "uint256"
        },
        {
          "indexed": false,
          "internalType": "enum ITruthPost.RulingOptions",
          "name": "ruling",
          "type": "uint8"
        },
        {
          "indexed": true,
          "internalType": "address",
          "name": "contributor",
          "type": "address"
        },
        {
          "indexed": false,
          "internalType": "uint256",
          "name": "amount",
          "type": "uint256"
        }
      ],
      "name": "Contribution",
      "type": "event"
    },
    {
      "anonymous": false,
      "inputs": [
        {
          "indexed": false,
          "internalType": "uint256",
          "name": "articleAddress",
          "type": "uint256"
        }
      ],
      "name": "Debunked",
      "type": "event"
    },
    {
      "anonymous": false,
      "inputs": [
        {
          "indexed": true,
          "internalType": "contract IArbitrator",
          "name": "_arbitrator",
          "type": "address"
        },
        {
          "indexed": true,
          "internalType": "uint256",
          "name": "_disputeID",
          "type": "uint256"
        },
        {
          "indexed": false,
          "internalType": "uint256",
          "name": "_metaEvidenceID",
          "type": "uint256"
        },
        {
          "indexed": false,
          "internalType": "uint256",
          "name": "_evidenceGroupID",
          "type": "uint256"
        }
      ],
      "name": "Dispute",
      "type": "event"
    },
    {
      "anonymous": false,
      "inputs": [
        {
          "indexed": true,
          "internalType": "contract IArbitrator",
          "name": "_arbitrator",
          "type": "address"
        },
        {
          "indexed": true,
          "internalType": "uint256",
          "name": "_evidenceGroupID",
          "type": "uint256"
        },
        {
          "indexed": true,
          "internalType": "address",
          "name": "_party",
          "type": "address"
        },
        {
          "indexed": false,
          "internalType": "string",
          "name": "_evidence",
          "type": "string"
        }
      ],
      "name": "Evidence",
      "type": "event"
    },
    {
      "anonymous": false,
      "inputs": [
        {
          "indexed": true,
          "internalType": "uint256",
          "name": "_metaEvidenceID",
          "type": "uint256"
        },
        {
          "indexed": false,
          "internalType": "string",
          "name": "_evidence",
          "type": "string"
        }
      ],
      "name": "MetaEvidence",
      "type": "event"
    },
    {
      "anonymous": false,
      "inputs": [
        {
          "indexed": false,
          "internalType": "string",
          "name": "articleID",
          "type": "string"
        },
        {
          "indexed": false,
          "internalType": "uint8",
          "name": "category",
          "type": "uint8"
        },
        {
          "indexed": false,
          "internalType": "uint256",
          "name": "articleAddress",
          "type": "uint256"
        }
      ],
      "name": "NewArticle",
      "type": "event"
    },
    {
      "anonymous": false,
      "inputs": [
        {
          "indexed": true,
          "internalType": "contract IArbitrator",
          "name": "_arbitrator",
          "type": "address"
        },
        {
          "indexed": true,
          "internalType": "uint256",
          "name": "_disputeID",
          "type": "uint256"
        },
        {
          "indexed": false,
          "internalType": "uint256",
          "name": "_ruling",
          "type": "uint256"
        }
      ],
      "name": "Ruling",
      "type": "event"
    },
    {
      "anonymous": false,
      "inputs": [
        {
          "indexed": true,
          "internalType": "uint256",
          "name": "disputeId",
          "type": "uint256"
        },
        {
          "indexed": true,
          "internalType": "uint256",
          "name": "round",
          "type": "uint256"
        },
        {
          "indexed": true,
          "internalType": "enum ITruthPost.RulingOptions",
          "name": "ruling",
          "type": "uint8"
        }
      ],
      "name": "RulingFunded",
      "type": "event"
    },
    {
      "anonymous": false,
      "inputs": [
        {
          "indexed": false,
          "internalType": "uint256",
          "name": "articleAddress",
          "type": "uint256"
        }
      ],
      "name": "TimelockStarted",
      "type": "event"
    },
    {
      "anonymous": false,
      "inputs": [
        {
          "indexed": true,
          "internalType": "uint256",
          "name": "disputeId",
          "type": "uint256"
        },
        {
          "indexed": true,
          "internalType": "uint256",
          "name": "round",
          "type": "uint256"
        },
        {
          "indexed": false,
          "internalType": "enum ITruthPost.RulingOptions",
          "name": "ruling",
          "type": "uint8"
        },
        {
          "indexed": true,
          "internalType": "address",
          "name": "contributor",
          "type": "address"
        },
        {
          "indexed": false,
          "internalType": "uint256",
          "name": "reward",
          "type": "uint256"
        }
      ],
      "name": "Withdrawal",
      "type": "event"
    },
    {
      "inputs": [],
      "name": "ARBITRATOR",
      "outputs": [
        {
          "internalType": "contract IArbitrator",
          "name": "",
          "type": "address"
        }
      ],
      "stateMutability": "view",
      "type": "function"
    },
    {
      "inputs": [],
      "name": "ARTICLE_WITHDRAWAL_TIMELOCK",
      "outputs": [
        {
          "internalType": "uint256",
          "name": "",
          "type": "uint256"
        }
      ],
      "stateMutability": "view",
      "type": "function"
    },
    {
      "inputs": [],
      "name": "LOSER_APPEAL_PERIOD_MULTIPLIER",
      "outputs": [
        {
          "internalType": "uint256",
          "name": "",
          "type": "uint256"
        }
      ],
      "stateMutability": "view",
      "type": "function"
    },
    {
      "inputs": [],
      "name": "LOSER_STAKE_MULTIPLIER",
      "outputs": [
        {
          "internalType": "uint256",
          "name": "",
          "type": "uint256"
        }
      ],
      "stateMutability": "view",
      "type": "function"
    },
    {
      "inputs": [],
      "name": "MULTIPLIER_DENOMINATOR",
      "outputs": [
        {
          "internalType": "uint256",
          "name": "",
          "type": "uint256"
        }
      ],
      "stateMutability": "view",
      "type": "function"
    },
    {
      "inputs": [],
      "name": "NUMBER_OF_LEAST_SIGNIFICANT_BITS_TO_IGNORE",
      "outputs": [
        {
          "internalType": "uint256",
          "name": "",
          "type": "uint256"
        }
      ],
      "stateMutability": "view",
      "type": "function"
    },
    {
      "inputs": [],
      "name": "NUMBER_OF_RULING_OPTIONS",
      "outputs": [
        {
          "internalType": "uint256",
          "name": "",
          "type": "uint256"
        }
      ],
      "stateMutability": "view",
      "type": "function"
    },
    {
      "inputs": [],
      "name": "TREASURY",
      "outputs": [
        {
          "internalType": "address payable",
          "name": "",
          "type": "address"
        }
      ],
      "stateMutability": "view",
      "type": "function"
    },
    {
      "inputs": [],
      "name": "VERSION",
      "outputs": [
        {
          "internalType": "string",
          "name": "",
          "type": "string"
        }
      ],
      "stateMutability": "view",
      "type": "function"
    },
    {
      "inputs": [],
      "name": "WINNER_STAKE_MULTIPLIER",
      "outputs": [
        {
          "internalType": "uint256",
          "name": "",
          "type": "uint256"
        }
      ],
      "stateMutability": "view",
      "type": "function"
    },
    {
      "inputs": [],
      "name": "admin",
      "outputs": [
        {
          "internalType": "address payable",
          "name": "",
          "type": "address"
        }
      ],
      "stateMutability": "view",
      "type": "function"
    },
    {
      "inputs": [
        {
          "internalType": "uint256",
          "name": "_disputeID",
          "type": "uint256"
        }
      ],
      "name": "appealFee",
      "outputs": [
        {
          "internalType": "uint256",
          "name": "arbitrationFee",
          "type": "uint256"
        }
      ],
      "stateMutability": "view",
      "type": "function"
    },
    {
      "inputs": [
        {
          "internalType": "uint80",
          "name": "",
          "type": "uint80"
        }
      ],
      "name": "articleStorage",
      "outputs": [
        {
          "internalType": "address payable",
          "name": "owner",
          "type": "address"
        },
        {
          "internalType": "uint32",
          "name": "withdrawalPermittedAt",
          "type": "uint32"
        },
        {
          "internalType": "uint56",
          "name": "bountyAmount",
          "type": "uint56"
        },
        {
          "internalType": "uint8",
          "name": "category",
          "type": "uint8"
        }
      ],
      "stateMutability": "view",
      "type": "function"
    },
    {
      "inputs": [],
      "name": "categoryCounter",
      "outputs": [
        {
          "internalType": "uint8",
          "name": "",
          "type": "uint8"
        }
      ],
      "stateMutability": "view",
      "type": "function"
    },
    {
      "inputs": [
        {
          "internalType": "uint256",
          "name": "",
          "type": "uint256"
        }
      ],
      "name": "categoryToArbitratorExtraData",
      "outputs": [
        {
          "internalType": "bytes",
          "name": "",
          "type": "bytes"
        }
      ],
      "stateMutability": "view",
      "type": "function"
    },
    {
      "inputs": [
        {
          "internalType": "uint80",
          "name": "_articleStorageAddress",
          "type": "uint80"
        }
      ],
      "name": "challenge",
      "outputs": [],
      "stateMutability": "payable",
      "type": "function"
    },
    {
      "inputs": [
        {
          "internalType": "uint80",
          "name": "_articleStorageAddress",
          "type": "uint80"
        }
      ],
      "name": "challengeFee",
      "outputs": [
        {
          "internalType": "uint256",
          "name": "",
          "type": "uint256"
        }
      ],
      "stateMutability": "view",
      "type": "function"
    },
    {
      "inputs": [],
      "name": "challengeTaxRate",
      "outputs": [
        {
          "internalType": "uint256",
          "name": "",
          "type": "uint256"
        }
      ],
      "stateMutability": "view",
      "type": "function"
    },
    {
      "inputs": [
        {
          "internalType": "address payable",
          "name": "_newAdmin",
          "type": "address"
        }
      ],
      "name": "changeAdmin",
      "outputs": [],
      "stateMutability": "nonpayable",
      "type": "function"
    },
    {
      "inputs": [
        {
          "internalType": "address payable",
          "name": "_newTreasury",
          "type": "address"
        }
      ],
      "name": "changeTreasury",
      "outputs": [],
      "stateMutability": "nonpayable",
      "type": "function"
    },
    {
      "inputs": [
        {
          "internalType": "uint256",
          "name": "",
          "type": "uint256"
        }
      ],
      "name": "disputes",
      "outputs": [
        {
          "internalType": "address payable",
          "name": "challenger",
          "type": "address"
        },
        {
          "internalType": "enum ITruthPost.RulingOptions",
          "name": "outcome",
          "type": "uint8"
        },
        {
          "internalType": "uint8",
          "name": "articleCategory",
          "type": "uint8"
        },
        {
          "internalType": "bool",
          "name": "resolved",
          "type": "bool"
        },
        {
          "internalType": "uint80",
          "name": "articleStorageAddress",
          "type": "uint80"
        }
      ],
      "stateMutability": "view",
      "type": "function"
    },
    {
      "inputs": [
        {
          "internalType": "uint80",
          "name": "_searchPointer",
          "type": "uint80"
        }
      ],
      "name": "findVacantStorageSlot",
      "outputs": [
        {
          "internalType": "uint256",
          "name": "vacantSlotIndex",
          "type": "uint256"
        }
      ],
      "stateMutability": "view",
      "type": "function"
    },
    {
      "inputs": [
        {
          "internalType": "uint256",
          "name": "_disputeID",
          "type": "uint256"
        },
        {
          "internalType": "enum ITruthPost.RulingOptions",
          "name": "_supportedRuling",
          "type": "uint8"
        }
      ],
      "name": "fundAppeal",
      "outputs": [
        {
          "internalType": "bool",
          "name": "fullyFunded",
          "type": "bool"
        }
      ],
      "stateMutability": "payable",
      "type": "function"
    },
    {
      "inputs": [
        {
          "internalType": "uint256",
          "name": "_disputeID",
          "type": "uint256"
        },
        {
          "internalType": "enum ITruthPost.RulingOptions",
          "name": "_ruling",
          "type": "uint8"
        }
      ],
      "name": "getAmountRemainsToBeRaised",
      "outputs": [
        {
          "internalType": "uint256",
          "name": "",
          "type": "uint256"
        }
      ],
      "stateMutability": "view",
      "type": "function"
    },
    {
      "inputs": [
        {
          "internalType": "uint256",
          "name": "_disputeID",
          "type": "uint256"
        },
        {
          "internalType": "enum ITruthPost.RulingOptions",
          "name": "_ruling",
          "type": "uint8"
        }
      ],
      "name": "getAppealPeriod",
      "outputs": [
        {
          "internalType": "uint256",
          "name": "",
          "type": "uint256"
        },
        {
          "internalType": "uint256",
          "name": "",
          "type": "uint256"
        }
      ],
      "stateMutability": "view",
      "type": "function"
    },
    {
      "inputs": [
        {
          "internalType": "uint256",
          "name": "_disputeID",
          "type": "uint256"
        }
      ],
      "name": "getLastRoundWinner",
      "outputs": [
        {
          "internalType": "uint256",
          "name": "",
          "type": "uint256"
        }
      ],
      "stateMutability": "view",
      "type": "function"
    },
    {
      "inputs": [
        {
          "internalType": "enum ITruthPost.RulingOptions",
          "name": "_ruling",
          "type": "uint8"
        },
        {
          "internalType": "enum ITruthPost.RulingOptions",
          "name": "_lastRoundWinner",
          "type": "uint8"
        }
      ],
      "name": "getReturnOfInvestmentRatio",
      "outputs": [
        {
          "internalType": "uint256",
          "name": "",
          "type": "uint256"
        }
      ],
      "stateMutability": "view",
      "type": "function"
    },
    {
      "inputs": [
        {
          "internalType": "uint256",
          "name": "_disputeID",
          "type": "uint256"
        },
        {
          "internalType": "uint256",
          "name": "_round",
          "type": "uint256"
        }
      ],
      "name": "getRoundInfo",
      "outputs": [
        {
          "internalType": "bool[3]",
          "name": "hasPaid",
          "type": "bool[3]"
        },
        {
          "internalType": "uint256[3]",
          "name": "totalPerRuling",
          "type": "uint256[3]"
        },
        {
          "internalType": "uint256",
          "name": "totalClaimableAfterExpenses",
          "type": "uint256"
        }
      ],
      "stateMutability": "view",
      "type": "function"
    },
    {
      "inputs": [
        {
          "internalType": "uint256",
          "name": "_disputeID",
          "type": "uint256"
        },
        {
          "internalType": "address payable",
          "name": "_contributor",
          "type": "address"
        }
      ],
      "name": "getTotalWithdrawableAmount",
      "outputs": [
        {
          "internalType": "uint256",
          "name": "sum",
          "type": "uint256"
        },
        {
          "internalType": "uint256[][]",
          "name": "amounts",
          "type": "uint256[][]"
        }
      ],
      "stateMutability": "view",
      "type": "function"
    },
    {
      "inputs": [
        {
          "internalType": "uint80",
          "name": "_articleStorageAddress",
          "type": "uint80"
        }
      ],
      "name": "increaseBounty",
      "outputs": [],
      "stateMutability": "payable",
      "type": "function"
    },
    {
      "inputs": [
        {
          "internalType": "string",
          "name": "_articleID",
          "type": "string"
        },
        {
          "internalType": "uint8",
          "name": "_category",
          "type": "uint8"
        },
        {
          "internalType": "uint80",
          "name": "_searchPointer",
          "type": "uint80"
        }
      ],
      "name": "initializeArticle",
      "outputs": [],
      "stateMutability": "payable",
      "type": "function"
    },
    {
      "inputs": [
        {
          "internalType": "uint80",
          "name": "_articleStorageAddress",
          "type": "uint80"
        }
      ],
      "name": "initiateWithdrawal",
      "outputs": [],
      "stateMutability": "nonpayable",
      "type": "function"
    },
    {
      "inputs": [
        {
          "internalType": "string",
          "name": "_metaevidenceIpfsUri",
          "type": "string"
        },
        {
          "internalType": "bytes",
          "name": "_arbitratorExtraData",
          "type": "bytes"
        }
      ],
      "name": "newCategory",
      "outputs": [],
      "stateMutability": "nonpayable",
      "type": "function"
    },
    {
      "inputs": [
        {
          "internalType": "uint256",
          "name": "_disputeID",
          "type": "uint256"
        },
        {
          "internalType": "uint256",
          "name": "_ruling",
          "type": "uint256"
        }
      ],
      "name": "rule",
      "outputs": [],
      "stateMutability": "nonpayable",
      "type": "function"
    },
    {
      "inputs": [
        {
          "internalType": "uint256",
          "name": "_disputeID",
          "type": "uint256"
        },
        {
          "internalType": "string",
          "name": "_evidenceURI",
          "type": "string"
        }
      ],
      "name": "submitEvidence",
      "outputs": [],
      "stateMutability": "nonpayable",
      "type": "function"
    },
    {
      "inputs": [],
      "name": "switchPublishingLock",
      "outputs": [],
      "stateMutability": "nonpayable",
      "type": "function"
    },
    {
      "inputs": [],
      "name": "transferBalanceToTreasury",
      "outputs": [],
      "stateMutability": "nonpayable",
      "type": "function"
    },
    {
      "inputs": [
        {
          "internalType": "uint80",
          "name": "_articleStorageAddress",
          "type": "uint80"
        },
        {
          "internalType": "address payable",
          "name": "_newOwner",
          "type": "address"
        }
      ],
      "name": "transferOwnership",
      "outputs": [],
      "stateMutability": "nonpayable",
      "type": "function"
    },
    {
      "inputs": [],
      "name": "treasuryBalance",
      "outputs": [
        {
          "internalType": "uint256",
          "name": "",
          "type": "uint256"
        }
      ],
      "stateMutability": "view",
      "type": "function"
    },
    {
      "inputs": [
        {
          "internalType": "uint256",
          "name": "_newChallengeTaxRate",
          "type": "uint256"
        }
      ],
      "name": "updateChallengeTaxRate",
      "outputs": [],
      "stateMutability": "nonpayable",
      "type": "function"
    },
    {
      "inputs": [
        {
          "internalType": "uint80",
          "name": "_articleStorageAddress",
          "type": "uint80"
        }
      ],
      "name": "withdraw",
      "outputs": [],
      "stateMutability": "nonpayable",
      "type": "function"
    },
    {
      "inputs": [
        {
          "internalType": "uint256",
          "name": "_disputeID",
          "type": "uint256"
        },
        {
          "internalType": "address payable",
          "name": "_contributor",
          "type": "address"
        },
        {
          "internalType": "uint256",
          "name": "_roundNumber",
          "type": "uint256"
        },
        {
          "internalType": "enum ITruthPost.RulingOptions",
          "name": "_ruling",
          "type": "uint8"
        }
      ],
      "name": "withdrawFeesAndRewards",
      "outputs": [
        {
          "internalType": "uint256",
          "name": "amount",
          "type": "uint256"
        }
      ],
      "stateMutability": "nonpayable",
      "type": "function"
    },
    {
      "inputs": [
        {
          "internalType": "uint256",
          "name": "_disputeID",
          "type": "uint256"
        },
        {
          "internalType": "address payable",
          "name": "_contributor",
          "type": "address"
        },
        {
          "internalType": "enum ITruthPost.RulingOptions",
          "name": "_ruling",
          "type": "uint8"
        }
      ],
      "name": "withdrawFeesAndRewardsForAllRounds",
      "outputs": [],
      "stateMutability": "nonpayable",
      "type": "function"
    },
    {
      "inputs": [
        {
          "internalType": "uint256",
          "name": "_disputeID",
          "type": "uint256"
        },
        {
          "internalType": "address payable",
          "name": "_contributor",
          "type": "address"
        }
      ],
      "name": "withdrawFeesAndRewardsForAllRoundsAndAllRulings",
      "outputs": [],
      "stateMutability": "nonpayable",
      "type": "function"
    },
    {
      "inputs": [
        {
          "internalType": "uint256",
          "name": "_disputeID",
          "type": "uint256"
        },
        {
          "internalType": "address payable",
          "name": "_contributor",
          "type": "address"
        },
        {
          "internalType": "uint256[][]",
          "name": "positions",
          "type": "uint256[][]"
        }
      ],
      "name": "withdrawFeesAndRewardsForGivenPositions",
      "outputs": [],
      "stateMutability": "nonpayable",
      "type": "function"
    }
  ],
  "transactionHash": "0xbe4641c17b74f8ae687b1bf4011e9acdf31f5d927e71e4c6f45a62a9106c3ed9",
  "args": [
    "0x1128eD55ab2d796fa92D2F8E1f336d745354a77A",
    "0x00000000000000000000000000000000000000000000000000000000000000000000000000000000000000000000000000000000000000000000000000000001",
    "/ipfs/QmduoptKqeKNjWDJ3ij4RT6nKT6iAYU7ymKoJk94MSirQt/metaEvidence.json",
    300,
    128,
    256,
    "0x387e8B40e332831b7a8ad629966df3E9f969C6ad"
  ],
  "solcInputHash": "08c7a6558edff59e4bd216cfb0e420aa",
  "bytecode": "0x61010060408190526000805460ff19166001179055601060025560038054339092026001600160a81b03199092169190911790553480156200004057600080fd5b50604051620043fd380380620043fd833981016040819052620000639162000388565b608084905260a083905260c0829052600080546001600160a01b0380841661010002610100600160a81b031990921691909117909155871660e052620000aa8587620000b7565b5050505050505062000538565b600354620000ca9060ff16600162000465565b60ff166200011e5760405162461bcd60e51b815260206004820181905260248201527f4e6f207370616365206c65667420666f722061206e65772063617465676f7279604482015260640160405180910390fd5b60035460405160ff909116907f61606860eb6c87306811e2695215385101daab53bd6ab4e9f9049aead9363c7d90620001599085906200048d565b60405180910390a2600354819060049060ff16604081106200017f576200017f620004c2565b01908051906020019062000195929190620001c8565b506003805460ff16906000620001ab83620004d8565b91906101000a81548160ff021916908360ff160217905550505050565b828054620001d690620004fb565b90600052602060002090601f016020900481019282620001fa576000855562000245565b82601f106200021557805160ff191683800117855562000245565b8280016001018555821562000245579182015b828111156200024557825182559160200191906001019062000228565b506200025392915062000257565b5090565b5b8082111562000253576000815560010162000258565b6001600160a01b03811681146200028457600080fd5b50565b634e487b7160e01b600052604160045260246000fd5b60005b83811015620002ba578181015183820152602001620002a0565b83811115620002ca576000848401525b50505050565b60006001600160401b0380841115620002ed57620002ed62000287565b604051601f8501601f19908116603f0116810190828211818310171562000318576200031862000287565b816040528093508581528686860111156200033257600080fd5b620003428660208301876200029d565b5050509392505050565b600082601f8301126200035e57600080fd5b6200036f83835160208501620002d0565b9392505050565b805162000383816200026e565b919050565b600080600080600080600060e0888a031215620003a457600080fd5b8751620003b1816200026e565b60208901519097506001600160401b0380821115620003cf57600080fd5b818a0191508a601f830112620003e457600080fd5b620003f58b835160208501620002d0565b975060408a01519150808211156200040c57600080fd5b506200041b8a828b016200034c565b955050606088015193506080880151925060a088015191506200044160c0890162000376565b905092959891949750929550565b634e487b7160e01b600052601160045260246000fd5b600060ff821660ff84168060ff038211156200048557620004856200044f565b019392505050565b6020815260008251806020840152620004ae8160408501602087016200029d565b601f01601f19169190910160400192915050565b634e487b7160e01b600052603260045260246000fd5b600060ff821660ff811415620004f257620004f26200044f565b60010192915050565b600181811c908216806200051057607f821691505b602082108114156200053257634e487b7160e01b600052602260045260246000fd5b50919050565b60805160a05160c05160e051613df16200060c600039600081816105cf01528181610ae501528181610b7301528181610d94015281816111d10152818161136f0152818161171b01528181611b4901528181611c8e01528181612041015281816121d701528181612286015281816126db01526127d501526000818161080901528181610d700152818161265f01528181612cde0152612d3b01526000818161093901528181610ca70152818161268501528181612d040152612d5c0152600081816108d001526125440152613df16000f3fe6080604052600436106102f25760003560e01c80638a9bb02a1161018f578063ba0ec60b116100e1578063dc227fc21161008a578063fc0ac67211610064578063fc0ac67214610980578063fe6ca78214610996578063ffa1ad74146109ac57600080fd5b8063dc227fc214610907578063e349ad3014610927578063f851a4401461095b57600080fd5b8063c9330c0f116100bb578063c9330c0f1461089e578063d3b476b1146108be578063d970d18c146108f257600080fd5b8063ba0ec60b14610860578063bc0936fd14610875578063be4676041461088857600080fd5b8063ab9cd37e11610143578063b34bfaa81161011d578063b34bfaa8146107f7578063b4c705811461082b578063b7bddc721461084b57600080fd5b8063ab9cd37e14610789578063af4a9144146107a9578063b14f2a39146107d757600080fd5b8063956dcbd211610174578063956dcbd214610729578063a509efeb14610749578063a6a7f0eb1461076957600080fd5b80638a9bb02a146106da5780638f2839701461070957600080fd5b80634de12db0116102485780636760aeb0116101fc5780637597b3cb116101d65780637597b3cb1461060457806378431ce9146106195780637f67bd6c146106ba57600080fd5b80636760aeb01461059d57806368871c9c146105bd578063736ed418146105f157600080fd5b8063638af3da1161022d578063638af3da1461052857806364ff9dfa1461055d57806367284f211461057d57600080fd5b80634de12db014610481578063564a565d146104ae57600080fd5b806326804bef116102aa578063311a6c5611610284578063311a6c561461042b578063313dab201461044b5780634c55c0001461046157600080fd5b806326804bef146103bb57806329238089146103db5780632d2c5565146103ee57600080fd5b806312b3a2c0116102db57806312b3a2c01461034a57806315f36ebe1461036d5780631e26de341461039b57600080fd5b806303624fc0146102f757806306bcbd7314610328575b600080fd5b34801561030357600080fd5b506003546103119060ff1681565b60405160ff90911681526020015b60405180910390f35b34801561033457600080fd5b50610348610343366004613420565b6109f5565b005b61035d610358366004613462565b610abf565b604051901515815260200161031f565b34801561037957600080fd5b5061038d610388366004613485565b6112f6565b60405190815260200161031f565b3480156103a757600080fd5b5061038d6103b63660046134a0565b61135a565b3480156103c757600080fd5b506103486103d63660046134a0565b611423565b6103486103e93660046134fb565b6114bc565b3480156103fa57600080fd5b506000546104139061010090046001600160a01b031681565b6040516001600160a01b03909116815260200161031f565b34801561043757600080fd5b50610348610446366004613567565b611710565b34801561045757600080fd5b5061038d60015481565b34801561046d57600080fd5b5061034861047c366004613615565b6119a0565b34801561048d57600080fd5b506104a161049c3660046134a0565b611aa1565b60405161031f91906136f1565b3480156104ba57600080fd5b506105176104c93660046134a0565b604560205260009081526040902080546001909101546001600160a01b0382169160ff600160a01b8204811692600160a81b8304821692600160b01b9004909116906001600160501b031685565b60405161031f95949392919061373c565b34801561053457600080fd5b50610548610543366004613462565b611b41565b6040805192835260208301919091520161031f565b34801561056957600080fd5b5061038d610578366004613485565b611c6d565b34801561058957600080fd5b50610348610598366004613781565b611d86565b3480156105a957600080fd5b506103486105b836600461380b565b611e4a565b3480156105c957600080fd5b506104137f000000000000000000000000000000000000000000000000000000000000000081565b6103486105ff366004613485565b611e8f565b34801561061057600080fd5b5061038d600281565b34801561062557600080fd5b5061067a610634366004613485565b6044602052600090815260409020546001600160a01b03811690600160a01b810463ffffffff1690600160c01b810466ffffffffffffff1690600160f81b900460ff1684565b604080516001600160a01b03909516855263ffffffff909316602085015266ffffffffffffff9091169183019190915260ff16606082015260800161031f565b3480156106c657600080fd5b5061038d6106d53660046134a0565b61226d565b3480156106e657600080fd5b506106fa6106f5366004613567565b6122ff565b60405161031f93929190613847565b34801561071557600080fd5b506103486107243660046138ac565b6123ef565b34801561073557600080fd5b50610348610744366004613485565b612440565b34801561075557600080fd5b5061038d610764366004613462565b6125ca565b34801561077557600080fd5b506103486107843660046138c7565b6127c8565b34801561079557600080fd5b506103486107a4366004613485565b61283b565b3480156107b557600080fd5b506107c96107c4366004613913565b612a6d565b60405161031f929190613936565b3480156107e357600080fd5b506103486107f23660046138ac565b612c57565b34801561080357600080fd5b5061038d7f000000000000000000000000000000000000000000000000000000000000000081565b34801561083757600080fd5b5061038d6108463660046139c8565b612ca8565b34801561085757600080fd5b50610348612da8565b34801561086c57600080fd5b50610348612de2565b610348610883366004613485565b612e12565b34801561089457600080fd5b5061038d61020081565b3480156108aa57600080fd5b506103486108b9366004613913565b612f4c565b3480156108ca57600080fd5b5061038d7f000000000000000000000000000000000000000000000000000000000000000081565b3480156108fe57600080fd5b5061038d602081565b34801561091357600080fd5b5061038d6109223660046139f2565b612fb3565b34801561093357600080fd5b5061038d7f000000000000000000000000000000000000000000000000000000000000000081565b34801561096757600080fd5b506003546104139061010090046001600160a01b031681565b34801561098c57600080fd5b5061038d60025481565b3480156109a257600080fd5b5061038d61040081565b3480156109b857600080fd5b506104a16040518060400160405280600581526020017f312e322e3000000000000000000000000000000000000000000000000000000081525081565b6001600160501b038216600090815260446020526040902080546001600160a01b03163314610a915760405162461bcd60e51b815260206004820152602360248201527f4f6e6c7920617574686f722063616e207472616e73666572206f776e6572736860448201527f69702e000000000000000000000000000000000000000000000000000000000060648201526084015b60405180910390fd5b805473ffffffffffffffffffffffffffffffffffffffff19166001600160a01b039290921691909117905550565b6000828152604560205260408082209051631c3db16d60e01b81526004810185905282907f00000000000000000000000000000000000000000000000000000000000000006001600160a01b031690631c3db16d90602401602060405180830381865afa158015610b34573d6000803e3d6000fd5b505050506040513d601f19601f82011682018060405250810190610b589190613a2d565b6002811115610b6957610b69613704565b90506000806000807f00000000000000000000000000000000000000000000000000000000000000006001600160a01b031663afe15cfb8a6040518263ffffffff1660e01b8152600401610bbf91815260200190565b6040805180830381865afa158015610bdb573d6000803e3d6000fd5b505050506040513d601f19601f82011682018060405250810190610bff9190613a46565b915091506000856002811115610c1757610c17613704565b896002811115610c2957610c29613704565b1415610ccb57814210610ca45760405162461bcd60e51b815260206004820152602e60248201527f46756e64696e67206d757374206265206d6164652077697468696e207468652060448201527f61707065616c20706572696f642e0000000000000000000000000000000000006064820152608401610a88565b507f0000000000000000000000000000000000000000000000000000000000000000610d90565b610400610200610cdb8585613a80565b610ce59190613a97565b610cef9190613ab6565b610cf99084613ad8565b4210610d6d5760405162461bcd60e51b815260206004820152603960248201527f46756e64696e67206d757374206265206d6164652077697468696e207468652060448201527f66697273742068616c662061707065616c20706572696f642e000000000000006064820152608401610a88565b507f00000000000000000000000000000000000000000000000000000000000000005b86547f00000000000000000000000000000000000000000000000000000000000000006001600160a01b03169063f23f16e6908c90600490600160a81b900460ff1660408110610de257610de2613af0565b016040518363ffffffff1660e01b8152600401610e00929190613be1565b602060405180830381865afa158015610e1d573d6000803e3d6000fd5b505050506040513d601f19601f82011682018060405250810190610e419190613a2d565b9450610400610e508287613a97565b610e5a9190613ab6565b610e649086613ad8565b600288015490945089935060009250610e809150600190613a80565b90506000866002018281548110610e9957610e99613af0565b9060005260206000209060060201905080600101836002811115610ebf57610ebf613704565b60038110610ecf57610ecf613af0565b602081049091015460ff601f9092166101000a90041615610f585760405162461bcd60e51b815260206004820152602160248201527f41707065616c206665652068617320616c7265616479206265656e207061696460448201527f2e000000000000000000000000000000000000000000000000000000000000006064820152608401610a88565b60008082600201856002811115610f7157610f71613704565b60038110610f8157610f81613af0565b01549050858110610f955760009150610fb9565b34610fa08288613a80565b11610fb457610faf8187613a80565b610fb6565b345b91505b50336001600160a01b0316838c7f2b4ef80a862edc5616a4e61c11f4a368f33323faca91fa7635d48b85c183e66a8d85604051610ff7929190613c02565b60405180910390a4336000908152602083905260409020819085600281111561102257611022613704565b6003811061103257611032613af0565b0160008282546110429190613ad8565b92505081905550808260020185600281111561106057611060613704565b6003811061107057611070613af0565b0160008282546110809190613ad8565b92505081905550848260020185600281111561109e5761109e613704565b600381106110ae576110ae613af0565b01541061117c57816002018460028111156110cb576110cb613704565b600381106110db576110db613af0565b01548260050160008282546110f09190613ad8565b909155506001905082810185600281111561110d5761110d613704565b6003811061111d5761111d613af0565b602091828204019190066101000a81548160ff02191690831515021790555089600281111561114e5761114e613704565b60405184908d907fb5681f036910f38d8c2fa06f2cbedc227ecf03d7c4a358ee9096197b15ff8fd090600090a45b6001820154610100900460ff16801561119f5750600182015462010000900460ff165b1561127257600288018054600101815560009081526005830180548892906111c8908490613a80565b909155505087547f00000000000000000000000000000000000000000000000000000000000000006001600160a01b0316906349912f889088908e90600490600160a81b900460ff166040811061122157611221613af0565b016040518463ffffffff1660e01b815260040161123f929190613be1565b6000604051808303818588803b15801561125857600080fd5b505af115801561126c573d6000803e3d6000fd5b50505050505b600061127e8234613a80565b11156112aa57336108fc6112928334613a80565b6040518115909202916000818181858888f150505050505b816001018460028111156112c0576112c0613704565b600381106112d0576112d0613af0565b602081049091015460ff601f9092166101000a9004169850505050505050505092915050565b6000805b604460008461130881613c1d565b6001600160501b03919091168252602082019290925260400160002080549194509150600160c01b900466ffffffffffffff166112fa5761134a600184613c44565b6001600160501b03169392505050565b600081815260456020526040808220805490917f00000000000000000000000000000000000000000000000000000000000000006001600160a01b03169163f23f16e6918691600491600160a81b90910460ff169081106113bd576113bd613af0565b016040518363ffffffff1660e01b81526004016113db929190613be1565b602060405180830381865afa1580156113f8573d6000803e3d6000fd5b505050506040513d601f19601f8201168201806040525081019061141c9190613a2d565b9392505050565b60035461010090046001600160a01b0316331461143f57600080fd5b6101008111156114b75760405162461bcd60e51b815260206004820152603660248201527f5468652074617820726174652063616e206f6e6c7920626520696e637265617360448201527f65642062792061206d6178696d756d206f6620323525000000000000000000006064820152608401610a88565b600255565b60035460ff908116908316106115145760405162461bcd60e51b815260206004820152601c60248201527f546869732063617465676f727920646f6573206e6f74206578697374000000006044820152606401610a88565b60005b604460008361152581613c1d565b6001600160501b03919091168252602082019290925260400160002080549193509150600160c01b900466ffffffffffffff166115175780547fff00000000000000ffffffff000000000000000000000000000000000000000016337fff00000000000000ffffffffffffffffffffffffffffffffffffffffffffffff1617600160c01b3460201c66ffffffffffffff9081168202929092177effffffffffffffffffffffffffffffffffffffffffffffffffffffffffffff16600160f81b60ff8716021780845504166116615760405162461bcd60e51b815260206004820152603960248201527f596f752063616e277420696e697469616c697a6520616e2061727469636c652060448201527f776974686f75742070757474696e67206120626f756e74792e000000000000006064820152608401610a88565b600061166e600184613c44565b6001600160501b031690507f4f9a2b734331c583faf3f19d1feb5f08b742e016a56fb61379950beaf3e22341868686846040516116ae9493929190613c95565b60405180910390a1815460408051838152600160c01b909204602090811b6affffffffffffff0000000016908301527fdf5fc410d3381cc7f0a7fe3af72f4e3cf53ef5787f20554af69035a950e1b2e3910160405180910390a1505050505050565b336001600160a01b037f0000000000000000000000000000000000000000000000000000000000000000161461174557600080fd5b600082815260456020526040812060028101805491929161176890600190613a80565b8154811061177857611778613af0565b60009182526020822060016006929092020190810154909250610100900460ff16156117a6575060016117bc565b6001820154610100900460ff16156117bc575060025b6000808260028111156117d1576117d1613704565b14156117ee578460028111156117e9576117e9613704565b6117f0565b815b8454909150819085907fffffffffffffffffffffff00ffffffffffffffffffffffffffffffffffffffff16600160a01b83600281111561183257611832613704565b021790555060018401546001600160501b03166000818152604460205260409020600283600281111561186757611867613704565b141561191e5780547fff00000000000000ffffffffffffffffffffffffffffffffffffffffffffffff811682556040516001600160501b0384168152600160c01b909104602090811b6affffffffffffff0000000016917f8271992f9b3a3f30dc2a464982dc4a136e7357403462443a171a0fb0c6ccc265910160405180910390a16000898152604560205260408082205490516001600160a01b039091169183156108fc02918491818181858888f15050505050505b805463ffffffff60a01b1916815585547fffffffffffffffffff00ffffffffffffffffffffffffffffffffffffffffffff16600160b01b178655604051889033907f394027a5fa6e098a1191094d1719d6929b9abc535fcc0c8f448d6a4e756222769061198e908b815260200190565b60405180910390a35050505050505050565b6003546119b19060ff166001613cbf565b60ff16611a005760405162461bcd60e51b815260206004820181905260248201527f4e6f207370616365206c65667420666f722061206e65772063617465676f72796044820152606401610a88565b60035460405160ff909116907f61606860eb6c87306811e2695215385101daab53bd6ab4e9f9049aead9363c7d90611a399085906136f1565b60405180910390a2600354819060049060ff1660408110611a5c57611a5c613af0565b019080519060200190611a70929190613336565b506003805460ff16906000611a8483613ce4565b91906101000a81548160ff021916908360ff160217905550505050565b60048160408110611ab157600080fd5b018054909150611ac090613b06565b80601f0160208091040260200160405190810160405280929190818152602001828054611aec90613b06565b8015611b395780601f10611b0e57610100808354040283529160200191611b39565b820191906000526020600020905b815481529060010190602001808311611b1c57829003601f168201915b505050505081565b6000806000807f00000000000000000000000000000000000000000000000000000000000000006001600160a01b031663afe15cfb876040518263ffffffff1660e01b8152600401611b9591815260200190565b6040805180830381865afa158015611bb1573d6000803e3d6000fd5b505050506040513d601f19601f82011682018060405250810190611bd59190613a46565b90925090506000610400610200611bec8585613a80565b611bf69190613a97565b611c009190613ab6565b611c0a9084613ad8565b90506000866002811115611c2057611c20613704565b611c298961226d565b6002811115611c3a57611c3a613704565b6002811115611c4b57611c4b613704565b14905080611c5a578382611c5d565b83835b95509550505050505b9250929050565b6001600160501b0381166000908152604460205260408082208054909183917f00000000000000000000000000000000000000000000000000000000000000006001600160a01b03169163f7434ea991600491600160f81b90910460ff16908110611cda57611cda613af0565b016040518263ffffffff1660e01b8152600401611cf79190613d04565b602060405180830381865afa158015611d14573d6000803e3d6000fd5b505050506040513d601f19601f82011682018060405250810190611d389190613a2d565b600254835491925060009161040091611d6791600160c01b900460201b6affffffffffffff0000000016613a97565b611d719190613ab6565b9050611d7d8183613ad8565b95945050505050565b60005b81811015611e435760005b838383818110611da657611da6613af0565b9050602002810190611db89190613d17565b9050811015611e30576000848484818110611dd557611dd5613af0565b9050602002810190611de79190613d17565b83818110611df757611df7613af0565b905060200201351115611e1e57611e1c86868484600281111561092257610922613704565b505b80611e2881613d61565b915050611d94565b5080611e3b81613d61565b915050611d89565b5050505050565b6000838152604560205260408120600281015490915b81811015611e8757611e7486868387612fb3565b5080611e7f81613d61565b915050611e60565b505050505050565b6001600160501b03811660009081526044602052604090208054600160c01b900466ffffffffffffff16611f055760405162461bcd60e51b815260206004820152601560248201527f4e6f7468696e6720746f206368616c6c656e67652e00000000000000000000006044820152606401610a88565b8054600160a01b900463ffffffff9081161415611f645760405162461bcd60e51b815260206004820152601e60248201527f546865726520697320616e206f6e676f696e67206368616c6c656e67652e00006044820152606401610a88565b805463ffffffff60a01b191677ffffffff0000000000000000000000000000000000000000178155611f9582611c6d565b341015611fe45760405162461bcd60e51b815260206004820181905260248201527f496e73756666696369656e742066756e647320746f206368616c6c656e67652e6044820152606401610a88565b6002548154600091610400916120119190600160c01b900460201b6affffffffffffff0000000016613a97565b61201b9190613ab6565b9050806001600082825461202f9190613ad8565b90915550600090506001600160a01b037f00000000000000000000000000000000000000000000000000000000000000001663c13517e16120708434613a80565b8554600290600490600160f81b900460ff166040811061209257612092613af0565b016040518463ffffffff1660e01b81526004016120b0929190613be1565b60206040518083038185885af11580156120ce573d6000803e3d6000fd5b50505050506040513d601f19601f820116820180604052508101906120f39190613a2d565b60008181526045602090815260409182902080543373ffffffffffffffffffffffffffffffffffffffff1982168117835560028301805460019081019091558301805469ffffffffffffffffffff19166001600160501b038c1617905588547fffffffffffffffffffff00ff00000000000000000000000000000000000000009092167fffffffffffffffffffff00ffffffffffffffffffffffffffffffffffffffffff90911617600160f81b9182900460ff908116600160a81b029190911790925587548451919004909116815290810183905291925082916001600160a01b037f000000000000000000000000000000000000000000000000000000000000000016917f74baab670a4015ab2f1b467c5252a96141a2573f2908e58a92081e80d3cfde3d910160405180910390a360408051338152602081018390526001600160501b038616917f1e5338a1fb672aa84963dc9f9e4afd009b4ed726debb09224bf4d02a6c68b4e4910160405180910390a250505050565b604051631c3db16d60e01b8152600481018290526000907f00000000000000000000000000000000000000000000000000000000000000006001600160a01b031690631c3db16d90602401602060405180830381865afa1580156122d5573d6000803e3d6000fd5b505050506040513d601f19601f820116820180604052508101906122f99190613a2d565b92915050565b6123076133ba565b61230f6133ba565b600084815260456020526040812060020180548291908690811061233557612335613af0565b9060005260206000209060060201905080600101816002018260050154826003806020026040519081016040528092919082600380156123aa576020028201916000905b825461010083900a900460ff1615158152602060019283018181049485019490930390920291018084116123795790505b505060408051606081019182905294975086935060039250905082845b8154815260200190600101908083116123c75750505050509150935093509350509250925092565b60035461010090046001600160a01b0316331461240b57600080fd5b600380546001600160a01b039092166101000274ffffffffffffffffffffffffffffffffffffffff0019909216919091179055565b6001600160501b038116600090815260446020526040902080546001600160a01b031633146124bd5760405162461bcd60e51b8152602060048201526024808201527f4f6e6c7920617574686f722063616e20776974686472617720616e206172746960448201526331b6329760e11b6064820152608401610a88565b8054600160a01b900463ffffffff161561253f5760405162461bcd60e51b815260206004820152603560248201527f5769746864726177616c20616c726561647920696e69746961746564206f722060448201527f74686572652069732061206368616c6c656e67652e00000000000000000000006064820152608401610a88565b6125697f000000000000000000000000000000000000000000000000000000000000000042613ad8565b815463ffffffff91909116600160a01b0263ffffffff60a01b199091161781556040516001600160501b03831681527f416c1ad2b96c356f3bbd35431f86cce449ddbb4f8c3755ea9d2776b04c2e9c8f906020015b60405180910390a15050565b6000828152604560205260408120600281015482906125eb90600190613a80565b9050600082600201828154811061260457612604613af0565b90600052602060002090600602019050600085600281111561262857612628613704565b6126318861226d565b600281111561264257612642613704565b600281111561265357612653613704565b149050600081612683577f00000000000000000000000000000000000000000000000000000000000000006126a5565b7f00000000000000000000000000000000000000000000000000000000000000005b90506000836002018860028111156126bf576126bf613704565b600381106126cf576126cf613af0565b015486549091506000907f00000000000000000000000000000000000000000000000000000000000000006001600160a01b03169063f23f16e6908c90600490600160a81b900460ff166040811061272957612729613af0565b016040518363ffffffff1660e01b8152600401612747929190613be1565b602060405180830381865afa158015612764573d6000803e3d6000fd5b505050506040513d601f19601f820116820180604052508101906127889190613a2d565b905060006104006127998584613a97565b6127a39190613ab6565b6127ad9083613ad8565b90506127b98382613a80565b9b9a5050505050505050505050565b336001600160a01b0316837f00000000000000000000000000000000000000000000000000000000000000006001600160a01b03167fdccf2f8b2cc26eafcd61905cba744cff4b81d14740725f6376390dc6298a6a3c858560405161282e929190613d7c565b60405180910390a4505050565b6001600160501b038116600090815260446020526040902080546001600160a01b031633146128b85760405162461bcd60e51b8152602060048201526024808201527f4f6e6c7920617574686f722063616e20776974686472617720616e206172746960448201526331b6329760e11b6064820152608401610a88565b8054600160a01b900463ffffffff166129395760405162461bcd60e51b815260206004820152602660248201527f596f75206e65656420746f20696e697469617465207769746864726177616c2060448201527f66697273742e00000000000000000000000000000000000000000000000000006064820152608401610a88565b805442600160a01b90910463ffffffff1611156129be5760405162461bcd60e51b815260206004820152603f60248201527f596f75206e65656420746f207761697420666f722074696d656c6f636b206f7260448201527f207761697420756e74696c20746865206368616c6c656e676520656e64732e006064820152608401610a88565b80547fff0000000000000000000000ffffffffffffffffffffffffffffffffffffffff81168255604051600160c01b90910460201b6affffffffffffff00000000169033906108fc8315029083906000818181858888f19350505050158015612a2b573d6000803e3d6000fd5b506040516001600160501b03841681527f70b41d8cca762ceec66d93f536dbb31f5cabbf1901f862508b9438de54fce4eb9060200160405180910390a1505050565b6000828152604560205260408120805460609190600160b01b900460ff16612a99576000925050611c66565b60028101548154600160a01b900460ff168167ffffffffffffffff811115612ac357612ac3613589565b604051908082528060200260200182016040528015612af657816020015b6060815260200190600190039081612ae15790505b50935060005b82811015612c4c57612b1060026001613ad8565b67ffffffffffffffff811115612b2857612b28613589565b604051908082528060200260200182016040528015612b51578160200160208202803683370190505b50858281518110612b6457612b64613af0565b60200260200101819052506000846002018281548110612b8657612b86613af0565b9060005260206000209060060201905060005b60028111612c37576000612bc0838b846002811115612bba57612bba613704565b88613117565b90508015612c2457612bdf838b846002811115612bba57612bba613704565b612be9908a613ad8565b985080888581518110612bfe57612bfe613af0565b60200260200101518381518110612c1757612c17613af0565b6020026020010181815250505b5080612c2f81613d61565b915050612b99565b50508080612c4490613d61565b915050612afc565b505050509250929050565b60035461010090046001600160a01b03163314612c7357600080fd5b600080546001600160a01b039092166101000274ffffffffffffffffffffffffffffffffffffffff0019909216919091179055565b600080836002811115612cbd57612cbd613704565b836002811115612ccf57612ccf613704565b1490506103e8600082612d02577f0000000000000000000000000000000000000000000000000000000000000000612d24565b7f00000000000000000000000000000000000000000000000000000000000000005b9050612d3261040082613ad8565b82610400612d807f00000000000000000000000000000000000000000000000000000000000000007f0000000000000000000000000000000000000000000000000000000000000000613ad8565b612d8a9190613ad8565b612d949190613a97565b612d9e9190613ab6565b9695505050505050565b60018054600091829055815460405191926101009091046001600160a01b0316916108fc84150291849190818181858888f1505050505050565b60035461010090046001600160a01b03163314612dfe57600080fd5b6000805460ff19811660ff90911615179055565b6001600160501b038116600090815260446020526040902080546001600160a01b03163314612ea95760405162461bcd60e51b815260206004820152602e60248201527f4f6e6c7920617574686f722063616e20696e63726561736520626f756e74792060448201527f6f6620616e2061727469636c652e0000000000000000000000000000000000006064820152608401610a88565b80543460201c908290601890612ed0908490600160c01b900466ffffffffffffff16613d90565b82546101009290920a66ffffffffffffff818102199093169190921691909102179055508054604080516001600160501b0385168152600160c01b909204602090811b6affffffffffffff0000000016908301527fdf5fc410d3381cc7f0a7fe3af72f4e3cf53ef5787f20554af69035a950e1b2e391016125be565b6000828152604560205260408120600281015490915b81811015611e435760005b60028111612fa057612f8d86868484600281111561092257610922613704565b5080612f9881613d61565b915050612f6d565b5080612fab81613d61565b915050612f62565b60008481526045602052604081208054600160b01b900460ff166130195760405162461bcd60e51b815260206004820152601760248201527f5468657265206973206e6f2072756c696e67207965742e0000000000000000006044820152606401610a88565b600081600201858154811061303057613030613af0565b9060005260206000209060060201905061305d8187868560000160149054906101000a900460ff16613117565b9250821561310d576001600160a01b038616600090815260208290526040812085600281111561308f5761308f613704565b6003811061309f5761309f613af0565b01556040516001600160a01b0387169084156108fc029085906000818181858888f1935050505050856001600160a01b031685887fff2b7c936d6023fea901b3455cefc23b124c1ca5997dc5b48c461fd20984289d8787604051613104929190613c02565b60405180910390a45b5050949350505050565b6000826001860181600281111561313057613130613704565b6003811061314057613140613af0565b602081049091015460ff601f9092166101000a90041661319d576001600160a01b038516600090815260208790526040902081600281111561318457613184613704565b6003811061319457613194613af0565b0154915061332d565b8260028111156131af576131af613704565b8460028111156131c1576131c1613704565b1415613281576000866002018260028111156131df576131df613704565b600381106131ef576131ef613af0565b0154116131fd57600061327a565b8560020181600281111561321357613213613704565b6003811061322357613223613af0565b015460058701546001600160a01b038716600090815260208990526040902083600281111561325457613254613704565b6003811061326457613264613af0565b01546132709190613a97565b61327a9190613ab6565b915061332d565b8560010183600281111561329757613297613704565b600381106132a7576132a7613af0565b602081049091015460ff601f9092166101000a90041661332d57600486015460038701546132d59190613ad8565b60058701546001600160a01b038716600090815260208990526040902083600281111561330457613304613704565b6003811061331457613314613af0565b01546133209190613a97565b61332a9190613ab6565b91505b50949350505050565b82805461334290613b06565b90600052602060002090601f01602090048101928261336457600085556133aa565b82601f1061337d57805160ff19168380011785556133aa565b828001600101855582156133aa579182015b828111156133aa57825182559160200191906001019061338f565b506133b69291506133d8565b5090565b60405180606001604052806003906020820280368337509192915050565b5b808211156133b657600081556001016133d9565b80356001600160501b038116811461340457600080fd5b919050565b80356001600160a01b038116811461340457600080fd5b6000806040838503121561343357600080fd5b61343c836133ed565b915061344a60208401613409565b90509250929050565b80356003811061340457600080fd5b6000806040838503121561347557600080fd5b8235915061344a60208401613453565b60006020828403121561349757600080fd5b61141c826133ed565b6000602082840312156134b257600080fd5b5035919050565b60008083601f8401126134cb57600080fd5b50813567ffffffffffffffff8111156134e357600080fd5b602083019150836020828501011115611c6657600080fd5b6000806000806060858703121561351157600080fd5b843567ffffffffffffffff81111561352857600080fd5b613534878288016134b9565b909550935050602085013560ff8116811461354e57600080fd5b915061355c604086016133ed565b905092959194509250565b6000806040838503121561357a57600080fd5b50508035926020909101359150565b634e487b7160e01b600052604160045260246000fd5b600067ffffffffffffffff808411156135ba576135ba613589565b604051601f8501601f19908116603f011681019082821181831017156135e2576135e2613589565b816040528093508581528686860111156135fb57600080fd5b858560208301376000602087830101525050509392505050565b6000806040838503121561362857600080fd5b823567ffffffffffffffff8082111561364057600080fd5b818501915085601f83011261365457600080fd5b6136638683356020850161359f565b9350602085013591508082111561367957600080fd5b508301601f8101851361368b57600080fd5b61369a8582356020840161359f565b9150509250929050565b6000815180845260005b818110156136ca576020818501810151868301820152016136ae565b818111156136dc576000602083870101525b50601f01601f19169290920160200192915050565b60208152600061141c60208301846136a4565b634e487b7160e01b600052602160045260246000fd5b6003811061373857634e487b7160e01b600052602160045260246000fd5b9052565b6001600160a01b038616815260a08101613759602083018761371a565b60ff94909416604082015291151560608301526001600160501b031660809091015292915050565b6000806000806060858703121561379757600080fd5b843593506137a760208601613409565b9250604085013567ffffffffffffffff808211156137c457600080fd5b818701915087601f8301126137d857600080fd5b8135818111156137e757600080fd5b8860208260051b85010111156137fc57600080fd5b95989497505060200194505050565b60008060006060848603121561382057600080fd5b8335925061383060208501613409565b915061383e60408501613453565b90509250925092565b60e08101818560005b60038110156138715781511515835260209283019290910190600101613850565b505050606082018460005b600381101561389b57815183526020928301929091019060010161387c565b5050508260c0830152949350505050565b6000602082840312156138be57600080fd5b61141c82613409565b6000806000604084860312156138dc57600080fd5b83359250602084013567ffffffffffffffff8111156138fa57600080fd5b613906868287016134b9565b9497909650939450505050565b6000806040838503121561392657600080fd5b8235915061344a60208401613409565b600060408201848352602060408185015281855180845260608601915060608160051b87010193508287016000805b838110156139b957888703605f19018552825180518089529087019087890190845b818110156139a357835183529289019291890191600101613987565b5090985050509385019391850191600101613965565b50949998505050505050505050565b600080604083850312156139db57600080fd5b6139e483613453565b915061344a60208401613453565b60008060008060808587031215613a0857600080fd5b84359350613a1860208601613409565b92506040850135915061355c60608601613453565b600060208284031215613a3f57600080fd5b5051919050565b60008060408385031215613a5957600080fd5b505080516020909101519092909150565b634e487b7160e01b600052601160045260246000fd5b600082821015613a9257613a92613a6a565b500390565b6000816000190483118215151615613ab157613ab1613a6a565b500290565b600082613ad357634e487b7160e01b600052601260045260246000fd5b500490565b60008219821115613aeb57613aeb613a6a565b500190565b634e487b7160e01b600052603260045260246000fd5b600181811c90821680613b1a57607f821691505b60208210811415613b3b57634e487b7160e01b600052602260045260246000fd5b50919050565b8054600090600181811c9080831680613b5b57607f831692505b6020808410821415613b7d57634e487b7160e01b600052602260045260246000fd5b83885260208801828015613b985760018114613ba957613bd4565b60ff19871682528282019750613bd4565b60008981526020902060005b87811015613bce57815484820152908601908401613bb5565b83019850505b5050505050505092915050565b828152604060208201526000613bfa6040830184613b41565b949350505050565b60408101613c10828561371a565b8260208301529392505050565b60006001600160501b0380831681811415613c3a57613c3a613a6a565b6001019392505050565b60006001600160501b0383811690831681811015613c6457613c64613a6a565b039392505050565b81835281816020850137506000828201602090810191909152601f909101601f19169091010190565b606081526000613ca9606083018688613c6c565b60ff949094166020830152506040015292915050565b600060ff821660ff84168060ff03821115613cdc57613cdc613a6a565b019392505050565b600060ff821660ff811415613cfb57613cfb613a6a565b60010192915050565b60208152600061141c6020830184613b41565b6000808335601e19843603018112613d2e57600080fd5b83018035915067ffffffffffffffff821115613d4957600080fd5b6020019150600581901b3603821315611c6657600080fd5b6000600019821415613d7557613d75613a6a565b5060010190565b602081526000613bfa602083018486613c6c565b600066ffffffffffffff808316818516808303821115613db257613db2613a6a565b0194935050505056fea26469706673582212205e7008882bbc5fe7478dbfa353563ad336c09f18c6c849e3bd64aa5fb0e03f2e64736f6c634300080a0033",
  "devdoc": {
    "author": "https://github.com/proveuswrong<0xferit, gratestas>",
    "custom:approvals": "0xferit, gratestas",
    "details": "You should target ITruthPost interface contract for building on top. Otherwise you risk incompatibility across versions.         Articles are not addressed with their identifiers. That enables us to reuse same storage address for another article later.///         Arbitrator is fixed, but subcourts, jury size and metaevidence are not.         We prevent articles to get withdrawn immediately. This is to prevent submitter to escape punishment in case someone discovers an argument to debunk the article.         Bounty amounts are compressed with a lossy compression method to save on storage cost.",
    "kind": "dev",
    "methods": {
      "appealFee(uint256)": {
        "details": "Returns the total amount needs to be paid to appeal a dispute, including fees and stake deposit.",
        "params": {
          "_disputeID": "ID of the dispute as in arbitrator."
        }
      },
      "challenge(uint80)": {
        "details": "Challenges the article at the given storage address. Emits Challenge.",
        "params": {
          "_articleStorageAddress": "The address of the article in the storage."
        }
      },
      "challengeFee(uint80)": {
        "details": "Returns the total amount needs to be paid to challenge an article, including taxes if any.",
        "params": {
          "_articleStorageAddress": "The address of article in the storage."
        }
      },
      "changeAdmin(address)": {
        "details": "Only the current administrator can call this function.",
        "params": {
          "_newAdmin": "The address of the new administrator."
        }
      },
      "changeTreasury(address)": {
        "details": "Only the current administrator can call this function.",
        "params": {
          "_newTreasury": "The address of the new treasury."
        }
      },
      "findVacantStorageSlot(uint80)": {
        "details": "Helper function to find a vacant slot for article. Use this function before calling initialize to minimize your gas cost.",
        "params": {
          "_searchPointer": "Starting point of the search. If you do not have a guess, just pass 0."
        }
      },
      "fundAppeal(uint256,uint8)": {
        "details": "Lets user to contribute funding of an appeal round. Emits Contribution. If fully funded, emits RulingFunded.",
        "params": {
          "_disputeID": "The dispute ID as in arbitrator.",
          "_ruling": "The ruling option to which the caller wants to contribute."
        },
        "returns": {
          "fullyFunded": "True if the ruling option got fully funded as a result of this contribution."
        }
      },
      "getAmountRemainsToBeRaised(uint256,uint8)": {
        "params": {
          "_disputeID": "The dispute ID as in arbitrator.",
          "_ruling": "The ruling option to query."
        },
        "returns": {
          "_0": "Amount needs to be raised"
        }
      },
      "getAppealPeriod(uint256,uint8)": {
        "params": {
          "_disputeID": "The dispute ID as in arbitrator.",
          "_ruling": "The ruling option to query."
        },
        "returns": {
          "_0": "Start",
          "_1": "End"
        }
      },
      "getLastRoundWinner(uint256)": {
        "params": {
          "_disputeID": "The dispute ID as in arbitrator."
        },
        "returns": {
          "_0": "Winning ruling option."
        }
      },
      "getReturnOfInvestmentRatio(uint8,uint8)": {
        "details": "Purely depends on whether given ruling option is winner and stake multipliers.",
        "params": {
          "_lastRoundWinner": "Winner of the last round.",
          "_ruling": "The ruling option to query."
        },
        "returns": {
          "_0": "Return of investment ratio, denominated by MULTIPLIER_DENOMINATOR."
        }
      },
      "getRoundInfo(uint256,uint256)": {
        "params": {
          "_disputeID": "The dispute ID as in arbitrator.",
          "_round": "Round ID."
        },
        "returns": {
          "hasPaid": "Whether given ruling option was fully funded.",
          "totalClaimableAfterExpenses": "Total amount will be distributed back to winners, after deducting expenses.",
          "totalPerRuling": "The total raised per ruling option."
        }
      },
      "getTotalWithdrawableAmount(uint256,address)": {
        "details": "Returns the sum of withdrawable amount and 2D array of positions[round][ruling].",
        "params": {
          "_contributor": "Beneficiary of withdraw operation.",
          "_disputeID": "The dispute ID as in arbitrator."
        },
        "returns": {
          "sum": "The total amount available to withdraw."
        }
      },
      "increaseBounty(uint80)": {
        "details": "Lets author to increase a bounty of a live article. Emits BalanceUpdate.",
        "params": {
          "_articleStorageAddress": "The address of the article in the storage."
        }
      },
      "initializeArticle(string,uint8,uint80)": {
        "details": "Do not confuse articleID with articleAddress. Emits NewArticle.",
        "params": {
          "_articleID": "Unique identifier of an article in IPFS content identifier format.",
          "_category": "The category code of this new article.",
          "_searchPointer": "Starting point of the search. Find a vacant storage slot before calling this function to minimize gas cost."
        }
      },
      "initiateWithdrawal(uint80)": {
        "details": "Lets an author to start unpublishing process. Emits TimelockStarted.",
        "params": {
          "_articleStorageAddress": "The address of the article in the storage."
        }
      },
      "newCategory(string,bytes)": {
        "params": {
          "_arbitratorExtraData": "Extra data of Kleros arbitrator, signaling subcourt and jury size selection.",
          "_metaevidenceIpfsUri": "IPFS content identifier for metaevidence."
        }
      },
      "rule(uint256,uint256)": {
        "details": "This is only for arbitrator to use.",
        "params": {
          "_disputeID": "The dispute ID as in arbitrator.",
          "_ruling": "Winning ruling option."
        }
      },
      "submitEvidence(uint256,string)": {
        "params": {
          "_disputeID": "The dispute ID as in arbitrator.",
          "_evidenceURI": "IPFS path to evidence, example: '/ipfs/Qmarwkf7C9RuzDEJNnarT3WZ7kem5bk8DZAzx78acJjMFH/evidence.json'"
        }
      },
      "switchPublishingLock()": {
        "details": "Useful when it's no longer safe or secure to use this contract.         Prevents new articles to be published. Only intended for privileges users."
      },
      "transferBalanceToTreasury()": {
        "details": "Allows the contract to send its entire balance to the treasury address.         It is important to ensure that the treasury address is set correctly.         If the transfer fails, an exception will be raised, and the funds will remain in the contract."
      },
      "updateChallengeTaxRate(uint256)": {
        "details": "The new challenge tax rate must be at most 25% based on MULTIPLIER_DENOMINATOR.         Only the current administrator can call this function.",
        "params": {
          "_newChallengeTaxRate": "The new challenge tax rate to be set."
        }
      },
      "withdraw(uint80)": {
        "details": "Executes unpublishing of an article. Emits Withdrew.",
        "params": {
          "_articleStorageAddress": "The address of the article in the storage."
        }
      },
      "withdrawFeesAndRewards(uint256,address,uint256,uint8)": {
        "details": "Allows to withdraw any reimbursable fees or rewards after the dispute gets resolved.",
        "params": {
          "_contributor": "Beneficiary of withdraw operation.",
          "_disputeID": "The dispute ID as in arbitrator.",
          "_round": "Number of the round that caller wants to execute withdraw on.",
          "_ruling": "A ruling option that caller wants to execute withdraw on."
        },
        "returns": {
          "amount": "The amount that is going to be transferred to contributor as a result of this function call."
        }
      },
      "withdrawFeesAndRewardsForAllRounds(uint256,address,uint8)": {
        "details": "Allows to withdraw any rewards or reimbursable fees after the dispute gets resolved for all rounds at once.",
        "params": {
          "_contributor": "Beneficiary of withdraw operation.",
          "_disputeID": "The dispute ID as in arbitrator.",
          "_ruling": "Ruling option that caller wants to execute withdraw on."
        }
      },
      "withdrawFeesAndRewardsForAllRoundsAndAllRulings(uint256,address)": {
        "details": "Allows to withdraw any rewards or reimbursable fees after the dispute gets resolved for all rounds and all rulings at once.",
        "params": {
          "_contributor": "Beneficiary of withdraw operation.",
          "_disputeID": "The dispute ID as in arbitrator."
        }
      },
      "withdrawFeesAndRewardsForGivenPositions(uint256,address,uint256[][])": {
        "details": "Allows to withdraw any rewards or reimbursable fees after the dispute gets resolved for given positions at once.",
        "params": {
          "_contributor": "Beneficiary of withdraw operation.",
          "_disputeID": "The dispute ID as in arbitrator.",
          "positions": "[rounds][rulings]."
        }
      }
    },
    "title": "The Trust Post",
    "version": 1
  },
  "userdoc": {
    "kind": "user",
    "methods": {
      "appealFee(uint256)": {
        "notice": "Get required appeal fee and deposit."
      },
      "challenge(uint80)": {
        "notice": "Challenge article."
      },
      "challengeFee(uint80)": {
        "notice": "Get required challenge fee."
      },
      "changeAdmin(address)": {
        "notice": "Changes the administrator of the contract to a new address."
      },
      "changeTreasury(address)": {
        "notice": "Changes the treasury address of the contract to a new address."
      },
      "findVacantStorageSlot(uint80)": {
        "notice": "Find a vacant storage slot for an article."
      },
      "fundAppeal(uint256,uint8)": {
        "notice": "Fund a crowdfunding appeal."
      },
      "getAmountRemainsToBeRaised(uint256,uint8)": {
        "notice": "Learn about how much more needs to be raised for given ruling option."
      },
      "getAppealPeriod(uint256,uint8)": {
        "notice": "Get appeal time window."
      },
      "getLastRoundWinner(uint256)": {
        "notice": "Get last round's winner."
      },
      "getReturnOfInvestmentRatio(uint8,uint8)": {
        "notice": "Get return of investment ratio."
      },
      "getRoundInfo(uint256,uint256)": {
        "notice": "Learn about given dispute round."
      },
      "getTotalWithdrawableAmount(uint256,address)": {
        "notice": "Learn the total amount of appeal crowdfunding balance available."
      },
      "increaseBounty(uint80)": {
        "notice": "Increase bounty."
      },
      "initializeArticle(string,uint8,uint80)": {
        "notice": "Publish an article."
      },
      "initiateWithdrawal(uint80)": {
        "notice": "Initiate unpublishing process."
      },
      "newCategory(string,bytes)": {
        "notice": "Initialize a category."
      },
      "rule(uint256,uint256)": {
        "notice": "Execute a ruling"
      },
      "submitEvidence(uint256,string)": {
        "notice": "Submit an evidence."
      },
      "switchPublishingLock()": {
        "notice": "Switches publishing lock."
      },
      "transferBalanceToTreasury()": {
        "notice": "Transfers the balance of the contract to the treasury."
      },
      "transferOwnership(uint80,address)": {
        "notice": "Lets you to transfer ownership of an article. This is useful when you want to change owner account without withdrawing and resubmitting."
      },
      "updateChallengeTaxRate(uint256)": {
        "notice": "Updates the challenge tax rate of the contract to a new value."
      },
      "withdraw(uint80)": {
        "notice": "Execute unpublishing."
      },
      "withdrawFeesAndRewards(uint256,address,uint256,uint8)": {
        "notice": "Withdraw appeal crowdfunding balance."
      },
      "withdrawFeesAndRewardsForAllRounds(uint256,address,uint8)": {
        "notice": "Withdraw appeal crowdfunding balance for given ruling option for all rounds."
      },
      "withdrawFeesAndRewardsForAllRoundsAndAllRulings(uint256,address)": {
        "notice": "Withdraw appeal crowdfunding balance for all ruling options and all rounds."
      },
      "withdrawFeesAndRewardsForGivenPositions(uint256,address,uint256[][])": {
        "notice": "Withdraw appeal crowdfunding balance for given ruling option and for given rounds."
      }
    },
    "notice": "Smart contract for a type of curation, where submitted items are on hold until they are withdrawn and the amount of security deposits are determined by submitters.",
    "version": 1
  },
  "storageLayout": {
    "storage": [
      {
        "astId": 298,
        "contract": "contracts/TruthPost.sol:TruthPost",
        "label": "isPublishingEnabled",
        "offset": 0,
        "slot": "0",
        "type": "t_bool"
      },
      {
        "astId": 300,
        "contract": "contracts/TruthPost.sol:TruthPost",
        "label": "TREASURY",
        "offset": 1,
        "slot": "0",
        "type": "t_address_payable"
      },
      {
        "astId": 302,
        "contract": "contracts/TruthPost.sol:TruthPost",
        "label": "treasuryBalance",
        "offset": 0,
        "slot": "1",
        "type": "t_uint256"
      },
      {
        "astId": 320,
        "contract": "contracts/TruthPost.sol:TruthPost",
        "label": "challengeTaxRate",
        "offset": 0,
        "slot": "2",
        "type": "t_uint256"
      },
      {
        "astId": 653,
        "contract": "contracts/TruthPost.sol:TruthPost",
        "label": "categoryCounter",
        "offset": 0,
        "slot": "3",
        "type": "t_uint8"
      },
      {
        "astId": 660,
        "contract": "contracts/TruthPost.sol:TruthPost",
        "label": "admin",
        "offset": 1,
        "slot": "3",
        "type": "t_address_payable"
      },
      {
        "astId": 723,
        "contract": "contracts/TruthPost.sol:TruthPost",
        "label": "categoryToArbitratorExtraData",
        "offset": 0,
        "slot": "4",
        "type": "t_array(t_bytes_storage)64_storage"
      },
      {
        "astId": 728,
        "contract": "contracts/TruthPost.sol:TruthPost",
        "label": "articleStorage",
        "offset": 0,
        "slot": "68",
        "type": "t_mapping(t_uint80,t_struct(Article)719_storage)"
      },
      {
        "astId": 733,
        "contract": "contracts/TruthPost.sol:TruthPost",
        "label": "disputes",
        "offset": 0,
        "slot": "69",
        "type": "t_mapping(t_uint256,t_struct(DisputeData)687_storage)"
      }
    ],
    "types": {
      "t_address": {
        "encoding": "inplace",
        "label": "address",
        "numberOfBytes": "20"
      },
      "t_address_payable": {
        "encoding": "inplace",
        "label": "address payable",
        "numberOfBytes": "20"
      },
      "t_array(t_bool)3_storage": {
        "base": "t_bool",
        "encoding": "inplace",
        "label": "bool[3]",
        "numberOfBytes": "32"
      },
      "t_array(t_bytes_storage)64_storage": {
        "base": "t_bytes_storage",
        "encoding": "inplace",
        "label": "bytes[64]",
        "numberOfBytes": "2048"
      },
      "t_array(t_struct(Round)710_storage)dyn_storage": {
        "base": "t_struct(Round)710_storage",
        "encoding": "dynamic_array",
        "label": "struct TruthPost.Round[]",
        "numberOfBytes": "32"
      },
      "t_array(t_uint256)3_storage": {
        "base": "t_uint256",
        "encoding": "inplace",
        "label": "uint256[3]",
        "numberOfBytes": "96"
      },
      "t_bool": {
        "encoding": "inplace",
        "label": "bool",
        "numberOfBytes": "1"
      },
      "t_bytes_storage": {
        "encoding": "bytes",
        "label": "bytes",
        "numberOfBytes": "32"
      },
      "t_enum(RulingOptions)295": {
        "encoding": "inplace",
        "label": "enum ITruthPost.RulingOptions",
        "numberOfBytes": "1"
      },
      "t_mapping(t_address,t_array(t_uint256)3_storage)": {
        "encoding": "mapping",
        "key": "t_address",
        "label": "mapping(address => uint256[3])",
        "numberOfBytes": "32",
        "value": "t_array(t_uint256)3_storage"
      },
      "t_mapping(t_uint256,t_struct(DisputeData)687_storage)": {
        "encoding": "mapping",
        "key": "t_uint256",
        "label": "mapping(uint256 => struct TruthPost.DisputeData)",
        "numberOfBytes": "32",
        "value": "t_struct(DisputeData)687_storage"
      },
      "t_mapping(t_uint80,t_struct(Article)719_storage)": {
        "encoding": "mapping",
        "key": "t_uint80",
        "label": "mapping(uint80 => struct TruthPost.Article)",
        "numberOfBytes": "32",
        "value": "t_struct(Article)719_storage"
      },
      "t_struct(Article)719_storage": {
        "encoding": "inplace",
        "label": "struct TruthPost.Article",
        "members": [
          {
            "astId": 712,
            "contract": "contracts/TruthPost.sol:TruthPost",
            "label": "owner",
            "offset": 0,
            "slot": "0",
            "type": "t_address_payable"
          },
          {
            "astId": 714,
            "contract": "contracts/TruthPost.sol:TruthPost",
            "label": "withdrawalPermittedAt",
            "offset": 20,
            "slot": "0",
            "type": "t_uint32"
          },
          {
            "astId": 716,
            "contract": "contracts/TruthPost.sol:TruthPost",
            "label": "bountyAmount",
            "offset": 24,
            "slot": "0",
            "type": "t_uint56"
          },
          {
            "astId": 718,
            "contract": "contracts/TruthPost.sol:TruthPost",
            "label": "category",
            "offset": 31,
            "slot": "0",
            "type": "t_uint8"
          }
        ],
        "numberOfBytes": "32"
      },
      "t_struct(DisputeData)687_storage": {
        "encoding": "inplace",
        "label": "struct TruthPost.DisputeData",
        "members": [
          {
            "astId": 673,
            "contract": "contracts/TruthPost.sol:TruthPost",
            "label": "challenger",
            "offset": 0,
            "slot": "0",
            "type": "t_address_payable"
          },
          {
            "astId": 676,
            "contract": "contracts/TruthPost.sol:TruthPost",
            "label": "outcome",
            "offset": 20,
            "slot": "0",
            "type": "t_enum(RulingOptions)295"
          },
          {
            "astId": 678,
            "contract": "contracts/TruthPost.sol:TruthPost",
            "label": "articleCategory",
            "offset": 21,
            "slot": "0",
            "type": "t_uint8"
          },
          {
            "astId": 680,
            "contract": "contracts/TruthPost.sol:TruthPost",
            "label": "resolved",
            "offset": 22,
            "slot": "0",
            "type": "t_bool"
          },
          {
            "astId": 682,
            "contract": "contracts/TruthPost.sol:TruthPost",
            "label": "articleStorageAddress",
            "offset": 0,
            "slot": "1",
            "type": "t_uint80"
          },
          {
            "astId": 686,
            "contract": "contracts/TruthPost.sol:TruthPost",
            "label": "rounds",
            "offset": 0,
            "slot": "2",
            "type": "t_array(t_struct(Round)710_storage)dyn_storage"
          }
        ],
        "numberOfBytes": "96"
      },
      "t_struct(Round)710_storage": {
        "encoding": "inplace",
        "label": "struct TruthPost.Round",
        "members": [
          {
            "astId": 695,
            "contract": "contracts/TruthPost.sol:TruthPost",
            "label": "contributions",
            "offset": 0,
            "slot": "0",
            "type": "t_mapping(t_address,t_array(t_uint256)3_storage)"
          },
          {
            "astId": 701,
            "contract": "contracts/TruthPost.sol:TruthPost",
            "label": "hasPaid",
            "offset": 0,
            "slot": "1",
            "type": "t_array(t_bool)3_storage"
          },
          {
            "astId": 707,
            "contract": "contracts/TruthPost.sol:TruthPost",
            "label": "totalPerRuling",
            "offset": 0,
            "slot": "2",
            "type": "t_array(t_uint256)3_storage"
          },
          {
            "astId": 709,
            "contract": "contracts/TruthPost.sol:TruthPost",
            "label": "totalClaimableAfterExpenses",
            "offset": 0,
            "slot": "5",
            "type": "t_uint256"
          }
        ],
        "numberOfBytes": "192"
      },
      "t_uint256": {
        "encoding": "inplace",
        "label": "uint256",
        "numberOfBytes": "32"
      },
      "t_uint32": {
        "encoding": "inplace",
        "label": "uint32",
        "numberOfBytes": "4"
      },
      "t_uint56": {
        "encoding": "inplace",
        "label": "uint56",
        "numberOfBytes": "7"
      },
      "t_uint8": {
        "encoding": "inplace",
        "label": "uint8",
        "numberOfBytes": "1"
      },
      "t_uint80": {
        "encoding": "inplace",
        "label": "uint80",
        "numberOfBytes": "10"
      }
    }
  }
}