{
  "address": "0x01460988aEbC5cb266db789D6f67352871D31656",
  "abi": [
    {
      "inputs": [
        {
          "internalType": "contract IArbitrator",
          "name": "_arbitrator",
          "type": "address"
        },
        {
          "internalType": "bytes",
          "name": "_arbitratorExtraData",
          "type": "bytes"
        },
        {
          "internalType": "string",
          "name": "_metaevidenceIpfsUri",
          "type": "string"
        },
        {
          "internalType": "uint256",
          "name": "_articleWithdrawalTimelock",
          "type": "uint256"
        },
        {
          "internalType": "uint256",
          "name": "_winnerStakeMultiplier",
          "type": "uint256"
        },
        {
          "internalType": "uint256",
          "name": "_loserStakeMultiplier",
          "type": "uint256"
        }
      ],
      "stateMutability": "nonpayable",
      "type": "constructor"
    },
    {
      "anonymous": false,
      "inputs": [
        {
          "indexed": false,
          "internalType": "uint256",
          "name": "articleAddress",
          "type": "uint256"
        }
      ],
      "name": "ArticleWithdrawn",
      "type": "event"
    },
    {
      "anonymous": false,
      "inputs": [
        {
          "indexed": false,
          "internalType": "uint256",
          "name": "articleAddress",
          "type": "uint256"
        },
        {
          "indexed": false,
          "internalType": "uint256",
          "name": "newTotal",
          "type": "uint256"
        }
      ],
      "name": "BalanceUpdate",
      "type": "event"
    },
    {
      "anonymous": false,
      "inputs": [
        {
          "indexed": true,
          "internalType": "uint256",
          "name": "articleAddress",
          "type": "uint256"
        },
        {
          "indexed": false,
          "internalType": "address",
          "name": "challanger",
          "type": "address"
        },
        {
          "indexed": false,
          "internalType": "uint256",
          "name": "disputeID",
          "type": "uint256"
        }
      ],
      "name": "Challenge",
      "type": "event"
    },
    {
      "anonymous": false,
      "inputs": [
        {
          "indexed": true,
          "internalType": "uint256",
          "name": "disputeId",
          "type": "uint256"
        },
        {
          "indexed": true,
          "internalType": "uint256",
          "name": "round",
          "type": "uint256"
        },
        {
          "indexed": false,
          "internalType": "enum ITruthPost.RulingOptions",
          "name": "ruling",
          "type": "uint8"
        },
        {
          "indexed": true,
          "internalType": "address",
          "name": "contributor",
          "type": "address"
        },
        {
          "indexed": false,
          "internalType": "uint256",
          "name": "amount",
          "type": "uint256"
        }
      ],
      "name": "Contribution",
      "type": "event"
    },
    {
      "anonymous": false,
      "inputs": [
        {
          "indexed": false,
          "internalType": "uint256",
          "name": "articleAddress",
          "type": "uint256"
        }
      ],
      "name": "Debunked",
      "type": "event"
    },
    {
      "anonymous": false,
      "inputs": [
        {
          "indexed": true,
          "internalType": "contract IArbitrator",
          "name": "_arbitrator",
          "type": "address"
        },
        {
          "indexed": true,
          "internalType": "uint256",
          "name": "_disputeID",
          "type": "uint256"
        },
        {
          "indexed": false,
          "internalType": "uint256",
          "name": "_metaEvidenceID",
          "type": "uint256"
        },
        {
          "indexed": false,
          "internalType": "uint256",
          "name": "_evidenceGroupID",
          "type": "uint256"
        }
      ],
      "name": "Dispute",
      "type": "event"
    },
    {
      "anonymous": false,
      "inputs": [
        {
          "indexed": true,
          "internalType": "contract IArbitrator",
          "name": "_arbitrator",
          "type": "address"
        },
        {
          "indexed": true,
          "internalType": "uint256",
          "name": "_evidenceGroupID",
          "type": "uint256"
        },
        {
          "indexed": true,
          "internalType": "address",
          "name": "_party",
          "type": "address"
        },
        {
          "indexed": false,
          "internalType": "string",
          "name": "_evidence",
          "type": "string"
        }
      ],
      "name": "Evidence",
      "type": "event"
    },
    {
      "anonymous": false,
      "inputs": [
        {
          "indexed": true,
          "internalType": "uint256",
          "name": "_metaEvidenceID",
          "type": "uint256"
        },
        {
          "indexed": false,
          "internalType": "string",
          "name": "_evidence",
          "type": "string"
        }
      ],
      "name": "MetaEvidence",
      "type": "event"
    },
    {
      "anonymous": false,
      "inputs": [
        {
          "indexed": false,
          "internalType": "string",
          "name": "articleID",
          "type": "string"
        },
        {
          "indexed": false,
          "internalType": "uint8",
          "name": "category",
          "type": "uint8"
        },
        {
          "indexed": false,
          "internalType": "uint256",
          "name": "articleAddress",
          "type": "uint256"
        }
      ],
      "name": "NewArticle",
      "type": "event"
    },
    {
      "anonymous": false,
      "inputs": [
        {
          "indexed": true,
          "internalType": "contract IArbitrator",
          "name": "_arbitrator",
          "type": "address"
        },
        {
          "indexed": true,
          "internalType": "uint256",
          "name": "_disputeID",
          "type": "uint256"
        },
        {
          "indexed": false,
          "internalType": "uint256",
          "name": "_ruling",
          "type": "uint256"
        }
      ],
      "name": "Ruling",
      "type": "event"
    },
    {
      "anonymous": false,
      "inputs": [
        {
          "indexed": true,
          "internalType": "uint256",
          "name": "disputeId",
          "type": "uint256"
        },
        {
          "indexed": true,
          "internalType": "uint256",
          "name": "round",
          "type": "uint256"
        },
        {
          "indexed": true,
          "internalType": "enum ITruthPost.RulingOptions",
          "name": "ruling",
          "type": "uint8"
        }
      ],
      "name": "RulingFunded",
      "type": "event"
    },
    {
      "anonymous": false,
      "inputs": [
        {
          "indexed": false,
          "internalType": "uint256",
          "name": "articleAddress",
          "type": "uint256"
        }
      ],
      "name": "TimelockStarted",
      "type": "event"
    },
    {
      "anonymous": false,
      "inputs": [
        {
          "indexed": true,
          "internalType": "uint256",
          "name": "disputeId",
          "type": "uint256"
        },
        {
          "indexed": true,
          "internalType": "uint256",
          "name": "round",
          "type": "uint256"
        },
        {
          "indexed": false,
          "internalType": "enum ITruthPost.RulingOptions",
          "name": "ruling",
          "type": "uint8"
        },
        {
          "indexed": true,
          "internalType": "address",
          "name": "contributor",
          "type": "address"
        },
        {
          "indexed": false,
          "internalType": "uint256",
          "name": "reward",
          "type": "uint256"
        }
      ],
      "name": "Withdrawal",
      "type": "event"
    },
    {
      "inputs": [],
      "name": "ARBITRATOR",
      "outputs": [
        {
          "internalType": "contract IArbitrator",
          "name": "",
          "type": "address"
        }
      ],
      "stateMutability": "view",
      "type": "function"
    },
    {
      "inputs": [],
      "name": "ARTICLE_WITHDRAWAL_TIMELOCK",
      "outputs": [
        {
          "internalType": "uint256",
          "name": "",
          "type": "uint256"
        }
      ],
      "stateMutability": "view",
      "type": "function"
    },
    {
      "inputs": [],
      "name": "LOSER_APPEAL_PERIOD_MULTIPLIER",
      "outputs": [
        {
          "internalType": "uint256",
          "name": "",
          "type": "uint256"
        }
      ],
      "stateMutability": "view",
      "type": "function"
    },
    {
      "inputs": [],
      "name": "LOSER_STAKE_MULTIPLIER",
      "outputs": [
        {
          "internalType": "uint256",
          "name": "",
          "type": "uint256"
        }
      ],
      "stateMutability": "view",
      "type": "function"
    },
    {
      "inputs": [],
      "name": "MULTIPLIER_DENOMINATOR",
      "outputs": [
        {
          "internalType": "uint256",
          "name": "",
          "type": "uint256"
        }
      ],
      "stateMutability": "view",
      "type": "function"
    },
    {
      "inputs": [],
      "name": "NUMBER_OF_LEAST_SIGNIFICANT_BITS_TO_IGNORE",
      "outputs": [
        {
          "internalType": "uint256",
          "name": "",
          "type": "uint256"
        }
      ],
      "stateMutability": "view",
      "type": "function"
    },
    {
      "inputs": [],
      "name": "NUMBER_OF_RULING_OPTIONS",
      "outputs": [
        {
          "internalType": "uint256",
          "name": "",
          "type": "uint256"
        }
      ],
      "stateMutability": "view",
      "type": "function"
    },
    {
      "inputs": [],
      "name": "VERSION",
      "outputs": [
        {
          "internalType": "string",
          "name": "",
          "type": "string"
        }
      ],
      "stateMutability": "view",
      "type": "function"
    },
    {
      "inputs": [],
      "name": "WINNER_STAKE_MULTIPLIER",
      "outputs": [
        {
          "internalType": "uint256",
          "name": "",
          "type": "uint256"
        }
      ],
      "stateMutability": "view",
      "type": "function"
    },
    {
      "inputs": [],
      "name": "admin",
      "outputs": [
        {
          "internalType": "address payable",
          "name": "",
          "type": "address"
        }
      ],
      "stateMutability": "view",
      "type": "function"
    },
    {
      "inputs": [
        {
          "internalType": "uint256",
          "name": "_disputeID",
          "type": "uint256"
        }
      ],
      "name": "appealFee",
      "outputs": [
        {
          "internalType": "uint256",
          "name": "arbitrationFee",
          "type": "uint256"
        }
      ],
      "stateMutability": "view",
      "type": "function"
    },
    {
      "inputs": [
        {
          "internalType": "uint80",
          "name": "",
          "type": "uint80"
        }
      ],
      "name": "articleStorage",
      "outputs": [
        {
          "internalType": "address payable",
          "name": "owner",
          "type": "address"
        },
        {
          "internalType": "uint32",
          "name": "withdrawalPermittedAt",
          "type": "uint32"
        },
        {
          "internalType": "uint56",
          "name": "bountyAmount",
          "type": "uint56"
        },
        {
          "internalType": "uint8",
          "name": "category",
          "type": "uint8"
        }
      ],
      "stateMutability": "view",
      "type": "function"
    },
    {
      "inputs": [],
      "name": "buyAndBurn",
      "outputs": [],
      "stateMutability": "nonpayable",
      "type": "function"
    },
    {
      "inputs": [],
      "name": "categoryCounter",
      "outputs": [
        {
          "internalType": "uint8",
          "name": "",
          "type": "uint8"
        }
      ],
      "stateMutability": "view",
      "type": "function"
    },
    {
      "inputs": [
        {
          "internalType": "uint256",
          "name": "",
          "type": "uint256"
        }
      ],
      "name": "categoryToArbitratorExtraData",
      "outputs": [
        {
          "internalType": "bytes",
          "name": "",
          "type": "bytes"
        }
      ],
      "stateMutability": "view",
      "type": "function"
    },
    {
      "inputs": [
        {
          "internalType": "uint80",
          "name": "_articleStorageAddress",
          "type": "uint80"
        }
      ],
      "name": "challenge",
      "outputs": [],
      "stateMutability": "payable",
      "type": "function"
    },
    {
      "inputs": [
        {
          "internalType": "uint80",
          "name": "_articleStorageAddress",
          "type": "uint80"
        }
      ],
      "name": "challengeFee",
      "outputs": [
        {
          "internalType": "uint256",
          "name": "",
          "type": "uint256"
        }
      ],
      "stateMutability": "view",
      "type": "function"
    },
    {
      "inputs": [],
      "name": "challengeTaxRate",
      "outputs": [
        {
          "internalType": "uint256",
          "name": "",
          "type": "uint256"
        }
      ],
      "stateMutability": "view",
      "type": "function"
    },
    {
      "inputs": [
        {
          "internalType": "address payable",
          "name": "_newAdmin",
          "type": "address"
        }
      ],
      "name": "changeAdmin",
      "outputs": [],
      "stateMutability": "nonpayable",
      "type": "function"
    },
    {
      "inputs": [
        {
          "internalType": "uint256",
          "name": "",
          "type": "uint256"
        }
      ],
      "name": "disputes",
      "outputs": [
        {
          "internalType": "address payable",
          "name": "challenger",
          "type": "address"
        },
        {
          "internalType": "enum ITruthPost.RulingOptions",
          "name": "outcome",
          "type": "uint8"
        },
        {
          "internalType": "uint8",
          "name": "articleCategory",
          "type": "uint8"
        },
        {
          "internalType": "bool",
          "name": "resolved",
          "type": "bool"
        },
        {
          "internalType": "uint80",
          "name": "articleStorageAddress",
          "type": "uint80"
        }
      ],
      "stateMutability": "view",
      "type": "function"
    },
    {
      "inputs": [
        {
          "internalType": "uint80",
          "name": "_searchPointer",
          "type": "uint80"
        }
      ],
      "name": "findVacantStorageSlot",
      "outputs": [
        {
          "internalType": "uint256",
          "name": "vacantSlotIndex",
          "type": "uint256"
        }
      ],
      "stateMutability": "view",
      "type": "function"
    },
    {
      "inputs": [
        {
          "internalType": "uint256",
          "name": "_disputeID",
          "type": "uint256"
        },
        {
          "internalType": "enum ITruthPost.RulingOptions",
          "name": "_supportedRuling",
          "type": "uint8"
        }
      ],
      "name": "fundAppeal",
      "outputs": [
        {
          "internalType": "bool",
          "name": "fullyFunded",
          "type": "bool"
        }
      ],
      "stateMutability": "payable",
      "type": "function"
    },
    {
      "inputs": [
        {
          "internalType": "uint256",
          "name": "_disputeID",
          "type": "uint256"
        },
        {
          "internalType": "address payable",
          "name": "_contributor",
          "type": "address"
        },
        {
          "internalType": "enum ITruthPost.RulingOptions",
          "name": "_ruling",
          "type": "uint8"
        }
      ],
      "name": "getTotalWithdrawableAmount",
      "outputs": [
        {
          "internalType": "uint256",
          "name": "sum",
          "type": "uint256"
        }
      ],
      "stateMutability": "view",
      "type": "function"
    },
    {
      "inputs": [
        {
          "internalType": "uint80",
          "name": "_articleStorageAddress",
          "type": "uint80"
        }
      ],
      "name": "increaseBounty",
      "outputs": [],
      "stateMutability": "payable",
      "type": "function"
    },
    {
      "inputs": [
        {
          "internalType": "string",
          "name": "_articleID",
          "type": "string"
        },
        {
          "internalType": "uint8",
          "name": "_category",
          "type": "uint8"
        },
        {
          "internalType": "uint80",
          "name": "_searchPointer",
          "type": "uint80"
        }
      ],
      "name": "initializeArticle",
      "outputs": [],
      "stateMutability": "payable",
      "type": "function"
    },
    {
      "inputs": [
        {
          "internalType": "uint80",
          "name": "_articleStorageAddress",
          "type": "uint80"
        }
      ],
      "name": "initiateWithdrawal",
      "outputs": [],
      "stateMutability": "nonpayable",
      "type": "function"
    },
    {
      "inputs": [
        {
          "internalType": "string",
          "name": "_metaevidenceIpfsUri",
          "type": "string"
        },
        {
          "internalType": "bytes",
          "name": "_arbitratorExtraData",
          "type": "bytes"
        }
      ],
      "name": "newCategory",
      "outputs": [],
      "stateMutability": "nonpayable",
      "type": "function"
    },
    {
      "inputs": [
        {
          "internalType": "uint256",
          "name": "_disputeID",
          "type": "uint256"
        },
        {
          "internalType": "uint256",
          "name": "_ruling",
          "type": "uint256"
        }
      ],
      "name": "rule",
      "outputs": [],
      "stateMutability": "nonpayable",
      "type": "function"
    },
    {
      "inputs": [
        {
          "internalType": "uint256",
          "name": "_disputeID",
          "type": "uint256"
        },
        {
          "internalType": "string",
          "name": "_evidenceURI",
          "type": "string"
        }
      ],
      "name": "submitEvidence",
      "outputs": [],
      "stateMutability": "nonpayable",
      "type": "function"
    },
    {
      "inputs": [
        {
          "internalType": "uint80",
          "name": "_articleStorageAddress",
          "type": "uint80"
        },
        {
          "internalType": "address payable",
          "name": "_newOwner",
          "type": "address"
        }
      ],
      "name": "transferOwnership",
      "outputs": [],
      "stateMutability": "nonpayable",
      "type": "function"
    },
    {
      "inputs": [],
      "name": "treasuryBalance",
      "outputs": [
        {
          "internalType": "uint256",
          "name": "",
          "type": "uint256"
        }
      ],
      "stateMutability": "view",
      "type": "function"
    },
    {
      "inputs": [
        {
          "internalType": "uint256",
          "name": "_newChallengeTaxRate",
          "type": "uint256"
        }
      ],
      "name": "updateChallengeTaxRate",
      "outputs": [],
      "stateMutability": "nonpayable",
      "type": "function"
    },
    {
      "inputs": [
        {
          "internalType": "uint80",
          "name": "_articleStorageAddress",
          "type": "uint80"
        }
      ],
      "name": "withdraw",
      "outputs": [],
      "stateMutability": "nonpayable",
      "type": "function"
    },
    {
      "inputs": [
        {
          "internalType": "uint256",
          "name": "_disputeID",
          "type": "uint256"
        },
        {
          "internalType": "address payable",
          "name": "_contributor",
          "type": "address"
        },
        {
          "internalType": "uint256",
          "name": "_roundNumber",
          "type": "uint256"
        },
        {
          "internalType": "enum ITruthPost.RulingOptions",
          "name": "_ruling",
          "type": "uint8"
        }
      ],
      "name": "withdrawFeesAndRewards",
      "outputs": [
        {
          "internalType": "uint256",
          "name": "amount",
          "type": "uint256"
        }
      ],
      "stateMutability": "nonpayable",
      "type": "function"
    },
    {
      "inputs": [
        {
          "internalType": "uint256",
          "name": "_disputeID",
          "type": "uint256"
        },
        {
          "internalType": "address payable",
          "name": "_contributor",
          "type": "address"
        },
        {
          "internalType": "enum ITruthPost.RulingOptions",
          "name": "_ruling",
          "type": "uint8"
        }
      ],
      "name": "withdrawFeesAndRewardsForAllRounds",
      "outputs": [],
      "stateMutability": "nonpayable",
      "type": "function"
    }
  ],
  "transactionHash": "0x097ab4d6eee4cd9bb6633ed5293a2d5b7902eb7f536e8084bba656a4095136cc",
  "args": [
    "0x1128eD55ab2d796fa92D2F8E1f336d745354a77A",
    "0x00000000000000000000000000000000000000000000000000000000000000000000000000000000000000000000000000000000000000000000000000000001",
    "/ipfs/QmcwNHPzGqM1ff7ANnzynhdfKLQtNvQv8ueozDPXihUjy1/metaEvidence.json",
    1,
    1,
    1
  ],
  "solcInputHash": "5b4750d1de7895b3f2247732b0b94bdb",
  "bytecode": "0x61010060408190526010600055600280546001600160a81b031916339092029190911790553480156200003157600080fd5b506040516200370a3803806200370a83398101604081905262000054916200032e565b60808390526001600160a01b03861660a05260c082905260e08190526200007c848662000088565b505050505050620004d5565b6002546200009b9060ff16600162000402565b60ff16620000ef5760405162461bcd60e51b815260206004820181905260248201527f4e6f207370616365206c65667420666f722061206e65772063617465676f7279604482015260640160405180910390fd5b60025460405160ff909116907f61606860eb6c87306811e2695215385101daab53bd6ab4e9f9049aead9363c7d906200012a9085906200042a565b60405180910390a2600254819060039060ff16604081106200015057620001506200045f565b0190805190602001906200016692919062000199565b506002805460ff169060006200017c8362000475565b91906101000a81548160ff021916908360ff160217905550505050565b828054620001a79062000498565b90600052602060002090601f016020900481019282620001cb576000855562000216565b82601f10620001e657805160ff191683800117855562000216565b8280016001018555821562000216579182015b8281111562000216578251825591602001919060010190620001f9565b506200022492915062000228565b5090565b5b8082111562000224576000815560010162000229565b634e487b7160e01b600052604160045260246000fd5b60005b838110156200027257818101518382015260200162000258565b8381111562000282576000848401525b50505050565b60006001600160401b0380841115620002a557620002a56200023f565b604051601f8501601f19908116603f01168101908282118183101715620002d057620002d06200023f565b81604052809350858152868686011115620002ea57600080fd5b620002fa86602083018762000255565b5050509392505050565b600082601f8301126200031657600080fd5b620003278383516020850162000288565b9392505050565b60008060008060008060c087890312156200034857600080fd5b86516001600160a01b03811681146200036057600080fd5b60208801519096506001600160401b03808211156200037e57600080fd5b818901915089601f8301126200039357600080fd5b620003a48a83516020850162000288565b96506040890151915080821115620003bb57600080fd5b50620003ca89828a0162000304565b945050606087015192506080870151915060a087015190509295509295509295565b634e487b7160e01b600052601160045260246000fd5b600060ff821660ff84168060ff03821115620004225762000422620003ec565b019392505050565b60208152600082518060208401526200044b81604085016020870162000255565b601f01601f19169190910160400192915050565b634e487b7160e01b600052603260045260246000fd5b600060ff821660ff8114156200048f576200048f620003ec565b60010192915050565b600181811c90821680620004ad57607f821691505b60208210811415620004cf57634e487b7160e01b600052602260045260246000fd5b50919050565b60805160a05160c05160e0516131a06200056a600039600081816106290152610b5101526000818161070f0152610a9601526000818161047f015281816108d40152818161096201528181610b7501528181611014015281816111b2015281816115370152818161198b01528181611c5f01528181611df5015261207c0152600081816106a60152611fe901526131a06000f3fe6080604052600436106102345760003560e01c806378431ce911610138578063be467604116100b0578063e349ad301161007f578063fc0ac67211610064578063fc0ac67214610756578063fe6ca7821461076c578063ffa1ad741461078257600080fd5b8063e349ad30146106fd578063f851a4401461073157600080fd5b8063be4676041461067e578063d3b476b114610694578063d970d18c146106c8578063dc227fc2146106dd57600080fd5b8063aa6df29911610107578063b34bfaa8116100ec578063b34bfaa814610617578063b9caab4c1461064b578063bc0936fd1461066b57600080fd5b8063aa6df299146105e2578063ab9cd37e146105f757600080fd5b806378431ce9146104e15780638f28397014610582578063956dcbd2146105a2578063a6a7f0eb146105c257600080fd5b8063313dab20116101cb57806364ff9dfa1161019a57806368871c9c1161017f57806368871c9c1461046d578063736ed418146104b95780637597b3cb146104cc57600080fd5b806364ff9dfa1461042d5780636760aeb01461044d57600080fd5b8063313dab20146103505780634c55c000146103665780634de12db014610386578063564a565d146103b357600080fd5b80631e26de34116102075780631e26de34146102dd57806326804bef146102fd578063292380891461031d578063311a6c561461033057600080fd5b806303624fc01461023957806306bcbd731461026a57806312b3a2c01461028c57806315f36ebe146102af575b600080fd5b34801561024557600080fd5b506002546102539060ff1681565b60405160ff90911681526020015b60405180910390f35b34801561027657600080fd5b5061028a6102853660046129e0565b6107cb565b005b61029f61029a366004612a22565b610895565b6040519015158152602001610261565b3480156102bb57600080fd5b506102cf6102ca366004612a45565b611139565b604051908152602001610261565b3480156102e957600080fd5b506102cf6102f8366004612a60565b61119d565b34801561030957600080fd5b5061028a610318366004612a60565b611266565b61028a61032b366004612ac2565b6112d8565b34801561033c57600080fd5b5061028a61034b366004612b2e565b61152c565b34801561035c57600080fd5b506102cf60015481565b34801561037257600080fd5b5061028a610381366004612bdc565b6117c9565b34801561039257600080fd5b506103a66103a1366004612a60565b6118ca565b6040516102619190612cb8565b3480156103bf57600080fd5b5061041c6103ce366004612a60565b604460205260009081526040902080546001909101546001600160a01b0382169160ff600160a01b8204811692600160a81b8304821692600160b01b9004909116906001600160501b031685565b604051610261959493929190612d03565b34801561043957600080fd5b506102cf610448366004612a45565b61196a565b34801561045957600080fd5b5061028a610468366004612d48565b611a7c565b34801561047957600080fd5b506104a17f000000000000000000000000000000000000000000000000000000000000000081565b6040516001600160a01b039091168152602001610261565b61028a6104c7366004612a45565b611ac1565b3480156104d857600080fd5b506102cf600281565b3480156104ed57600080fd5b506105426104fc366004612a45565b6043602052600090815260409020546001600160a01b03811690600160a01b810463ffffffff1690600160c01b810466ffffffffffffff1690600160f81b900460ff1684565b604080516001600160a01b03909516855263ffffffff909316602085015266ffffffffffffff9091169183019190915260ff166060820152608001610261565b34801561058e57600080fd5b5061028a61059d366004612d84565b611e8a565b3480156105ae57600080fd5b5061028a6105bd366004612a45565b611ee5565b3480156105ce57600080fd5b5061028a6105dd366004612d9f565b61206f565b3480156105ee57600080fd5b5061028a6120e2565b34801561060357600080fd5b5061028a610612366004612a45565b612100565b34801561062357600080fd5b506102cf7f000000000000000000000000000000000000000000000000000000000000000081565b34801561065757600080fd5b506102cf610666366004612d48565b612332565b61028a610679366004612a45565b6123d4565b34801561068a57600080fd5b506102cf61020081565b3480156106a057600080fd5b506102cf7f000000000000000000000000000000000000000000000000000000000000000081565b3480156106d457600080fd5b506102cf602081565b3480156106e957600080fd5b506102cf6106f8366004612deb565b61250e565b34801561070957600080fd5b506102cf7f000000000000000000000000000000000000000000000000000000000000000081565b34801561073d57600080fd5b506002546104a19061010090046001600160a01b031681565b34801561076257600080fd5b506102cf60005481565b34801561077857600080fd5b506102cf61040081565b34801561078e57600080fd5b506103a66040518060400160405280600581526020017f312e302e3000000000000000000000000000000000000000000000000000000081525081565b6001600160501b038216600090815260436020526040902080546001600160a01b031633146108675760405162461bcd60e51b815260206004820152602360248201527f4f6e6c7920617574686f722063616e207472616e73666572206f776e6572736860448201527f69702e000000000000000000000000000000000000000000000000000000000060648201526084015b60405180910390fd5b805473ffffffffffffffffffffffffffffffffffffffff19166001600160a01b039290921691909117905550565b60008281526044602052604080822090517f1c3db16d0000000000000000000000000000000000000000000000000000000081526004810185905282907f00000000000000000000000000000000000000000000000000000000000000006001600160a01b031690631c3db16d90602401602060405180830381865afa158015610923573d6000803e3d6000fd5b505050506040513d601f19601f820116820180604052508101906109479190612e26565b600281111561095857610958612ccb565b90506000806000807f00000000000000000000000000000000000000000000000000000000000000006001600160a01b031663afe15cfb8a6040518263ffffffff1660e01b81526004016109ae91815260200190565b6040805180830381865afa1580156109ca573d6000803e3d6000fd5b505050506040513d601f19601f820116820180604052508101906109ee9190612e3f565b915091506000856002811115610a0657610a06612ccb565b896002811115610a1857610a18612ccb565b1415610aba57814210610a935760405162461bcd60e51b815260206004820152602e60248201527f46756e64696e67206d757374206265206d6164652077697468696e207468652060448201527f61707065616c20706572696f642e000000000000000000000000000000000000606482015260840161085e565b507f0000000000000000000000000000000000000000000000000000000000000000610b71565b6002610ac68484612e79565b610ad09190612e90565b610ada9084612eb2565b4210610b4e5760405162461bcd60e51b815260206004820152603960248201527f46756e64696e67206d757374206265206d6164652077697468696e207468652060448201527f66697273742068616c662061707065616c20706572696f642e00000000000000606482015260840161085e565b507f00000000000000000000000000000000000000000000000000000000000000005b86547f00000000000000000000000000000000000000000000000000000000000000006001600160a01b03169063f23f16e6908c90600390600160a81b900460ff1660408110610bc357610bc3612eca565b016040518363ffffffff1660e01b8152600401610be1929190612fbb565b602060405180830381865afa158015610bfe573d6000803e3d6000fd5b505050506040513d601f19601f82011682018060405250810190610c229190612e26565b9450610400610c318287612fdc565b610c3b9190612e90565b610c459086612eb2565b600288015490945089935060009250610c619150600190612e79565b90506000866002018281548110610c7a57610c7a612eca565b90600052602060002090600402019050806001016000846002811115610ca257610ca2612ccb565b6002811115610cb357610cb3612ccb565b815260208101919091526040016000205460ff1615610d3a5760405162461bcd60e51b815260206004820152602160248201527f41707065616c206665652068617320616c7265616479206265656e207061696460448201527f2e00000000000000000000000000000000000000000000000000000000000000606482015260840161085e565b600080826002016000866002811115610d5557610d55612ccb565b6002811115610d6657610d66612ccb565b8152602001908152602001600020549050858110610d875760009150610dab565b34610d928288612e79565b11610da657610da18187612e79565b610da8565b345b91505b50336001600160a01b0316838c7f2b4ef80a862edc5616a4e61c11f4a368f33323faca91fa7635d48b85c183e66a8d85604051610de9929190612ffb565b60405180910390a43360009081526020839052604081208291866002811115610e1457610e14612ccb565b6002811115610e2557610e25612ccb565b81526020019081526020016000206000828254610e429190612eb2565b9250508190555080826002016000866002811115610e6257610e62612ccb565b6002811115610e7357610e73612ccb565b81526020019081526020016000206000828254610e909190612eb2565b9250508190555084826002016000866002811115610eb057610eb0612ccb565b6002811115610ec157610ec1612ccb565b81526020019081526020016000205410610faf57816002016000856002811115610eed57610eed612ccb565b6002811115610efe57610efe612ccb565b815260200190815260200160002054826003016000828254610f209190612eb2565b90915550600190508281016000866002811115610f3f57610f3f612ccb565b6002811115610f5057610f50612ccb565b81526020810191909152604001600020805460ff1916911515919091179055896002811115610f8157610f81612ccb565b60405184908d907fb5681f036910f38d8c2fa06f2cbedc227ecf03d7c4a358ee9096197b15ff8fd090600090a45b60016000818152908301602052604090205460ff168015610fe257506002600090815260018301602052604090205460ff165b156110b5576002880180546001018155600090815260038301805488929061100b908490612e79565b909155505087547f00000000000000000000000000000000000000000000000000000000000000006001600160a01b0316906349912f889088908e90600390600160a81b900460ff166040811061106457611064612eca565b016040518463ffffffff1660e01b8152600401611082929190612fbb565b6000604051808303818588803b15801561109b57600080fd5b505af11580156110af573d6000803e3d6000fd5b50505050505b60006110c18234612e79565b11156110ed57336108fc6110d58334612e79565b6040518115909202916000818181858888f150505050505b81600101600085600281111561110557611105612ccb565b600281111561111657611116612ccb565b815260208101919091526040016000205460ff169b9a5050505050505050505050565b6000805b604360008461114b81613016565b6001600160501b03919091168252602082019290925260400160002080549194509150600160c01b900466ffffffffffffff1661113d5761118d60018461303d565b6001600160501b03169392505050565b600081815260446020526040808220805490917f00000000000000000000000000000000000000000000000000000000000000006001600160a01b03169163f23f16e6918691600391600160a81b90910460ff1690811061120057611200612eca565b016040518363ffffffff1660e01b815260040161121e929190612fbb565b602060405180830381865afa15801561123b573d6000803e3d6000fd5b505050506040513d601f19601f8201168201806040525081019061125f9190612e26565b9392505050565b60025461010090046001600160a01b0316331461128257600080fd5b80600054116112d35760405162461bcd60e51b815260206004820152601960248201527f596f752063616e277420696e6372656173652074617865732e00000000000000604482015260640161085e565b600055565b60025460ff908116908316106113305760405162461bcd60e51b815260206004820152601c60248201527f546869732063617465676f727920646f6573206e6f7420657869737400000000604482015260640161085e565b60005b604360008361134181613016565b6001600160501b03919091168252602082019290925260400160002080549193509150600160c01b900466ffffffffffffff166113335780547fff00000000000000ffffffff000000000000000000000000000000000000000016337fff00000000000000ffffffffffffffffffffffffffffffffffffffffffffffff1617600160c01b3460201c66ffffffffffffff9081168202929092177effffffffffffffffffffffffffffffffffffffffffffffffffffffffffffff16600160f81b60ff87160217808455041661147d5760405162461bcd60e51b815260206004820152603960248201527f596f752063616e277420696e697469616c697a6520616e2061727469636c652060448201527f776974686f75742070757474696e67206120626f756e74792e00000000000000606482015260840161085e565b600061148a60018461303d565b6001600160501b031690507f4f9a2b734331c583faf3f19d1feb5f08b742e016a56fb61379950beaf3e22341868686846040516114ca949392919061308e565b60405180910390a1815460408051838152600160c01b909204602090811b6affffffffffffff0000000016908301527fdf5fc410d3381cc7f0a7fe3af72f4e3cf53ef5787f20554af69035a950e1b2e3910160405180910390a1505050505050565b336001600160a01b037f0000000000000000000000000000000000000000000000000000000000000000161461156157600080fd5b600082815260446020526040812060028101805491929161158490600190612e79565b8154811061159457611594612eca565b600091825260208083206001808552600493909302019182019052604082205490925060ff16156115c7575060016115e5565b60016000818152908301602052604090205460ff16156115e5575060025b6000808260028111156115fa576115fa612ccb565b14156116175784600281111561161257611612612ccb565b611619565b815b8454909150819085907fffffffffffffffffffffff00ffffffffffffffffffffffffffffffffffffffff16600160a01b83600281111561165b5761165b612ccb565b021790555060018401546001600160501b03166000818152604360205260409020600283600281111561169057611690612ccb565b14156117475780547fff00000000000000ffffffffffffffffffffffffffffffffffffffffffffffff811682556040516001600160501b0384168152600160c01b909104602090811b6affffffffffffff0000000016917f8271992f9b3a3f30dc2a464982dc4a136e7357403462443a171a0fb0c6ccc265910160405180910390a16000898152604460205260408082205490516001600160a01b039091169183156108fc02918491818181858888f15050505050505b805463ffffffff60a01b1916815585547fffffffffffffffffff00ffffffffffffffffffffffffffffffffffffffffffff16600160b01b178655604051889033907f394027a5fa6e098a1191094d1719d6929b9abc535fcc0c8f448d6a4e75622276906117b7908b815260200190565b60405180910390a35050505050505050565b6002546117da9060ff1660016130b8565b60ff166118295760405162461bcd60e51b815260206004820181905260248201527f4e6f207370616365206c65667420666f722061206e65772063617465676f7279604482015260640161085e565b60025460405160ff909116907f61606860eb6c87306811e2695215385101daab53bd6ab4e9f9049aead9363c7d90611862908590612cb8565b60405180910390a2600254819060039060ff166040811061188557611885612eca565b019080519060200190611899929190612914565b506002805460ff169060006118ad836130dd565b91906101000a81548160ff021916908360ff160217905550505050565b600381604081106118da57600080fd5b0180549091506118e990612ee0565b80601f016020809104026020016040519081016040528092919081815260200182805461191590612ee0565b80156119625780601f1061193757610100808354040283529160200191611962565b820191906000526020600020905b81548152906001019060200180831161194557829003601f168201915b505050505081565b6001600160501b0381166000908152604360205260408082208054909183917f00000000000000000000000000000000000000000000000000000000000000006001600160a01b03169163f7434ea991600391600160f81b90910460ff169081106119d7576119d7612eca565b016040518263ffffffff1660e01b81526004016119f491906130fd565b602060405180830381865afa158015611a11573d6000803e3d6000fd5b505050506040513d601f19601f82011682018060405250810190611a359190612e26565b600080548454929350909161040091611a5d91600160c01b900466ffffffffffffff16612fdc565b611a679190612e90565b9050611a738183612eb2565b95945050505050565b6000838152604460205260408120600281015490915b81811015611ab957611aa68686838761250e565b5080611ab181613110565b915050611a92565b505050505050565b6001600160501b03811660009081526043602052604090208054600160a01b900463ffffffff9081161415611b385760405162461bcd60e51b815260206004820152601e60248201527f546865726520697320616e206f6e676f696e67206368616c6c656e67652e0000604482015260640161085e565b805463ffffffff60a01b191677ffffffff0000000000000000000000000000000000000000178155611b698261196a565b341015611bb85760405162461bcd60e51b815260206004820181905260248201527f496e73756666696369656e742066756e647320746f206368616c6c656e67652e604482015260640161085e565b600054815461040091611bda91600160c01b900466ffffffffffffff16612fdc565b611be49190612e90565b60016000828254611bf59190612eb2565b90915550508054600160c01b900466ffffffffffffff16611c585760405162461bcd60e51b815260206004820152601560248201527f4e6f7468696e6720746f206368616c6c656e67652e0000000000000000000000604482015260640161085e565b80546000907f00000000000000000000000000000000000000000000000000000000000000006001600160a01b03169063c13517e1903490600290600390600160f81b900460ff1660408110611cb057611cb0612eca565b016040518463ffffffff1660e01b8152600401611cce929190612fbb565b60206040518083038185885af1158015611cec573d6000803e3d6000fd5b50505050506040513d601f19601f82011682018060405250810190611d119190612e26565b60008181526044602090815260409182902080543373ffffffffffffffffffffffffffffffffffffffff1982168117835560028301805460019081019091558301805469ffffffffffffffffffff19166001600160501b038b1617905587547fffffffffffffffffffff00ff00000000000000000000000000000000000000009092167fffffffffffffffffffff00ffffffffffffffffffffffffffffffffffffffffff90911617600160f81b9182900460ff908116600160a81b029190911790925586548451919004909116815290810183905291925082916001600160a01b037f000000000000000000000000000000000000000000000000000000000000000016917f74baab670a4015ab2f1b467c5252a96141a2573f2908e58a92081e80d3cfde3d910160405180910390a360408051338152602081018390526001600160501b038516917f1e5338a1fb672aa84963dc9f9e4afd009b4ed726debb09224bf4d02a6c68b4e4910160405180910390a2505050565b60025461010090046001600160a01b03163314611ea657600080fd5b600280546001600160a01b03909216610100027fffffffffffffffffffffff0000000000000000000000000000000000000000ff909216919091179055565b6001600160501b038116600090815260436020526040902080546001600160a01b03163314611f625760405162461bcd60e51b8152602060048201526024808201527f4f6e6c7920617574686f722063616e20776974686472617720616e206172746960448201526331b6329760e11b606482015260840161085e565b8054600160a01b900463ffffffff1615611fe45760405162461bcd60e51b815260206004820152603560248201527f5769746864726177616c20616c726561647920696e69746961746564206f722060448201527f74686572652069732061206368616c6c656e67652e0000000000000000000000606482015260840161085e565b61200e7f000000000000000000000000000000000000000000000000000000000000000042612eb2565b815463ffffffff91909116600160a01b0263ffffffff60a01b199091161781556040516001600160501b03831681527f416c1ad2b96c356f3bbd35431f86cce449ddbb4f8c3755ea9d2776b04c2e9c8f906020015b60405180910390a15050565b336001600160a01b0316837f00000000000000000000000000000000000000000000000000000000000000006001600160a01b03167fdccf2f8b2cc26eafcd61905cba744cff4b81d14740725f6376390dc6298a6a3c85856040516120d592919061312b565b60405180910390a4505050565b60025461010090046001600160a01b031633146120fe57600080fd5b565b6001600160501b038116600090815260436020526040902080546001600160a01b0316331461217d5760405162461bcd60e51b8152602060048201526024808201527f4f6e6c7920617574686f722063616e20776974686472617720616e206172746960448201526331b6329760e11b606482015260840161085e565b8054600160a01b900463ffffffff166121fe5760405162461bcd60e51b815260206004820152602660248201527f596f75206e65656420746f20696e697469617465207769746864726177616c2060448201527f66697273742e0000000000000000000000000000000000000000000000000000606482015260840161085e565b805442600160a01b90910463ffffffff1611156122835760405162461bcd60e51b815260206004820152603f60248201527f596f75206e65656420746f207761697420666f722074696d656c6f636b206f7260448201527f207761697420756e74696c20746865206368616c6c656e676520656e64732e00606482015260840161085e565b80547fff0000000000000000000000ffffffffffffffffffffffffffffffffffffffff81168255604051600160c01b90910460201b6affffffffffffff00000000169033906108fc8315029083906000818181858888f193505050501580156122f0573d6000803e3d6000fd5b506040516001600160501b03841681527f70b41d8cca762ceec66d93f536dbb31f5cabbf1901f862508b9438de54fce4eb9060200160405180910390a1505050565b60008381526044602052604081208054600160b01b900460ff1661235a57600091505061125f565b60028101548154600160a01b900460ff1660005b828110156123c957600084600201828154811061238d5761238d612eca565b906000526020600020906004020190506123a981898986612687565b6123b39087612eb2565b95505080806123c190613110565b91505061236e565b505050509392505050565b6001600160501b038116600090815260436020526040902080546001600160a01b0316331461246b5760405162461bcd60e51b815260206004820152602e60248201527f4f6e6c7920617574686f722063616e20696e63726561736520626f756e74792060448201527f6f6620616e2061727469636c652e000000000000000000000000000000000000606482015260840161085e565b80543460201c908290601890612492908490600160c01b900466ffffffffffffff1661313f565b82546101009290920a66ffffffffffffff818102199093169190921691909102179055508054604080516001600160501b0385168152600160c01b909204602090811b6affffffffffffff0000000016908301527fdf5fc410d3381cc7f0a7fe3af72f4e3cf53ef5787f20554af69035a950e1b2e39101612063565b60008481526044602052604081208054600160b01b900460ff166125745760405162461bcd60e51b815260206004820152601760248201527f5468657265206973206e6f2072756c696e67207965742e000000000000000000604482015260640161085e565b600081600201858154811061258b5761258b612eca565b906000526020600020906004020190506125b88187868560000160149054906101000a900460ff16612687565b9250821561267d576001600160a01b0386166000908152602082905260408120818660028111156125eb576125eb612ccb565b60028111156125fc576125fc612ccb565b815260200190815260200160002081905550856001600160a01b03166108fc849081150290604051600060405180830381858888f1935050505050856001600160a01b031685887fff2b7c936d6023fea901b3455cefc23b124c1ca5997dc5b48c461fd20984289d8787604051612674929190612ffb565b60405180910390a45b5050949350505050565b60008260018601828260028111156126a1576126a1612ccb565b60028111156126b2576126b2612ccb565b815260208101919091526040016000205460ff1661271c576001600160a01b0385166000908152602087905260408120908260028111156126f5576126f5612ccb565b600281111561270657612706612ccb565b815260200190815260200160002054915061290b565b82600281111561272e5761272e612ccb565b84600281111561274057612740612ccb565b141561283f57600086600201600083600281111561276057612760612ccb565b600281111561277157612771612ccb565b8152602001908152602001600020541161278c576000612838565b8560020160008260028111156127a4576127a4612ccb565b60028111156127b5576127b5612ccb565b8152602001908152602001600020548660030154876000016000886001600160a01b03166001600160a01b03168152602001908152602001600020600084600281111561280457612804612ccb565b600281111561281557612815612ccb565b81526020019081526020016000205461282e9190612fdc565b6128389190612e90565b915061290b565b85600101600084600281111561285757612857612ccb565b600281111561286857612868612ccb565b815260208101919091526040016000205460ff1661290b5760026000818152908701602052604080822054600183529120546128a49190612eb2565b60038701546001600160a01b0387166000908152602089905260408120908460028111156128d4576128d4612ccb565b60028111156128e5576128e5612ccb565b8152602001908152602001600020546128fe9190612fdc565b6129089190612e90565b91505b50949350505050565b82805461292090612ee0565b90600052602060002090601f0160209004810192826129425760008555612988565b82601f1061295b57805160ff1916838001178555612988565b82800160010185558215612988579182015b8281111561298857825182559160200191906001019061296d565b50612994929150612998565b5090565b5b808211156129945760008155600101612999565b80356001600160501b03811681146129c457600080fd5b919050565b80356001600160a01b03811681146129c457600080fd5b600080604083850312156129f357600080fd5b6129fc836129ad565b9150612a0a602084016129c9565b90509250929050565b8035600381106129c457600080fd5b60008060408385031215612a3557600080fd5b82359150612a0a60208401612a13565b600060208284031215612a5757600080fd5b61125f826129ad565b600060208284031215612a7257600080fd5b5035919050565b60008083601f840112612a8b57600080fd5b50813567ffffffffffffffff811115612aa357600080fd5b602083019150836020828501011115612abb57600080fd5b9250929050565b60008060008060608587031215612ad857600080fd5b843567ffffffffffffffff811115612aef57600080fd5b612afb87828801612a79565b909550935050602085013560ff81168114612b1557600080fd5b9150612b23604086016129ad565b905092959194509250565b60008060408385031215612b4157600080fd5b50508035926020909101359150565b634e487b7160e01b600052604160045260246000fd5b600067ffffffffffffffff80841115612b8157612b81612b50565b604051601f8501601f19908116603f01168101908282118183101715612ba957612ba9612b50565b81604052809350858152868686011115612bc257600080fd5b858560208301376000602087830101525050509392505050565b60008060408385031215612bef57600080fd5b823567ffffffffffffffff80821115612c0757600080fd5b818501915085601f830112612c1b57600080fd5b612c2a86833560208501612b66565b93506020850135915080821115612c4057600080fd5b508301601f81018513612c5257600080fd5b612c6185823560208401612b66565b9150509250929050565b6000815180845260005b81811015612c9157602081850181015186830182015201612c75565b81811115612ca3576000602083870101525b50601f01601f19169290920160200192915050565b60208152600061125f6020830184612c6b565b634e487b7160e01b600052602160045260246000fd5b60038110612cff57634e487b7160e01b600052602160045260246000fd5b9052565b6001600160a01b038616815260a08101612d206020830187612ce1565b60ff94909416604082015291151560608301526001600160501b031660809091015292915050565b600080600060608486031215612d5d57600080fd5b83359250612d6d602085016129c9565b9150612d7b60408501612a13565b90509250925092565b600060208284031215612d9657600080fd5b61125f826129c9565b600080600060408486031215612db457600080fd5b83359250602084013567ffffffffffffffff811115612dd257600080fd5b612dde86828701612a79565b9497909650939450505050565b60008060008060808587031215612e0157600080fd5b84359350612e11602086016129c9565b925060408501359150612b2360608601612a13565b600060208284031215612e3857600080fd5b5051919050565b60008060408385031215612e5257600080fd5b505080516020909101519092909150565b634e487b7160e01b600052601160045260246000fd5b600082821015612e8b57612e8b612e63565b500390565b600082612ead57634e487b7160e01b600052601260045260246000fd5b500490565b60008219821115612ec557612ec5612e63565b500190565b634e487b7160e01b600052603260045260246000fd5b600181811c90821680612ef457607f821691505b60208210811415612f1557634e487b7160e01b600052602260045260246000fd5b50919050565b8054600090600181811c9080831680612f3557607f831692505b6020808410821415612f5757634e487b7160e01b600052602260045260246000fd5b83885260208801828015612f725760018114612f8357612fae565b60ff19871682528282019750612fae565b60008981526020902060005b87811015612fa857815484820152908601908401612f8f565b83019850505b5050505050505092915050565b828152604060208201526000612fd46040830184612f1b565b949350505050565b6000816000190483118215151615612ff657612ff6612e63565b500290565b604081016130098285612ce1565b8260208301529392505050565b60006001600160501b038083168181141561303357613033612e63565b6001019392505050565b60006001600160501b038381169083168181101561305d5761305d612e63565b039392505050565b81835281816020850137506000828201602090810191909152601f909101601f19169091010190565b6060815260006130a2606083018688613065565b60ff949094166020830152506040015292915050565b600060ff821660ff84168060ff038211156130d5576130d5612e63565b019392505050565b600060ff821660ff8114156130f4576130f4612e63565b60010192915050565b60208152600061125f6020830184612f1b565b600060001982141561312457613124612e63565b5060010190565b602081526000612fd4602083018486613065565b600066ffffffffffffff80831681851680830382111561316157613161612e63565b0194935050505056fea26469706673582212204843302b1beeb394d24ac28f0dd04211dd24c8e02328b07ec270c9dc7aedeeea64736f6c634300080a0033",
  "devdoc": {
    "details": "Articles are not addressed with their identifiers. That enables us to reuse same storage address for another article later. Arbitrator is fixed, but subcourts, jury size and metaevidence are not. We prevent articles to get withdrawn immediately. This is to prevent submitter to escape punishment in case someone discovers an argument to debunk the article. Bounty amounts are compressed with a lossy compression method to save on storage cost.",
    "kind": "dev",
    "methods": {
      "challenge(uint80)": {
        "details": "withdrawalPermittedAt has some special values: 0 indicates withdrawal possible but process not started yet, max value indicates there is a challenge and during challenge it's forbidden to start another challenge.",
        "params": {
          "_articleStorageAddress": "The address of the article in the storage."
        }
      },
      "fundAppeal(uint256,uint8)": {
        "params": {
          "_disputeID": "The dispute ID as in the arbitrator.",
          "_supportedRuling": "The supported ruling in this funding."
        }
      },
      "increaseBounty(uint80)": {
        "params": {
          "_articleStorageAddress": "The address of the article in the storage."
        }
      },
      "initializeArticle(string,uint8,uint80)": {
        "params": {
          "_articleID": "Unique identifier of an article. Usually an IPFS content identifier.",
          "_category": "Article category. This changes which metaevidence will be used.",
          "_searchPointer": "Starting point of the search. Find a vacant storage slot before calling this function to minimize gas cost."
        }
      },
      "initiateWithdrawal(uint80)": {
        "details": "withdrawalPermittedAt has some special values: 0 indicates withdrawal possible but process not started yet, max value indicates there is a challenge and during challenge it's forbidden to start withdrawal process.",
        "params": {
          "_articleStorageAddress": "The address of the article in the storage."
        }
      },
      "newCategory(string,bytes)": {
        "params": {
          "_arbitratorExtraData": "Extra data of Kleros arbitrator, signaling subcourt and jury size selection.",
          "_metaevidenceIpfsUri": "IPFS content identifier for metaevidence."
        }
      },
      "rule(uint256,uint256)": {
        "params": {
          "_disputeID": "The dispute ID as in the arbitrator.",
          "_ruling": "The ruling that arbitrator gave."
        }
      },
      "submitEvidence(uint256,string)": {
        "params": {
          "_disputeID": "Dispute ID as in arbitrator.",
          "_evidenceURI": "IPFS content identifier of the evidence."
        }
      },
      "withdraw(uint80)": {
        "details": "withdrawalPermittedAt has some special values: 0 indicates withdrawal possible but process not started yet, max value indicates there is a challenge and during challenge it's forbidden to start withdrawal process.",
        "params": {
          "_articleStorageAddress": "The address of the article in the storage."
        }
      },
      "withdrawFeesAndRewards(uint256,address,uint256,uint8)": {
        "params": {
          "_contributor": "The address whose rewards to withdraw.",
          "_disputeID": "ID of the dispute as in arbitrator.",
          "_roundNumber": "The number of the round caller wants to withdraw from.",
          "_ruling": "Ruling that received contribution from contributor."
        },
        "returns": {
          "amount": "The amount available to withdraw for given question, contributor, round number and ruling option."
        }
      },
      "withdrawFeesAndRewardsForAllRounds(uint256,address,uint8)": {
        "params": {
          "_contributor": "The address whose rewards to withdraw.",
          "_disputeID": "ID of the dispute as in arbitrator.",
          "_ruling": "Ruling that received contributions from contributor."
        }
      }
    },
    "title": "The Trust Post",
    "version": 1
  },
  "userdoc": {
    "kind": "user",
    "methods": {
      "appealFee(uint256)": {
        "notice": "Returns the total amount needs to be paid to appeal a dispute."
      },
      "buyAndBurn()": {
        "notice": "TODO. This function should use treasuryBalance to buy a token and send it to 0x0."
      },
      "challenge(uint80)": {
        "notice": "Challenges the article at the given storage address. Follow events to find out which article resides in which slot."
      },
      "challengeFee(uint80)": {
        "notice": "Returns the total amount needs to be paid to challenge an article."
      },
      "changeAdmin(address)": {
        "notice": "Lets you to transfer ownership of an article. This is useful when you want to change owner account without withdrawing and resubmitting."
      },
      "findVacantStorageSlot(uint80)": {
        "notice": "Helper function to find a vacant slot for article. Use this function before calling initialize to minimize your gas cost."
      },
      "fundAppeal(uint256,uint8)": {
        "notice": "Lets you fund a crowdfunded appeal. In case of funding is incomplete, you will be refunded. Withdrawal will be carried out using withdrawFeesAndRewards function."
      },
      "getTotalWithdrawableAmount(uint256,address,uint8)": {
        "notice": "Returns the sum of withdrawable amount. This function has O(m) time complexity where m is number of rounds. It is safe to assume m is always less than 10 as appeal cost growth order is O(m^2)."
      },
      "increaseBounty(uint80)": {
        "notice": "Lets you increase a bounty of a live article."
      },
      "initializeArticle(string,uint8,uint80)": {
        "notice": "Initializes an article."
      },
      "initiateWithdrawal(uint80)": {
        "notice": "Lets a author to start withdrawal process."
      },
      "newCategory(string,bytes)": {
        "notice": "Initializes a category."
      },
      "rule(uint256,uint256)": {
        "notice": "For arbitrator to call, to execute it's ruling. In case arbitrator rules in favor of challenger, challenger wins the bounty. In any case, withdrawalPermittedAt will be reset."
      },
      "submitEvidence(uint256,string)": {
        "notice": "Lets you submit evidence as defined in evidence (ERC-1497) standard."
      },
      "transferOwnership(uint80,address)": {
        "notice": "Lets you to transfer ownership of an article. This is useful when you want to change owner account without withdrawing and resubmitting."
      },
      "updateChallengeTaxRate(uint256)": {
        "notice": "Lets you to transfer ownership of an article. This is useful when you want to change owner account without withdrawing and resubmitting."
      },
      "withdraw(uint80)": {
        "notice": "Executes a withdrawal. Can only be executed by author."
      },
      "withdrawFeesAndRewards(uint256,address,uint256,uint8)": {
        "notice": "Allows to withdraw any reimbursable fees or rewards after the dispute gets solved."
      },
      "withdrawFeesAndRewardsForAllRounds(uint256,address,uint8)": {
        "notice": "Allows to withdraw any rewards or reimbursable fees after the dispute gets resolved. For all rounds at once. This function has O(m) time complexity where m is number of rounds. It is safe to assume m is always less than 10 as appeal cost growth order is O(2^m)."
      }
    },
    "notice": "Smart contract for a type of curation, where submitted items are on hold until they are withdrawn and the amount of security deposits are determined by submitters.",
    "version": 1
  },
  "storageLayout": {
    "storage": [
      {
        "astId": 534,
        "contract": "contracts/TruthPost.sol:TruthPost",
        "label": "challengeTaxRate",
        "offset": 0,
        "slot": "0",
        "type": "t_uint256"
      },
      {
        "astId": 536,
        "contract": "contracts/TruthPost.sol:TruthPost",
        "label": "treasuryBalance",
        "offset": 0,
        "slot": "1",
        "type": "t_uint256"
      },
      {
        "astId": 539,
        "contract": "contracts/TruthPost.sol:TruthPost",
        "label": "categoryCounter",
        "offset": 0,
        "slot": "2",
        "type": "t_uint8"
      },
      {
        "astId": 546,
        "contract": "contracts/TruthPost.sol:TruthPost",
        "label": "admin",
        "offset": 1,
        "slot": "2",
        "type": "t_address_payable"
      },
      {
        "astId": 606,
        "contract": "contracts/TruthPost.sol:TruthPost",
        "label": "categoryToArbitratorExtraData",
        "offset": 0,
        "slot": "3",
        "type": "t_array(t_bytes_storage)64_storage"
      },
      {
        "astId": 611,
        "contract": "contracts/TruthPost.sol:TruthPost",
        "label": "articleStorage",
        "offset": 0,
        "slot": "67",
        "type": "t_mapping(t_uint80,t_struct(Article)602_storage)"
      },
      {
        "astId": 616,
        "contract": "contracts/TruthPost.sol:TruthPost",
        "label": "disputes",
        "offset": 0,
        "slot": "68",
        "type": "t_mapping(t_uint256,t_struct(DisputeData)573_storage)"
      }
    ],
    "types": {
      "t_address": {
        "encoding": "inplace",
        "label": "address",
        "numberOfBytes": "20"
      },
      "t_address_payable": {
        "encoding": "inplace",
        "label": "address payable",
        "numberOfBytes": "20"
      },
      "t_array(t_bytes_storage)64_storage": {
        "base": "t_bytes_storage",
        "encoding": "inplace",
        "label": "bytes[64]",
        "numberOfBytes": "2048"
      },
      "t_array(t_struct(Round)593_storage)dyn_storage": {
        "base": "t_struct(Round)593_storage",
        "encoding": "dynamic_array",
        "label": "struct TruthPost.Round[]",
        "numberOfBytes": "32"
      },
      "t_bool": {
        "encoding": "inplace",
        "label": "bool",
        "numberOfBytes": "1"
      },
      "t_bytes_storage": {
        "encoding": "bytes",
        "label": "bytes",
        "numberOfBytes": "32"
      },
      "t_enum(RulingOptions)295": {
        "encoding": "inplace",
        "label": "enum ITruthPost.RulingOptions",
        "numberOfBytes": "1"
      },
      "t_mapping(t_address,t_mapping(t_enum(RulingOptions)295,t_uint256))": {
        "encoding": "mapping",
        "key": "t_address",
        "label": "mapping(address => mapping(enum ITruthPost.RulingOptions => uint256))",
        "numberOfBytes": "32",
        "value": "t_mapping(t_enum(RulingOptions)295,t_uint256)"
      },
      "t_mapping(t_enum(RulingOptions)295,t_bool)": {
        "encoding": "mapping",
        "key": "t_enum(RulingOptions)295",
        "label": "mapping(enum ITruthPost.RulingOptions => bool)",
        "numberOfBytes": "32",
        "value": "t_bool"
      },
      "t_mapping(t_enum(RulingOptions)295,t_uint256)": {
        "encoding": "mapping",
        "key": "t_enum(RulingOptions)295",
        "label": "mapping(enum ITruthPost.RulingOptions => uint256)",
        "numberOfBytes": "32",
        "value": "t_uint256"
      },
      "t_mapping(t_uint256,t_struct(DisputeData)573_storage)": {
        "encoding": "mapping",
        "key": "t_uint256",
        "label": "mapping(uint256 => struct TruthPost.DisputeData)",
        "numberOfBytes": "32",
        "value": "t_struct(DisputeData)573_storage"
      },
      "t_mapping(t_uint80,t_struct(Article)602_storage)": {
        "encoding": "mapping",
        "key": "t_uint80",
        "label": "mapping(uint80 => struct TruthPost.Article)",
        "numberOfBytes": "32",
        "value": "t_struct(Article)602_storage"
      },
      "t_struct(Article)602_storage": {
        "encoding": "inplace",
        "label": "struct TruthPost.Article",
        "members": [
          {
            "astId": 595,
            "contract": "contracts/TruthPost.sol:TruthPost",
            "label": "owner",
            "offset": 0,
            "slot": "0",
            "type": "t_address_payable"
          },
          {
            "astId": 597,
            "contract": "contracts/TruthPost.sol:TruthPost",
            "label": "withdrawalPermittedAt",
            "offset": 20,
            "slot": "0",
            "type": "t_uint32"
          },
          {
            "astId": 599,
            "contract": "contracts/TruthPost.sol:TruthPost",
            "label": "bountyAmount",
            "offset": 24,
            "slot": "0",
            "type": "t_uint56"
          },
          {
            "astId": 601,
            "contract": "contracts/TruthPost.sol:TruthPost",
            "label": "category",
            "offset": 31,
            "slot": "0",
            "type": "t_uint8"
          }
        ],
        "numberOfBytes": "32"
      },
      "t_struct(DisputeData)573_storage": {
        "encoding": "inplace",
        "label": "struct TruthPost.DisputeData",
        "members": [
          {
            "astId": 559,
            "contract": "contracts/TruthPost.sol:TruthPost",
            "label": "challenger",
            "offset": 0,
            "slot": "0",
            "type": "t_address_payable"
          },
          {
            "astId": 562,
            "contract": "contracts/TruthPost.sol:TruthPost",
            "label": "outcome",
            "offset": 20,
            "slot": "0",
            "type": "t_enum(RulingOptions)295"
          },
          {
            "astId": 564,
            "contract": "contracts/TruthPost.sol:TruthPost",
            "label": "articleCategory",
            "offset": 21,
            "slot": "0",
            "type": "t_uint8"
          },
          {
            "astId": 566,
            "contract": "contracts/TruthPost.sol:TruthPost",
            "label": "resolved",
            "offset": 22,
            "slot": "0",
            "type": "t_bool"
          },
          {
            "astId": 568,
            "contract": "contracts/TruthPost.sol:TruthPost",
            "label": "articleStorageAddress",
            "offset": 0,
            "slot": "1",
            "type": "t_uint80"
          },
          {
            "astId": 572,
            "contract": "contracts/TruthPost.sol:TruthPost",
            "label": "rounds",
            "offset": 0,
            "slot": "2",
            "type": "t_array(t_struct(Round)593_storage)dyn_storage"
          }
        ],
        "numberOfBytes": "96"
      },
      "t_struct(Round)593_storage": {
        "encoding": "inplace",
        "label": "struct TruthPost.Round",
        "members": [
          {
            "astId": 580,
            "contract": "contracts/TruthPost.sol:TruthPost",
            "label": "contributions",
            "offset": 0,
            "slot": "0",
            "type": "t_mapping(t_address,t_mapping(t_enum(RulingOptions)295,t_uint256))"
          },
          {
            "astId": 585,
            "contract": "contracts/TruthPost.sol:TruthPost",
            "label": "hasPaid",
            "offset": 0,
            "slot": "1",
            "type": "t_mapping(t_enum(RulingOptions)295,t_bool)"
          },
          {
            "astId": 590,
            "contract": "contracts/TruthPost.sol:TruthPost",
            "label": "totalPerRuling",
            "offset": 0,
            "slot": "2",
            "type": "t_mapping(t_enum(RulingOptions)295,t_uint256)"
          },
          {
            "astId": 592,
            "contract": "contracts/TruthPost.sol:TruthPost",
            "label": "totalClaimableAfterExpenses",
            "offset": 0,
            "slot": "3",
            "type": "t_uint256"
          }
        ],
        "numberOfBytes": "128"
      },
      "t_uint256": {
        "encoding": "inplace",
        "label": "uint256",
        "numberOfBytes": "32"
      },
      "t_uint32": {
        "encoding": "inplace",
        "label": "uint32",
        "numberOfBytes": "4"
      },
      "t_uint56": {
        "encoding": "inplace",
        "label": "uint56",
        "numberOfBytes": "7"
      },
      "t_uint8": {
        "encoding": "inplace",
        "label": "uint8",
        "numberOfBytes": "1"
      },
      "t_uint80": {
        "encoding": "inplace",
        "label": "uint80",
        "numberOfBytes": "10"
      }
    }
  }
}